:10140000008000207D160000D1150000D5150000D9
:10141000D9150000DD150000E115000031160000AF
:1014200031160000311600003116000031160000A0
:10143000311600003116000031160000C3150000FF
:101440003116000031160000311600003116000080
:101450003116000031160000B5150000B715000068
:10146000B9150000BB150000BD15000033160000C3
:101470003516000037160000391600003B16000034
:101480003D1600003F160000311600003116000026
:10149000311600003116000031160000BF150000A3
:1014A000531600005516000057160000591600008C
:1014B0005B1600005D1600005F160000311600008C
:1014C0003116000031160000311600003116000000
:1014D000311600006F160000711600007316000030
:1014E000C11500003116000031160000671600001B
:1014F000691600006B1600006D1600004116000012
:10150000311600003116000061160000311600008F
:1015100075160000771600003116000065160000F1
:10152000431600004516000047160000491600004B
:101530004B16000031160000311600003116000075
:10154000311600003116000031160000311600007F
:101550004D1600004F1600005116000079160000CD
:10156000311600003116000031160000311600005F
:10157000311600003116000031160000311600004F
:101580003116000040F26053C2F200031A780AB923
:1015900001201870704700BF40F26050C2F2000096
:1015A00008B503682BB140F20003C0F2000303B199
:1015B000984708BD7047704770477047704770473D
:1015C00070477047704700000000000000000000F6
:1015D000012007E0022005E0032003E0042001E0F1
:1015E0000520FFE70D4A0121116072B60C4A002167
:1015F0001160074902B4084902B486B005498E4615
:101600007047C046C046C046C046C046C046C046F9
:1016100000000061F9FFFFFFC515000014ED00E0B8
:1016200010E000E0C046C046C046C046C046C046C6
:10163000FEE77047704770477047704770477047C4
:1016400070477047704770477047704770477047E2
:1016500070477047704770477047704770477047D2
:1016600070477047704770477047704770477047C2
:1016700070477047704770477047000001498D46BA
:1016800001490847008000208D16000008B50020A1
:101690000021002200F0B6F8034B002B02D00020FE
:1016A000AFF30080FEE7C0460000000010B50F4B0E
:1016B0001A68002A01D10E4A1A600C4A0D491368B3
:1016C000C91A814204DB0A4C41421C1B8C4206DAD7
:1016D00000F0D6F80C2303600120404202E0181805
:1016E0001060002010BC02BC0847C04670050020F6
:1016F0001006002000800020704700B5FEE70000C3
:10170000014B03607047C0469027000010B5041CD1
:10171000FFF7F6FF034B0833201C236010BC02BC0C
:101720000847C046702700007047000008B5054B09
:101730000548196829222823FFF7E8FF08BC01BCE7
:101740000047C04604000020740500207047704721
:101750007047021C00235232137001321370313073
:10176000233A137003707047014B03607047C04603
:10177000A8270000014B03607047C046A82700005F
:101780000020704738B5041C1D1CFFF7EDFF054B0A
:1017900008332360231C54331D70201C38BC02BC4A
:1017A0000847C046B02700007047000010B5054B41
:1017B0000833041C0360FFF7DDFF201C10BC02BCD3
:1017C0000847C046B027000010B5074C1923201C5D
:1017D00014211322FFF7D6FF201C0449044A00F00D
:1017E0003FF810BC01BC004780050020AD17000089
:1017F00000000020024BA5221A60DD221A6070470B
:101800003000034010B5FFF7F5FF80231B0214E002
:10181000C046013A002AFBD180220C49D2000A605E
:101820001A1C01E0C046013A002AFBD18022084977
:10183000D2000A60013C2406240E002C01D01A1CA0
:10184000E8E7A02292025340F4E7C046E4A1024038
:10185000E8A1024008B5FFF74FFF08BC01BC0047F4
:1018600003460846194600F003B800BF704700BFA2
:101870008C46134601466246022000F001BB00BFC1
:1018800040F25803C2F200031868704740F2580350
:101890000146C2F20003186800F0BABB40F25803D8
:1018A0000146C2F20003186800F000B82DE9F04FBD
:1018B00001F10B04162C83B006462FD80023102408
:1018C0008C422CBF194643F00101002930D130462B
:1018D00000F0BEFAB4F5FC7F2ED24FEAD40E40F2EF
:1018E0004C15C2F2000505EBCE02D368934200F01E
:1018F00006825A6803F10805D968304622F0030CC5
:101900009A6863445C688A6044F00104D1605C605A
:1019100000F0A0FA284603B0BDE8F08F24F00704D9
:10192000E30F8C422CBF194643F001010029CED0B1
:101930000C2300253360EDE75FEA542E04BF4FEA25
:10194000D40E4FEACE0040F0908040F24C15C2F227
:1019500000052818C368984206D10DE0002A80F2DD
:101960006F81DB68984207D0596821F003010A1B98
:101970000F2AF3DD0EF1FF3E0EF1010E40F24C177F
:10198000C2F2000707F108018B68994208BF7A6824
:1019900026D05A6822F0030CC4EB0C020F2A00F385
:1019A0009481002AC960896080F29980BCF5007F2B
:1019B00080F065814FEADC0C4FF0010A7A6807EB92
:1019C000CC004FEAAC0C0AFA0CFCD860D0F80880C6
:1019D0004CEA02027A60C3F80880C8F80C308360D1
:1019E0004FF0010C4FEAAE030CFA03FC944500F2F1
:1019F000828012EA0C0F08D12EF0030E4FEA4C0C35
:101A00000EF1040E12EA0C0FF8D007EBCE09F246E5
:101A1000C846D8F80C30984507D168E1002A80F212
:101A20007881DB68984500F06281586820F00300F7
:101A3000021B0F2AF2DD1D461F19D3F80CC044F01B
:101A4000010E55F8084F3046BA5042F00102C3F873
:101A500004E0CCF80840C4F80CC08F60CF607A6016
:101A6000B960F96000F0F6F954E7BEF1040F9EBFCB
:101A70004FEA941E0EF1380E4FEACE007FF665AFA6
:101A8000BEF1140F9CBF0EF15B0E4FEACE007FF645
:101A90005CAFBEF1540F9EBF4FEA143E0EF16E0EC6
:101AA0004FEACE007FF651AFBEF5AA7F9EBF4FEA48
:101AB000D43E0EF1770E4FEACE007FF646AF40F2ED
:101AC00054539E4595BF4FEA944E4FF47C700EF1EF
:101AD0007C0E4FF07E0E98BF4FEACE0035E703EB49
:101AE0000C0203F108053046536843F001035360CC
:101AF00000F0B0F90EE7D7F80880D8F8043023F0EA
:101B00000309C4EB09024C4594BF002301230F2AAB
:101B1000D8BF43F00103002B00F0A18040F2D85B56
:101B2000D5F80824C2F2000BDBF8003010331B1983
:101B3000B2F1FF3F06D003F57E631F3323F47E63CB
:101B400023F01F0319463046019300F085F9019BED
:101B5000B0F1FF3F824600F0F48008EB09018142BA
:101B600000F2EC80DBF804209A185145CBF80420F1
:101B700000F04581D5F8085440F24C10C2F2000044
:101B8000B5F1FF3F08BFC0F808A403D05244511A72
:101B9000CBF804101AF00705304617BFC5F1080549
:101BA0004FF48055AA4405F5805553441B051B0D81
:101BB000ED1A294600F050F9B0F1FF3F00F02C81FA
:101BC000CAEB0001491941F00101DBF8042040F2A1
:101BD000D853C7F808A0C2F20003AA18B845CBF83A
:101BE0000420CAF8041017D0B9F10F0F40F2DF80BB
:101BF000A9F10C01052521F0070108EB01000F29CF
:101C000085604560D8F8040000F0010041EA00005A
:101C1000C8F8040000F2AC80D04640F2D853DBF89C
:101C20002C10C2F200038A42DBF8301088BFDA625F
:101C300040F2D853C2F200038A4288BF1A6382E09E
:101C40005C189A68D9683046666803F108058A60AE
:101C500046F00103D160636000F0FCF85AE608EB3F
:101C6000040342F0010244F001043046C8F8044085
:101C700008F108055A60BB6000F0ECF84AE64FEA4C
:101C80005C22042A54D9142A00F289805B324FEA7C
:101C9000C208A84440F24C17C2F20007D8F8080066
:101CA000404503D16FE08068804504D0426822F04F
:101CB00003029445F7D3D0F80CC0C3F80CC0986069
:101CC0007A68C360CCF808308AE61F19304644F0C1
:101CD0000104CF605C6003F10805BA5042F00102D4
:101CE0008F607A60B960F96000F0B4F812E60AF12A
:101CF000010A1AF0030F5FD003F1080889E603F127
:101D00000802D3689A4208BF0EF1020E3FF436AEC5
:101D1000EFE51D461918DA68304655F8083F4C685B
:101D2000936044F00104DA604C6000F093F8F1E550
:101D30004FEA9C1238324FEAC208AAE7B8453FF48E
:101D400011AFD7F80880D8F8042022F0030294429B
:101D500094BF00230123121B0F2AD8BF43F00103B5
:101D6000002B3FF47CAF3046002500F073F8D1E53E
:101D700008F108013046019300F04AF9019BD7F8B9
:101D800008805A6849E74FF0010AD7F8048092109A
:101D900084460AFA02F248EA02027A608DE7542A7F
:101DA00024D84FEA1C326E324FEAC20871E7012391
:101DB000D046CAF80430C6E74A461EF0030F134661
:101DC0000EF1FF3E33D053F808299A42F5D07B68D4
:101DD0004FEA4C0C9C453FF68EAEBCF1000F3FF431
:101DE0008AAE1CEA030F27D0D6460EE6B2F5AA7FCC
:101DF00015D84FEADC3277324FEAC20849E70805C6
:101E0000000D00287FF4B6AED7F808804B4443F0AD
:101E10000103C8F8043000E701210025D5E640F2AF
:101E2000545082420DD94FF47C787E2231E77B6892
:101E300023EA0C037B60CBE74FEA4C0C0AF1040A5F
:101E4000CFE74FEA9C427C324FEAC20821E700BF4D
:101E5000704700BF704700BF38B540F20C64C2F253
:101E600000040546084600232360FFF71FFCB0F17D
:101E7000FF3F00D038BD2368002BFBD02B6038BD5E
:101E80002DE9F04142F2C074C0F2000484B005466E
:101E90002668B46C002C2BD060681F282CDC4DB950
:101EA0006068831C01306060002044F8231004B097
:101EB000BDE8F081D4F8886036B36068022D4FF039
:101EC000010CD6F8008100F120070CFA00FC46F85E
:101ED000202046F8273048EA0C0208BFD6F8043123
:101EE000C6F8002104BF43EA0C03C6F80431D8E762
:101EF00006F14C04B464CFE741F69D00C0F2000047
:101F0000E8B94FF0FF30D2E741F69D00C0F2000083
:101F10000028F6D04FF48470039102920193FFF7EA
:101F2000BDFC0399029A019B06460028E9D0C4F83B
:101F300088000020C6F80401C6F80001BDE78C2027
:101F4000039102920193FFF7A9FC0399029A019B66
:101F500004460028D5D0B06C002767602060B464C8
:101F6000002DA7D19CE700BFF8B540F24C14C2F297
:101F700000040F460546FFF76BFFA3685E6826F076
:101F8000030606F57E630F33DF1B3F0B013F3F0364
:101F9000B7F5805F07DB00212846FFF75DFFA368E8
:101FA000F318834204D02846FFF754FF0020F8BD01
:101FB00079422846FFF750FFB0F1FF3F10D0A268EA
:101FC00040F2DC53C2F20003F61B46F0010628463D
:101FD00056601A68D71B1F60FFF73CFF0120F8BD51
:101FE00000212846FFF738FFA368C21A0F2ADADD5E
:101FF00040F2545440F2DC51C2F20004C2F200013B
:1020000042F001022468001B08605A60CBE700BF61
:102010002DE9F04105460C46002900F08880FFF7C5
:1020200017FFA4F1080240F24C105668C2F20000FB
:1020300026F00103D0F808C0D1188C454F6827F06E
:10204000030700F0958016F001064F605FD0002670
:10205000CC19646814F0010F06D1DB19002E7AD078
:102060008C68C9688C60E16043F00101D350516015
:10207000002E47D1B3F5007F5BD3590A04299EBFD8
:102080004FEA931C0CF1380C4FEACC0428D91429E0
:102090009CBF01F15B0C4FEACC0421D954299EBFAF
:1020A0004FEA133C0CF16E0C4FEACC0418D9B1F591
:1020B000AA7F9EBF4FEAD33C0CF1770C4FEACC04C9
:1020C0000ED940F2545C614595BF4FEA934C4FF4F2
:1020D0007C740CF17C0C4FF07E0C98BF4FEACC0462
:1020E0000419A168A14203D164E089688C4204D03C
:1020F000486820F003008342F7D3CB68D360916037
:10210000CA609A602846BDE8F041FFF7A3BE54F8C4
:10211000084C00F1080C121B1B199468644547D049
:10212000D2F80CC0CCF80840C4F80CC090E7BDE869
:10213000F081DB084FF0010C466800EBC3019B10F7
:102140000CFA03F3D1608C6846EA030343609460A1
:10215000E2608A60D6E78C681C4FBC4281D1D350C4
:1021600043F00103E260A26053609460D460C9E769
:10217000FB1816F0010F07D154F8081C521A5B180F
:10218000D4689168A160CC6040F258518260C2F27C
:10219000000143F0010050600A689342B2D340F25C
:1021A000D8532846C2F200031968FFF7DDFEA9E7FD
:1021B00001264DE7012644684FEAAC0C0B4606FAAF
:1021C0000CFC44EA0C04446098E700BF5401002072
:1021D000F8B500BFF8BC08BC9E46704799150000D2
:1021E0002D1700004D170000C917000055180000FA
:1021F0006D180000F8B500BFF8BC08BC9E467047DB
:042200008515000040
:0822080074F4FF7F01000000E7
:1022100000000000080000200010014064050020BC
:1022200020AA4400000000000000000000000000A0
:10223000000000000000000000000000000000009E
:10224000000000000000000000000000000000008E
:10225000000000000000000000000000000000007E
:1022600000000000362500005C0000200000000097
:10227000C8270000E8270000082800000000000030
:10228000000000000000000000000000C427000063
:10229000000000000000000000000000000000003E
:1022A000000000000000000000000000000000002E
:1022B000000000000000000000000000000000001E
:1022C000000000000000000000000000000000000E
:1022D00000000000000000000000000000000000FE
:1022E00000000000000000000000000000000000EE
:1022F00000000000000000000000000000000000DE
:1023000000000000000000000000000000000000CD
:1023100000000000000000000000000000000000BD
:1023200000000000000000000000000000000000AD
:10233000000000000000000000000000000000009D
:10234000000000000000000000000000000000008D
:10235000000000000000000000000000000000007D
:10236000000000004C0100204C010020540100201E
:10237000540100205C0100205C0100206401002069
:10238000640100206C0100206C0100207401002019
:10239000740100207C0100207C01002084010020C9
:1023A000840100208C0100208C0100209401002079
:1023B000940100209C0100209C010020A401002029
:1023C000A4010020AC010020AC010020B4010020D9
:1023D000B4010020BC010020BC010020C401002089
:1023E000C4010020CC010020CC010020D401002039
:1023F000D4010020DC010020DC010020E4010020E9
:10240000E4010020EC010020EC010020F401002098
:10241000F4010020FC010020FC0100200402002047
:10242000040200200C0200200C02002014020020F4
:10243000140200201C0200201C02002024020020A4
:10244000240200202C0200202C0200203402002054
:10245000340200203C0200203C0200204402002004
:10246000440200204C0200204C02002054020020B4
:10247000540200205C0200205C0200206402002064
:10248000640200206C0200206C0200207402002014
:10249000740200207C0200207C02002084020020C4
:1024A000840200208C0200208C0200209402002074
:1024B000940200209C0200209C020020A402002024
:1024C000A4020020AC020020AC020020B4020020D4
:1024D000B4020020BC020020BC020020C402002084
:1024E000C4020020CC020020CC020020D402002034
:1024F000D4020020DC020020DC020020E4020020E4
:10250000E4020020EC020020EC020020F402002093
:10251000F4020020FC020020FC0200200403002042
:10252000040300200C0300200C03002014030020EF
:10253000140300201C0300201C030020240300209F
:10254000240300202C0300202C030020340300204F
:10255000340300203C0300203C03002044030020FF
:10256000440300204C0300204C03002054030020AF
:10257000540300205C0300205C030020640300205F
:10258000640300206C0300206C030020740300200F
:10259000740300207C0300207C03002084030020BF
:1025A000840300208C0300208C030020940300206F
:1025B000940300209C0300209C030020A40300201F
:1025C000A4030020AC030020AC030020B4030020CF
:1025D000B4030020BC030020BC030020C40300207F
:1025E000C4030020CC030020CC030020D40300202F
:1025F000D4030020DC030020DC030020E4030020DF
:10260000E4030020EC030020EC030020F40300208E
:10261000F4030020FC030020FC030020040400203D
:10262000040400200C0400200C04002014040020EA
:10263000140400201C0400201C040020240400209A
:10264000240400202C0400202C040020340400204A
:10265000340400203C0400203C04002044040020FA
:10266000440400204C0400204C04002054040020AA
:10267000540400205C0400205C040020640400205A
:10268000640400206C0400206C040020740400200A
:10269000740400207C0400207C04002084040020BA
:1026A000840400208C0400208C040020940400206A
:1026B000940400209C0400209C040020A40400201A
:1026C000A4040020AC040020AC040020B4040020CA
:1026D000B4040020BC040020BC040020C40400207A
:1026E000C4040020CC040020CC040020D40400202A
:1026F000D4040020DC040020DC040020E4040020DA
:10270000E4040020EC040020EC040020F404002089
:10271000F4040020FC040020FC0400200405002038
:10272000040500200C0500200C05002014050020E5
:10273000140500201C0500201C0500202405002095
:10274000240500202C0500202C0500203405002045
:10275000340500203C0500203C05002044050020F5
:1027600044050020FFFFFFFF000002000000000002
:102770000000000000000000291700004F170000B3
:1027800051170000000000000000000000000000E1
:10279000FB1600004F17000051170000000000005A
:1027A0000000000000000000FB16000053170000AE
:1027B000000000000000000081170000A9170000C1
:1027C0005C0000204300000000000000000000004A
:1027D00000000000000000000000000000000000F9
:1027E00000000000000000000000000000000000E9
:1027F00000000000000000000000000000000000D9
:1028000000000000000000000000000000000000C8
:1028100000000000000000000000000000000000B8
:0C2820000000000000000000102200007A
:040000030000167D66
:00000001FF
