:0800000000800020050C000047
:1000080000000000000000000000000000000000E8
:1000180000000000000000000000000000000000D8
:1000280000000000000000000000000000000000C8
:1000380000000000000000000000000000000000B8
:100BF80000000000000000000014000080B500AFF5
:100C080000F040F800F064F900F0C2F900F0CCF907
:100C180000F034F94AF2E010C4F202004FF00A0181
:100C28004FF005024FF4A02300F0E8F84FF4A0506D
:100C3800C2F2000000F0E8F90346002B06D04FF49A
:100C4800A050C2F2000000F0FBF90AE04FF4A050F7
:100C580000F0DAF90346002B03D04FF4A05000F05F
:100C6800EFF94AF2E010C4F202004FF00A014FF027
:100C780005024FF4A02300F0C1F800F0FBF9184674
:100C880080BD00BF80B584B000AF41F29403C0F2CC
:100C98000003FB6019E0FB681B68BB60FB6803F19D
:100CA8000403FB60FB681B687B60FB6803F10403BB
:100CB800FB60FB681B683B60FB6803F10403FB6097
:100CC800B86879683A6800F025F8FA6841F2A00334
:100CD800C0F200039A42DED311E0FB681B687B6018
:100CE800FB6803F10403FB60FB681B683B60FB685F
:100CF80003F10403FB607868396800F033F8FA6898
:100D080041F2A803C0F200039A42E6D307F11007A4
:100D1800BD4680BD80B489B000AFF860B9607A6024
:100D2800BB68FB61FB68BB614FF000037B610FE0B0
:100D3800BB691A68FB691A60FB6903F10403FB616C
:100D4800BB6903F10403BB617B6903F104037B61A5
:100D58007A697B689A42EBD307F12407BD4680BCC9
:100D6800704700BF80B485B000AF786039607B6899
:100D7800FB604FF00003BB600BE0FB684FF0000224
:100D88001A60FB6803F10403FB60BB6803F104030A
:100D9800BB60BA683B689A42EFD307F11407BD46B7
:100DA80080BC704780B485B000AF78600B46FB709C
:100DB800FB784FF0010202FA03F3FB607B6803F152
:100DC8000403FA681A6007F11407BD4680BC70472F
:100DD80080B485B000AF78600B46FB70FB784FF0AD
:100DE800010202FA03F3FB607B6803F10803FA6867
:100DF8001A6007F11407BD4680BC704780B586B0FD
:100E080000AFF8607B600B46FB721346BB72FB7A3F
:100E1800F8681946FFF7DCFF1FE07B687B6104E098
:100E280000BF7B6903F1FF337B617B69002BF7D13E
:100E3800FB7AF8681946FFF7B5FF7B687B6104E029
:100E480000BF7B6903F1FF337B617B69002BF7D11E
:100E5800FB7AF8681946FFF7BBFFBB7A002B0CBF7B
:100E680000230123DBB2BA7A02F1FF32BA72002BF7
:100E7800D3D107F11807BD4680BD00BF80B483B049
:100E880000AF4FF001037B6019E04FF46143CEF2ED
:100E980000037A6802F120024FF0FF3143F8221074
:100EA8004FF46143CEF200037A6802F160024FF01A
:100EB800FF3143F822107B6803F101037B607B68F4
:100EC800072BE2D907F10C07BD4680BC704700BF6D
:100ED80080B400AF4AF24803C4F202034FF0004264
:100EE8001A604AF2E803C4F202034FF6FF721A606E
:100EF8004AF2A403C4F202034FF6FF721A604AF2E0
:100F0800C403C4F202034FF6FF721A604AF2881350
:100F1800C4F202034FF6FF721A604AF24413C4F295
:100F280002034FF6FF721A604AF26413C4F2020316
:100F38004FF6FF721A604AF22823C4F202034FF6F2
:100F4800FF721A604AF2E413C4F202034FF6FF720A
:100F58001A604AF20423C4F202034FF6FF721A60C1
:100F68004AF26833C4F2020347F6FF721A604AF283
:100F78002433C4F2020347F6FF721A604AF244337C
:100F8800C4F2020347F6FF721A60BD4680BC704780
:100F980080B400AF4DF22403C4F202034FF0020202
:100FA8001A60BD4680BC704780B400AF4AF2440363
:100FB800C4F202034FF000421A604AF22423C4F23A
:100FC80002034FF480621A604AF20423C4F2020357
:100FD8004FF480621A604AF22823C4F202034FF4E5
:100FE80080621A604AF2E413C4F202034FF480628A
:100FF8001A604AF20423C4F202034FF480621A60B2
:10100800BD4680BC704700BF80B485B000AF786033
:101018007B681B68FB60FA684FF00003C2F6FE733A
:101028001340B3F1005F02D14FF0010301E04FF02C
:101038000003184607F11407BD4680BC704700BF7F
:1010480080B586B000AF78607B687B61FFF740FFB2
:101058007B6903F104031B683B617B691B68FB60C8
:10106800FB6883F308883B69984707F11807BD4672
:1010780080BD00BF80B400AF4DF26003C4F202032C
:101088004FF040021A6000BFFDE700BFA810000043
:101098000000002000000000000000200000000008
:0400000300000008F1
:00000001FF
