:1014000000800020B1250000F11D0000F51D000046
:10141000F91D0000FD1D0000011E0000511E00000E
:10142000511E0000511E0000511E0000511E000000
:10143000511E0000511E0000511E0000DD1B000067
:10144000511E0000251B0000451B0000511E00001E
:10145000511E0000511E0000511E0000511E0000D0
:10146000511E0000511E0000511E0000511E0000C0
:10147000511E0000511E0000511E0000511E0000B0
:10148000511E0000511E0000511E0000511E0000A0
:1014900041230000432300004523000047230000B0
:1014A000952200003D2300003F2300009D24000002
:1014B000CD240000511E0000511E0000511E0000EE
:1014C000511E0000511E0000511E00001D1800009A
:1014D00045180000511E0000511E0000511E000062
:1014E000511E0000511E0000511E0000511E000040
:1014F000511E0000511E00003D2400006D2400001C
:10150000511E0000511E0000511E0000511E00001F
:10151000511E0000511E000010B5054C237833B950
:10152000044810B10448AFF300800121217010BDC0
:10153000880A002000000000A05F000008B5064BEC
:101540001BB106480649AFF300800648016811B197
:10155000054B03B1984708BD00000000A05F0000E4
:101560008C0A0020880A00200000000001460020AC
:101570000246034600F04AB808B50021044600F0D0
:1015800099F8044B1868C36B03B19847204600F0E4
:1015900007F900BF506B000038B5084D084C641BBC
:1015A000A41006D005EB840555F8043D9847013C8E
:1015B000FAD1BDE8384004F005BD00BFD05F00009F
:1015C000D45F000070B50D4D0D4E761BB61006D0E1
:1015D000002455F8043B01349847A642F9D1094D3F
:1015E000094E04F0DDFC761BB61006D0002455F839
:1015F000043B01349847A642F9D170BDAC5F0000AE
:10160000AC5F0000AC5F0000C45F00002DE9F0415A
:101610000546264884B00468D4F84801002840D024
:1016200046681F2E1CDD224810B94FF0FF301EE027
:101630004FF4C870039102920193AFF300800399B5
:10164000029A019B0028F0D0D4F84861002780E876
:10165000C000C4F848013E46C0F88871C0F88C71DB
:1016600045B9B31C013640F823104660002004B091
:10167000BDE8F0810124B440D0F8887100EB860801
:1016800047EA040C022D4746C8F88820C0F888C1F4
:10169000C8F80831E5D1D0F88C311C43C0F88C4132
:1016A000DFE704F5A670C4F84801B9E7506B000005
:1016B000000000002DE9F04F334B83B01B68019010
:1016C00000930E464FF0010B009BD3F84871BFB159
:1016D00003F5A4797D686C1E0CD407F1880A1F35C8
:1016E0000AEB85057EB12B68B3420CD0013C043D6A
:1016F000631CF7D140F20003C0F20003002B30D18D
:1017000003B0BDE8F08F7968CAEB05020139BA1859
:10171000A14252F8783C1ED0002142F8781C002BE0
:10172000E4D00BFA04F2D7F88811D7F804800A4203
:101730000FD0D7F88C110A420FD155F8801C0198B0
:1017400098477B684345BFD1D9F80030BB42CDD024
:10175000BAE79847F5E77C60E1E755F8800C9847D1
:10176000EFE77B685BB93B6853B13846C9F8003096
:10177000AFF30080D9F80070002FABD1C0E73B6811
:10178000B9461F46F8E700BF506B0000024B13B18B
:101790000248FFF7EBBE70470000000099150000FB
:1017A000FEE700BF00B50368181C4030012900D8CF
:1017B00010300423002A00D10823C0180123194047
:1017C000090107318B40036001BC004700B5006888
:1017D000031C4033012900D81033012001400901C6
:1017E0000918072088408A4098605A6001BC004769
:1017F00000B50268131C4033012900D810330122C0
:10180000114009018A405A6001BC004703681A6B05
:101810007C208243890011431963704700B5084B4F
:101820001B681B681A1C903211680222114204D0F6
:101830001968080101D598331A6001BC0047C046F9
:101840000805002000B5084B1B681B681A1C903265
:1018500011680222114204D01968080101D5983399
:101860001A6001BC0047C0460C05002070B5046832
:10187000051C007900F0F2FC464BA360464B2E7924
:101880001868464BE022D2001968042E75D80A4029
:10189000120A0121914001F02FFE4149400001F060
:1018A0002BFE01380004C0236060A3604023636006
:1018B000F0231B01A361802300261B026661636085
:1018C00080235B01A36080231B036361C0231B068D
:1018D000A3618023DB036361FC2363618023DB025C
:1018E0006361321C281C311CFFF75CFF281C311C73
:1018F000FFF77EFF281C311C321CFFF767FF321CEC
:10190000281C0121FFF74EFF281C0121FFF770FF63
:10191000281C01210322FFF759FF0122281C022164
:10192000FFF740FF281C0221FFF762FF281C02215D
:10193000321CFFF74BFF0122281C0321FFF732FF67
:10194000281C0321FFF754FF03210A1C281CFFF762
:101950003DFF6B791906B14218DB1F241E1C0120C4
:1019600049172640021CB2400D1C161C60350D4A5A
:10197000AD008900AE508E5008E01B680A40120A84
:101980000121DB039140DB0F994084E770BC01BC6F
:101990000047C0460000FF07B80A002000D0024000
:1019A000404B4C0000E100E070B50468051C266B5C
:1019B000FFF72CFF80235B02636180239B03A361FD
:1019C0000022231DDA6780231B047606221C636134
:1019D000F60EA03220231168181C8843011EFAD18C
:1019E000231C983302221A603106281C090E246E2B
:1019F000FFF70CFF04480549604301F07DFD00043A
:101A0000000C70BC02BC0847E40C0000FF0F000093
:101A100000B5002809DB1F23421118400123834031
:101A2000181C6032024B9200D05001BC0047C046E7
:101A300000E100E0F7B5019308AB0E1C151C1C7803
:101A4000002A04D130486A21304A00F0CAF9304BEC
:101A5000013E196836060F220A40360E191CB242A2
:101A600002D11B68180611D40B681B051B0FB3426B
:101A700004D1274B1B6801221F0404D40A68802369
:101A80001A4007D000220121082305E0002101228D
:101A90000B1C01E0111C131C1E4884466746C8003D
:101AA000C551019D604445605F1D1B4D012C07D150
:101AB000201CB8402860181D84401848046006E0C7
:101AC0000120041CBC402C601C1DA0402860002A82
:101AD00016D10F20114A9840106001209E40071C2B
:101AE00007339F402E600E4C2F60814203D0FFF7DA
:101AF0008FFF022303E00220FFF78AFF0423236005
:101B0000F7BC01BC0047C046586B0000686B000082
:101B100000A00240A40A002004A0024008A0024045
:101B200000E100E008B5054A1368002B02D05068B8
:101B300000F006F808BC01BC0047C046A40A00201B
:101B40001847C04608B5054A9368002B02D0D068F4
:101B500000F006F808BC01BC0047C046A40A0020FB
:101B60001847C04600B5002808DA0F2318400901BD
:101B7000064B0906090EC018017605E00901044B61
:101B80000906090EC018017001BC0047FCEC00E01A
:101B900000E400E010B50B4B19400B4B0843986074
:101BA0000024200600160F210134FFF7DBFF362C3E
:101BB000F7D1012040420F21FFF7D4FF10BC01BC38
:101BC0000047C04680FFFF1F00ED00E0024B0722E8
:101BD00058601A607047C04610E000E008B5064B38
:101BE0001A6801321A60054B1B68002B01D000F007
:101BF00007F808BC01BC0047780B0020B40A00209D
:101C00001847C04610B50D4B041C18680C4BE02259
:101C1000D2001968042C08D80A40120A0121914008
:101C200001F06AFC10BC02BC08471B680A40120A9B
:101C30000121DB039140DB0F9940F1E7B80A002056
:101C400000D0024000B54379002B14D1052903D8F8
:101C500083688900CB5804E0062901D0072903D105
:101C600003688022520005E00839836889008022D9
:101C7000CB5812019A6101BC0047000010B50C4B13
:101C8000041C186800F01EF80A4B186800F01AF8D7
:101C9000094B186800F016F8084B186800F012F8A5
:101CA000074B186800F00EF810BC01BC0047C04696
:101CB000680400206C0400207004002074040020DC
:101CC000780400202047C046F8B5051C0468007958
:101CD00000F0C4FA6B792879022B18D1FFF792FF34
:101CE0000023236023612362236320236360802316
:101CF0009B02636090231B056360FF2323611B4AE3
:101D0000236B1343236380239B0563602AE0FFF763
:101D100079FF071C2879FFF775FF23685B0B5B03CE
:101D20002360051C1249381C01F0E6FB26680138C7
:101D300006430F492660281C01F0DEFB011C281C0D
:101D400001F0DAFBFA21890001F0D6FB2064094B8F
:101D5000226813402360C02322681B0213432360C0
:101D6000054BA362F8BC01BC0047C04600003075BB
:101D700040420F00FC3FFFFF0104000070B54B1E06
:101D8000041C0D1C161C032B04D91248C121124A35
:101D900000F027F86379022B04D10E48C4210F4AC2
:101DA00000F01FF86379022B11D0002E02D0012E13
:101DB0000DD108E0291C0235AD00201C6419FFF785
:101DC00041FF666003E0201C291CFFF73BFF70BC4D
:101DD00001BC0047706B0000816B00009D6B000030
:101DE00070477047704700000000000000000000CE
:101DF000012007E0022005E0032003E0042001E0C9
:101E00000520FFE70D4A0121116072B60C4A00213E
:101E10001160074902B4084902B486B005498E46EC
:101E20007047C046C046C046C046C046C046C046D1
:101E300000000061F9FFFFFFE11D000014ED00E06C
:101E400010E000E0C046C046C046C046C046C0469E
:101E5000FEE7000010B5064B041C186800F00CF8F3
:101E6000044B186800F008F810BC01BC0047C046DD
:101E7000080500200C0500202047C04610B5041CB2
:101E8000FFF7F4FC2368802292025A6110BC01BC67
:101E90000047000008B5072000F0E0F9054B80225C
:101EA00012061A60044B054A1B681A6308BC01BC81
:101EB0000047C04634A0024010050020FFFF00008C
:101EC00000B5204B802212061A601F4B1A601F4A71
:101ED0001F49126811631F4A1F49126811631F4A84
:101EE0001F49126811631F4A1F49126811631F4A74
:101EF0001F491160802252021A601E4B1A6D012A7E
:101F000004D01A6D002A03D1A5221A65F1221A65A0
:101F1000194B1B68191C0022903118480A600839B7
:101F20000860802189035964802189029964802195
:101F3000C9035964C021090399645A641F229A6530
:101F400001BC004734A0024044A00240100500201C
:101F50003C17000018050020FFF0000020050020BD
:101F6000FFFF000028050020CF7F000024A00240D2
:101F700021C0037800A0024030050020FF0F0000C0
:101F8000F0B5012504682E1C8E40271C311C20371B
:101F900015400426002D00D10826F619194F31608E
:101FA000261C4036B84229D10820DF0700D504207E
:101FB00036183160002D17D0201C303004239507CF
:101FC00000D408231B180804186061630CE0042087
:101FD00036183160002D07D0251C50350820DE074B
:101FE00000D504204019016004200823024200D0DB
:101FF000031CE4182160F0BC01BC004708209707CF
:10200000E6D5E4E73005002030B50323052900D1EB
:10201000072300684900046F1D1C8D40AC4313402A
:102020008B40211C1943016730BC01BC00470000F4
:1020300001380139024B0004084318607047C0465C
:1020400000B0034010B5114B1868114B19680124FA
:102050004905490F231C8B40191C01F04DFA0D4A0C
:102060000023904209D90C4A231C904205D90B4AFF
:10207000002382425B410322D31A094A03211160E3
:10208000084A136010BC01BC0047C046B80A0020D3
:1020900000D0024080BA8C0140B7280300B4C404C9
:1020A00008E0024004E00240F0B52A4A00239042D2
:1020B0000DD9294A0123904209D9284A0223904286
:1020C00005D9274A002382425B410422D31A254ABC
:1020D0002549106B014011632448116B01431163C2
:1020E000234E116B31401163116B180401431163CE
:1020F000204DC027204C802109063F062F60101C70
:102100002160042117690F4203D107690326374272
:10211000F8D017690F421AD1C02636062E6007691B
:10212000FE0703D5032B06D8013302E0032B02D8A8
:10213000013B1B061B0E176B0D4E37401763176BC9
:102140001E043743176380273F062760DAE7F0BC99
:1021500001BC0047BF0E16023FA5AE02BF3B4703BE
:102160007F1D2C0400B003400F00FFFFF0FF0000B4
:10217000FFFFF8FF18B0034014B00340034BC02228
:1021800092021A60024B00041860704718B00340B6
:1021900014B0034008B50C4B1A6807218A4310435A
:1021A0008022920519681142FCD1074B1860074B39
:1021B0001B6832205843064901F09EF9054B01384F
:1021C000186008BC01BC004700D00240B80A0020DB
:1021D000002D3101100004E010B50A4A0A4B041C1E
:1021E0001A600020FFF7D6FF084BC02212061A60C3
:1021F0000121E00BFFF71CFF201CFFF755FF10BC6F
:1022000001BC0047002D3101B80A002018B003407E
:1022100010B50B1C0B490A680C1C002803D10A4995
:102220000A40190202E009490A40190480231143B7
:102230009B0522681A42FCD1024B196010BC01BCFC
:102240000047C04600D00240FFF8FFFFFFFFFEFF3F
:10225000014B18607047C046B80A002000B5012342
:10226000042802D9242808D903E0074A83401360D0
:1022700007E026388340054A02E00638044A8340D6
:10228000136001BC0047C04614D0024034D0024065
:1022900024D00240F8B5264B1C682568254B2E6AD1
:1022A0001E402B69802380279B00374033409B08CA
:1022B0007F081F433F2333401F43FC231B0233404F
:1022C0009B081F43381C02F09BFA012383405F40A8
:1022D000831C9B00E3185B68002B22D0062806D8DD
:1022E000A268800082581069C005C00F15E0072859
:1022F00004D122681069012210400EE0082802D1A2
:102300002268126906E00838A268800082581069C5
:10231000802252011040421E9041002801D000F05E
:102320000BF8002FCED1AE62F8BC01BC0047C0460E
:1023300068040020BFFE00001847C0467047704781
:10234000704770477047704770B5C5888288031C16
:10235000681C1E89904203D0AE420CD1002A0AD1DB
:102360001868801800780024964202D001321404C4
:10237000240C9C8001E0012040421A685519297004
:10238000D9881C8900228C4202D04A1C1204120CEB
:10239000DA8070BC02BC084738B51D1C04AB1C7841
:1023A000081C0023111C0522FFF7EAFD281C211C34
:1023B00003220023FFF7E4FD38BC01BC0047000006
:1023C00070B5051C0C1C161C002917D1174B18687A
:1023D0002B1C4C331C78164BE022D2001968042CBD
:1023E0001BD80A40120A0121914001F085F8041E11
:1023F00004D110486821104AFFF7F3FC2D688023B0
:102400001B05AB617100201C01F076F80138030454
:102410001843286570BC01BC00471B680A40120ABB
:102420000121DB039140DB0F9940DEE7B80A002071
:1024300000D00240CC6B0000E46B000070B5084B8C
:102440001C6E07231C40074D074E04E02978301C02
:10245000FFF77AFF013C002CF8D170BC01BC0047AB
:102460000020004070200040BC0A002070B5084BDE
:102470001C6E07231C40074D074E04E02978301CD2
:10248000FFF762FF013C002CF8D170BC01BC004793
:102490000030004070300040C80A002070B5802332
:1024A000DB051C6E07231C40064D074E04E029780F
:1024B000301CFFF749FF013C002CF8D170BC01BC77
:1024C0000047C04670000040D40A002070B5084B99
:1024D0001C6E07231C40074D074E04E02978301C72
:1024E000FFF732FF013C002CF8D170BC01BC004763
:1024F0000010004070100040E00A0020F0B5426873
:10250000002103689180D1803F211181011C0C3191
:1025100011604D30027810060ED41F25171C0124BF
:1025200040172F40211CB940061C0F1C603609497A
:10253000B600800077504750074A9A60074A5A60B1
:10254000074A9A60074A5A6030229A66F0BC01BC7A
:102550000047C04600E100E000001A4700000D03FC
:10256000184700000D03000010B504684C300078D7
:10257000FFF774FE034B63634023636310BC01BC2D
:102580000047C0460080008070B503680724002023
:1025900004E00E5C1D1C70352E7001301D6E2D0C7C
:1025A0002540032D01D89042F3D170BC02BC0847EE
:1025B00001498D460149084700800020C1250000DF
:1025C00008B5144B5A78197812020A439978DB78C7
:1025D00009041B060A431A430F4B9A4201D00F49C4
:1025E00005E00F4B0F49002205E001CA01C38B42F1
:1025F000FBD3F6E704C38B42FCD3FEF7E3FF0020D6
:10260000011C021C00F062FF074B002B01D0FEF7FB
:10261000B3FFFEE7B46D000000000020880A002030
:10262000880A0020800B002079150000F8B5041CF2
:10263000FFF724FC0D4B03211D7800232068021CAA
:102640002032032B00D81032181C0840C000176835
:102650000E1C8640B7432E1C8640381C3043013385
:102660001060082BEAD1F8BC01BC004788060020A6
:1026700008B5FFF729FB08BC01BC004710B500F006
:102680003BFB1E4C00F032FB00F04AFB0620FFF73C
:10269000E5FD0020FFF772FD201C00F00FFB201C61
:1026A000FFF79AFD201CFFF7D3FD0520FFF772FD11
:1026B000FFF7C8FC2420FFF7D1FD114B1A68402119
:1026C0000A43A0201A6040010021FFF763FA0D4B76
:1026D000FA211868890000F00FFF0138FFF776FA39
:1026E00000F0FEFA0848FFF7B5FB0848FFF7C6FA06
:1026F00000F0B4FB10BC01BC0047C04600007D01E7
:1027000000E00240B80A00202D26000071260000DB
:1027100000B5FEE708B5012809D0002807D0022837
:1027200005D004485821044AFFF75BFB002008BC91
:1027300002BC0847F06B00000A6C000073B5041C73
:102740000D1C161C00290FD03E280DD8181CFFF7B1
:10275000E1FF074B24011C19237BE17B2A1C00901D
:10276000181C331CFFF766F973BC01BC0047C04658
:102770008C06002037B56D46073544682970201C4B
:10278000291C0122FFF700FF0028F8D037BC01BC4C
:102790000047000073B543689B68041C0D1C9942F8
:1027A00004D913484221134AFFF71BFB6068836872
:1027B0009D421AD8267A637A0F4A36011B01B61851
:1027C0009B1819681A7B3368367B009600260196A1
:1027D000FFF7E2FD6068FFF791FE6068311C2A1C7C
:1027E000FFF7EEFD6068FFF7BFFE73BC01BC00475A
:1027F0000C6C0000266C00008C06002000B54368BD
:102800005B68D8889A88D988801A9A88914202D2BF
:102810001B890133C0180004000C02BC084710B526
:10282000041C201CFFF7EAFF0028FAD063685B68ED
:1028300099881A681C895218107800228C4202D09C
:102840004A1C1204120C9A8010BC02BC08470000FB
:10285000134B1968134B144A59603A211972083204
:102860003B211A605972114B1968114B59600121B3
:10287000197200211A6059720E4B19680E4B59607B
:102880000E2119720F211A6059720C4B19680C4BEA
:102890001A6014221A72152259605A727047C04683
:1028A00038050020EC0A0020506C00003C05002098
:1028B000F80A002040050020040B002044050020F9
:1028C000100B002038B5041C0D1C05E02368201CEB
:1028D0001B68013500F006F829780029F6D138BCCC
:1028E00001BC0047184770B5041C151C0E1C07E0FE
:1028F000236831781B68201C00F007F80136013D81
:10290000002DF5D170BC01BC0047184708B503681D
:102910001B6800F003F808BC01BC0047184708B565
:1029200003685B6800F003F808BC01BC0047184767
:1029300010B5041C0D21FFF7E9FF201C0A21FFF749
:10294000E5FF10BC01BC004710B5041CFFF7DEFF1B
:10295000201CFFF7EDFF10BC01BC004710B5041CA4
:10296000FFF7DDFF201CFFF7E3FF10BC01BC0047B1
:10297000F0B593B01E1C18AB1F780024131C0190F7
:10298000151C3343A34203D13021FFF7BFFF2DE0D5
:1029900002A90091281C311C3A1C002301F01AFFE7
:1029A00008231B1969465A54281C311C00233A1C61
:1029B00001F010FF031C0134051C0E1C0B43E7D172
:1029C00011E02B19013B1B78191C37310906090E40
:1029D000092B03D8191C30310906090E0198FFF79D
:1029E00095FF013C00E002AD002CEAD113B0F0BC31
:1029F00001BC004707B50499002906D103681106F8
:102A0000090E1B6800F009F804E00906090E0091A0
:102A1000FFF7AEFF03B001BC0047184707B50092AF
:102A200000230A1CFFF7E6FF03B001BC004707B50F
:102A3000009200230A1CFFF7DDFF03B001BC004732
:102A4000F7B5089C051C161C1F1C002C06D103683A
:102A50001106090E1B6800F016F811E0002B07DACA
:102A60002D21FFF753FF321C3B1C002756429F418C
:102A70002406240E281C321C3B1C0094FFF778FF10
:102A8000F7BC01BC0047184707B50092CB170A1CDA
:102A9000FFF7D6FF03B001BC0047000000000000B4
:102AA000F0B585B01D1C0AAB1B7803900293101C77
:102AB000161C291C4B4B4A4A01F0FCFB0124002840
:102AC00006D0301C291C484A484B01F0E9FB05E0C0
:102AD000301C291C464A474B01F0D8FB002800D186
:102AE000041C2406240E301C291C3E4B3C4A002C9E
:102AF0000CD001F0C1FB002803D003982D21FFF773
:102B000005FF03984049FFF70AFF62E001F0B4FBBC
:102B1000002806D02D210398FFF7F8FE8021090632
:102B20006D180024344A354B0AE0101C191C344A35
:102B3000344B01F059FA01342406021C0B1C240EFC
:102B400002998C42F1D1301C291C00F071FF041C49
:102B50000D1C01F05DFE061C0F1C01F0EDF8021CBF
:102B60000B1C201C291C00F061FF0A230093041C8D
:102B70003B1C0398321C0D1CFFF762FF029B002BCD
:102B800027D003982149FFF7CAFE1FE01C4A1D4BBE
:102B9000201C291C01F0FEF80F1C061C01F094FB00
:102BA000041C211C0A220398FFF76EFF201C01F071
:102BB0008BF80B1C021C391C301C00F037FF029BE9
:102BC000013B1B061B0E0293041C0D1C02990029DD
:102BD000DCD105B0F0BC01BC0047C046C046C046D1
:102BE0000000000000000000800350726C92DF4380
:102BF000800350726C92DFC3000000000000E03FD1
:102C00000000000000002440686C0000C66C00005A
:102C100007B504990906090E0091FFF741FF03B0BB
:102C200001BC004713B504990906090E041C009164
:102C3000FFF736FF201CFFF77BFE13BC01BC0047EB
:102C400008B5074B00011818031C806808330028DA
:102C500002D09979FEF7A8FE08BC02BC0847C0461E
:102C60008C06002000B53E280ED8084900014358C4
:102C70001A6813680818007B8021DB4349021B0493
:102C800081401B0C0B43D36001BC00478C06002025
:102C9000C3001B1A013B181C0138FDD8704738B51A
:102CA000051C002404E0FA208000FFF7F1FF013446
:102CB000AC42F8D138BC01BC0047000008B5074958
:102CC0008142894149420120FFF7A2FA0020011CFC
:102CD000FFF79EFA08BC01BC0047C04680F0FA022C
:102CE00008B5FFF7EDF808BC01BC004708B5FFF7D1
:102CF000D1F808BC01BC004708B5074B00221A6098
:102D00002720FFF7ABFA054BA5221A60DD221A60D7
:102D100008BC01BC0047C04620D002403000034040
:102D200010B5204B1C680921201C04220023FFF74A
:102D300027F90A2104220023201CFFF721F928206B
:102D4000FFF78CFA184BC021082249005A501A602C
:102D5000164B8021196016498023DB020B6080200E
:102D6000144B400218601A608022D2050A6080224B
:102D700092021A60802212061A601420FFF78FFF59
:102D80000D49202308680C4A1842FBD080235B00C1
:102D900011681942FCD00220FFF781FF10BC01BC72
:102DA0000047C046B86B000000E100E0149002400C
:102DB000089002400490024010900240F7B5071CB2
:102DC0003E283FD8082912D8081C00F08BFB1619A2
:102DD00005080505050B0D000025052212E000255C
:102DE00004220FE0012509E001252A1C0AE017480A
:102DF0004821174AFEF7F5FF24E00025032201E0F1
:102E000000250122134E3C01A0593419231C08331C
:102E1000019319790023FFF7B3F86068002804D004
:102E2000019B2A1C5979FEF7A9FF0B4B3F01F05972
:102E30001B68984206D1F619317B2A1E00D0022267
:102E4000FFF7E2F8F7BC01BC0047C046776C000012
:102E50000A6C00008C060020C86B00007047000060
:102E6000F7B5934B1A68934B181DC267181C903026
:102E70000260181CA0300260181CB0300260181CE0
:102E8000C0300260181CD0301A601A611A621A63CE
:102E90001A651A660260884A10681A1CE0321060CF
:102EA000864A14681A1CE83214601A1CF03210604A
:102EB00083491A1CF832096814601A1CFC32196420
:102EC00019675060D4605061D4615062D46250631D
:102ED0007C4D2D68019595667B4D2D68D4635064BB
:102EE0005065D465506650679567C022520098506F
:102EF000C22252009D50754AC82512686D005A5171
:102F0000D0256D005A51724D2F68D8256D005F5144
:102F1000704DDA262D6876009D51E02676009F518F
:102F2000E22676009D51E82676009F51EA2676003B
:102F30009D51F02676009F51F22676009D51F8268D
:102F400076009F51FA2676009D518026B6009F514B
:102F50008127BF00DD518425AD0059515E4D862784
:102F60002D68BF00DD518827BF00D9518A27BF00D7
:102F7000DD518C27BF00D9518E27BF00DD5190272E
:102F8000BF00D9519427BF00D9519827BF00D9510C
:102F90009C27BF00D951A027BF00D951A427BF004B
:102FA000D951A827BF00D951AC27BF00D951B027AC
:102FB000BF00D951B427BF00D951B821890058505A
:102FC000BA2189005C50BC2189005850019EBD2166
:102FD00089005E50BE2189005C50C02189005A5092
:102FE000C22189005C50C42189005A50C621890041
:102FF0005C50C82189005A50CA2189005C50CC21FC
:1030000089005A50CE2189005C50D02189005A5045
:10301000D22189005C50D42189005A50D6218900E0
:103020005D50D82189005A502C49D9240968A40040
:103030001951DA24A4001D51DC24A4001A51DD2406
:10304000A4001951DE2189005D50E02189005A5009
:103050002349E1240968A4001951E224A4001D5168
:10306000E424A4001A51E524A4001951E6218900A2
:103070005D50E82189005A50EA2189005D50EC2119
:1030800089005A50EE2189005D50F02189005A5084
:10309000F22189005D50F42189005A50F6229200F5
:1030A0009D50F82292009850F7BC01BC0047C046E2
:1030B000C46B00008C060020B86B000008050020DF
:1030C000C06B00006C04002070040020BC6B00008A
:1030D000C86B0000680400200C0500207404002068
:1030E00078040020021C00235232137053703130D8
:1030F000223A137003707047002070477047000039
:10310000014B03607047C046A06C000008B5074B38
:10311000074808330360031C543319221A70054909
:10312000054A00F0D9F908BC01BC0047A86C0000B2
:103130001C0B0020013100000000002010B5094BDD
:1031400009491C688A6818688442FAD1074819211D
:10315000801A00F0D1F9FA239B005C43001910BCDF
:1031600002BC0847780B002010E000E0204E000071
:1031700038B5094C051C0949201CFFF7D0FB291C58
:10318000201C0A22FFF74AFC201C0549FFF7E6FB3A
:1031900038BC01BC0047C046100B0020B86C0000D2
:1031A000BD6C0000F0B5002385B00293071C01251B
:1031B0001C1C381CFFF744FD01F068F9211C061C9B
:1031C00001F0AEF80390281C01F060F9011C03988F
:1031D00001F064FA011C201C01F0A4F8041C211C5D
:1031E000301C01F09DF8011C039801F0A3F9011CAB
:1031F000029801F097F801350290FB2DD9D1224DAC
:103200002249281CFFF78BFB214E3B019B591A6872
:10321000204B9A4201D1204900E020493F01281C5F
:10322000F619FFF77CFB317B281C0A22FFF7FFFB16
:10323000281C1B49FFF773FB0A22281CFA21FFF701
:1032400023FC281C1749FFF76AFB201C00F04EFDE9
:103250000224021C0B1C281C0094FFF7D9FC281C1C
:103260001149FFF75CFB0298104901F017FA00F0D2
:103270003DFD021C0B1C281C0094FFF7D3FC05B07D
:10328000F0BC01BC0047C046040B0020CB6C000022
:103290008C060020A0A00240C56C0000C86C000095
:1032A000CE6C0000D36C0000DB6C000000007943A2
:1032B00038B50C4D0C49281CFFF731FBFFF73EFFDA
:1032C000041C0520FFF7EBFCFFF738FF0A22011B67
:1032D000281CFFF7D9FB281C0449FFF73FFB38BC2B
:1032E00001BC0047100B0020E76C0000066D0000D9
:1032F00038B50E4C04252068FFF7D1FC0720FFF7F6
:10330000B1FC013D2068FFF7CAFC2D060720FFF73E
:10331000A9FC2D0EEFD120683221183000F072FB8D
:103320000131216038BC01BC0047C046800A002042
:1033300010B5134C1349201CFFF7F1FA201C0A2288
:103340000421FFF7A1FB201C0F49FFF7E8FA201C1E
:103350000E49FFF7E4FA06E0201CFFF760FA011CB3
:10336000201CFFF7D3FA201CFFF748FA0028F3D1FE
:10337000201C0749FFF7F2FA10BC01BC0047C04609
:10338000100B0020096D00000F6D0000126D000091
:10339000286D000038B5234D0024285D0721013435
:1033A000FFF70CFD0C2CF8D11F4D0024285D0321E4
:1033B0000134FFF703FD0B2CF8D124200021FFF787
:1033C000FDFC23200221FFF7F9FC07200021FFF775
:1033D000F5FC164B23201A6815490023FFF7AEF9B8
:1033E000144C9621201C8901FFF7D4F9201C1249A6
:1033F000FFF7B4FA114C9621201C8901FFF7CAF996
:10340000201C0F49FFF7AAFA0E4C9621201C8901B7
:10341000FFF7C0F9201C0C49FFF7A0FA38BC01BC2B
:103420000047C046A76D00009C6D00007C0A00208C
:1034300071310000F80A0020396D0000040B0020F3
:10344000556D0000100B0020716D000038B5154857
:10345000FFF76EFFFFF74CFFFFF72AFF2420FFF76F
:1034600001FC1148FFF71BFC104C0C21201CFFF73E
:103470006BFA201C0E49FFF752FA0E4B201C1968FC
:103480000A22FFF7CBFA201C0B49FFF767FA0B4D16
:103490000024285D0134FFF785FE0B2CF9D138BCE0
:1034A00001BC0047740B0020DC050000040B002069
:1034B0008B6D0000780B0020996D00009C6D000062
:1034C00008B5FFF7DBF808BC01BC004708B5FFF7FB
:1034D00061FFFFF7BBFFFCE703460846194602F011
:1034E000FBBC00BF02B4714649084900095C4900B1
:1034F0008E4402BC704700BF4A1E08BF7047C0F030
:103500002481884240F21681114200F01781B0FAFE
:1035100080F3B1FA81F2A2EB0303C3F11F0304A20B
:1035200002EB03134FF000029F4600BFAFF3008091
:10353000B0EBC17F00BF42EB020228BFA0EBC1701D
:10354000B0EB817F00BF42EB020228BFA0EB81708D
:10355000B0EB417F00BF42EB020228BFA0EB4170FD
:10356000B0EB017F00BF42EB020228BFA0EB01706D
:10357000B0EBC16F00BF42EB020228BFA0EBC160FD
:10358000B0EB816F00BF42EB020228BFA0EB81606D
:10359000B0EB416F00BF42EB020228BFA0EB4160DD
:1035A000B0EB016F00BF42EB020228BFA0EB01604D
:1035B000B0EBC15F00BF42EB020228BFA0EBC150DD
:1035C000B0EB815F00BF42EB020228BFA0EB81504D
:1035D000B0EB415F00BF42EB020228BFA0EB4150BD
:1035E000B0EB015F00BF42EB020228BFA0EB01502D
:1035F000B0EBC14F00BF42EB020228BFA0EBC140BD
:10360000B0EB814F00BF42EB020228BFA0EB81402C
:10361000B0EB414F00BF42EB020228BFA0EB41409C
:10362000B0EB014F00BF42EB020228BFA0EB01400C
:10363000B0EBC13F00BF42EB020228BFA0EBC1309C
:10364000B0EB813F00BF42EB020228BFA0EB81300C
:10365000B0EB413F00BF42EB020228BFA0EB41307C
:10366000B0EB013F00BF42EB020228BFA0EB0130EC
:10367000B0EBC12F00BF42EB020228BFA0EBC1207C
:10368000B0EB812F00BF42EB020228BFA0EB8120EC
:10369000B0EB412F00BF42EB020228BFA0EB41205C
:1036A000B0EB012F00BF42EB020228BFA0EB0120CC
:1036B000B0EBC11F00BF42EB020228BFA0EBC1105C
:1036C000B0EB811F00BF42EB020228BFA0EB8110CC
:1036D000B0EB411F00BF42EB020228BFA0EB41103C
:1036E000B0EB011F00BF42EB020228BFA0EB0110AC
:1036F000B0EBC10F00BF42EB020228BFA0EBC1003C
:10370000B0EB810F00BF42EB020228BFA0EB8100AB
:10371000B0EB410F00BF42EB020228BFA0EB41001B
:10372000B0EB010F00BF42EB020228BFA0EB01008B
:10373000104670470CBF012000207047B1FA81F29B
:10374000C2F11F0220FA02F0704708B14FF0FF30BB
:1037500000F066B90029F8D02DE90340FFF7CCFE50
:10376000BDE8064002FB00F3A1EB0301704700BF78
:10377000002900F03E8180EA010C48BF49424A1E00
:1037800000F01F81030048BF43428B4240F21E817C
:10379000114200F02381B3FA83F2B1FA81F0A0EB79
:1037A0000202C2F11F0204A000EB02124FF000005F
:1037B000974600BFAFF30080B3EBC17F00BF40EB83
:1037C000000028BFA3EBC173B3EB817F00BF40EBC8
:1037D000000028BFA3EB8173B3EB417F00BF40EB38
:1037E000000028BFA3EB4173B3EB017F00BF40EBA8
:1037F000000028BFA3EB0173B3EBC16F00BF40EB28
:10380000000028BFA3EBC163B3EB816F00BF40EBA7
:10381000000028BFA3EB8163B3EB416F00BF40EB17
:10382000000028BFA3EB4163B3EB016F00BF40EB87
:10383000000028BFA3EB0163B3EBC15F00BF40EB07
:10384000000028BFA3EBC153B3EB815F00BF40EB87
:10385000000028BFA3EB8153B3EB415F00BF40EBF7
:10386000000028BFA3EB4153B3EB015F00BF40EB67
:10387000000028BFA3EB0153B3EBC14F00BF40EBE7
:10388000000028BFA3EBC143B3EB814F00BF40EB67
:10389000000028BFA3EB8143B3EB414F00BF40EBD7
:1038A000000028BFA3EB4143B3EB014F00BF40EB47
:1038B000000028BFA3EB0143B3EBC13F00BF40EBC7
:1038C000000028BFA3EBC133B3EB813F00BF40EB47
:1038D000000028BFA3EB8133B3EB413F00BF40EBB7
:1038E000000028BFA3EB4133B3EB013F00BF40EB27
:1038F000000028BFA3EB0133B3EBC12F00BF40EBA7
:10390000000028BFA3EBC123B3EB812F00BF40EB26
:10391000000028BFA3EB8123B3EB412F00BF40EB96
:10392000000028BFA3EB4123B3EB012F00BF40EB06
:10393000000028BFA3EB0123B3EBC11F00BF40EB86
:10394000000028BFA3EBC113B3EB811F00BF40EB06
:10395000000028BFA3EB8113B3EB411F00BF40EB76
:10396000000028BFA3EB4113B3EB011F00BF40EBE6
:10397000000028BFA3EB0113B3EBC10F00BF40EB66
:10398000000028BFA3EBC103B3EB810F00BF40EBE6
:10399000000028BFA3EB8103B3EB410F00BF40EB56
:1039A000000028BFA3EB4103B3EB010F00BF40EBC6
:1039B000000028BFA3EB0103BCF1000F48BF404249
:1039C00070479CEA000F48BF4042704738BF002054
:1039D00004BF4FEAEC7040F001007047B1FA81F289
:1039E000C2F11F02BCF1000F23FA02F048BF4042AF
:1039F00070470028C8BF6FF00040B8BF4FF00040CC
:103A000000F00EB80029F4D02DE90340FFF7B3FE13
:103A1000BDE8064002FB00F3A1EB0301704700BFC5
:103A2000704700BF81F0004102E000BF83F0004317
:103A300030B54FEA41044FEA430594EA050F08BF49
:103A400090EA020F1FBF54EA000C55EA020C7FEA0D
:103A5000645C7FEA655C00F0E2804FEA5454D4EB8A
:103A60005555B8BF6D420CDD2C4480EA020281EA54
:103A7000030382EA000083EA010180EA020281EA8C
:103A80000303362D88BF30BD11F0004F4FEA0131DE
:103A90004FF4801C4CEA113102D0404261EB4101ED
:103AA00013F0004F4FEA03334CEA133302D0524273
:103AB00063EB430394EA050F00F0A780A4F101042F
:103AC000D5F1200E0DDB02FA0EFC22FA05F2801869
:103AD00041F1000103FA0EF2801843FA05F359414F
:103AE0000EE0A5F120050EF1200E012A03FA0EFCCE
:103AF00028BF4CF0020C43FA05F3C01851EBE371F8
:103B000001F0004507D54FF0000EDCF1000C7EEB14
:103B100000006EEB0101B1F5801F1BD3B1F5001F52
:103B20000CD349085FEA30004FEA3C0C04F1010471
:103B30004FEA445212F5800F80F09A80BCF1004F9A
:103B400008BF5FEA500C50F1000041EB045141EA1C
:103B5000050130BD5FEA4C0C404141EB010111F41D
:103B6000801FA4F10104E9D191F0000F04BF0146C8
:103B70000020B1FA81F308BF2033A3F10B03B3F1A6
:103B800020020CDA0C3208DD02F1140CC2F10C0236
:103B900001FA0CF021FA02F10CE002F11402D8BF94
:103BA000C2F1200C01FA02F120FA0CFCDCBF41EA60
:103BB0000C019040E41AA2BF01EB0451294330BD2F
:103BC0006FEA04041F3C1CDA0C340EDC04F114040C
:103BD000C4F1200220FA04F001FA02F340EA0300E3
:103BE00021FA04F345EA030130BDC4F10C04C4F129
:103BF000200220FA02F001FA04F340EA0300294609
:103C000030BD21FA04F0294630BD94F0000F83F452
:103C1000801306BF81F480110134013D4EE77FEA35
:103C2000645C18BF7FEA655C29D094EA050F08BF81
:103C300090EA020F05D054EA000C04BF1946104662
:103C400030BD91EA030F1EBF0021002030BD5FEAA6
:103C5000545C05D14000494128BF41F0004130BDCE
:103C600014F580043CBF01F5801130BD01F0004522
:103C700045F0FE4141F470014FF0000030BD7FEA95
:103C8000645C1ABF194610467FEA655C1CBF0B4690
:103C9000024650EA013406BF52EA033591EA030FA7
:103CA00041F4002130BD00BF90F0000F04BF00219F
:103CB000704730B54FF4806404F132044FF00005D2
:103CC0004FF0000150E700BF90F0000F04BF00214B
:103CD000704730B54FF4806404F1320410F00045B1
:103CE00048BF40424FF000013EE700BF42004FEAAC
:103CF000E2014FEA31014FEA02701FBF12F07F4329
:103D000093F07F4F81F06051704792F0000F14BF25
:103D100093F07F4F704730B54FF4607401F0004569
:103D200021F0004120E700BF50EA010208BF7047C0
:103D300030B54FF000050AE050EA010208BF7047B5
:103D400030B511F0004502D5404261EB41014FF41E
:103D5000806404F132045FEA915C3FF4DCAE4FF022
:103D600003025FEADC0C18BF03325FEADC0C18BF09
:103D7000033202EBDC02C2F1200300FA03FC20FA5A
:103D800002F001FA03FE40EA0E0021FA02F11444A7
:103D9000C1E600BF70B54FF0FF0C4CF4E06C1CEABC
:103DA00011541DBF1CEA135594EA0C0F95EA0C0F31
:103DB00000F0DEF82C4481EA030621EA4C5123EAA4
:103DC0004C5350EA013518BF52EA033541F48011D3
:103DD00043F4801338D0A0FB02CE4FF00005E1FB86
:103DE00002E506F00042E0FB03E54FF00006E1FBD0
:103DF00003569CF0000F18BF4EF0010EA4F1FF0413
:103E0000B6F5007F64F5407404D25FEA4E0E6D4152
:103E100046EB060642EAC62141EA55514FEAC52063
:103E200040EA5E504FEACE2EB4F1FD0C88BFBCF5DF
:103E3000E06F1ED8BEF1004F08BF5FEA500E50F190
:103E4000000041EB045170BD06F0004646EA010156
:103E500040EA020081EA0301B4EB5C04C2BFD4EB88
:103E60000C0541EA045170BD41F480114FF0000E81
:103E7000013C00F3AB8014F1360FDEBF002001F0EF
:103E8000004170BDC4F10004203C35DA0C341BDC69
:103E900004F11404C4F1200500FA05F320FA04F03B
:103EA00001FA05F240EA020001F0004221F000416F
:103EB00010EBD37021FA04F642EB06015EEA430EE2
:103EC00008BF20EAD37070BDC4F10C04C4F1200512
:103ED00000FA04F320FA05F001FA04F240EA0200C5
:103EE00001F0004110EBD37041F100015EEA430E96
:103EF00008BF20EAD37070BDC4F1200500FA05F2B6
:103F00004EEA020E20FA04F301FA05F243EA020334
:103F100021FA04F001F0004121FA04F220EA020043
:103F200000EBD3705EEA430E08BF20EAD37070BD89
:103F300094F0000F0FD101F00046400041EB010169
:103F400011F4801F08BF013CF7D041EA060195F04B
:103F5000000F18BF704703F00046520043EB030305
:103F600013F4801F08BF013DF7D043EA06037047F2
:103F700094EA0C0F0CEA135518BF95EA0C0F0CD0FD
:103F800050EA410618BF52EA4306D1D181EA030143
:103F900001F000414FF0000070BD50EA410606BF3D
:103FA0001046194652EA430619D094EA0C0F02D182
:103FB00050EA013613D195EA0C0F05D152EA0336C7
:103FC0001CBF104619460AD181EA030101F00041E5
:103FD00041F0FE4141F470014FF0000070BD41F02E
:103FE000FE4141F4780170BD70B54FF0FF0C4CF408
:103FF000E06C1CEA11541DBF1CEA135594EA0C0F27
:1040000095EA0C0F00F0A7F8A4EB050481EA030E73
:1040100052EA03354FEA013100F088804FEA03335A
:104020004FF0805545EA131343EA12634FEA022228
:1040300045EA111545EA10654FEA00260EF00041E9
:104040009D4208BF964244F1FD0404F5407402D23B
:104050005B084FEA3202B61A65EB03055B084FEACC
:1040600032024FF480104FF4002CB6EB020E75EBC9
:10407000030E22BFB61A754640EA0C005B084FEAF1
:104080003202B6EB020E75EB030E22BFB61A75466E
:1040900040EA5C005B084FEA3202B6EB020E75EBB9
:1040A000030E22BFB61A754640EA9C005B084FEA31
:1040B0003202B6EB020E75EB030E22BFB61A75463E
:1040C00040EADC0055EA060E18D04FEA051545EA2D
:1040D00016754FEA06164FEAC30343EA52734FEAD6
:1040E000C2025FEA1C1CC0D111F4801F0BD141EA4F
:1040F00000014FF000004FF0004CB6E711F4801FB4
:1041000004BF01430020B4F1FD0C88BFBCF5E06F93
:104110003FF6AFAEB5EB030C04BFB6EB020C5FEAA3
:10412000500C50F1000041EB045170BD0EF0004EF8
:104130004EEA113114EB5C04C2BFD4EB0C0541EA2A
:10414000045170BD41F480114FF0000E013C90E627
:1041500045EA060E8DE60CEA135594EA0C0F08BFEB
:1041600095EA0C0F3FF43BAF94EA0C0F0AD150EAEA
:1041700001347FF434AF95EA0C0F7FF425AF10467D
:1041800019462CE795EA0C0F06D152EA03353FF4A5
:10419000FDAE1046194622E750EA410618BF52EA22
:1041A00043067FF4C5AE50EA41047FF40DAF52EAF6
:1041B00043057FF4EBAE12E74FF0FF3C06E000BF93
:1041C0004FF0010C02E000BF4FF0010C4DF804CDA0
:1041D0004FEA410C7FEA6C5C4FEA430C18BF7FEA60
:1041E0006C5C1BD001B050EA410C0CBF52EA430C8E
:1041F00091EA030F02BF90EA020F0020704710F10E
:10420000000F91EA030F58BF994208BF90422CBF9C
:10421000D8176FEAE37040F0010070474FEA410C95
:104220007FEA6C5C02D150EA013C07D14FEA430CB3
:104230007FEA6C5CD6D152EA033CD3D05DF8040B24
:10424000704700BF8446104662468C461946634656
:1042500000E000BF01B5FFF7B7FF002848BF10F12D
:10426000000F01BD4DF808EDFFF7F4FF0CBF012072
:1042700000205DF808FB00BF4DF808EDFFF7EAFFEE
:1042800034BF012000205DF808FB00BF4DF808EDA9
:10429000FFF7E0FF94BF012000205DF808FB00BF9E
:1042A0004DF808EDFFF7CEFF94BF012000205DF828
:1042B00008FB00BF4DF808EDFFF7C4FF34BF012035
:1042C00000205DF808FB00BF4FEA410212F5001222
:1042D00015D211D56FF47873B3EB625212D94FEA4D
:1042E000C12343F0004343EA505311F0004F23FA37
:1042F00002F018BF404270474FF00000704750EA8C
:10430000013005D111F0004008BF6FF00040704748
:104310004FF00000704700BF80F0004002E000BF97
:1043200081F0004142001FBF5FEA410392EA030FA0
:104330007FEA226C7FEA236C6AD04FEA1262D2EBEA
:104340001363C1BFD218414048404140B8BF5B42EF
:10435000192B88BF704710F0004F40F4000020F088
:104360007F4018BF404211F0004F41F4000121F09E
:104370007F4118BF494292EA030F3FD0A2F10102E8
:1043800041FA03FC10EB0C00C3F1200301FA03F126
:1043900000F0004302D5494260EB4000B0F5000F49
:1043A00013D3B0F1807F06D340084FEA310102F108
:1043B0000102FE2A51D2B1F1004F40EBC25008BFBA
:1043C00020F0010040EA03007047490040EB000084
:1043D00010F4000FA2F10102EDD1B0FA80FCACF1B3
:1043E000080CB2EB0C0200FA0CF0AABF00EBC250B2
:1043F00052421843BCBFD0401843704792F0000FA0
:1044000081F4000106BF80F400000132013BB5E7F2
:104410004FEA41037FEA226C18BF7FEA236C21D068
:1044200092EA030F04D092F0000F08BF08467047CD
:1044300090EA010F1CBF0020704712F07F4F04D19B
:10444000400028BF40F00040704712F100723CBFAE
:1044500000F50000704700F0004343F0FE4040F4D8
:10446000000070477FEA226216BF08467FEA236396
:104470000146420206BF5FEA412390EA010F40F481
:10448000800070474FF0000304E000BF10F00043CD
:1044900048BF40425FEA000C08BF704743F09643B4
:1044A00001464FF000001CE050EA010208BF7047CF
:1044B0004FF000030AE000BF50EA010208BF704756
:1044C00011F0004302D5404261EB41015FEA010C6B
:1044D00002BF84460146002043F0B64308BFA3F163
:1044E0008053A3F50003BCFA8CF2083AA3EBC25345
:1044F00010DB01FA02FC634400FA02FCC2F1200264
:10450000BCF1004F20FA02F243EB020008BF20F09A
:104510000100704702F1200201FA02FCC2F1200200
:1045200050EA4C0021FA02F243EB020008BF20EAF5
:10453000DC7070474FF0FF0C1CEAD0521EBF1CEA23
:10454000D15392EA0C0F93EA0C0F6FD01A4480EA11
:10455000010C400218BF5FEA41211ED04FF00063FA
:1045600043EA501043EA5111A0FB01310CF0004026
:10457000B1F5000F3EBF490041EAD3715B0040EA4C
:10458000010062F17F02FD2A1DD8B3F1004F40EB1C
:10459000C25008BF20F00100704790F0000F0CF0EF
:1045A000004C08BF49024CEA502040EA51207F3AB3
:1045B000C2BFD2F1FF0340EAC250704740F400008E
:1045C0004FF00003013A5DDC12F1190FDCBF00F07F
:1045D00000407047C2F10002410021FA02F1C2F12D
:1045E000200200FA02FC5FEA310040F1000053EAC9
:1045F0004C0308BF20EADC70704792F0000F00F017
:10460000004C02BF400010F4000F013AF9D040EA1C
:104610000C0093F0000F01F0004C02BF490011F4B0
:10462000000F013BF9D041EA0C018FE70CEAD153AE
:1046300092EA0C0F18BF93EA0C0F0AD030F0004C2E
:1046400018BF31F0004CD8D180EA010000F00040E2
:10465000704790F0000F17BF90F0004F084691F0A0
:10466000000F91F0004F14D092EA0C0F01D14202DA
:104670000FD193EA0C0F03D14B0218BF084608D1A3
:1046800080EA010000F0004040F0FE4040F40000ED
:10469000704740F0FE4040F4400070474FF0FF0C80
:1046A0001CEAD0521EBF1CEAD15392EA0C0F93EAC7
:1046B0000C0F69D0A2EB030280EA010C49024FEA19
:1046C000402037D04FF0805343EA111143EA1013D2
:1046D0000CF000408B4238BF5B0042F17D024FF48A
:1046E000000C8B4224BF5B1A40EA0C00B3EB510F65
:1046F00024BFA3EB510340EA5C00B3EB910F24BF4E
:10470000A3EB910340EA9C00B3EBD10F24BFA3EBD2
:10471000D10340EADC001B0118BF5FEA1C1CE0D19A
:10472000FD2A3FF650AF8B4240EBC25008BF20F04D
:10473000010070470CF0004C4CEA50207F32C2BFA1
:10474000D2F1FF0340EAC250704740F400004FF03E
:104750000003013A37E792F0000F00F0004C02BF6F
:10476000400010F4000F013AF9D040EA0C0093F039
:10477000000F01F0004C02BF490011F4000F013B93
:10478000F9D041EA0C0195E70CEAD15392EA0C0FFB
:1047900008D142027FF47DAF93EA0C0F7FF470AF33
:1047A000084676E793EA0C0F04D14B023FF44CAF76
:1047B00008466EE730F0004C18BF31F0004CCAD10B
:1047C00030F000427FF45CAF31F000437FF43CAF47
:1047D0005FE700BF4BB942B9002908BF002802D0EB
:1047E0004FF0FF310846FFF71BB982B0EC462DE9C8
:1047F000005000F05FF8DDF804E002B00CBC704738
:10480000434203EA0001B1FA81F0C0F11F00704792
:1048100038B50022002304460D46FFF72DFD28B9C8
:1048200020462946BDE8384000F00AB8204605F188
:10483000004100F005F8404261EB410138BD00BF86
:104840000023D0B50022C3F6F05306460F46FFF70B
:10485000A1FA01F07BF80446FFF726FA00230022B4
:10486000C4F2F013FFF796FA02460B46304639467B
:10487000FFF7DCF801F06AF80022024310462146F7
:10488000D0BD00BF2DE970431546804689461C46C1
:1048900001F07CF805FB01F6A5FB002300FB046496
:1048A000E318069CB8EB020269EB0303C4E900239A
:1048B000BDE87083F8B5144606460F461D4601F064
:1048C000C5F900FB05F5A0FB042304FB0154E31824
:1048D000069CB21A67EB0303C4E90023F8BD00BFCE
:1048E000036803B11B181846704700BF03685A00DD
:1048F0004CBF43F0004323F00043C018704700BF93
:104900002DE9F84F0446914641B301F1FF3BDA46E9
:10491000002707EB0A0000EBD0756D1004EBC5060D
:104920003046FFF7E3FFAB45804610D0691C04EB2F
:10493000C100FFF7DBFF0138C84504D9BD4209D0EB
:1049400005F1FF3AE5E7484505D26F1CE1E74FF076
:10495000FF30F1E700263046BDE8F88F0E463046BE
:10496000BDE8F88F30B52B4B83B004468D1E002B6D
:1049700049D0284601A9AFF300800346002822D081
:104980002A4618460199FFF7BBFF054600281DD0AF
:10499000FFF7ACFF6B68A064012B10D0281D002B23
:1049A00022DBFFF7A3FF0021E06421650368002BF1
:1049B0000FDBFFF79BFF2061002003B030BD002319
:1049C00023610520F9E720610920F6E7206109202D
:1049D000F3E7C3F3036058B101280CD002280ED0CE
:1049E000002020610920E8E70122E0642265DDE77C
:1049F000094B2361E1E7094A00202261DDE708490C
:104A000000202161D9E7074A07491346881AC210D6
:104A10000192B5E700000000294F0000254F00007B
:104A2000214F0000D85F0000C8600000036810B587
:104A30000446D80706D4990704F1480009D500F0C8
:104A400009FD23685A0709D518070ED5D90613D5CD
:104A500010BD00F0F7FC23685A07F5D404F1D0002C
:104A600000F000FD23681807F0D404F5D87000F0BA
:104A700001FD2368D906EBD404F50C70BDE81040A5
:104A800000F03CBD2DE9F047ADF5916D02AC0F1D76
:104A9000261D054691460FCF0FC60FCF0FC60FCF6D
:104AA0000FC697E80F00D5F80C800027D5F818A09E
:104AB00086E80F00216C28462760FFF753FF064663
:104AC000B94514BF4FF00A094FF00909FEB1A16BB7
:104AD00049F01009616401208DE8100449462A4616
:104AE0002B46C04700282BD1002E2AD1204692A960
:104AF0004FF4107201F0FAF9082F28D1216C2846E2
:104B0000FFF730FF06464FF00909002EDFD1206C79
:104B100021464FF41072686192A801F0E7F92F69FD
:104B2000294692AA4846B847A09B074663640120DD
:104B30008DE8100449462A462B46C0470028D3D0AA
:104B40000926304622B00DF5806DBDE8F087072FAD
:104B5000F6D1201D00F06AFC38B504460D46296CDC
:104B60002046FFF7FFFE50B92A6C012062612369DD
:104B700021462A4698470828F1D0072801D0FDF79A
:104B800031F9281D00F052FC11B933B102207047F1
:104B900004298CBF0220012070470F2A01D902206E
:104BA000704700EB820042681846009B1A6070470D
:104BB00010B50A4684B000210B4603AC0094FFF701
:104BC000E3FF039804B010BD11B933B10220704760
:104BD00004298CBF0220012070470F2A01D902202E
:104BE0007047009900EB82020968184651607047CF
:104BF00000B585B004AB43F8042D0A4600210093AC
:104C00000B46FFF7E1FF05B000BD00BF2DE9F04FF7
:104C1000CD6C0C4655F8041B8BB0174600F008020B
:104C20001E46039200F003080795002B40F0E08039
:104C300009020691216D8DF821300323B8F1020F8E
:104C40008DF8203008BFA56B11F0010340F0E4801F
:104C5000019304F158030293D5F80090B9F1000FC5
:104C600000F0DC80022E00F0BF80B5F80090B5F8AF
:104C700002A00435A26C0F212AF0010B38469344A0
:104C8000FFF796FF834518D829F0010CE3440AF09A
:104C9000010A09F00103584543EA4A092CBF0020E4
:104CA0000120B9F1010F12D032D2B8F1000F02D0B9
:104CB000002840F017810435CEE70AF0010A09F018
:104CC000010343EA4A090020B9F1010FECD1B8F120
:104CD000000F40F0C880C8B16B68D5F800909A1CEE
:104CE00019D0029A013309920DD0281DFFF7F8FD63
:104CF0004FEAD972014609AB2046AFF30080002885
:104D000000F0EC80099A002A40F0CC800835A3E737
:104D1000B9F1020F03D009200BB0BDE8F08F2B686A
:104D200023F000420092B8F1000F40F08380002889
:104D300053D00398002840F0B2800098002800F07B
:104D4000B180009B05F1040ADB07DDF80C9010D45C
:104D5000029950460991FFF7C3FD039A014609AB3A
:104D60002046AFF30080002833D10AF1040A4FF047
:104D70000109CDF81080AB46B84650460596029F13
:104D800011E000998E4200F0C0800997FFF7A8FD5E
:104D90005246014609AB2046AFF30080B14698B9B0
:104DA000281D06F10109051D0997FFF799FD09ABBB
:104DB000014600222046AFF30080824609F1010639
:104DC0002846BAF1000FDCD04746059EDDF810807A
:104DD0005D46009A4A4565D02B68002B7CDB009924
:104DE000481C05EB800537E7D5F804A0083541E7F6
:104DF0000B04C1F30740216D0222B8F1020F0693A4
:104E000005EB800508BFA56B11F001038DF82100AB
:104E10008DF820203FF41CAF00200190384606A9F1
:104E200000F004FC00287FF476AF019A002A43D1F9
:104E3000082071E70D213846D4F82090FFF7B8FE1E
:104E40008145C9D1A26A9542C6D10098291D002288
:104E50000423A062E262236361632868002857DBB1
:104E600001220192BBE70D213846D4F82090FFF7CC
:104E70009FFE81457FF44AAFA16A8D427FF446AF21
:104E80002846FFF733FD0F2102463846FFF7B0FEF4
:104E9000384600212246FFF7ABFE07203CE7009989
:104EA00000299AD138460D21FFF782FE099B206226
:104EB0006362A56206202FE70F213846FFF778FED0
:104EC0000E2102463846FFF793FE38460F21134A5B
:104ED000FFF78EFE07201FE7043580E7CDF824801A
:104EE0000835B9E62846FFF701FD04350646A563F7
:104EF0002046AFF3008000283FF40DAF38460F2165
:104F00003246FFF775FE072006E75D464746C9E7CC
:104F1000009B591C05EB8100B3E700BF00000000B7
:104F2000022373E6012371E600236FE62DE9F047C3
:104F30000446E8B004290CD8DFE801F03903929464
:104F40000F00150C012B96B200F07881052B00F0B4
:104F5000C880022068B0BDE8F087002BF9D1102A84
:104F6000F7D82368D90600F1738164A8019200F094
:104F7000CFFA019AA36BD00744BF53F8040B649097
:104F8000910744BF53F8041B6591500748BF53F87D
:104F9000041B64A848BF6691110748BF53F8042B4F
:104FA000A36348BF679200F0A9FA0020D2E7002B64
:104FB000CFD1A36BD00791B244BF53F8042B6260EA
:104FC0008A0744BF53F8042BA260480744BF53F834
:104FD000042BE2600A0744BF53F8042B2261C80681
:104FE00044BF53F8042B62618A0644BF53F8042B74
:104FF000A261480644BF53F8042BE2610A0644BF8D
:1050000053F8042B2262C80544BF53F8042B626294
:105010008A0544BF53F8042BA262480544BF53F8E5
:10502000042BE2620A0544BF53F8042B2263C80430
:1050300044BF53F8042B626311F400501CBF53F8B3
:10504000042BA2634A0444BF53F8042BE2630A040E
:1050500044BF53F8042B2264002840D1A36379E7AE
:10506000012077E7032B7FF474AF160C95B2AA19D1
:10507000102A3FF66EAF2368180700F10A8144A892
:1050800000F01AFAA76B4FEA450E3B460DB30EF13E
:10509000FF3C44A953F8040B01EBC60662460CF032
:1050A000010146F8040B92B129B153F8041B013AEF
:1050B00046F8041B0BD0184650F8045B314641F803
:1050C000045B5D68031D75600E1D023AF3D107EBAA
:1050D0008E0344A8A36300F0CDF900203AE7002036
:1050E00038E777192022BA42FFF433AF012B00F0E2
:1050F000A8800F2D40F2A8803746F6B1052B7FF42B
:1051000028AF0F2D11D82268D0070ED522F001014B
:10511000052B216000F0DA8022F00302204640F8DF
:10512000482B019300F092F9019B1FB122685107AF
:1051300000F1B780012B00F0BE800F2D74D9002F35
:1051400040F09F80D4F83890002EC8462EDD4946A6
:105150004FEA46080DF1080C51F8046B0CEBC50240
:1051600008F1FF3000F0010A42F8046BA8F1020CCC
:10517000D0B1BAF1000F08D051F8040B0CF1FF3C8C
:10518000BCF1FF3F42F8040B0ED00E4656F804ABBC
:10519000104640F804AB4968ACF1020C5160311D77
:1051A000021DBCF1FF3FF0D109EB88089FB3102D21
:1051B0002CBF2E46102668AA414602EBC60A4FEACB
:1051C000470951F8046BAAF5C87209F1FF3000F0E5
:1051D000010A42F8046BA9F1020CD0B1BAF1000F38
:1051E00008D051F8040B0CF1FF3CBCF1FF3F42F832
:1051F000040B0ED00E4656F804AB104640F804AB34
:105200004968ACF1020C5160311D021DBCF1FF3F39
:10521000F0D108EB8908012B2BD00F2DC4F8388072
:1052200008D9FFB9384695E602A8019300F016F9AF
:10523000019B84E702A800F00DF9F2E7771910222C
:1052400051E70F2D3FF685AE102F10D9103F55E7CF
:1052500023F01003236004F50C70019200F058F95C
:10526000019A82E624A800F0FDF8002072E60027EB
:1052700047E708F1040302A8A36300F0E3F8002065
:1052800068E624A80193C5F1100600F0EFF8019B31
:1052900058E723F0080704F5D870276000F00CF9F0
:1052A000EDE622F00401204640F8D01B019300F007
:1052B000DDF8019B3EE702A8019300F0C7F8019BCF
:1052C000002F3FF43FAFC5F110063BE741F002016C
:1052D000204640F8481B019300F0C0F8019B24E7EA
:1052E000406C7047F0B50D46C96BADF5117D296472
:1052F00001AE2F1D04460FCF0FC60FCF0FC60FCF25
:105300000FC697E80F0086E80F004FF0FF330093B9
:1053100010992046FFF726FB58B9266921466A46B0
:10532000B04708280646F3D06846FFF77FFB062EF5
:1053300003D009200DF5117DF0BD20462946FFF769
:105340000BFC00BF10B4DC6BC16082611946002207
:105350001C6410BCFFF796BB38B54269C3680446AD
:105360000D460A6423B10122FFF78CFBFCF73AFDDE
:105370000369214602202A469847072803D00828B7
:1053800004D0FCF72FFD281D00F050F820462946D8
:10539000FFF7E2FBC36823B1CA6B0A640022FFF780
:1053A00071BB9FE7704700BF08B5836801460BB12A
:1053B0000120984708BD00BFF0B5D46BADF5277D3F
:1053C000146401AE171D05460C460FCF0FC60FCF54
:1053D0000FC60FCF0FC697E80F0086E80F004FF0FB
:1053E000FF330093109990A8FFF7BCFA034690AAE8
:1053F00068460C21BBB9FFF7FBFB21466846A8476E
:10540000064690A908206A466EB9949B98470528DD
:10541000064601D00928E5D16846FFF707FB30466C
:105420000DF5277DF0BD0926F6E700BF00F1340138
:1054300091E838009C46A6464CF8045D90E8FF0FC2
:10544000E54600BD90EC210B704700BF80EC210BBE
:10545000704700BF90EC200B704700BF80EC200B22
:10546000704700BFD0EC200B704700BFC0EC200B92
:10547000704700BFF0EC0201F0EC0211F0EC0221E9
:10548000F0EC0231F0EC0241F0EC0251F0EC026180
:10549000F0EC0271F0EC0281F0EC0291F0EC02A170
:1054A000F0EC02B1F0EC02C1F0EC02D1F0EC02E160
:1054B000F0EC02F1704700BFE0EC0201E0EC0211F9
:1054C000E0EC0221E0EC0231E0EC0241E0EC0251C0
:1054D000E0EC0261E0EC0271E0EC0281E0EC0291B0
:1054E000E0EC02A1E0EC02B1E0EC02C1E0EC02D1A0
:1054F000E0EC02E1E0EC02F1704700BFB0FC01819A
:10550000B0FC0191B0FC01A1B0FC01B1704700BF3B
:10551000A0FC0181A0FC0191A0FC01A1A0FC01B1B3
:10552000704700BFEC4600B52DE900502DE9FF1F84
:105530004FF000032DE90C0001A9FFF7D3FEDDF8C1
:1055400040E012B0704700BFEC4600B52DE90050B6
:105550002DE9FF1F4FF000032DE90C0001A9FFF713
:10556000FBFEDDF840E012B0704700BFEC4600B52E
:105570002DE900502DE9FF1F4FF000032DE90C002D
:1055800001A9FFF707FFDDF840E012B0704700BF48
:10559000EC4600B52DE900502DE9FF1F4FF0000348
:1055A0002DE90C0001ABFFF7CDFEDDF840E012B0B5
:1055B000704700BFEC4600B52DE900502DE9FF1FF4
:1055C0004FF000032DE90C0001AAFFF7F5FEDDF80E
:1055D00040E012B0704700BF027A03461AB9427A1F
:1055E00042B9B02070470068013A01021A72000EF9
:1055F000196070474168501E587251F8040B03221D
:10560000596001021A72000E1960704710B500212E
:1056100084B00C220DEB02040B460094FFF7B4FAA1
:10562000039804B010BD00BFF0E700BF2DE9F043C0
:10563000064685B00D464FF000094FF47F672846B7
:10564000FFF7CAFFB028044600F0B08010F08001D8
:1056500020D000F0F003802B74D0902B37D0A02BFB
:1056600045D0B02B56D0C02B00F0858000F0F8005C
:10567000D0280BD104F007035A1C42F40022304614
:1056800001210523FFF752FC0028D8D0092005B0DE
:10569000BDE8F0834FEA800203A85FFA82F8009029
:1056A0000D220B463046FFF76FFA039B600608F1A8
:1056B00004084CBFC8EB0303434403AC03930094BA
:1056C000002130460D220B46FFF77EFAB7E700F0C7
:1056D0000F020D2ADAD00F2AD8D0002103AC009493
:1056E00030460B4603ACFFF74FFA0094E8E7C1439E
:1056F00001F0070257FA02F0210700F47F6248BF69
:1057000042F48042002130460B46FFF70FFC002890
:10571000BCD194E7B1285DD0B2286ED0B32800F098
:10572000948000F0FC00B42846D004F00700421C2E
:1057300042F40022012130460B46FFF7F7FB002818
:10574000A4D17CE72846FFF747FF210240EA010485
:10575000B4F5004F9AD0230500211A0C30460B46B1
:105760002401FFF7E3FB002890D114F4004F18BF89
:105770004FF0010963E7C62872D0C72800F0838084
:1057800000F0F800C02800F09180C82C00F0A5803F
:10579000C92C7FF47BAF2846FFF71EFF00F00F01F6
:1057A00000F0F0024B1C43EA023268E7B9F1000F47
:1057B00000F0828000206AE704F00303591C41F4E2
:1057C0008022022130460B46FFF7B0FB00287FF411
:1057D0005DAF34E72846FFF7FFFE024600283FF49E
:1057E00055AF10F0F0017FF451AF30460B46FFF794
:1057F0009DFB00287FF44AAF21E700210D220B46D4
:1058000003AC30460094FFF7BFF92846FFF7E4FEEB
:10581000022402060CD500F07F0010FA04F1039A6E
:10582000284653180393FFF7D7FE07340306F2D434
:1058300000F07F0010FA04F1039B03AA03F5017C3A
:105840000CEB0104009203943AE72846FFF7C4FEEC
:1058500000F00F0200F0F001531C43EA013269E747
:105860002846FFF7B9FE00F00F0200F0F001531CCC
:1058700043EA0132032130460B46FFF757FB00286D
:105880007FF404AFDBE62846FFF7A6FE02460028B9
:105890003FF4FCAE10F0F0037FF4F8AE3046042184
:1058A000FFF744FB00287FF4F1AEC8E604F00F03D5
:1058B000591C41F42022DDE703AC49460E224B4639
:1058C00030460094FFF760F9304649460F224B46B8
:1058D0000094FFF779F94846D9E62846FFF77CFEA1
:1058E00000F0F00200F00F011032481C40EA0232D2
:1058F000C5E600BF10B5C26C84B0032054688DF8B3
:105900000C00D37924020832084601A901940292BE
:105910008DF80D30FFF78AFE04B010BD08B5FFF713
:1059200083FE806C08BD00BF08B5FFF77DFEC16C2B
:10593000C87901EB800303F1080008BD08B5FCF746
:1059400051FA00BF08B5FCF74DFA00BF4A0011D26A
:1059500012F5001211D20DD56FF47873B3EB6252C9
:105960000ED44FEAC12343F0004343EA505323FAD5
:1059700002F070474FF00000704750EA013002D14A
:105980004FF0FF3070474FF0000070472DE9F00FE7
:1059900000291D46C0F29C800024002DC0F2938097
:1059A00007460D4616469C46002B3CD18A4252D9EA
:1059B000B2FA82F33BB1C3F1200630FA06F5994002
:1059C0009A4098402943130CB1FBF3F697B203FBBE
:1059D000161107FB06F54FEA104C4CEA01418D42C7
:1059E00009D9891806F1FF3C80F011818D4240F2FF
:1059F0000E81023E8918491BB1FBF3F503FB151319
:105A000007FB05F780B240EA03439F4207D9691EAE
:105A10009B1880F002819F4240F2FF80023D45EAE0
:105A20000642002303E08B420AD900231A4610469F
:105A3000194614B1404261EB4101BDE8F00F7047D7
:105A4000B3FA83F3002B40F086808C4501D3824269
:105A5000ECD80122EBE712B90127B7FBF2F2B2FA58
:105A600082F6002E3AD1891A150C1FFA82FC012306
:105A7000B1FBF5F705FB17110CFB07F64FEA1048D1
:105A800048EA01418E4207D9891807F1FF3802D24E
:105A90008E4200F2D7804746891BB1FBF5F605FB25
:105AA00016110CFB06FC80B240EA0140844507D980
:105AB000711E821880F0AD80944540F2AA80023EAB
:105AC00046EA0742B3E7E443524263EB430367E726
:105AD000404261EB41014FF0FF345EE7B240C6F156
:105AE000200521FA05F320FA05F9B140150CB3FBA6
:105AF000F5F805FB18371FFA82FC0CFB08F349EA9E
:105B000001094FEA194141EA0747B040BB420AD9AF
:105B1000BF1808F1FF3180F09380BB4240F29080C3
:105B2000A8F10208BF18FE1AB6FBF5F305FB1367D0
:105B30000CFB03F61FFA89F949EA07418E4206D9A0
:105B40005F1E891876D28E4274D9023B8918891B50
:105B500043EA08438CE7C3F1200236FA02F10CFA5B
:105B600003F835FA02F730FA02F29D4041EA080CD8
:105B70004FEA1C48B7FBF8F91FFA8CFA08FB1977B3
:105B80000AFB09FB15432A0C42EA07479E40BB4526
:105B900009D917EB0C0709F1FF324FD2BB454DD99C
:105BA000A9F102096744CBEB0701B1FBF8F208FB4E
:105BB00012170AFB02FAADB245EA07418A4507D936
:105BC000551E11EB0C0137D28A4535D9023A614492
:105BD00042EA09421FFA86F84FEA124C08FB0CF71A
:105BE000360C95B208FB05F806FB057506FB0CFCA8
:105BF00005EB1845AF4288BF0CF5803CCAEB0101AC
:105C00000CEB1546B14212D309D000230FE76646CC
:105C1000F1E60E4646EA074209E70D46FFE610FAAE
:105C200003F31FFA88F808EB0545AB42EDD2013AC1
:105C30000023FCE63B468AE72A46C9E79146B2E7DD
:105C4000884670E7023F891826E700BF2DE9F00774
:105C5000144605460E46002B3FD18A424AD9B2FA75
:105C600082F343B1C3F1200035FA00F211FA03F6D2
:105C70009C409D401643230CB6FBF3F1A0B203FBFE
:105C8000116C00FB01F22F0C47EA0C46B24208D916
:105C90004F1E361980F0FB80B24240F2F880023984
:105CA0003619B61AB6FBF3F203FB126300FB02F0DF
:105CB000ADB245EA0343984207D9561E1B1980F03E
:105CC000E880984240F2E580023A42EA014200232D
:105CD00010461946BDE8F00770478B4243D8B3FA27
:105CE00083F4002C42D18B42234601D382423BD81D
:105CF0000122EDE712B90127B7FBF2F4B4FA84F2FE
:105D0000002A40F08780091B260CA7B20123B1FBB3
:105D1000F6F006FB101107FB00F24FEA154C4CEAB7
:105D200001418A4207D9091900F1FF3C02D28A4297
:105D300000F2CF806046C2EB010CBCFBF6F206FB22
:105D400012C107FB02F7ADB245EA0145AF4207D9E0
:105D5000511E2C1980F09F80A74240F29C80023A8D
:105D600042EA0042B4E700231A46B1E7C4F1200634
:105D700032FA06F7A34031FA06F520FA06FAA140F6
:105D80003B431E0CB5FBF6FC06FB1C591FFA83F8BF
:105D900008FB0CF74AEA010A4FEA1A4545EA0945A9
:105DA000AF4202FA04F905D9ED180CF1FF32C0F048
:105DB00085809446E91BB1FBF6F706FB171208FB3A
:105DC00007F81FFA8AFA4AEA0241884503D97A1E7F
:105DD000C9186ED3174647EA0C42170C1FFA89FC04
:105DE0000CFB07F695B24FEA19430CFB05FC03FBCD
:105DF000056503FB07F305EB1C45AE4288BF03F5C1
:105E00008033C8EB010103EB154399424ED346D0D2
:105E100000235DE79440C2F1200621FA06F520FA3E
:105E200006F99140260CB5FBF6F806FB1855A7B20B
:105E300007FB08F349EA01094FEA194141EA054C19
:105E400010FA02F5634509D91CEB040C08F1FF3286
:105E50003DD263453BD9A8F10208A444C3EB0C0230
:105E6000B2FBF6F306FB132007FB03F21FFA89F9D6
:105E700049EA00418A4206D9581E091925D28A42A8
:105E800023D9023B0919891A43EA08433FE73946F7
:105E900007E7324619E70A4642EA004218E7A040FF
:105EA0001FFA8CF101EB0545A842B1D2013A00235B
:105EB0000EE788458ED9023FC9188CE7AF427FF6BE
:105EC00078AFACF1020CED1874E70346DBE79046BF
:105ED000C4E7023809192EE710B40C4613460146F0
:105EE0002246022010BCFBF791BB00BF0F2AF0B482
:105EF0003AD941EA00039B0738D10C4603461546C0
:105F00002668103D1E6066685E60A6689E60E66852
:105F10001034DE6010330F2DF2D8A2F1100424F0FB
:105F20000F0402F00F021034032A00EB0403214493
:105F300011D90E461D46144656F8047B043C032C2A
:105F400045F8047BF8D8141F24F00304043402F04D
:105F5000030209191B192AB111F8014B013A03F880
:105F6000014BF9D1F0BC70470346F4E70346F3E771
:105F7000A1B20181B0B0AE010000000008B1018102
:105F8000B0B000840000000008B10181B0B000840E
:105F90000000000008B10181B0B0008400000000E2
:105FA000F8B500BFF8BC08BC9E4670478D170000CE
:105FB0003D15000051280000612E00000D31000049
:105FC000C1340000F8B500BFF8BC08BC9E4670475D
:045FD000191500009F
:105FD800D8C5FF7F01000000A4E8FF7FB0378480A8
:105FE800CCE8FF7FAB08B180F0E8FF7F010000003C
:105FF8006CE9FF7FB0A902802CEAFF7FB0B0A880CF
:106008007CEAFF7F64FFFF7F48EBFF7FA908B18030
:1060180070EBFF7F01000000ECEBFF7FB0AF0A8060
:10602800F8EEFF7F01000000FCEEFF7FAE3F278007
:10603800A8F2FF7F01000000A4F2FF7FAB10B2803E
:10604800FCF2FF7F0100000008F3FF7FA908B18080
:106058003CF3FF7F0100000048F3FF7F18FFFF7F3C
:1060680050F3FF7FAB26B280BCF3FF7F0100000036
:1060780094F5FF7FB0A80380A8F5FF7F010000001A
:10608800A4F5FF7FB0AD048064F8FF7FB0A803805B
:1060980084F8FF7FECFEFF7F88F8FF7FF0FEFF7F2C
:1060A80094F8FF7F01000000DCF8FF7FB0B0A78004
:1060B80094FBFF7FB0B0A68018FEFF7F01000000B0
:1060C8000000000000000000100000200000000098
:1060D80000000000FC02002064030020CC03002024
:1060E80000000000000000000000000000000000A8
:1060F8000000000000000000000000000000000098
:1061080000000000546B00000000000000000000C8
:106118000000000000000000000000000000000077
:106128000000000000000000000000000000000067
:106138000000000000000000000000000000000057
:106148000000000000000000000000000000000047
:106158000000000000000000000000000000000037
:106168000000000000000000000000000000000027
:106178000000000000000000010000000000000016
:106188000E33CDAB34126DE6ECDE05000B000000DB
:1061980000000000000000000000000000000000F7
:1061A80000000000000000000000000000000000E7
:1061B80000000000000000000000000000000000D7
:1061C80000000000000000000000000000000000C7
:1064F80000000000000000008001014013010000BE
:106508008404002000000000004001401502000043
:1065180000000000000000000050014016020000CA
:106528000000000000000000A4040020E80400208F
:1065380038040020480400205804002000F00040DF
:1065480040F00040000001404000014000E00040F1
:1065580040E0004080E00040C0E0004000E1004032
:1065680040E1004080E10040110000008C04002060
:106578000000000000000000000000000000000013
:106588000000000000000000000000000000000003
:1065980000000000000000000000000000000000F3
:1065A800000000000000000080F10040120100001F
:1065B8007C0400200000000000A001401723000018
:1065C80000B0014018240000F80400200005002055
:1065D800A0A002400700000040A102400700000000
:1065E800E0A102400700000020A3024007000000CD
:1065F800C0A30240070000004805002098050020BD
:10660800E80500203806002000200040BC0A0020D1
:1066180020AA440000000000000000000000000064
:106628000000000000000000000000000000000062
:106638000000000000000000000000000000000052
:106648000000000000000000000000000000000042
:10665800000000000A2E000000300040C80A002098
:1066680020AA440000000000000000000000000014
:106678000000000000000000000000000000000012
:106688000000000000000000000000000000000002
:1066980000000000000000000000000000000000F2
:1066A800000000000B2F000000000040D40A00206A
:1066B80020AA4400000000000000000000000000C4
:1066C80000000000000000000000000000000000C2
:1066D80000000000000000000000000000000000B2
:1066E80000000000000000000000000000000000A2
:1066F80000000000081B000000100040E00A002015
:1067080020AA440000000000000000000000000073
:106718000000000000000000000000000000000071
:106728000000000000000000000000000000000061
:106738000000000000000000000000000000000051
:1067480000000000091C000002000000000000001A
:1067580000000000000000000500FF0B0000000022
:1067680000000000000000000400FF0A0000000014
:1067780000000000000000000700FF0D00000000FE
:1067880000000000000000000600FF0C00000000F0
:1067980000000000000000000900FF0000000000E9
:1067A80000000000000000000800FF0E00000000CC
:1067B80000000000000000000900FF0F00000000BA
:1067C80000000000000000000A00FF1000000000A8
:1067D80000000000000000000A00FF0000000000A8
:1067E80000000000000000000B00FF000000000097
:1067F80000000000000000000300FF00000000008F
:1068080000000000000000000200FF00000000007F
:1068180000000000000000000100FF000000000070
:1068280000000000000000000000FF000000000061
:106838000000000000000000000000000000000050
:10684800000000000000000001000100000000003E
:10685800000000000000000002000200000000002C
:10686800000000000000000003000300000000001A
:106878000000000000000000040004000000000008
:1068880000000000000000000500050000000000F6
:1068980000000000000000000600FF0000000000EB
:1068A80000000000000000000700060000000000D3
:1068B80000000000000000000D02FF0000000000C2
:1068C80000000000000000000E01FF0000000000B2
:1068D80000000000000000000F02FF0C0000000094
:1068E80000000000000000000000FF0000000000A1
:1068F80000000000000000000200FF00000000008F
:1069080000000000000000000506FF000000000075
:1069180000000000000000000405FF000000000067
:1069280000000000000000000304FF000000000059
:1069380000000000000000000203FF00000000004B
:1069480000000000000000000102FF00000000003D
:1069580000000000000000000001FF00000000002F
:10696800000000000000000000000201000000001C
:10697800000000000000000001000102000000000B
:1069880000000000000000000200000300000000FA
:1069980000000000000000000300FF0400000000E9
:1069A80000000000000000000400FF0500000000D7
:1069B80000000000000000000500FF0600000000C5
:1069C80000000000000000000600FF0700000000B3
:1069D80000000000000000000700FF0800000000A1
:1069E80000000000000000000800FF000000000098
:1069F80000000000000000000B00FF000000000085
:106A080000000000000000000C00FF000000000073
:106A180000000000000000000D00FF000000000062
:106A280000000000000000000E00FF000000000051
:106A3800000000000000000008000700000000003F
:106A480000000000000000000B0109000000000029
:106A5800000000000000000001000B000000000022
:106A6800000000000000000003000C00000000000F
:106A7800000000000000000004000D0000000000FD
:106A8800000000000000000005000E0000000000EB
:106A9800000000000000000006000F0000000000D9
:106AA800000000000000000007000B0000000000CC
:106AB800000000000000000008010A0000000000BB
:106AC80000000000000000000902090000000000AA
:106AD80000000000000000000A010800000000009B
:106AE80000000000000000000B020700000000008A
:106AF80000000000000000000C000600000000007C
:106B080000000000000000000D000500000000006B
:106B180000000000000000000E000400000000005B
:106B280000000000000000000F000300000000004B
:106B380000000000000000000C00FF000200000040
:086B4800320000000000000013
:106B500010000020430000006C69626D61706C657C
:106B60002F657874692E630068616E646C657200CD
:106B70006C69626D61706C652F74696D65722E63EE
:106B8000006368616E6E656C203E203020262620F2
:106B90006368616E6E656C203C3D203400646576F0
:106BA0002D3E7479706520213D2054494D45525F3A
:106BB0004241534943000000100500201805002001
:106BC0002005002028050020300500206C69626D3A
:106BD00061706C652F73696D3375312F75736172D8
:106BE000742E6300636C6F636B5F73706565640024
:106BF0007769726973682F6578745F696E746572FE
:106C000072757074732E63707000300077697269EA
:106C100073682F4861726477617265536572696148
:106C20006C2E6370700062617564203C3D20746856
:106C300069732D3E75736172745F6465766963650F
:106C40002D3E6D61785F6261756400000000000098
:106C5000000000000000000075270000C5280000AB
:106C6000E7280000000000003C6C6172676520644A
:106C70006F75626C653E007769726973682F73691E
:106C80006D3375312F7769726973685F64696769FD
:106C900074616C2E63707000000000000000000042
:106CA00011270000E5300000000000000000000097
:106CB000F9300000FD300000455854490020666955
:106CC0007265642100302E00312E00504200096EA2
:106CD0003A2000096D65616E3A200009766172699B
:106CE000616E63653A200035206D732064656C61C8
:106CF0007920746573743A207379737469636B20B7
:106D00006469666620007573005553415254003E15
:106D10002000446174612028696620617661696C95
:106D200061626C65293A20000A0D094E6F206D6F73
:106D3000726520646174612E000C555341525432C7
:106D40003E2050726F6772616D20537461727421BE
:106D500021210A0A000C5553415254333E205072EF
:106D60006F6772616D2053746172742121210A0A68
:106D7000000C5553415254343E2050726F6772617B
:106D80006D205374617274210A0A0053797374651B
:106D90006D2054696D653A20006D73002E303132DC
:106DA0003334353A3B3C3D1B1C1D1E1F202F16174C
:086DB00018373900C86000002B
:04000003000025B123
:00000001FF
