:0800000000800020050700004C
:100008000000000000000000012313FA01F1416024
:100018007047012313FA01F18160704730B501245C
:1000280014FA01F100F1080581600DE000BF013C00
:10003800002CFBD141601C4601E000BF013C002CB4
:10004800FBD1013A2960D2B20AB11C46F0E730BDB3
:100058000A4901234FF0FF3203F1200041F8202024
:1000680003F160000133082B41F82020F4D1044B40
:100078001A6822F001021A60704700BF00E100E030
:1000880010E000E0164B00221A60164A02231360A3
:10009800154AA5211160DD211160144A1360144B23
:1000A8004FF000421A601A60124A4FF6FF7313604D
:1000B80042F8443C42F8243CC2F8A030D365D367E8
:1000C800C2F84031C2F8FC30C2F81C31A3F5004335
:1000D800C2F88032C2F83C32C2F85C32704700BFC6
:1000E80020D0024034D002403000034024D00240E7
:1000F80044A00240E8A00240054A4FF000431360C4
:1001080042F8103C0123C2F82033C2F8003370478C
:1001180044A00240036804481840A0F10053584224
:1001280040EB0300704700BF0000FE2F10B50446E7
:10013800FFF7A8FF6368226882F30888984710BD14
:10014800024B40221A6000BFFDE700BF60D00240AA
:10015800034B1870703B1A6E12F4E02FFBD17047F6
:10016800703000400146002341F6573203E0104644
:100178000138FDD801338B42F9D170470F4A01236A
:100188001360C2F8C0300E4B04221A600D4A0E4BA1
:100198000E4913600E4B196044F21871116040F259
:1001A8000D321A604FF000625A614FF055124FF04D
:1001B80080431A654FF080225A63704724A002409A
:1001C80024D002400800004000001A4700000D0338
:1001D80004000040174B4FF6FF721A60A2F5004268
:1001E800C3F840213022C3F84421A3F5E8734FF443
:1001F80080321A601022C3F8202303F548732022A6
:1002080003F533531A600C4A0C4B0D4913600D4B20
:10021800196044F21871116040F20D321A604FF003
:1002280000625A614FF05512DA644FF080221A6367
:10023800704700BF14A202400830004000001A476F
:1002480000000D0304300040104B4FF480221A6068
:100258004FF0004103F5805319600421A3F5FD53C5
:1002680019600B4BA521C3F8C010F221C3F8C010C8
:100278000021C3F8A000C3F8B0105A21C3F8C01079
:1002880004490A601A68D202FCD4704704E00240AC
:1002980000E0024008E00240144B10B54FF0004463
:1002A8001C600424A3F5FD531C60114BA524C3F85E
:1002B800C040F224C3F8C040C3F8A000186810F486
:1002C8008010FBD103460A4808E031F8024BC0F819
:1002D800B040046814F4002FFBD101339342F4D1E9
:1002E800034B5A22C3F8C02010BD00BF04F00240DF
:1002F80000E00240044B4FF080421A60034B1A683A
:1003080042F047021A60704724D0024000E00240E1
:100318002DE9F04F9F4CADF59A6DA30581B0980D6E
:100328000490A60A03B10136FFF754FFFFF7E2FF76
:10033800FFF724FF0022B602DFF86C92DFF86CC2E8
:1003480042F21071944B954F1046062518E0284646
:100358000138FDD80132B2FBF1FA01FB1A2A6245D5
:1003680094BF00200120BAF1000F09D1D3F800A0F2
:100378006FEA0A0A1FFA8AFA4AF4803AC7F800A014
:10038800D9F860A01AF0070F01D10028DFD0431C6C
:10039800012B40F0AB81A40A621CDDF810E0A40236
:1003A800920221460025BEF1000F18BF11460592A2
:1003B800069407913746AA462C460DF1220B2A4689
:1003C8000020012B014605D0DFF8DCE1DEF86030C3
:1003D8005B07F9D0724B1B78062939D8DFE801F0A2
:1003E800040A14191E2834001B2B08BF1A4608BF1C
:1003F8000121E9E7012B02D0AB4240F075815A4058
:10040800D2B21D460221DFE75A401802D2B20321B8
:10041800DAE75A401843D2B20421D5E70E2B40F050
:10042800638182F00E02D2B24FF0000A0521CBE7B9
:100438000DF1200E0EF80A305A400AF1010AD2B224
:10044800824508BF0621BFE7934240F04D8101E095
:100458000729B9D19DF82020531E1C2B00F2F580E6
:10046800DFE813F04B00C3006B00F300F300C30098
:10047800F300F300F300F300F300F300F300F300DC
:10048800F300C300C3009300A600C600A600C60080
:10049800F3008A00F3008A007C00F3001D009DF839
:1004A8002430302B09D19DF8262082B1012A14BFAF
:1004B8004FF001084FF0980810E013F0500209D0EF
:1004C800502B09D0582B08BF4FF0800806E04FF09A
:1004D8001E0803E0904601E04FF000088DF8214027
:1004E8008DF822408DF823308DF824408DF8258032
:1004F8008DF826404FF00709ACE008238DF822302C
:1005080041238DF8233056238DF8243052238DF85B
:10051800253049238DF8263053238DF82730502372
:100528008DF828305F238DF8293032238DF821404B
:100538008DF82A304FF00B098CE09DF821304FF0F0
:1005480003097033DBB2022B98BF164A8DF821409D
:1005580094BFD35C00238DF822307BE09DF82430D3
:1005680023B1012B14BF0123982300E01E238DF82B
:1005780021408DF8223003E08DF821408DF822408B
:100588008DF823404FF0040964E08DF82140079F5F
:100598005EE000BFB307000020A302402CA3024086
:1005A800703000409C0700000030004040420F00BF
:1005B800132A9DF821309DF8229016D107998F4271
:1005C80009D3B7F5802F06D238460193FFF73CFED2
:1005D800019B07F5806749EA032930460DF12A0196
:1005E8004FEA5902FFF758FE4E448DF821402FE09C
:1005F8009DF821109DF8223043EA01233E4903F17A
:100608000309087830B9069EDDF814E0049800283C
:1006180018BF76460120142A08708DF821400AD1A7
:100628005A4636F8021B89B21170090A5170023213
:10063800023BF6D107E01A465946013A01F8014B48
:10064800FBD10BEB0302147004E0C0238DF82130BA
:100658004FF002091B20FFF77BFD2846FFF778FDC6
:10066800C9F3072318460193FFF772FD5FFA89F172
:1006780008460291FFF76CFD0E20FFF769FD85F033
:1006880015020299019BD2B24A405A4008A9D446A1
:100698003346AA460D465946C346B846174610E0A3
:1006A80015F8016B029130460193CDF80CC07740E4
:1006B800FFF74EFDDDF80CC0019B0299FFB209F16E
:1006C800FF39B9F1000FEBD13A46554610460135CE
:1006D8001E460392E2464746EDB2D8468B46FFF7E0
:1006E80037FD4B46039A6BE600216DE635B00DF5F4
:1006F800806DBDE8F08F00BF0000002070B5204B72
:1007080020490AE01D685C68986800220C3302E002
:100718005659165104328242FAD38B42F2D309E079
:100728001D685C680022083301E051510432A2427E
:1007380002D2FAE7144800218342F1D3134CFFF7A1
:10074800A1FCFFF7D9FCFFF783FCFFF7E1FDA30548
:100758009D0DA00A03B101308002FFF7DBFC28B130
:10076800A00A05B101308002FFF7E0FC084800212B
:1007780005224FF4A023FFF751FCFFF7E1FC70BD01
:100788009F070000AB070000B3070000B307000095
:1007980020A302400F020AB4070000000000200056
:0B07A800000000000000200400000022
:0400000300000008F1
:00000001FF
