:10140000008000203D240000611D0000651D0000DB
:10141000691D00006D1D0000711D0000C11D000050
:10142000C11D0000C11D0000C11D0000C11D000044
:10143000C11D0000C11D0000C11D0000951B000062
:10144000C11D0000FD1A0000111B0000C11D00009D
:10145000C11D0000C11D0000C11D0000C11D000014
:10146000C11D0000C11D0000C11D0000C11D000004
:10147000C11D0000C11D0000C11D0000C11D0000F4
:10148000C11D0000C11D0000C11D0000C11D0000E4
:101490002122000023220000252200002722000034
:1014A000852100001D2200001F220000552300009E
:1014B00079230000C11D0000C11D0000C11D0000F6
:1014C000C11D0000C11D0000C11D00002118000049
:1014D00041180000C11D0000C11D0000C11D000019
:1014E000C11D0000C11D0000C11D0000C11D000084
:1014F000C11D0000C11D0000052300002D230000B8
:10150000C11D0000C11D0000C11D0000C11D000063
:10151000C11D0000C11D000010B5054C237833B972
:10152000044810B10448AFF300800121217010BDC0
:10153000B00A002000000000785F000008B5064BEC
:101540001BB106480649AFF300800648016811B197
:10155000054B03B1984708BD00000000785F00000C
:10156000B40A0020B00A002000000000014600205C
:101570000246034600F04AB808B50021044600F0D0
:1015800099F8044B1868C36B03B19847204600F0E4
:1015900007F900BF506B000038B5084D084C641BBC
:1015A000A41006D005EB840555F8043D9847013C8E
:1015B000FAD1BDE8384004F0F3BC00BFAC5F0000D6
:1015C000B05F000070B50D4D0D4E761BB61006D005
:1015D000002455F8043B01349847A642F9D1094D3F
:1015E000094E04F0C9FC761BB61006D0002455F84D
:1015F000043B01349847A642F9D170BD845F0000D6
:10160000845F0000845F0000A05F00002DE9F041CE
:101610000546264884B00468D4F84801002840D024
:1016200046681F2E1CDD224810B94FF0FF301EE027
:101630004FF4C870039102920193AFF300800399B5
:10164000029A019B0028F0D0D4F84861002780E876
:10165000C000C4F848013E46C0F88871C0F88C71DB
:1016600045B9B31C013640F823104660002004B091
:10167000BDE8F0810124B440D0F8887100EB860801
:1016800047EA040C022D4746C8F88820C0F888C1F4
:10169000C8F80831E5D1D0F88C311C43C0F88C4132
:1016A000DFE704F5A670C4F84801B9E7506B000005
:1016B000000000002DE9F04F334B83B01B68019010
:1016C00000930E464FF0010B009BD3F84871BFB159
:1016D00003F5A4797D686C1E0CD407F1880A1F35C8
:1016E0000AEB85057EB12B68B3420CD0013C043D6A
:1016F000631CF7D140F20003C0F20003002B30D18D
:1017000003B0BDE8F08F7968CAEB05020139BA1859
:10171000A14252F8783C1ED0002142F8781C002BE0
:10172000E4D00BFA04F2D7F88811D7F804800A4203
:101730000FD0D7F88C110A420FD155F8801C0198B0
:1017400098477B684345BFD1D9F80030BB42CDD024
:10175000BAE79847F5E77C60E1E755F8800C9847D1
:10176000EFE77B685BB93B6853B13846C9F8003096
:10177000AFF30080D9F80070002FABD1C0E73B6811
:10178000B9461F46F8E700BF506B0000024B13B18B
:101790000248FFF7EBBE70470000000099150000FB
:1017A000FEE700BF0129036801D8503300E0403351
:1017B00001F001010901002A14BF042208220029B6
:1017C00014BF4FF40001802199507047012903682C
:1017D00001D8503300E0403301F001010901481CF9
:1017E0008240002914BF4FF460210E2199605A6095
:1017F00070470129036801D8503300E0403301F0FD
:1018000001010901012212FA01F1596070470368D0
:101810001A6B22F07C0242EA8101196370470000D2
:10182000064B1B681B68D3F89020910705D51A68F2
:10183000120102D50222C3F898207047300500201B
:10184000064B1B681B68D3F89020920705D51A68D1
:10185000100102D50222C3F89820704734050020F9
:1018600070B506680446007900F070FC444BB36024
:10187000444B18682379042B434B75D81B6801220D
:10188000C3F3022312FA03F3B0FBF3F33F4A5B0006
:10189000B3FBF2F3013B1B047360C023B36040232E
:1018A00073604FF47063B36100254FF400437561BA
:1018B00073604FF48053B3604FF4002373614FF0B3
:1018C0004043B3614FF480037361FC2373614FF4B1
:1018D000802373612A4620462946FFF763FF20468E
:1018E0002946FFF786FF204629462A46FFF76EFF66
:1018F00001212A462046FFF755FF01212046FFF728
:1019000078FF012103222046FFF760FF0122022118
:101910002046FFF747FF02212046FFF76AFF02211A
:1019200020462A46FFF752FF012203212046FFF7F7
:1019300039FF03212046FFF75CFF03210A462046BA
:10194000FFF744FF637959B2A94217DB03F01F0583
:10195000012010FA05F549110D4A01F1600442F821
:10196000245042F8215070BD19681A68C1F3022151
:1019700001238B40C2F30042934085E770BD00BF56
:101980000000FF07E00A002000D002408096980087
:1019900000E100E0F8B504680546266BC6F384064E
:1019A00000E0236ED4F8A07017F00F07F9D1284695
:1019B000FFF72DFF4FF4803363614FF40013A361F1
:1019C0004FF40003C4F880706361D4F8A0301907A5
:1019D000FBD0246E2846F1B2FFF719FF40F6E44031
:1019E000604340F6FF73B0FBF3F080B2F8BD000037
:1019F000002809DB4211012300F01F0013FA00F058
:101A0000024B603243F82200704700BF00E100E063
:101A10002DE9F0419846324B0D4614469DF818705A
:101A20001E6822B92F486B212F4A00F092F9013D20
:101A3000EDB206F00F03AB4201D1320611D4C6F36A
:101A40000323AB4201D1330407D416F0010345D17F
:101A500016F0800609D01E4600E001260122082368
:101A600005E000220126134601E0324633461F49B5
:101A7000012F41F8324001EBC201C1F8048003F1AB
:101A800005041B4907D117FA04F40C60191D8F4097
:101A900018490F6006E0012010FA04F40C601C1DC8
:101AA000A0400860D6B90F20984012499D400860B8
:101AB0000733012010FA03F3824241F8045C0E4C14
:101AC00041F8043C05D0FFF793FF02232360BDE8F3
:101AD000F0810220FFF78CFF04232360BDE8F08132
:101AE00000A00240586B0000686B0000CC0A002088
:101AF00004A0024008A0024000E100E0034A08B54B
:101B000013680BB15068984708BD00BFCC0A00208D
:101B1000034A08B593680BB1D068984708BD00BF69
:101B2000CC0A002000284FEA011106DA064B00F02B
:101B30000F00C9B2C31819767047044BC9B2C31855
:101B400083F80013704700BFFCEC00E000E100E008
:101B500021F0604121F07F01094B084310B59860E6
:101B6000002460B20F210134FFF7DCFF362CF8D1DE
:101B70004FF0FF300F21BDE81040FFF7D3BF00BF8B
:101B800000ED00E0024B072258601A60704700BF6A
:101B900010E000E008B5044B1A6801321A60034BEC
:101BA0001B6803B1984708BDBC0B0020DC0A00206D
:101BB00070B503782025012408490CE04268013BF8
:101BC000D25C56B202F01F0214FA02F296FBF5F64E
:101BD000603641F826205A1CF0D170BD00E100E0CB
:101BE0004379ABB9052903D8036953F8213004E0E0
:101BF000062901D0072904D103684FF480729A6145
:101C000070470369083953F821304FF400629A6134
:101C100070470000084B10B504461868A047074BF2
:101C20001868A047064B1868A047064B1868A047DD
:101C3000054B1868A04710BD980400209C040020A4
:101C4000A0040020A4040020A8040020F8B5054644
:101C50000468007900F07AFA6B79022B0FD1002327
:101C60002360236123622363202363604FF40033E6
:101C700063604FF010636360FF23236114E0236807
:101C800023F4FE5323F03F032360236823600023E3
:101C90002364226822F4404222F003022260226878
:101CA00042F440422260236205F10800FFF780FF02
:101CB00020262A7A01240B4811E0EB68013A995654
:101CC000094B91FBF6F70B40002B03DA013B63F065
:101CD0001F0301335BB214FA03F340F82730511CA1
:101CE000EBD1F8BD00E100E01F0000804B1EDBB22D
:101CF000032B70B504460D46164604D91148C92178
:101D0000114A00F026F86379022B04D10D48CC214A
:101D10000E4A00F01EF86379022B11D016B1012E85
:101D20000ED107E02046294604EB8504FFF758FF53
:101D3000666170BD20462946BDE87040FFF750BF80
:101D400070BD00BF736B0000846B0000A06B0000CF
:101D5000704770477047000000000000000000005E
:101D6000012007E0022005E0032003E0042001E059
:101D70000520FFE70D4A0121116072B60C4A0021CF
:101D80001160074902B4084902B486B005498E467D
:101D9000704700BFAFF30080AFF30080AFF3008067
:101DA00000000061F9FFFFFF511D000014ED00E08D
:101DB00010E000E0AFF30080AFF30080AFF30080ED
:101DC000FEE70000044B10B504461868A047034B1B
:101DD0001868A04710BD00BF300500203405002062
:101DE00010B50446FFF73CFD23684FF400325A61FA
:101DF00010BD000008B5072000F0A8F9044B4FF013
:101E000000421A60034B4FF6FF721B681A6308BD4D
:101E100034A0024038050020204B4FF000421A60E9
:101E20001A611F4A41F23C71126811631D4A4FF258
:101E3000FF01126811631C4A01F570611268116399
:101E40001A4A47F6CF7112681163194A194911608D
:101E50004FF480321A61343B1A6D012A03D01A6D97
:101E60001AB9A5221A65F1221A65134B00221B68C4
:101E700040F6FF71C3F89020C3F888104FF40011AA
:101E800059644FF4003199644FF4800159644FF460
:101E9000402199645A641F229A65704734A0024019
:101EA000380500204005002048050020500500208E
:101EB00024A0024021C0037858050020F0B5012578
:101EC00015FA01F10468154004F1200614BF042737
:101ED0000827B951184EB04204F1400022D113F046
:101EE000010F0CBF08230423C150A5B102F002006A
:101EF000C0B204F13003002814BF042008200D04F0
:101F0000C550616307E013F0010F04F150000CBFEE
:101F100008230423195012F0040F0CBF08230423D4
:101F2000E150F0BD12F0020F0CBF082604268151CB
:101F3000002DE8D1EFE700BF5805002030B5052996
:101F400014BF03240724490014FA01F5144014FABD
:101F500001F10368186F20EA05000143196730BDDD
:101F600001390138024B41EA00401860704700BF58
:101F700000B003400E4B19680E4B1A680123C2F3E0
:101F8000022213FA02F2B1FBF2F20B498A4208D99B
:101F90000A498A4206D90A4B9A4294BF0223032374
:101FA00000E00023074A0321116042F8043C704717
:101FB000E00A002000D0024080BA8C0140B728031C
:101FC00000B4C40408E00240294BF0B598420BD994
:101FD000284B98420AD9284B984209D9274B984256
:101FE00094BF0320042004E0002002E0012000E070
:101FF0000220234B234D1A6B234922F47E4222F404
:10200000F8721A631A6B4FF0404442F47E4242F475
:10201000F8721A631A6B1E4622F4E0221A631A6BD6
:1020200042EA00421A634FF000422C600A601F69C6
:102030007F0702D41F69BF07F9D0376917F0040F73
:1020400015D12C601F69FF0703D5032805D801307F
:1020500002E0032801D80138C0B21F6B27F4E02743
:102060001F631F6B47EA00471F630A60DFE7F0BD8D
:10207000BF0E16023FA5AE02BF3B47037F1D2C04D7
:1020800000B0034018B0034014B00340034B4FF4BA
:10209000403200041A6043F8040C704718B0034043
:1020A0000A4B1A6822F0070210431A689200FCD407
:1020B000064B32221860064B1B685A43054BB2FB95
:1020C000F3F2054B013A1A60704700BF00D002409E
:1020D000E00A0020002D3101100004E00A4A0B4BF9
:1020E00010B504461A600020FFF7DAFF084B4FF0E6
:1020F00040421A60E00B0121FFF732FF2046BDE8A5
:102100001040FFF761BF00BF002D3101E00A002041
:1021100018B00340094B1B6820B923F4E06343EA7D
:10212000012103E023F4803343EA0141034B1A68A1
:102130009000FCD4014B1960704700BF00D00240F2
:10214000014B1860704700BFE00A002004284FF0E0
:10215000010302D9242809D904E013FA00F0064A41
:102160001060704726388340044A02E006388340F6
:10217000034A1360704700BF14D0024034D00240BD
:1021800024D00240244B2DE9F0411C684FF6BF6774
:1021900026684FF00108336A326903F4007503F0D2
:1021A0008002AD0845EA520503F03F021F40154387
:1021B00003F47C4345EA930595FAA5F3B3FA83F358
:1021C00008FA03F2554004EB83025269FAB1062B78
:1021D00006D8216951F823301B69C3F3002314E0AA
:1021E000072B04D123681B6903F001030DE0082BC2
:1021F00004D123681B69C3F3C00306E02169083BCF
:1022000051F823301B69C3F3003303B19047002D0D
:10221000D2D1B762BDE8F0819804002070477047C2
:10222000704770477047704730B5C488828803464E
:10223000601C904203D01889A0420BD152B91D896D
:1022400018689542805C02D0013292B200E0002210
:102250009A8001E04FF0FF301A681155DA88198929
:10226000914202D0013292B200E00022DA8030BD09
:1022700070B508461D461146002305229DF8104002
:10228000FFF71CFE2846214603220023BDE87040CC
:10229000FFF714BE70B505460C461646A1B9154B9E
:1022A000196890F84C30042B134B19D81C68012383
:1022B000C4F3022413FA04F4B1FBF4F424B90F4874
:1022C00068210F4AFFF745FD7600B4FBF6F42B6852
:1022D000013C4FF0006244EA04449A611C6570BD01
:1022E0001A680124C2F3022294401B68C3F300431E
:1022F0009C40E1E7E00A002000D00240D46B0000DF
:10230000EC6B000038B5074D2C6E04F0070405E0B7
:1023100095F870100448FFF787FF013C002CF7D1B7
:1023200038BD00BF00200040E40A002038B5074D4A
:102330002C6E04F0070405E095F870100448FFF7D0
:1023400073FF013C002CF7D138BD00BF00300040C6
:10235000F00A002038B54FF080452C6E04F00704D9
:1023600005E095F870100348FFF75EFF013C002C74
:10237000F7D138BDFC0A002038B5074D2C6E04F0AB
:10238000070405E095F870100448FFF74DFF013C85
:10239000002CF7D138BD00BF00100040080B002012
:1023A00038B54368002205689A80DA803F221A8196
:1023B00000F10C0204461A6090F84C00FFF7C6FECC
:1023C0000F4BAB600F4B6B6044F21873AB6040F285
:1023D0000D336B603023AB6694F84D3059B2002951
:1023E0000CDB03F01F05012010FA05F54911064A20
:1023F00001F1600442F8245042F8215038BD00BF7A
:1024000000001A4700000D0300E100E003684FF0F0
:1024100080225A6340225A637047036810B5002037
:1024200003E00C5C013083F870401C6EC4F302447E
:10243000032C01D89042F4D110BD000001498D4613
:1024400001490847008000204D24000008B5114BC9
:102450001A68114B9A4201D0104907E0104B1149FC
:10246000002208E052F8040B43F8040B8B42F9D326
:10247000F4E743F8042B8B42FBD3FFF7A3F80020CB
:102480000146024601F092FA074B0BB1FFF774F8D0
:10249000FEE700BFD86F000000000020B00A002057
:1024A000B00A0020C00B002079150000F8B50446E2
:1024B000FFF796FC0C4B03201D780023032B2268AA
:1024C00001D8303200E0203203F00301C90010FAD5
:1024D00001F715FA01F11668013326EA07063143C0
:1024E000082B1160EAD1F8BDB006002010B50446F3
:1024F000FFF7ACFB6379022B236804D14FF0005245
:102500009A605A6010BD40229A625A6210BD000063
:1025100010B500F0E1FB00F0DDFB2420FFF716FE14
:1025200000F0ECFB0620FFF711FE0020FFF7AEFDE8
:102530001B4800F0BBFB1A48FFF7D0FD194B1848A9
:102540001C68FFF7FDFD184B9C4205D8FFF712FDF4
:102550000520FFF7A5FD04E00520FFF7A1FDFFF72B
:1025600009FD124B00211A684FF4A05042F04002BE
:102570001A60FFF7EDFA0B4B18684FF47A73B0FB53
:10258000F3F00138FFF7FEFA00F0A2FB0848FFF76E
:1025900019FC0848FFF73EFBBDE8104000F044BCC2
:1025A0000080FA02E00A0020FF7FFA0200E0024009
:1025B000AD240000ED240000FEE70000012808B56E
:1025C0000BD002D3022802D108BD002008BD034869
:1025D0005821034AFFF7BDFB002008BDF86B00003F
:1025E000126C00003E2873B505460C4616460FD8FF
:1025F00071B11846FFF7E2FF064B224603EB0515C3
:102600002B7BE97B0090184633460835FFF700FA2C
:102610007CBD00BFB406002037B5456802AC04F8A5
:10262000011D284621460122FFF7F7FE0028F8D0B9
:102630003EBD00004368F7B59B68044699420D46CD
:1026400004D914484221144AFFF783FB6068836869
:102650009D421DD8277A114B3F01617AFE18367BC7
:102660000901CA18127B009600260196C958FB582A
:10267000FFF7FEFD6068FFF793FE606831462A466B
:10268000FFF708FE606803B0BDE8F040FFF7BEBE8C
:1026900003B0F0BD146C00002E6C0000B4060020E6
:1026A00043685B68D8889A8880B292B2D988801AC9
:1026B0009A8889B292B2914203D21B899BB20133AC
:1026C000C01880B2704710B504462046FFF7E8FFF7
:1026D0000028FAD063685B689A881968885C198951
:1026E000914202D0013292B200E000229A8010BDE5
:1026F00043685B689A88DA8070470000124B134A7F
:102700001968134B59603A2119723B211A605972AA
:10271000104B1968104B59600121197200211A6081
:1027200059720E4B19680E4B59600E2119720F2108
:102730001A6059720B4B19680B4B1A6014221A72EB
:10274000152259605A72704760050020606C0000C5
:10275000140B002064050020200B002068050020D9
:102760002C0B00206C050020380B0020044B027954
:102770001B789A4202D1034B1B681860704700BF58
:10278000440B0020480B00201031C9B2132994BF1C
:1027900000230123002210B50260044672B65918C6
:1027A000084B1970084B18600848FFF733FA62B6F7
:1027B000236823B906484521064AFFF7CAFA20468E
:1027C00010BD00BF440B0020480B00206D27000007
:1027D000706C0000896C000003685A791B68022A3B
:1027E00003D14FF000529A60704740229A627047BE
:1027F00003685A791B68022A03D14FF000525A60CD
:10280000704740225A627047026813685279022A60
:1028100003D11869C043C0B202E018688005800D7A
:1028200001307047026801391368527989B2022A6F
:1028300006D1FF2928BFFF21C1F1FF0119617047AF
:102840001A6840F2FF3022F47E7222F007021A600A
:102850001A68814294BF114342EA0001196070472F
:1028600003681A685B79022B16BF106C4FF6FF7075
:1028700080B2704702681368527912B1022A02D1FD
:102880007047196570471964704703685A79022ABE
:1028900003D11B68186B000C704701391B69C9B262
:1028A00053F82130186A80B2704770B51646044656
:1028B0000D46FFF7D5FF2368B04238BF06465A7968
:1028C000B6B2022A07D11B681A6B92B21A631A6B4E
:1028D00042EA064604E0013D1B69EDB253F825309B
:1028E0001E6370BD38B505460C4603E02B682846CC
:1028F0001B68984714F8011B0029F7D138BDF8B5BB
:1029000004460D461746002605E02368A95D1B68AE
:10291000204698470136BE42F7D1F8BD08B5036896
:102920001B68984708BD08B503685B68984708BDF1
:1029300010B50D210446FFF7F1FF20460A21BDE83E
:102940001040FFF7EBBF10B50446FFF7ECFF204641
:10295000BDE81040FFF7ECBF2DE9F0471F461646D3
:1029600090B056EA070281469DF8603005D13021CB
:1029700010B0BDE8F047FFF7D1BF0024DDB2A0469C
:10298000304639462A46434601F016FFEA4604F827
:102990000A203046394643462A4601F00DFF0646D6
:1029A0000F46013456EA0703EAD10EE00AEB0403AE
:1029B00013F8011C092901D8303100E03731C9B2C0
:1029C0004846FFF7ABFF013C00E0EA46002CEDD1A2
:1029D00010B0BDE8F08710B5029921B90368D1B2F3
:1029E0001B68984710BDC9B20291BDE81040FFF7BF
:1029F000B3BF07B5002300920A46FFF7ECFF0EBDF8
:102A000010B50446FFF7F5FF2046BDE81040FFF77C
:102A10008FBF2DE9F041069D044616461F462DB98D
:102A20000368D1B21B689847BDE8F081002E77F1AA
:102A3000000305DA2D21FFF771FF764267EB4707A8
:102A4000EDB2204632463B460695BDE8F041FFF721
:102A500083BF13B5CB1714460A460094FFF7D9FF7E
:102A60001CBD10B50446FFF7F4FF2046BDE810403A
:102A7000FFF75EBF000000002DE9F34D1946074641
:102A8000164610461C460022002301F005FC9DF866
:102A90002880012538B13046214643A3D3E90023DD
:102AA00001F0F0FB06E03046214641A3D3E90023C4
:102AB00001F0DEFB00B90546EDB2304621460022AA
:102AC00000236DB101F0CAFB18B138462D21FFF784
:102AD00025FF3949384602B0BDE8F04DFFF723BF66
:102AE00001F0BCFB28B138462D21FFF717FF04F198
:102AF000004400250022314B09E01046194600220F
:102B00002F4B01F063FA013502460B46EDB2454505
:102B1000F3D12146304600F07DFF82468B4601F01E
:102B200061FE04460D4601F0F9F802460B46504698
:102B3000594600F06DFF0A2382460093384622462C
:102B40002B468B46FFF765FFB8F1000F26D03846BD
:102B50001C49FFF7E8FE1EE0194B0022504659467B
:102B600001F00AF98B46824601F0A0FB04460A22D6
:102B700038462146FFF76DFF204601F097F80246E0
:102B80000B465046594600F043FF08F1FF38824695
:102B90008B465FFA88F8B8F1000FDDD102B0BDE8CE
:102BA000F08D00BFAFF30080800350726C92DF4362
:102BB000800350726C92DFC39B6C00000000E03F0A
:102BC00000002440AA6C00009DF800100091FFF75F
:102BD00053BF13B59DF8101004460091FFF74CFF4A
:102BE000204602B0BDE81040FFF7A2BE3E2870B5F7
:102BF0000D461DD80F4B03EB00104468467B04B113
:102C000026B90D482E210D4AFFF7A3F86379022B50
:102C100008D123681A6B92B21A631A6B42EA05450F
:102C20001D6370BD2369013EF6B253F826301D6363
:102C300070BD00BFB4060020AC6C0000BB6C00008F
:102C4000054B03EB001000F10803806810B199797F
:102C5000FEF7A0BE704700BFB40600203E280ED885
:102C6000074B00011A18127B1B584FF4803010FAE2
:102C700002F21B681968C94389B20A43DA607047D7
:102C8000B406002011234343013B18460138FDD808
:102C9000704738B50546002404E04FF47A70FFF71A
:102CA000F1FF0134AC42F8D138BD000008B5074B44
:102CB000984294BF002101210120FFF72BFA002048
:102CC0000146BDE80840FFF725BA00BF80F0FA02D0
:102CD000FFF7A2B8FFF78EB808B5064B00221A60BE
:102CE0002720FFF733FA044BA5221A60DD221A6071
:102CF00008BD00BF20D00240300003401E4B10B57D
:102D00001C680921204604220023FFF7D7F80A2176
:102D1000042200232046FFF7D1F82620FFF716FAF9
:102D2000164B0822C3F880211A60154B80211960C8
:102D300014494FF480230B60134B4FF4803018601C
:102D40001A604FF080420A604FF400321A604FF070
:102D500000421A601420FFF79CFF0C4B1A6812F017
:102D6000200F0A4AFAD01368DB05FCD50220BDE823
:102D70001040FFF78EBF00BFC06B000000E100E015
:102D800014900240089002400490024010900240CB
:102D90003E282DE9F04105463CD8082911D8DFE846
:102DA00001F0171A05080505050B0D000024052282
:102DB00013E00024042210E001240AE0012422464A
:102DC0000BE01548154A4821BDE8F041FEF7C1BFA8
:102DD0000024032201E000240122114E2B01F718E8
:102DE000F058397B0023FFF769F8786807F1080885
:102DF00018B1797B2246FEF779FF0A4A2D017059F6
:102E000012687319904205D1197B6200BDE8F04148
:102E1000FFF794B8BDE8F081CD6C0000126C0000A3
:102E2000B4060020D06B000070470000704BF0B576
:102E30001A68704B70491A601A611A621A631A652F
:102E40001A66C3F88020C3F89020C3F8A020C3F806
:102E5000B020C3F8C020C3F8D020684A09681068C1
:102E6000674A684D1468684A19641967C3F8E00036
:102E7000C3F8E840C3F8F000C3F8F840C3F8000115
:102E8000C3F80841C3F81001C3F81841C3F8200182
:102E9000C3F82841C3F83001C3F83841C3F84001F2
:102EA000C3F85001C3F858412E681768574D584A67
:102EB0002D681268C3F8B451C3F87421C3F8842193
:102EC000C3F8C451C3F8D451C3F8E451C3F8F45162
:102ED000C3F804524F4A504D12682D68C3F81012BF
:102EE000C3F82012C3F83012C3F84012C3F86001CF
:102EF000C3F86471C3F87001C3F88001C3F890216E
:102F0000C3F8A021C3F8B061C3F8C061C3F8D061B1
:102F1000C3F8E061C3F8F061C3F80062C3F8185267
:102F2000C3F82852C3F83852C3F85012C3F86012DD
:102F3000C3F87012C3F88012C3F89012C3F8A0123D
:102F4000C3F8B012C3F8C012C3F8D0123349C3F8A3
:102F5000E0020968C3F8E842C3F86413C3F87413C5
:102F60002F49C3F8F0020968C3F8F472C3F8F842B5
:102F7000C3F80023C3F80843C3F81023C3F8184369
:102F8000C3F82023C3F82843C3F83023C3F83843D9
:102F9000C3F84023C3F84843C3F85023C3F8585339
:102FA000C3F86023C3F86853C3F87023C3F8785399
:102FB000C3F88023C3F88413C3F88853C3F890235D
:102FC000C3F89413C3F89853C3F8A023C3F8A853C5
:102FD000C3F8B023C3F8B853C3F8C023C3F8C85329
:102FE000C3F8D023C3F8D853C3F8E003F0BD00BF43
:102FF000CC6B0000B4060020C86B0000C06B000062
:1030000030050020D06B00009C04002098040020B4
:10301000A0040020C46B000034050020A40400209C
:10302000A8040020002380F8523080F8533080F844
:10303000303080F831307047002070477047000012
:10304000014B0360704700BFF86C00000448054B5B
:103050000549064A0360192380F8543000F0CEBCBD
:103060004C0B0020086D00004130000000000020E3
:1030700010B5094A0949136888681468A342FAD14F
:10308000C0F54240322200F5A870B0FBF2F04FF4D8
:103090007A7202FB030010BDBC0B002010E000E0C0
:1030A00038B50446002503E01949FFF74CFC01350B
:1030B000636818489B0015339D42F5D31649FFF706
:1030C00042FC14481549FFF72EFC0A2211482168DA
:1030D000FFF796FC0F481249FFF725FC114B0D48EE
:1030E000196800254A1C1A600A22FFF7B2FC03E0A7
:1030F0000D49FFF718FC0135636806489B0017333C
:103100009D42F5D30D21BDE83840FFF707BC00BF55
:10311000BF6D0000200B0020306D0000376D0000F7
:103120003D6D0000B80B00202C6D00002DE9F34729
:10313000002480460D460127264623E04046FFF73F
:103140007FFD01F095F93146824601F0DBF88146BA
:10315000384601F08DF90146484601F091FA0146E2
:10316000304601F0D1F806463146504601F0CAF823
:103170000146484601F0D0F90146204601F0C4F866
:1031800001370446AF42D9D929482A49FFF7CBFB7A
:103190000A22A8F12E012648FFF75BFC24482649A5
:1031A000FFF7C1FB224829460A22FFF722FC2048EC
:1031B0002249FFF7B8FB092720211D48FFF7AEFB86
:1031C000013FF9D1092708211948FFF7A7FB013F63
:1031D000F9D1304600F07CFD02460B46144802212E
:1031E0000091FFF7F1FC12481549FFF79CFB0926F7
:1031F00020210F48FFF792FB013EF9D10926082153
:103200000B48FFF78BFB013EF9D1681E01F02CF94A
:103210000146204601F034FA00F05AFD02460B4602
:10322000034802210091FFF7D4FCBDE8FC8700BFF2
:10323000200B0020476D0000496D00004E6D00001E
:10324000566D000008B508484FF4E131FFF7F2F978
:1032500006484FF4E131FFF7EDF905484FF4E1314D
:10326000BDE80840FFF7E6B9200B00202C0B00203A
:10327000380B002070B5AB48AB49FFF754FBA948A9
:103280000D21FFF74BFBA748A849FFF75CFBA548BA
:10329000A749FFF758FBA348A649FFF744FBA64BF5
:1032A0004FF47A751E680A22B6FBF5F421469D4854
:1032B000FFF79FFB9B482E21FFF730FB0A2205FBFF
:1032C00014619848FFF795FB96489C49FFF73BFB34
:1032D0009B499448FFF727FBFFF7CAFE04460520E9
:1032E000FFF7D7FCFFF7C4FE0A22011B8D48FFF74A
:1032F00080FB8C489349FFF726FB8A489249FFF7E9
:1033000022FB924D0024605D14210134FFF70EFF73
:103310000B2CF8D1142483488349FFF704FB013CAC
:10332000F9D180480D21FFF7F9FA7E488849FFF767
:10333000FAFA88497B48FFF7F6FA8748FFF764FAFC
:103340000A2201467748FFF754FB84497548FFF786
:10335000EAFA8348FFF758FA0A2201467148FFF754
:1033600048FB80496F48FFF7DEFA7F48FFF74CFAC9
:103370000A2201466B48FFF73CFB7C496948FFF78E
:10338000D2FA7B48FFF740FA0A2201466548FFF768
:1033900030FB64487749FFF7C6FA062420216148CC
:1033A000FFF7BCFA013CF9D1062408215D48FFF77C
:1033B000B5FA013CF9D17048FFF726FA0A22014616
:1033C0005848FFF71DFB57486149FFF7ACFA6B49B6
:1033D0005448FFF7A8FA6048FFF742FA0A2201466C
:1033E0005048FFF736FB5D494E48FFF79CFA5C48B2
:1033F000FFF736FA0A2201464A48FFF72AFB5949E5
:103400004848FFF790FA5848FFF72AFA0A2201467F
:103410004448FFF71EFB55494248FFF784FA5448D9
:10342000FFF71EFA0A2201463E48FFF712FB3D480D
:103430005049FFF778FA062420213A48FFF76EFA40
:10344000013CF9D1062408213648FFF767FA013C10
:10345000F9D14948FFF704FA0A2201463148FFF73B
:1034600000FB30483A49FFF75EFA2E484449FFF71F
:103470005AFA01213848FFF708FA0A22014629487A
:10348000FFF7E7FA27483F49FFF74DFA0221324894
:10349000FFF7FBF90A2201462248FFF7DAFA214832
:1034A0003949FFF740FA01212D48FFF7EEF90A22CA
:1034B00001461C48FFF7CDFA1A483449FFF733FAA2
:1034C00002212748FFF7E1F90A2201461548FFF7D4
:1034D000C0FA14482E49FFF726FA06242021114885
:1034E000FFF71CFA013CF9D1062408210D48FFF72B
:1034F00015FA013CF9D101211F48FFF7C6F90A224C
:1035000001460848FFF7ADFA06480749FFF70BFAEE
:1035100004480549FFF707FA02480D21BDE870404D
:10352000FFF7FCB9200B00202C6D0000626D00003D
:10353000776D0000836D0000BC0B0020DC6E000086
:10354000916D0000AC6D0000B16D0000BF6F000018
:10355000B76D0000C06D0000A40B0020D66D000008
:10356000A80B0020DD6D0000AC0B0020E46D000016
:10357000B00B0020EB6D0000B40B0020F26D0000DA
:103580000D6E0000296E0000326E00003B6E0000E0
:10359000446E000010B5184C18492046FFF7D3F9C7
:1035A00020461749FFF7CFF920461649FFF7BBF928
:1035B000154B0A2219682046FFF722FA20461349C4
:1035C000FFF7C1F920461249FFF7BDF9204611491E
:1035D000FFF7B9F920461049FFF7B5F920460F4922
:1035E000FFF7B1F920460E49FFF7ADF90D49204626
:1035F000BDE81040FFF7A7B9200B00204D6E00007A
:103600005F6E0000866E0000E00A0020976E0000EA
:10361000C36E0000DE6E0000E96E0000F26E000076
:103620000B6F0000256F000070B50E4E042430684B
:10363000FFF72FFB0D20FFF711FB013C3068FFF770
:1036400028FBE4B20D20074DFFF708FB002CEED15C
:103650002A683223183292FBF3F103FB1123013362
:103660002B6070BDA80A00202DE9F043644E87B09E
:1036700001AD0FCE0FC5336862492B606248FFF77A
:1036800052F96148FFF71FF8A0F13005EDB20A22A8
:103690005D482946FFF7E5F9042D00F293805A486A
:1036A0005A49FFF740F95848FFF70DF8A0F13106E5
:1036B000F6B2052E00F286803DB906AB03EB860616
:1036C00056F8140CFFF788F87CE0012D07D106AB03
:1036D00003EB860656F8140CFFF78AF872E01427FD
:1036E00020214948FFF71AF9013FF9D11427082191
:1036F0004548FFF713F9013FF9D1042D09D142489C
:103700004349FFF710F94048FEF7DDFFA0F1300410
:10371000E4B2142720213C48FFF700F9013FF9D11A
:10372000142708213848FFF7F9F8013FF9D1364846
:103730003849FFF7F8F806AB03EB86064FF6387703
:1037400033E056F8149CB8F12B0F14BF4FF0FF383C
:103750004FF001084846FFF757F808EB00014846CC
:10376000FFF760F821E056F8149C4846FFF778F818
:103770004FF6EC71B8F12B0F08BF1421091889B26C
:103780004846FFF777F810E056F8149C2146484663
:10379000FFF77BF8B8F12B0F14BF3A46C822121876
:1037A00092B248462146FFF780F81748FEF78BFF94
:1037B0002D28804601D02B2804D1032DD3D0042DF1
:1037C000BFD1E1E710480D21FFF7A8F837242021E9
:1037D0000D48FFF7A3F8013CF9D1372408210A4826
:1037E000FFF79CF8013CF9D107480B49FFF79BF81C
:1037F00005480D2107B0BDE8F043FFF78FB800BFC3
:10380000106D00004E6F0000200B0020806F000044
:10381000916F0000A06F00002C6D000010B51548DE
:10382000FEF73EFF002824D01248FEF74CFF044666
:103830001048FEF75DFF312C04D1FFF715FF0D484E
:10384000FEF756FF372420210A48FFF767F8013CAE
:10385000F9D1372408210748FFF760F8013CF9D176
:1038600004480D21FFF75AF80248BDE81040FEF762
:103870003FBF10BD200B002070B53E4D86B040F616
:103880000F744CF2C33607212878FFF781FA2146DE
:1038900004F570640F3415F8010BA4B2FFF7A6F914
:1038A000B442F0D1344D0024605D03210134FFF7B0
:1038B0006FFA0B2CF8D124200021FFF769FA23209E
:1038C0000221FFF765FA0D200021FFF761FA2B4B6B
:1038D0002B4D1A6823202B49002301ACFEF782FEF2
:1038E000FFF7B0FCFFF756FE0FCD0FC42B68236027
:1038F000002401ABE55801212846FEF793FF04346C
:10390000284642F21071FEF7B5FF142CF1D10124C4
:103910002146019841F288320134FEF7C6FF072C98
:10392000F6D1029D0121284641F28832FEF7BDFF03
:10393000039C0121204641F28832FEF7B6FF28465B
:10394000022141F28832FEF7B0FF2046022141F207
:103950008832FEF7AAFF0498012147F23052FEF7A1
:10396000A4FF0598012147F2305206B0BDE870402F
:10397000FEF79BBFCA6F0000BF6F0000A40A0020C3
:10398000106D0000A130000008B5FFF74DFE2420A7
:10399000FFF764F940F2EE20FFF77BF9FFF76AFCCE
:1039A000BDE80840FFF73ABFFEF7B2BD08B5FFF724
:1039B00063FFFFF7E9FFFCE708B501210A48FEF7BE
:1039C000E3FE02210948FEF7DFFE03210848FEF767
:1039D000DBFE04210748FEF7D7FE07480521BDE8B6
:1039E0000840FEF7D1BE00BFA40B0020A80B0020AA
:1039F000AC0B0020B00B0020B40B0020034608469F
:103A0000194602F055BA00BF81F0004102E000BF44
:103A100083F0004330B54FEA41044FEA430594EA8E
:103A2000050F08BF90EA020F1FBF54EA000C55EAC9
:103A3000020C7FEA645C7FEA655C00F0E2804FEA9A
:103A40005454D4EB5555B8BF6D420CDD2C4480EA7C
:103A5000020281EA030382EA000083EA010180EAAC
:103A6000020281EA0303362D88BF30BD11F0004FFA
:103A70004FEA01314FF4801C4CEA113102D0404230
:103A800061EB410113F0004F4FEA03334CEA13336B
:103A900002D0524263EB430394EA050F00F0A78083
:103AA000A4F10104D5F1200E0DDB02FA0EFC22FA7E
:103AB00005F2801841F1000103FA0EF2801843FA72
:103AC00005F359410EE0A5F120050EF1200E012A63
:103AD00003FA0EFC28BF4CF0020C43FA05F3C018A1
:103AE00051EBE37101F0004507D54FF0000EDCF11A
:103AF000000C7EEB00006EEB0101B1F5801F1BD3C3
:103B0000B1F5001F0CD349085FEA30004FEA3C0CC6
:103B100004F101044FEA445212F5800F80F09A80BC
:103B2000BCF1004F08BF5FEA500C50F1000041EBC0
:103B3000045141EA050130BD5FEA4C0C404141EBC4
:103B4000010111F4801FA4F10104E9D191F0000FEB
:103B500004BF01460020B1FA81F308BF2033A3F16E
:103B60000B03B3F120020CDA0C3208DD02F1140C65
:103B7000C2F10C0201FA0CF021FA02F10CE002F1A0
:103B80001402D8BFC2F1200C01FA02F120FA0CFC99
:103B9000DCBF41EA0C019040E41AA2BF01EB0451E2
:103BA000294330BD6FEA04041F3C1CDA0C340EDCE0
:103BB00004F11404C4F1200220FA04F001FA02F323
:103BC00040EA030021FA04F345EA030130BDC4F1E1
:103BD0000C04C4F1200220FA02F001FA04F340EAD6
:103BE0000300294630BD21FA04F0294630BD94F087
:103BF000000F83F4801306BF81F480110134013D6E
:103C00004EE77FEA645C18BF7FEA655C29D094EADE
:103C1000050F08BF90EA020F05D054EA000C04BF5C
:103C20001946104630BD91EA030F1EBF0021002047
:103C300030BD5FEA545C05D14000494128BF41F0E6
:103C4000004130BD14F580043CBF01F5801130BD4A
:103C500001F0004545F0FE4141F470014FF00000D5
:103C600030BD7FEA645C1ABF194610467FEA655C86
:103C70001CBF0B46024650EA013406BF52EA033528
:103C800091EA030F41F4002130BD00BF90F0000F16
:103C900004BF0021704730B54FF4806404F1320452
:103CA0004FF000054FF0000150E700BF90F0000F0B
:103CB00004BF0021704730B54FF4806404F1320432
:103CC00010F0004548BF40424FF000013EE700BF02
:103CD00042004FEAE2014FEA31014FEA02701FBF92
:103CE00012F07F4393F07F4F81F06051704792F064
:103CF000000F14BF93F07F4F704730B54FF46074DE
:103D000001F0004521F0004120E700BF50EA010228
:103D100008BF704730B54FF000050AE050EA0102D5
:103D200008BF704730B511F0004502D5404261EB45
:103D300041014FF4806404F132045FEA915C3FF486
:103D4000DCAE4FF003025FEADC0C18BF03325FEA1F
:103D5000DC0C18BF033202EBDC02C2F1200300FAD4
:103D600003FC20FA02F001FA03FE40EA0E0021FAF9
:103D700002F11444C1E600BF70B54FF0FF0C4CF4E3
:103D8000E06C1CEA11541DBF1CEA135594EA0C0F99
:103D900095EA0C0F00F0DEF82C4481EA030621EAD4
:103DA0004C5123EA4C5350EA013518BF52EA03350F
:103DB00041F4801143F4801338D0A0FB02CE4FF0C1
:103DC0000005E1FB02E506F00042E0FB03E54FF0F1
:103DD0000006E1FB03569CF0000F18BF4EF0010EE9
:103DE000A4F1FF04B6F5007F64F5407404D25FEAE5
:103DF0004E0E6D4146EB060642EAC62141EA555198
:103E00004FEAC52040EA5E504FEACE2EB4F1FD0CD9
:103E100088BFBCF5E06F1ED8BEF1004F08BF5FEA57
:103E2000500E50F1000041EB045170BD06F0004609
:103E300046EA010140EA020081EA0301B4EB5C04B6
:103E4000C2BFD4EB0C0541EA045170BD41F48011AE
:103E50004FF0000E013C00F3AB8014F1360FDEBFD3
:103E6000002001F0004170BDC4F10004203C35DAAF
:103E70000C341BDC04F11404C4F1200500FA05F332
:103E800020FA04F001FA05F240EA020001F00042D3
:103E900021F0004110EBD37021FA04F642EB060149
:103EA0005EEA430E08BF20EAD37070BDC4F10C0473
:103EB000C4F1200500FA04F320FA05F001FA04F237
:103EC00040EA020001F0004110EBD37041F1000123
:103ED0005EEA430E08BF20EAD37070BDC4F120052E
:103EE00000FA05F24EEA020E20FA04F301FA05F296
:103EF00043EA020321FA04F001F0004121FA04F23E
:103F000020EA020000EBD3705EEA430E08BF20EA0D
:103F1000D37070BD94F0000F0FD101F00046400047
:103F200041EB010111F4801F08BF013CF7D041EAC9
:103F3000060195F0000F18BF704703F000465200CD
:103F400043EB030313F4801F08BF013DF7D043EA9E
:103F50000603704794EA0C0F0CEA135518BF95EA54
:103F60000C0F0CD050EA410618BF52EA4306D1D1DB
:103F700081EA030101F000414FF0000070BD50EAFA
:103F8000410606BF1046194652EA430619D094EA84
:103F90000C0F02D150EA013613D195EA0C0F05D16E
:103FA00052EA03361CBF104619460AD181EA0301C2
:103FB00001F0004141F0FE4141F470014FF000007A
:103FC00070BD41F0FE4141F4780170BD70B54FF015
:103FD000FF0C4CF4E06C1CEA11541DBF1CEA135595
:103FE00094EA0C0F95EA0C0F00F0A7F8A4EB050477
:103FF00081EA030E52EA03354FEA013100F088806E
:104000004FEA03334FF0805545EA131343EA126336
:104010004FEA022245EA111545EA10654FEA0026EB
:104020000EF000419D4208BF964244F1FD0404F5A4
:10403000407402D25B084FEA3202B61A65EB030500
:104040005B084FEA32024FF480104FF4002CB6EBBD
:10405000020E75EB030E22BFB61A754640EA0C003D
:104060005B084FEA3202B6EB020E75EB030E22BF7D
:10407000B61A754640EA5C005B084FEA3202B6EBBE
:10408000020E75EB030E22BFB61A754640EA9C007D
:104090005B084FEA3202B6EB020E75EB030E22BF4D
:1040A000B61A754640EADC0055EA060E18D04FEA0B
:1040B000051545EA16754FEA06164FEAC30343EAAB
:1040C00052734FEAC2025FEA1C1CC0D111F4801F78
:1040D0000BD141EA00014FF000004FF0004CB6E771
:1040E00011F4801F04BF01430020B4F1FD0C88BF10
:1040F000BCF5E06F3FF6AFAEB5EB030C04BFB6EB1B
:10410000020C5FEA500C50F1000041EB045170BD0D
:104110000EF0004E4EEA113114EB5C04C2BFD4EB3A
:104120000C0541EA045170BD41F480114FF0000EBE
:10413000013C90E645EA060E8DE60CEA135594EA3A
:104140000C0F08BF95EA0C0F3FF43BAF94EA0C0F3D
:104150000AD150EA01347FF434AF95EA0C0F7FF4B2
:1041600025AF104619462CE795EA0C0F06D152EA06
:1041700003353FF4FDAE1046194622E750EA4106EA
:1041800018BF52EA43067FF4C5AE50EA41047FF4FB
:104190000DAF52EA43057FF4EBAE12E74FF0FF3C60
:1041A00006E000BF4FF0010C02E000BF4FF0010C31
:1041B0004DF804CD4FEA410C7FEA6C5C4FEA430CAA
:1041C00018BF7FEA6C5C1BD001B050EA410C0CBFF9
:1041D00052EA430C91EA030F02BF90EA020F00205B
:1041E000704710F1000F91EA030F58BF994208BFC2
:1041F00090422CBFD8176FEAE37040F0010070477F
:104200004FEA410C7FEA6C5C02D150EA013C07D1D5
:104210004FEA430C7FEA6C5CD6D152EA033CD3D020
:104220005DF8040B704700BF8446104662468C461A
:104230001946634600E000BF01B5FFF7B7FF00284D
:1042400048BF10F1000F01BD4DF808EDFFF7F4FF76
:104250000CBF012000205DF808FB00BF4DF808ED01
:10426000FFF7EAFF34BF012000205DF808FB00BF24
:104270004DF808EDFFF7E0FF94BF012000205DF846
:1042800008FB00BF4DF808EDFFF7CEFF94BF0120FB
:1042900000205DF808FB00BF4DF808EDFFF7C4FFF4
:1042A00034BF012000205DF808FB00BF4FEA410247
:1042B00012F5001215D211D56FF47873B3EB625278
:1042C00012D94FEAC12343F0004343EA505311F09F
:1042D000004F23FA02F018BF404270474FF0000031
:1042E000704750EA013005D111F0004008BF6FF06F
:1042F000004070474FF00000704700BF80F0004062
:1043000002E000BF81F0004142001FBF5FEA4103AD
:1043100092EA030F7FEA226C7FEA236C6AD04FEAAD
:104320001262D2EB1363C1BFD218414048404140F2
:10433000B8BF5B42192B88BF704710F0004F40F4A4
:10434000000020F07F4018BF404211F0004F41F4C0
:10435000000121F07F4118BF494292EA030F3FD08C
:10436000A2F1010241FA03FC10EB0C00C3F120039F
:1043700001FA03F100F0004302D5494260EB40002E
:10438000B0F5000F13D3B0F1807F06D340084FEA99
:10439000310102F10102FE2A51D2B1F1004F40EB8E
:1043A000C25008BF20F0010040EA030070474900F6
:1043B00040EB000010F4000FA2F10102EDD1B0FAC1
:1043C00080FCACF1080CB2EB0C0200FA0CF0AABFB6
:1043D00000EBC25052421843BCBFD0401843704754
:1043E00092F0000F81F4000106BF80F4000001325A
:1043F000013BB5E74FEA41037FEA226C18BF7FEA31
:10440000236C21D092EA030F04D092F0000F08BF72
:104410000846704790EA010F1CBF0020704712F059
:104420007F4F04D1400028BF40F00040704712F198
:1044300000723CBF00F50000704700F0004343F0FD
:10444000FE4040F4000070477FEA226216BF084633
:104450007FEA23630146420206BF5FEA412390EAF6
:10446000010F40F4800070474FF0000304E000BFEC
:1044700010F0004348BF40425FEA000C08BF70479D
:1044800043F0964301464FF000001CE050EA010261
:1044900008BF70474FF000030AE000BF50EA010276
:1044A00008BF704711F0004302D5404261EB410163
:1044B0005FEA010C02BF84460146002043F0B64388
:1044C00008BFA3F18053A3F50003BCFA8CF2083AAD
:1044D000A3EBC25310DB01FA02FC634400FA02FCB6
:1044E000C2F12002BCF1004F20FA02F243EB0200BD
:1044F00008BF20F00100704702F1200201FA02FC1F
:10450000C2F1200250EA4C0021FA02F243EB020011
:1045100008BF20EADC7070474FF0FF0C1CEAD05255
:104520001EBF1CEAD15392EA0C0F93EA0C0F6FD016
:104530001A4480EA010C400218BF5FEA41211ED0F4
:104540004FF0006343EA501043EA5111A0FB0131E0
:104550000CF00040B1F5000F3EBF490041EAD371B5
:104560005B0040EA010062F17F02FD2A1DD8B3F131
:10457000004F40EBC25008BF20F00100704790F0A0
:10458000000F0CF0004C08BF49024CEA502040EAF2
:1045900051207F3AC2BFD2F1FF0340EAC2507047B8
:1045A00040F400004FF00003013A5DDC12F1190FF6
:1045B000DCBF00F000407047C2F10002410021FA68
:1045C00002F1C2F1200200FA02FC5FEA310040F180
:1045D000000053EA4C0308BF20EADC70704792F0F9
:1045E000000F00F0004C02BF400010F4000F013A31
:1045F000F9D040EA0C0093F0000F01F0004C02BF2C
:10460000490011F4000F013BF9D041EA0C018FE79A
:104610000CEAD15392EA0C0F18BF93EA0C0F0AD0A0
:1046200030F0004C18BF31F0004CD8D180EA0100C6
:1046300000F00040704790F0000F17BF90F0004F5F
:10464000084691F0000F91F0004F14D092EA0C0F41
:1046500001D142020FD193EA0C0F03D14B0218BFD4
:10466000084608D180EA010000F0004040F0FE401A
:1046700040F40000704740F0FE4040F440007047B6
:104680004FF0FF0C1CEAD0521EBF1CEAD15392EA35
:104690000C0F93EA0C0F69D0A2EB030280EA010C25
:1046A00049024FEA402037D04FF0805343EA1111BE
:1046B00043EA10130CF000408B4238BF5B0042F11C
:1046C0007D024FF4000C8B4224BF5B1A40EA0C00C1
:1046D000B3EB510F24BFA3EB510340EA5C00B3EBF3
:1046E000910F24BFA3EB910340EA9C00B3EBD10FE1
:1046F00024BFA3EBD10340EADC001B0118BF5FEA33
:104700001C1CE0D1FD2A3FF650AF8B4240EBC2505B
:1047100008BF20F0010070470CF0004C4CEA50201C
:104720007F32C2BFD2F1FF0340EAC250704740F46B
:1047300000004FF00003013A37E792F0000F00F05D
:10474000004C02BF400010F4000F013AF9D040EADB
:104750000C0093F0000F01F0004C02BF490011F46F
:10476000000F013BF9D041EA0C0195E70CEAD15367
:1047700092EA0C0F08D142027FF47DAF93EA0C0F4E
:104780007FF470AF084676E793EA0C0F04D14B0232
:104790003FF44CAF08466EE730F0004C18BF31F0E4
:1047A000004CCAD130F000427FF45CAF31F00043DE
:1047B0007FF43CAF5FE700BF4BB942B9002908BFA7
:1047C000002802D04FF0FF31084601F0A9B882B0AE
:1047D000EC462DE9005000F057F8DDF804E002B097
:1047E0000CBC704738B50022002304460D46FFF785
:1047F00035FD28B920462946BDE8384000F00AB802
:10480000204605F1004100F005F8404261EB41010E
:1048100038BD00BF0023D0B50022C3F6F0530646D2
:104820000F46FFF7A9FA01F07DF80446FFF72EFACC
:1048300000230022C4F2F013FFF79EFA02460B4653
:1048400030463946FFF7E4F801F06CF800220243E5
:1048500010462146D0BD00BF2DE970431546804665
:1048600089461C4601F07EF805FB01F6A5FB0023F6
:1048700000FB0464E318069CB8EB020269EB030337
:10488000C4E90023BDE87083F8B5144606460F4618
:104890001D4601F0C7F900FB05F5A0FB042304FB4E
:1048A0000154E318069CB21A67EB0303C4E9002322
:1048B000F8BD00BF036803B11B181846704700BF5E
:1048C00003685A004CBF43F0004323F00043C01874
:1048D000704700BF2DE9F84F0446914641B301F1FE
:1048E000FF3BDA46002707EB0A0000EBD0756D109E
:1048F00004EBC5063046FFF7E3FFAB45804610D01A
:10490000691C04EBC100FFF7DBFF0138C84504D97F
:10491000BD4209D005F1FF3AE5E7484505D26F1CD5
:10492000E1E74FF0FF30F1E700263046BDE8F88FB1
:104930000E463046BDE8F88F30B52B4B83B00446A9
:104940008D1E002B49D0284601A9AFF300800346F5
:10495000002822D02A4618460199FFF7BBFF0546DA
:1049600000281DD0FFF7ACFF6B68A064012B10D0AE
:10497000281D002B22DBFFF7A3FF0021E064216547
:104980000368002B0FDBFFF79BFF2061002003B0C3
:1049900030BD002323610520F9E720610920F6E7F7
:1049A00020610920F3E7C3F3036058B101280CD05C
:1049B00002280ED0002020610920E8E70122E064EF
:1049C0002265DDE7094B2361E1E7094A0020226106
:1049D000DDE7084900202161D9E7074A0749134666
:1049E000881AC2100192B5E700000000FD4E0000D9
:1049F000F94E0000F54E0000B05F0000A06000001E
:104A0000036810B50446D80706D4990704F1480096
:104A100009D500F009FD23685A0709D518070ED5F6
:104A2000D90613D510BD00F0F7FC23685A07F5D45A
:104A300004F1D00000F000FD23681807F0D404F55D
:104A4000D87000F001FD2368D906EBD404F50C7092
:104A5000BDE8104000F03CBD2DE9F047ADF5916D8B
:104A600002AC0F1D261D054691460FCF0FC60FCF76
:104A70000FC60FCF0FC697E80F00D5F80C800027A0
:104A8000D5F818A086E80F00216C28462760FFF7AC
:104A900053FF0646B94514BF4FF00A094FF0090904
:104AA000FEB1A16B49F01009616401208DE810048A
:104AB00049462A462B46C04700282BD1002E2AD132
:104AC000204692A94FF4107201F0FCF9082F28D16A
:104AD000216C2846FFF730FF06464FF00909002EEB
:104AE000DFD1206C21464FF41072686192A801F06A
:104AF000E9F92F69294692AA4846B847A09B07467C
:104B0000636401208DE8100449462A462B46C047BD
:104B10000028D3D00926304622B00DF5806DBDE8BF
:104B2000F087072FF6D1201D00F06AFC38B5044647
:104B30000D46296C2046FFF7FFFE50B92A6C012074
:104B40006261236921462A4698470828F1D0072840
:104B500001D0FDF7FFF8281D00F052FC11B933B168
:104B60000220704704298CBF0220012070470F2AC1
:104B700001D90220704700EB820042681846009B72
:104B80001A60704710B50A4684B000210B4603AC8A
:104B90000094FFF7E3FF039804B010BD11B933B1DF
:104BA0000220704704298CBF0220012070470F2A81
:104BB00001D902207047009900EB8202096818466B
:104BC0005160704700B585B004AB43F8042D0A4628
:104BD000002100930B46FFF7E1FF05B000BD00BFC9
:104BE0002DE9F04FCD6C0C4655F8041B8BB01746E1
:104BF00000F008021E46039200F003080795002B00
:104C000040F0E08009020691216D8DF821300323E8
:104C1000B8F1020F8DF8203008BFA56B11F0010329
:104C200040F0E480019304F158030293D5F800901A
:104C3000B9F1000F00F0DC80022E00F0BF80B5F863
:104C40000090B5F802A00435A26C0F212AF0010BE8
:104C500038469344FFF796FF834518D829F0010C96
:104C6000E3440AF0010A09F00103584543EA4A09FE
:104C70002CBF00200120B9F1010F12D032D2B8F1BF
:104C8000000F02D0002840F017810435CEE70AF06B
:104C9000010A09F0010343EA4A090020B9F1010FB2
:104CA000ECD1B8F1000F40F0C880C8B16B68D5F8FE
:104CB00000909A1C19D0029A013309920DD0281D38
:104CC000FFF7F8FD4FEAD972014609AB2046AFF372
:104CD0000080002800F0EC80099A002A40F0CC8087
:104CE0000835A3E7B9F1020F03D009200BB0BDE8E6
:104CF000F08F2B6823F000420092B8F1000F40F0D3
:104D00008380002853D00398002840F0B280009898
:104D1000002800F0B180009B05F1040ADB07DDF8F4
:104D20000C9010D4029950460991FFF7C3FD039AE5
:104D3000014609AB2046AFF30080002833D10AF1C9
:104D4000040A4FF00109CDF81080AB46B846504632
:104D50000596029F11E000998E4200F0C0800997ED
:104D6000FFF7A8FD5246014609AB2046AFF300808D
:104D7000B14698B9281D06F10109051D0997FFF7ED
:104D800099FD09AB014600222046AFF30080824620
:104D900009F101062846BAF1000FDCD04746059E0E
:104DA000DDF810805D46009A4A4565D02B68002BDF
:104DB0007CDB0099481C05EB800537E7D5F804A09B
:104DC000083541E70B04C1F30740216D0222B8F119
:104DD000020F069305EB800508BFA56B11F00103D8
:104DE0008DF821008DF820203FF41CAF00200190A9
:104DF000384606A900F004FC00287FF476AF019A3B
:104E0000002A43D1082071E70D213846D4F82090BC
:104E1000FFF7B8FE8145C9D1A26A9542C6D1009874
:104E2000291D00220423A062E262236361632868D3
:104E3000002857DB01220192BBE70D213846D4F848
:104E40002090FFF79FFE81457FF44AAFA16A8D4213
:104E50007FF446AF2846FFF733FD0F210246384660
:104E6000FFF7B0FE384600212246FFF7ABFE0720D1
:104E70003CE7009900299AD138460D21FFF782FEC0
:104E8000099B20626362A56206202FE70F21384646
:104E9000FFF778FE0E2102463846FFF793FE3846AC
:104EA0000F21134AFFF78EFE07201FE7043580E726
:104EB000CDF824800835B9E62846FFF701FD043512
:104EC0000646A5632046AFF3008000283FF40DAFEF
:104ED00038460F213246FFF775FE072006E75D468C
:104EE0004746C9E7009B591C05EB8100B3E700BFAB
:104EF00000000000022373E6012371E600236FE641
:104F00002DE9F0470446E8B004290CD8DFE801F0A9
:104F1000390392940F00150C012B96B200F07881A2
:104F2000052B00F0C880022068B0BDE8F087002B98
:104F3000F9D1102AF7D82368D90600F1738164A843
:104F4000019200F0CFFA019AA36BD00744BF53F847
:104F5000040B6490910744BF53F8041B65915007FC
:104F600048BF53F8041B64A848BF6691110748BFA7
:104F700053F8042BA36348BF679200F0A9FA0020FE
:104F8000D2E7002BCFD1A36BD00791B244BF53F827
:104F9000042B62608A0744BF53F8042BA2604807C1
:104FA00044BF53F8042BE2600A0744BF53F8042BB4
:104FB0002261C80644BF53F8042B62618A0644BFCD
:104FC00053F8042BA261480644BF53F8042BE26156
:104FD0000A0644BF53F8042B2262C80544BF53F8A5
:104FE000042B62628A0544BF53F8042BA262480571
:104FF00044BF53F8042BE2620A0544BF53F8042B64
:105000002263C80444BF53F8042B626311F40050B8
:105010001CBF53F8042BA2634A0444BF53F8042B6B
:10502000E2630A0444BF53F8042B2264002840D1F1
:10503000A36379E7012077E7032B7FF474AF160CA5
:1050400095B2AA19102A3FF66EAF2368180700F12F
:105050000A8144A800F01AFAA76B4FEA450E3B46B6
:105060000DB30EF1FF3C44A953F8040B01EBC60647
:1050700062460CF0010146F8040B92B129B153F8D5
:10508000041B013A46F8041B0BD0184650F8045B89
:10509000314641F8045B5D68031D75600E1D023AE0
:1050A000F3D107EB8E0344A8A36300F0CDF90020F1
:1050B0003AE7002038E777192022BA42FFF433AFED
:1050C000012B00F0A8800F2D40F2A8803746F6B1E2
:1050D000052B7FF428AF0F2D11D82268D0070ED5ED
:1050E00022F00101052B216000F0DA8022F003029A
:1050F000204640F8482B019300F092F9019B1FB124
:105100002268510700F1B780012B00F0BE800F2DFF
:1051100074D9002F40F09F80D4F83890002EC846F4
:105120002EDD49464FEA46080DF1080C51F8046B94
:105130000CEBC50208F1FF3000F0010A42F8046BE5
:10514000A8F1020CD0B1BAF1000F08D051F8040B4D
:105150000CF1FF3CBCF1FF3F42F8040B0ED00E46B1
:1051600056F804AB104640F804AB4968ACF1020CA9
:105170005160311D021DBCF1FF3FF0D109EB8808E1
:105180009FB3102D2CBF2E46102668AA414602EB75
:10519000C60A4FEA470951F8046BAAF5C87209F12B
:1051A000FF3000F0010A42F8046BA9F1020CD0B103
:1051B000BAF1000F08D051F8040B0CF1FF3CBCF120
:1051C000FF3F42F8040B0ED00E4656F804AB1046D3
:1051D00040F804AB4968ACF1020C5160311D021D6E
:1051E000BCF1FF3FF0D108EB8908012B2BD00F2D2C
:1051F000C4F8388008D9FFB9384695E602A801936B
:1052000000F016F9019B84E702A800F00DF9F2E71F
:105210007719102251E70F2D3FF685AE102F10D9C8
:10522000103F55E723F01003236004F50C70019242
:1052300000F058F9019A82E624A800F0FDF8002059
:1052400072E6002747E708F1040302A8A36300F011
:10525000E3F8002068E624A80193C5F1100600F0E9
:10526000EFF8019B58E723F0080704F5D870276092
:1052700000F00CF9EDE622F00401204640F8D01BC6
:10528000019300F0DDF8019B3EE702A8019300F0D6
:10529000C7F8019B002F3FF43FAFC5F110063BE775
:1052A00041F00201204640F8481B019300F0C0F88D
:1052B000019B24E7406C7047F0B50D46C96BADF516
:1052C000117D296401AE2F1D04460FCF0FC60FCFED
:1052D0000FC60FCF0FC697E80F0086E80F004FF0FC
:1052E000FF33009310992046FFF726FB58B9266933
:1052F00021466A46B04708280646F3D06846FFF7BD
:105300007FFB062E03D009200DF5117DF0BD204650
:105310002946FFF70BFC00BF10B4DC6BC160826153
:10532000194600221C6410BCFFF796BB38B54269D1
:10533000C36804460D460A6423B10122FFF78CFBC3
:10534000FCF708FD0369214602202A4698470728F2
:1053500003D0082804D0FCF7FDFC281D00F050F80D
:1053600020462946FFF7E2FBC36823B1CA6B0A64F3
:105370000022FFF771BB9FE7704700BF08B5836845
:1053800001460BB10120984708BD00BFF0B5D46BB2
:10539000ADF5277D146401AE171D05460C460FCFF1
:1053A0000FC60FCF0FC60FCF0FC697E80F0086E8C6
:1053B0000F004FF0FF330093109990A8FFF7BCFA4D
:1053C000034690AA68460C21BBB9FFF7FBFB2146B8
:1053D0006846A847064690A908206A466EB9949B7D
:1053E00098470528064601D00928E5D16846FFF709
:1053F00007FB30460DF5277DF0BD0926F6E700BF17
:1054000000F1340191E838009C46A6464CF8045D52
:1054100090E8FF0FE54600BD90EC210B704700BF00
:1054200080EC210B704700BF90EC200B704700BF51
:1054300080EC200B704700BFD0EC200B704700BF02
:10544000C0EC200B704700BFF0EC0201F0EC021141
:10545000F0EC0221F0EC0231F0EC0241F0EC0251F0
:10546000F0EC0261F0EC0271F0EC0281F0EC0291E0
:10547000F0EC02A1F0EC02B1F0EC02C1F0EC02D1D0
:10548000F0EC02E1F0EC02F1704700BFE0EC020149
:10549000E0EC0211E0EC0221E0EC0231E0EC024130
:1054A000E0EC0251E0EC0261E0EC0271E0EC028120
:1054B000E0EC0291E0EC02A1E0EC02B1E0EC02C110
:1054C000E0EC02D1E0EC02E1E0EC02F1704700BF59
:1054D000B0FC0181B0FC0191B0FC01A1B0FC01B1B4
:1054E000704700BFA0FC0181A0FC0191A0FC01A1BC
:1054F000A0FC01B1704700BFEC4600B52DE900509B
:105500002DE9FF1F4FF000032DE90C0001A9FFF763
:10551000D3FEDDF840E012B0704700BFEC4600B5A6
:105520002DE900502DE9FF1F4FF000032DE90C007D
:1055300001A9FFF7FBFEDDF840E012B0704700BFA5
:10554000EC4600B52DE900502DE9FF1F4FF0000398
:105550002DE90C0001A9FFF707FFDDF840E012B0CC
:10556000704700BFEC4600B52DE900502DE9FF1F44
:105570004FF000032DE90C0001ABFFF7CDFEDDF885
:1055800040E012B0704700BFEC4600B52DE9005076
:105590002DE9FF1F4FF000032DE90C0001AAFFF7D2
:1055A000F5FEDDF840E012B0704700BF027A034616
:1055B0001AB9427A42B9B02070470068013A010234
:1055C0001A72000E196070474168501E587251F8E7
:1055D000040B0322596001021A72000E1960704711
:1055E00010B5002184B00C220DEB02040B46009490
:1055F000FFF7B4FA039804B010BD00BFF0E700BF96
:105600002DE9F043064685B00D464FF000094FF4F2
:105610007F672846FFF7CAFFB028044600F0B08035
:1056200010F0800120D000F0F003802B74D0902B7C
:1056300037D0A02B45D0B02B56D0C02B00F08580A2
:1056400000F0F800D0280BD104F007035A1C42F4F4
:105650000022304601210523FFF752FC0028D8D054
:10566000092005B0BDE8F0834FEA800203A85FFA85
:1056700082F800900D220B463046FFF76FFA039B2D
:10568000600608F104084CBFC8EB0303434403ACB5
:1056900003930094002130460D220B46FFF77EFA5B
:1056A000B7E700F00F020D2ADAD00F2AD8D0002178
:1056B00003AC009430460B4603ACFFF74FFA00945E
:1056C000E8E7C14301F0070257FA02F0210700F4AE
:1056D0007F6248BF42F48042002130460B46FFF70C
:1056E0000FFC0028BCD194E7B1285DD0B2286ED061
:1056F000B32800F0948000F0FC00B42846D004F0F9
:105700000700421C42F40022012130460B46FFF7FD
:10571000F7FB0028A4D17CE72846FFF747FF2102CA
:1057200040EA0104B4F5004F9AD0230500211A0C79
:1057300030460B462401FFF7E3FB002890D114F418
:10574000004F18BF4FF0010963E7C62872D0C72881
:1057500000F0838000F0F800C02800F09180C82C91
:1057600000F0A580C92C7FF47BAF2846FFF71EFF11
:1057700000F00F0100F0F0024B1C43EA023268E730
:10578000B9F1000F00F0828000206AE704F0030303
:10579000591C41F48022022130460B46FFF7B0FB32
:1057A00000287FF45DAF34E72846FFF7FFFE02468E
:1057B00000283FF455AF10F0F0017FF451AF3046B0
:1057C0000B46FFF79DFB00287FF44AAF21E700213D
:1057D0000D220B4603AC30460094FFF7BFF9284674
:1057E000FFF7E4FE022402060CD500F07F0010FA59
:1057F00004F1039A284653180393FFF7D7FE0734A2
:105800000306F2D400F07F0010FA04F1039B03AA10
:1058100003F5017C0CEB0104009203943AE728465F
:10582000FFF7C4FE00F00F0200F0F001531C43EA42
:10583000013269E72846FFF7B9FE00F00F0200F0D9
:10584000F001531C43EA0132032130460B46FFF7B7
:1058500057FB00287FF404AFDBE62846FFF7A6FEDF
:10586000024600283FF4FCAE10F0F0037FF4F8AEDF
:1058700030460421FFF744FB00287FF4F1AEC8E670
:1058800004F00F03591C41F42022DDE703AC494624
:105890000E224B4630460094FFF760F930464946E9
:1058A0000F224B460094FFF779F94846D9E628467F
:1058B000FFF77CFE00F0F00200F00F011032481CF0
:1058C00040EA0232C5E600BF10B5C26C84B00320C6
:1058D00054688DF80C00D37924020832084601A9D7
:1058E000019402928DF80D30FFF78AFE04B010BDCE
:1058F00008B5FFF783FE806C08BD00BF08B5FFF751
:105900007DFEC16CC87901EB800303F1080008BD7E
:1059100008B5FCF71FFA00BF08B5FCF71BFA00BF7B
:10592000704700BF4A0011D212F5001211D20DD5F6
:105930006FF47873B3EB62520ED44FEAC12343F095
:10594000004343EA505323FA02F070474FF000003F
:10595000704750EA013002D14FF0FF3070474FF0EE
:10596000000070472DE9F00F00291D46C0F29C8011
:105970000024002DC0F2938007460D4616469C4633
:10598000002B3CD18A4252D9B2FA82F33BB1C3F127
:10599000200630FA06F599409A4098402943130CA6
:1059A000B1FBF3F697B203FB161107FB06F54FEABE
:1059B000104C4CEA01418D4209D9891806F1FF3C8F
:1059C00080F011818D4240F20E81023E8918491B00
:1059D000B1FBF3F503FB151307FB05F780B240EAB3
:1059E00003439F4207D9691E9B1880F002819F42A2
:1059F00040F2FF80023D45EA0642002303E08B426D
:105A00000AD900231A461046194614B1404261EBE8
:105A10004101BDE8F00F7047B3FA83F3002B40F06B
:105A200086808C4501D38242ECD80122EBE712B983
:105A30000127B7FBF2F2B2FA82F6002E3AD1891AA8
:105A4000150C1FFA82FC0123B1FBF5F705FB1711BA
:105A50000CFB07F64FEA104848EA01418E4207D98D
:105A6000891807F1FF3802D28E4200F2D7804746EC
:105A7000891BB1FBF5F605FB16110CFB06FC80B289
:105A800040EA0140844507D9711E821880F0AD803C
:105A9000944540F2AA80023E46EA0742B3E7E44357
:105AA000524263EB430367E7404261EB41014FF031
:105AB000FF345EE7B240C6F1200521FA05F320FA73
:105AC00005F9B140150CB3FBF5F805FB18371FFAC3
:105AD00082FC0CFB08F349EA01094FEA194141EA4B
:105AE0000747B040BB420AD9BF1808F1FF3180F028
:105AF0009380BB4240F29080A8F10208BF18FE1AC2
:105B0000B6FBF5F305FB13670CFB03F61FFA89F9E7
:105B100049EA07418E4206D95F1E891876D28E4225
:105B200074D9023B8918891B43EA08438CE7C3F107
:105B3000200236FA02F10CFA03F835FA02F730FACD
:105B400002F29D4041EA080C4FEA1C48B7FBF8F905
:105B50001FFA8CFA08FB19770AFB09FB15432A0C7C
:105B600042EA07479E40BB4509D917EB0C0709F1EC
:105B7000FF324FD2BB454DD9A9F102096744CBEBA7
:105B80000701B1FBF8F208FB12170AFB02FAADB2EB
:105B900045EA07418A4507D9551E11EB0C0137D25A
:105BA0008A4535D9023A614442EA09421FFA86F829
:105BB0004FEA124C08FB0CF7360C95B208FB05F8BF
:105BC00006FB057506FB0CFC05EB1845AF4288BFCC
:105BD0000CF5803CCAEB01010CEB1546B14212D327
:105BE00009D000230FE76646F1E60E4646EA074273
:105BF00009E70D46FFE610FA03F31FFA88F808EBF1
:105C00000545AB42EDD2013A0023FCE63B468AE76C
:105C10002A46C9E79146B2E7884670E7023F8918ED
:105C200026E700BF2DE9F007144605460E46002B77
:105C30003FD18A424AD9B2FA82F343B1C3F120007C
:105C400035FA00F211FA03F69C409D401643230CEE
:105C5000B6FBF3F1A0B203FB116C00FB01F22F0CB9
:105C600047EA0C46B24208D94F1E361980F0FB8035
:105C7000B24240F2F88002393619B61AB6FBF3F296
:105C800003FB126300FB02F0ADB245EA0343984206
:105C900007D9561E1B1980F0E880984240F2E58033
:105CA000023A42EA0142002310461946BDE8F007D5
:105CB00070478B4243D8B3FA83F4002C42D18B4215
:105CC000234601D382423BD80122EDE712B90127D6
:105CD000B7FBF2F4B4FA84F2002A40F08780091B83
:105CE000260CA7B20123B1FBF6F006FB101107FB4F
:105CF00000F24FEA154C4CEA01418A4207D90919D2
:105D000000F1FF3C02D28A4200F2CF806046C2EB33
:105D1000010CBCFBF6F206FB12C107FB02F7ADB2A9
:105D200045EA0145AF4207D9511E2C1980F09F80EA
:105D3000A74240F29C80023A42EA0042B4E70023C4
:105D40001A46B1E7C4F1200632FA06F7A34031FA49
:105D500006F520FA06FAA1403B431E0CB5FBF6FC03
:105D600006FB1C591FFA83F808FB0CF74AEA010AE4
:105D70004FEA1A4545EA0945AF4202FA04F905D946
:105D8000ED180CF1FF32C0F085809446E91BB1FBA1
:105D9000F6F706FB171208FB07F81FFA8AFA4AEA19
:105DA0000241884503D97A1EC9186ED3174647EABF
:105DB0000C42170C1FFA89FC0CFB07F695B24FEA50
:105DC00019430CFB05FC03FB056503FB07F305EB1F
:105DD0001C45AE4288BF03F58033C8EB010103EBDD
:105DE000154399424ED346D000235DE79440C2F15B
:105DF000200621FA06F520FA06F99140260CB5FB9B
:105E0000F6F806FB1855A7B207FB08F349EA0109A3
:105E10004FEA194141EA054C10FA02F5634509D9E8
:105E20001CEB040C08F1FF323DD263453BD9A8F1CD
:105E30000208A444C3EB0C02B2FBF6F306FB1320EA
:105E400007FB03F21FFA89F949EA00418A4206D9A1
:105E5000581E091925D28A4223D9023B0919891AE9
:105E600043EA08433FE7394607E7324619E70A465F
:105E700042EA004218E7A0401FFA8CF101EB054509
:105E8000A842B1D2013A00230EE788458ED9023FDD
:105E9000C9188CE7AF427FF678AFACF1020CED1871
:105EA00074E70346DBE79046C4E7023809192EE79A
:105EB00010B40C46134601462246022010BCFBF7E4
:105EC000A5BB00BF0F2AF0B43AD941EA00039B07F3
:105ED00038D10C46034615462668103D1E6066689C
:105EE0005E60A6689E60E6681034DE6010330F2D99
:105EF000F2D8A2F1100424F00F0402F00F021034C3
:105F0000032A00EB0403214411D90E461D46144612
:105F100056F8047B043C032C45F8047BF8D8141F86
:105F200024F00304043402F0030209191B192AB1F6
:105F300011F8014B013A03F8014BF9D1F0BC70475D
:105F40000346F4E70346F3E7A1B20181B0B0AE0126
:105F50000000000008B10181B0B000840000000022
:105F600008B10181B0B000840000000008B10181D7
:105F7000B0B0008400000000F8B500BFF8BC08BC59
:105F80009E4670478D1700003D150000FD2600005D
:105F90002D2E00004D300000A9390000B939000055
:105FA000F8B500BFF8BC08BC9E4670471915000044
:105FB0008CC4FF7F01000000A0E8FF7FB037848021
:105FC000C8E8FF7FAB08B180ECE8FF7F010000006C
:105FD00068E9FF7FB0A9028028EAFF7FB0B0A880FF
:105FE00078EAFF7F64FFFF7F44EBFF7FA908B18061
:105FF0006CEBFF7F01000000E8EBFF7FB0AF0A8091
:10600000F4EEFF7F01000000F8EEFF7FAE3F278037
:10601000A4F2FF7F01000000A0F2FF7FAB10B2806E
:10602000F8F2FF7F0100000004F3FF7FA908B180B0
:1060300038F3FF7F0100000044F3FF7F18FFFF7F6C
:106040004CF3FF7FAB26B280B8F3FF7F0100000066
:1060500090F5FF7FB0A80380A4F5FF7F010000004A
:10606000A0F5FF7FB0AD048060F8FF7FB0A803808B
:1060700080F8FF7FECFEFF7F84F8FF7FF0FEFF7F5C
:1060800090F8FF7F01000000DCF8FF7FB0B0A78030
:1060900094FBFF7FB0B0A68018FEFF7F01000000D8
:1060A00000000000000000001000002000000000C0
:1060B00000000000FC02002064030020CC0300204C
:1060C00000000000000000000000000000000000D0
:1060D00000000000000000000000000000000000C0
:1060E00000000000546B00000000000000000000F1
:1060F00000000000000000000000000000000000A0
:10610000000000000000000000000000000000008F
:10611000000000000000000000000000000000007F
:10612000000000000000000000000000000000006F
:10613000000000000000000000000000000000005F
:10614000000000000000000000000000000000004F
:10615000000000000000000001000000000000003E
:106160000E33CDAB34126DE6ECDE05000B00000003
:10617000000000000000000000000000000000001F
:10618000000000000000000000000000000000000F
:1061900000000000000000000000000000000000FF
:1061A00000000000000000000000000000000000EF
:1064D00000000000000000008001014013010000E6
:1064E00001000000B96B0000AC04002000000000B7
:1064F000004001401502000002000000BB6B0000DC
:1065000000000000000000000050014016020000E2
:1065100002000000716B000000000000000000009D
:1065200000E0004040E0004080E00040C0E000406B
:1065300000E1004040E10040BC04002008050020CC
:1065400038040020500400206804002000000140AE
:106550004000014000F0004040F0004080E1004079
:106560001100000001000000BA6B00008004002050
:10657000000000000000000000000000000000001B
:10658000000000000000000000000000000000000B
:1065900000000000000000000000000000000000FB
:1065A000000000000000000080F100401201000027
:1065B00001000000706B0000B40400200000000027
:1065C00000A001401723000000B001401824000083
:1065D0002005002028050020A0A0024007000000A0
:1065E00040A1024007000000E0A1024007000000B7
:1065F00020A3024007000000C0A3024007000000E3
:1066000070050020C0050020100600206006002054
:1066100000200040E40A002020AA440000000000FE
:10662000000000000000000000000000000000006A
:10663000000000000000000000000000000000005A
:10664000000000000000000000000000000000004A
:106650000000000000000000000000000A2E000002
:1066600000300040F00A002020AA44000000000092
:10667000000000000000000000000000000000001A
:10668000000000000000000000000000000000000A
:1066900000000000000000000000000000000000FA
:1066A0000000000000000000000000000B2F0000B0
:1066B00000000040FC0A002020AA44000000000066
:1066C00000000000000000000000000000000000CA
:1066D00000000000000000000000000000000000BA
:1066E00000000000000000000000000000000000AA
:1066F000000000000000000000000000081B000077
:1067000000100040080B002020AA440000000000F8
:106710000000000000000000000000000000000079
:106720000000000000000000000000000000000069
:106730000000000000000000000000000000000059
:10674000000000000000000000000000091C000024
:106750000200000000000000000000000000000037
:106760000500FF0B0000000000000000000000001A
:106770000400FF0A0000000000000000000000000C
:106780000700FF0D000000000000000000000000F6
:106790000600FF0C000000000000000000000000E8
:1067A0000900FF00000000000000000000000000E1
:1067B0000800FF0E000000000000000000000000C4
:1067C0000900FF0F000000000000000000000000B2
:1067D0000A00FF10000000000000000000000000A0
:1067E0000A00FF00000000000000000000000000A0
:1067F0000B00FF000000000000000000000000008F
:106800000300FF0000000000000000000000000086
:106810000200FF0000000000000000000000000077
:106820000100FF0000000000000000000000000068
:106830000000FF0000000000000000000000000059
:106840000000000000000000000000000000000048
:106850000100010000000000000000000000000036
:106860000200020000000000000000000000000024
:106870000300030000000000000000000000000012
:106880000400040000000000000000000000000000
:1068900005000500000000000000000000000000EE
:1068A0000600FF00000000000000000000000000E3
:1068B00007000600000000000000000000000000CB
:1068C0000D02FF00000000000000000000000000BA
:1068D0000E01FF00000000000000000000000000AA
:1068E0000F02FF0C0000000000000000000000008C
:1068F0000000FF0000000000000000000000000099
:106900000200FF0000000000000000000000000086
:106910000506FF000000000000000000000000006D
:106920000405FF000000000000000000000000005F
:106930000304FF0000000000000000000000000051
:106940000203FF0000000000000000000000000043
:106950000102FF0000000000000000000000000035
:106960000001FF0000000000000000000000000027
:106970000000020100000000000000000000000014
:106980000100010200000000000000000000000003
:1069900002000003000000000000000000000000F2
:1069A0000300FF04000000000000000000000000E1
:1069B0000400FF05000000000000000000000000CF
:1069C0000500FF06000000000000000000000000BD
:1069D0000600FF07000000000000000000000000AB
:1069E0000700FF0800000000000000000000000099
:1069F0000800FF0000000000000000000000000090
:106A00000B00FF000000000000000000000000007C
:106A10000C00FF000000000000000000000000006B
:106A20000D00FF000000000000000000000000005A
:106A30000E00FF0000000000000000000000000049
:106A40000800070000000000000000000000000037
:106A50000B01090000000000000000000000000021
:106A600001000B000000000000000000000000001A
:106A700003000C0000000000000000000000000007
:106A800004000D00000000000000000000000000F5
:106A900005000E00000000000000000000000000E3
:106AA00006000F00000000000000000000000000D1
:106AB00007000B00000000000000000000000000C4
:106AC00008010A00000000000000000000000000B3
:106AD00009020900000000000000000000000000A2
:106AE0000A01080000000000000000000000000093
:106AF0000B02070000000000000000000000000082
:106B00000C00060000000000000000000000000073
:106B10000D00050000000000000000000000000063
:106B20000E00040000000000000000000000000053
:106B30000F00030000000000000000000000000043
:106B40000C00FF00246D0000320000000000000077
:106B500010000020430000006C69626D61706C657C
:106B60002F657874692E630068616E646C657200CD
:106B70001916176C69626D61706C652F74696D65AB
:106B8000722E63006368616E6E656C203E2030205B
:106B90002626206368616E6E656C203C3D203400C3
:106BA0006465762D3E7479706520213D2054494DF1
:106BB00045525F4241534943001A18141500000022
:106BC0003805002040050020480500205005002021
:106BD000580500206C69626D61706C652F73696D7A
:106BE0003375312F75736172742E6300636C6F633C
:106BF0006B5F7370656564007769726973682F6590
:106C000078745F696E74657272757074732E6370D8
:106C1000700030007769726973682F486172647719
:106C200061726553657269616C2E63707000626198
:106C30007564203C3D20746869732D3E75736172E4
:106C4000745F6465766963652D3E6D61785F62612E
:106C5000756400000000000000000000000000005B
:106C600019260000E5280000FF28000000000000B1
:106C70007769726973682F486172647761726554CD
:106C8000696D65722E63707000746869732D3E645F
:106C9000657620213D204E554C4C003C6C6172675E
:106CA0006520646F75626C653E002E0077697269BD
:106CB00073682F70776D2E63707000646576202680
:106CC000262063635F6368616E6E656C007769722E
:106CD0006973682F73696D3375312F7769726973C2
:106CE000685F6469676974616C2E6370700000008E
:106CF0000000000000000000B92500002530000061
:106D00000000000000000000393000003D300000AD
:106D1000A40B0020A80B0020AC0B0020B00B00201F
:106D2000B40B002026000000000000001B5B4100A7
:106D30002D20455854490050696E204400436F751A
:106D40006E7465723A20004100096E3A2000096DA8
:106D500065616E3A20000976617269616E63653A19
:106D600020002D20436F6D6D616E642050726F6343
:106D70006573736F723A000A0A2D20537973546950
:106D8000636B0053797374656D2054696D653A20A7
:106D90000035206D732064656C61792074657374AF
:106DA0003A206D65617375726564200075730A0A17
:106DB000002D204144430009090909090909090076
:106DC00054696D6572205072657363616C6572738E
:106DD0003A2054312D00207C2054322D00207C207C
:106DE00054332D00207C2054342D00207C20543539
:106DF0002D0054696D6572204F766572666C6F77F1
:106E00002056616C7565733A2054312D0054696DBC
:106E1000657220436F6D706172652056616C756597
:106E2000733A20543143312D00207C2054314332B9
:106E30002D00207C20543243312D00207C20543200
:106E400043322D00207C20543543782D000C094519
:106E500078616D706C652050726F6772616D007E35
:106E60007E7E7E7E7E7E7E7E7E7E7E7E7E7E7E7E42
:106E70007E7E7E7E7E7E7E7E7E7E7E7E7E7E7E7E32
:106E80007E7E7E7E7E00426F6172642066726571D6
:106E9000656E63793A2000202A2054696D6572730B
:106EA00009443330202D204433352C2041312C200F
:106EB000443232202D204432342C2041392C2041C0
:106EC000313100202A204144430973656520414443
:106ED00043206F75747075742070696E7300202A7A
:106EE000205379735469636B00202A205541525412
:106EF0003200202A2045585449320973686F727451
:106F00002044333820262044333900456E7465729E
:106F1000203120746F20636F6E74726F6C2054691F
:106F20006D657273007E7E7E7E7E7E7E7E7E7E7E40
:106F30007E7E7E7E7E7E7E7E7E7E7E7E7E7E7E7E71
:106F40007E7E7E7E7E7E7E7E7E7E7E0A0A00302D66
:106F5000706175736520312D726573756D652032B2
:106F60002D70726573636C20332D6F76666C6F774E
:106F700020342D636D7072202E657869743A20007C
:106F8000456E7465722074696D657220233A200D18
:106F900000456E7465722063686E6C233A200D00A4
:106FA00055736520746F206368616E67653A2027AA
:106FB0002D272C272B272C3C6F746865723E002EE2
:106FC0003031323334353A3B3C3D1B1C1D1E1F20F3
:0C6FD0002F16171837390000A0600000D1
:040000030000243D98
:00000001FF
