:1014000000800020E9270000011F0000051F0000E8
:10141000091F00000D1F0000111F0000611F0000C8
:10142000611F0000611F0000611F0000611F0000BC
:10143000611F0000611F0000611F0000A51B00006C
:10144000611F00000D1B0000211B0000611F000038
:10145000611F0000611F0000611F0000611F00008C
:10146000611F0000611F0000611F0000611F00007C
:10147000611F0000611F0000611F0000611F00006C
:10148000611F0000611F0000611F0000611F00005C
:101490008524000089240000BD240000C124000030
:1014A000ED22000085230000052400003526000001
:1014B00059260000611F0000611F0000611F00002D
:1014C000611F0000611F0000611F0000251800005F
:1014D00045180000611F0000611F0000611F00002F
:1014E000611F0000611F0000611F0000611F0000FC
:1014F000611F0000611F0000E52500000D260000AF
:10150000611F0000611F0000611F0000611F0000DB
:10151000611F0000611F000010B5054C237833B92E
:10152000044810B10448AFF300800121217010BDC0
:10153000200B0020000000001C68000008B5064BCE
:101540001BB106480649AFF300800648016811B197
:10155000054B03B1984708BD000000001C6800005F
:10156000240B0020200B002000000000014600207A
:101570000246034600F04AB808B50021044600F0D0
:10158000A5F8044B1868C36B03B19847204600F0D8
:1015900009F900BF6C74000038B5084D084C641B95
:1015A000A41006D005EB840555F8043D9847013C8E
:1015B000FAD1BDE8384005F045B900BF50680000D9
:1015C0005468000070B50D4D0D4E761BB61006D058
:1015D000002455F8043B01349847A642F9D1094D3F
:1015E000094E05F01BF9761BB61006D0002455F8FD
:1015F000043B01349847A642F9D170BD2868000029
:101600002868000028680000446800002DE9F041C7
:101610000546274884B00468D4F84801002841D022
:1016200046681F2E1CDD234810B94FF0FF301EE026
:101630004FF4C870039102920193AFF300800399B5
:10164000029A019B0028F0D0D4F84861002780E876
:10165000C000C4F848013E46C0F88871C0F88C71DB
:1016600045B9B31C013640F823104660002004B091
:10167000BDE8F081012404FA06F4D0F8887100EB8B
:10168000860847EA040C022D4746C8F88820C0F8AF
:1016900088C1C8F80831E4D1D0F88C311C43C0F8B7
:1016A0008C41DEE704F5A670C4F84801B8E700BF36
:1016B0006C74000000000000024B13B10248FFF7F9
:1016C00055BF704700000000991500002DE9F04F4C
:1016D000334B83B01B68019000930E464FF0010B13
:1016E000009BD3F84871BFB103F5A4797D686C1EE7
:1016F0000CD407F1880A1F350AEB85057EB12B68EB
:10170000B3420CD0013C043D631CF7D140F200030E
:10171000C0F20003002B30D103B0BDE8F08F796830
:10172000CAEB05020139BA18A14252F8783C1ED022
:10173000002142F8781C002BE4D00BFA04F2D7F811
:101740008811D7F804800A420FD0D7F88C110A42CA
:101750000FD155F8801C019898477B684345BFD14D
:10176000D9F80030BB42CDD0BAE79847F5E77C60A6
:10177000E1E755F8800C9847EFE77B685BB93B6879
:1017800053B13846C9F80030AFF30080D9F8007083
:10179000002FABD1C0E73B68B9461F46F8E700BF52
:1017A0006C740000FEE700BF0129036801D85033C4
:1017B00000E0403301F001010901002A14BF0422B6
:1017C0000822002914BF4FF400018021995070476E
:1017D0000129036801D8503300E0403301F00101D2
:1017E0000901481C02FA00F2002914BF4FF46021DD
:1017F0000E2199605A6070470129036801D850335F
:1018000000E0403301F001010901012202FA01F177
:101810005960704703681A6B22F07C0242EA81012A
:1018200019637047064B1B681B68D3F8902091071B
:1018300005D51A68120102D50222C3F89820704714
:1018400074050020064B1B681B68D3F89020920794
:1018500005D51A68100102D50222C3F898207047F6
:101860007805002070B506680446007900F020FD78
:10187000454BB360454B18682379042B444B75D80E
:101880001B680122C3F3022302FA03F3B0FBF3F354
:10189000404A5B00B3FBF2F3013B1B047360C023BF
:1018A000B360402373604FF47063B36100254FF45D
:1018B0000043756173604FF48053B3604FF40023AD
:1018C00073614FF04043B3614FF480037361FC23B5
:1018D00073614FF4802373612A4620462946FFF73F
:1018E00063FF20462946FFF787FF204629462A4600
:1018F000FFF76EFF01212A462046FFF755FF012121
:101900002046FFF779FF012103222046FFF760FF01
:10191000012202212046FFF747FF02212046FFF760
:101920006BFF022120462A46FFF752FF01220321C6
:101930002046FFF739FF03212046FFF75DFF032113
:101940000A462046FFF744FF637959B2A94219DBE2
:1019500003F01F05012000FA05F549110E4A01F1B7
:10196000600442F8245042F8215070BD19681A688A
:10197000C1F30221012303FA01F3C2F3004203FA87
:1019800002F383E770BD00BF0000FF07500B00208B
:1019900000D0024080CDF70000E100E0F8B5046817
:1019A0000546266BC6F3840600E0236ED4F8A070CB
:1019B00017F00F07F9D12846FFF72CFF4FF48033BB
:1019C00063614FF40013A3614FF40003C4F8807007
:1019D0006361D4F8A0301907FBD0246E2846F1B219
:1019E000FFF718FF40F6E440604340F6FF73B0FB9A
:1019F000F3F080B2F8BD0000002809DB421101239A
:101A000000F01F0003FA00F0024B603243F822009E
:101A1000704700BF00E100E02DE9F0419846344BEB
:101A20000D4614469DF818701E6822B931486B2186
:101A3000314A00F05DFA013DEDB206F00F03AB4212
:101A400001D1320611D4C6F30323AB4201D13304D2
:101A500007D416F0010349D116F0800609D01E46BE
:101A600000E001260122082305E00022012613469A
:101A700001E0324633462149012F41F8324001EB63
:101A8000C201C1F8048003F105041D4908D107FA19
:101A900004F40C60191D07FA01F71A490F6007E0FA
:101AA000012000FA04F40C601C1D00FA04F0086028
:101AB000E6B90F2000FA03F0124905FA03F50860B1
:101AC0000733012000FA03F3824241F8045C0E4C14
:101AD00041F8043C05D0FFF78FFF02232360BDE8E7
:101AE000F0810220FFF788FF04232360BDE8F08126
:101AF00000A0024070740000807400003C0B0020C5
:101B000004A0024008A0024000E100E0034A08B53A
:101B100013680BB15068984708BD00BF3C0B00200C
:101B2000034A08B593680BB1D068984708BD00BF59
:101B30003C0B002000284FEA011106DA064B00F0AA
:101B40000F00C9B2C31819767047044BC9B2C31845
:101B500083F80013704700BFFCEC00E000E100E0F8
:101B600021F0604121F07F01094B084310B59860D6
:101B7000002460B20F210134FFF7DCFF362CF8D1CE
:101B80004FF0FF300F21BDE81040FFF7D3BF00BF7B
:101B900000ED00E0024B072258601A60704700BF5A
:101BA00010E000E008B5044B1A6801321A60034BDC
:101BB0001B6803B1984708BDA00C00204C0B002007
:101BC00070B503782025012408490CE04268013BE8
:101BD000D25C56B202F01F0204FA02F296FBF5F64E
:101BE000603641F826205A1CF0D170BD00E100E0BB
:101BF000002808DB4211012300F01F0003FA00F067
:101C0000014B43F82200704700E100E010B5447931
:101C10000368022C05D14FF07061120699605A607A
:101C200010BD43690139C9B253F8213040F2037144
:101C300018680140196019680A431A6010BD42799A
:101C40000368022A06D1022914BF4FF400514FF055
:101C500000515960704742790368022A06D102296F
:101C600014BF4FF400514FF000519960704710B508
:101C700044790139012C0368C9B219D002D3022C6E
:101C800046D133E0052915D9062906D11033002A9B
:101C900014BF0422082201212FE0072906D11033A6
:101CA000002A14BF04220822082126E0083912E085
:101CB000012903D8436953F8213001E0022907D1F3
:101CC0001033002A14BF042208224FF4807114E05C
:101CD00004291DD803394369002A14BF04220822AD
:101CE00053F821304FF40061103306E039B9002A6F
:101CF00014BF042208224FF40001995010BD01299D
:101D000006D1002A14BF042208224FF48001995002
:101D100010BD0000084B10B504461868A047074BDB
:101D20001868A047064B1868A047064B1868A047DC
:101D3000054B1868A04710BDC4040020C80400204B
:101D4000CC040020D0040020D4040020F8B50546BF
:101D50000468007900F0ACFA6B79022B0CD10023F7
:101D60002360236123622363202363604FF0021307
:101D70006360FF23236114E0236823F4FE5323F000
:101D80003F0323602368236000232364226822F436
:101D9000404222F003022260226842F44042226064
:101DA000236205F10800FFF70BFF20262A7A0124A1
:101DB0000B4811E0EB68013A99560A4B91FBF6F794
:101DC0000B40002B03DA013B63F01F0301335BB2CE
:101DD00004FA03F340F82730511CEBD1F8BD00BFE3
:101DE00000E100E01F000080A1B10C4B1B6898428D
:101DF00001D1062910D90A4B1B68984203D0094B20
:101E00001B68984201D1022900E001298CBF002003
:101E1000012070470846704701207047C404002025
:101E2000C8040020CC04002038B54B1D40F8232006
:101E3000044601220D46FFF71AFF6379022B0FD1EA
:101E40000E4B1B689C4205D1012D01D8142011E0D6
:101E500015200FE0012D01D816200BE0172009E016
:101E60000BB9182006E0064B1B689C4201D11920D3
:101E700000E01A20BDE83840FFF7BABED0040020C9
:101E8000C804002038B500220D4604460635FFF789
:101E9000EEFE002344F8253038BD012A38B504464B
:101EA0000D460CD002D3022A20D10BE0FFF7EAFF47
:101EB00029462046FFF7CFFE207C002112E00022B9
:101EC000FFF7D5FE63792046022B294601D109226E
:101ED00000E00022FFF79AFE29462046FFF7AFFEFA
:101EE000207C0121BDE8384000F018BC38BD7047A7
:101EF0007047704700000000000000000000000074
:101F0000012007E0022005E0032003E0042001E0B7
:101F10000520FFE70D4A0121116072B60C4A00212D
:101F20001160074902B4084902B486B005498E46DB
:101F3000704700BFAFF30080AFF30080AFF30080C5
:101F400000000061F9FFFFFFEF1E000014ED00E04C
:101F500010E000E0AFF30080AFF30080AFF300804B
:101F6000FEE70000044B10B504461868A047034B79
:101F70001868A04710BD00BF740500207805002038
:101F800010B50446FFF76EFC23684FF400325A6127
:101F900010BD00001B4A4FF00043136013611A4B41
:101FA0001A684FF6FF731363184A12681363184ACE
:101FB00012681363174B47F6FF721B681A63164BC0
:101FC0001A6D012A03D01A6D1AB9A5221A65F122D9
:101FD0001A65124B00221B6840F6FF71C3F890206F
:101FE000C3F888104FF4001159644FF4003199641C
:101FF0004FF4800159644FF4402199645A641F22C0
:102000009A65704734A002407C05002084050020BA
:102010008C0500209405002000A002409C050020B3
:10202000F0B5012505FA01F10468154004F1200618
:1020300014BF04270827B951184EB04204F14000DC
:1020400022D113F0010F0CBF08230423C150A5B106
:1020500002F00200C0B204F13003002814BF0420D3
:1020600008200D04C550616307E013F0010F04F16F
:1020700050000CBF08230423195012F0040F0CBFAA
:1020800008230423E150F0BD12F0020F0CBF082614
:1020900004268151002DE8D1EFE700BF9C05002008
:1020A00030B5052914BF03240724490004FA01F5BB
:1020B000144004FA01F10368186F20EA0500014397
:1020C000196730BD01390138024B41EA0040186000
:1020D000704700BF00B003400E4B19680E4B1A68E2
:1020E0000123C2F3022203FA02F2B1FBF2F20B491E
:1020F0008A4208D90A498A4206D90A4B9A4294BFB1
:102100000223032300E00023074A0321116042F861
:10211000043C7047500B002000D0024080BA8C0174
:1021200040B7280300B4C40408E00240294BF0B5CE
:1021300098420BD9284B98420AD9284B984209D982
:10214000274B984294BF0320042004E0002002E0C3
:10215000012000E00220234B234D1A6B234922F477
:102160007E4222F4F8721A631A6B4FF0404442F434
:102170007E4242F4F8721A631A6B1E4622F4E02281
:102180001A631A6B42EA00421A634FF000422C6055
:102190000A601F697F0702D41F69BF07F9D037693A
:1021A00017F0040F15D12C601F69FF0703D5032812
:1021B00005D8013002E0032801D80138C0B21F6BF6
:1021C00027F4E0271F631F6B47EA00471F630A607D
:1021D000DFE7F0BDBF0E16023FA5AE02BF3B4703CF
:1021E0007F1D2C0400B0034018B0034014B003401E
:1021F000034B4FF4403200041A6043F8040C70475C
:1022000018B003400A4B1A6822F0070210431A68FC
:102210009200FCD4064B32221860064B1B685A43CE
:10222000054BB2FBF3F2054B013A1A60704700BF51
:1022300000D00240500B0020002D3101100004E0BE
:102240000A4A0B4B10B504461A600020FFF7DAFF6C
:10225000084B4FF040421A60E00B0121FFF732FFBC
:102260002046BDE81040FFF761BF00BF002D3101DF
:10227000500B002018B00340094B1B6820B923F411
:10228000E06343EA012103E023F4803343EA0141A0
:10229000034B1A689000FCD4014B1960704700BFD3
:1022A00000D00240014B1860704700BF500B002067
:1022B00004284FF0010302D924280AD904E003FAC4
:1022C00000F0074A10607047263803FA00F3054A09
:1022D00003E0063803FA00F3034A1360704700BFB7
:1022E00014D0024034D0024024D00240244B2DE9C7
:1022F000F0411C684FF6BF6627684FF001083B6A43
:1023000003F4007503F08002AD0845EA520503F0BE
:102310003F021E40154303F47C4345EA930595FABA
:10232000A5F3B3FA83F308FA03F255409A1D54F863
:102330002220FAB1052B06D8616951F823301B69B8
:10234000C3F3002314E0062B04D123681B6903F0B8
:1023500001030DE0072B04D123681B69C3F3C003FD
:1023600006E06169083B51F823301B69C3F3003371
:1023700003B19047002DD2D1BE62BDE8F08100BF0D
:10238000C40400201E4B2DE9F0411C6840F6834632
:1023900027684FF001083B6A03F4406503F08002B0
:1023A000AD091E4045EA121503F003031D4395FADB
:1023B000A5F3B3FA83F308FA03F255409A1D54F8D3
:1023C0002220C2B1012B06D8616951F823301B6964
:1023D000C3F300230DE0022B04D123681B6903F033
:1023E000010306E06169033B51F823301B69C3F325
:1023F000003303B19047002DD9D1BE62BDE8F08112
:10240000C80400201E4B2DE9F0411C6840F68346AD
:1024100027684FF001083B6A03F4406503F080022F
:10242000AD091E4045EA121503F003031D4395FA5A
:10243000A5F3B3FA83F308FA03F255409A1D54F852
:102440002220C2B1012B06D8616951F823301B69E3
:10245000C3F300230DE0022B04D123681B6903F0B2
:10246000010306E06169033B51F823301B69C3F3A4
:10247000003303B19047002DD9D1BE62BDE8F08191
:10248000CC0400207047000038B50B4B1A68146864
:10249000236813F0404505D5916919B1180201D59B
:1024A000884706E0690004D5D26912B15B0200D505
:1024B0009047A56038BD00BFD004002070470000E1
:1024C00038B50B4B1A681468236813F0404505D5DE
:1024D000916919B1180201D5884706E0690004D551
:1024E000D26912B15B0200D59047A56038BD00BF2C
:1024F000D404002030B5C48882880346601C904212
:1025000003D01889A0420BD152B91D891868954291
:10251000805C02D0013292B200E000229A8001E099
:102520004FF0FF301A681155DA881989914202D0AC
:10253000013292B200E00022DA8030BD2DE9F04194
:1025400090F84D0017460E4601211D469DF8184093
:1025500000F0E4F83046394605220023FFF760FD1D
:102560002846214603220023BDE8F041FFF758BD6D
:1025700070B505460C461646A1B9164B196890F879
:102580004C30042B144B19D81C680123C4F30224CB
:1025900003FA04F4B1FBF4F424B910486D21104A95
:1025A000FFF7A6FC7600B4FBF6F42B68013C4FF075
:1025B000006244EA04449A611C6570BD1A680124F3
:1025C000C2F3022204FA02F41B68C3F3004304FAC4
:1025D00003F4DFE7500B002000D00240A474000099
:1025E000BC74000038B5074D2C6E04F0070405E0FC
:1025F00095F870100448FFF77DFF013C002CF7D1DF
:1026000038BD00BF00200040540B002038B5074DF6
:102610002C6E04F0070405E095F870100448FFF7ED
:1026200069FF013C002CF7D138BD00BF00300040ED
:10263000600B002038B54FF080452C6E04F0070485
:1026400005E095F870100348FFF754FF013C002C9B
:10265000F7D138BD6C0B002038B5074D2C6E04F057
:10266000070405E095F870100448FFF743FF013CAC
:10267000002CF7D138BD00BF00100040780B0020BF
:1026800038B54368002205689A80DA803F221A81B3
:1026900000F10C0204461A6090F84C00FFF708FEA7
:1026A0000F4BAB600F4B6B6044F21873AB6040F2A2
:1026B0000D336B603023AB6694F84E3059B200296D
:1026C0000CDB03F01F05012000FA05F54911064A4D
:1026D00001F1600442F8245042F8215038BD00BF97
:1026E00000001A4700000D0300E100E003684FF00E
:1026F00080225A6340225A637047036810B5002055
:1027000003E00C5C013083F870401C6EC4F302449B
:10271000032C01D89042F4D110BD0000284B2DE9C4
:10272000F04713F8308003EBC0035B788C46DA1E69
:10273000D2B2012A41D9022B07D1224B224E1B686B
:102740001968224B1B681F680AE0214A214E126853
:102750001168214A12681768204A012B08BF1646E3
:10276000174D00231A461C4605EBC0090AE0D9F8AC
:10277000040000EBC50ADAF804A050F8350042EA7C
:102780000A0204430133C3EB0805681CEFD1144B64
:1027900002203031BCF1000F186095B20CBF042349
:1027A000082307F130074FEA12425D50FA5014BF78
:1027B00004230823F4500B4B1860BDE8F08700BFDA
:1027C000940A00209874000040A002409C7400000D
:1027D0009074000020A002409474000030A00240D9
:1027E000048004400880044001498D46014908479F
:1027F00000800020F927000008B5114B1A68114B22
:102800009A4201D0104907E0104B1149002208E01C
:1028100052F8040B43F8040B8B42F9D3F4E743F866
:10282000042B8B42FBD3FEF7CDFE0020014602466F
:1028300001F001FD074B0BB1FEF79EFEFEE700BF66
:10284000D478000000000020200B0020200B002086
:10285000A80C002079150000F8B50446FFF790FB9E
:102860000C4B03201D780023032B226801D8303243
:1028700000E0203203F00301C90000FA01F705FA75
:1028800001F11668013326EA07063143082B11606F
:10289000EAD1F8BDA00600202DE9F0410446FFF77B
:1028A00055FA6379022B236803D14FF000529A60E6
:1028B00001E040229A6200254FF001084FF0706756
:1028C0000EE0022A01D19F6009E0636953F82530C8
:1028D000032D94BF08250425103345F803803546A1
:1028E0006E1CF6B220463146FFF77EFA6279236805
:1028F0000028E6D1022A04D14FF000525A60BDE808
:10290000F08140225A62BDE8F081000010B500F06D
:10291000DFFB2420FFF7CCFC00F0FCFB0620FFF7D8
:10292000C7FC0020FFF764FC1B4800F0BDFB1A4801
:10293000FFF786FC194B18481C68FFF7B3FC184BCF
:102940009C4205D8FFF7C8FB0520FFF75BFC04E0BD
:102950000520FFF757FCFFF7BFFB124B00211A6859
:102960004FF4A05042F040021A60FFF7F9F80B4B09
:1029700018684FF47A73B0FBF3F00138FFF70AF9E7
:1029800000F0A4FB0848FFF7EDFA0848FFF7C2F98A
:1029900000F096FC10BD00BF0080C404500B002066
:1029A000FF7FC40400E0024059280000992800007D
:1029B000FEE70000012808B50BD002D3022802D19F
:1029C00008BD002008BD03485821034AFFF790FACC
:1029D000002008BDC8740000E2740000382873B5F8
:1029E00005460C4616460FD871B11846FFF7E2FFB0
:1029F000064B224603EB05152B7BE97B009018461E
:102A000033460835FFF708F87CBD00BFA406002058
:102A100037B5456802AC04F8011D2846214601225D
:102A2000FFF76BFE0028F8D03EBD00004368F7B505
:102A30009B68044699420D4604D914484221144A21
:102A4000FFF756FA606883689D421DD8277A114BBC
:102A50003F01617AFE18367B0901CA18127B009685
:102A600000260196C958FB58FFF768FD6068FFF71C
:102A700007FE606831462A46FFF77AFD606803B0BA
:102A8000BDE8F040FFF732BE03B0F0BDE4740000D3
:102A9000FE740000A406002043685B68D8889A880A
:102AA00080B292B2D988801A9A8889B292B2914241
:102AB00003D21B899BB20133C01880B2704710B596
:102AC00004462046FFF7E8FF0028FAD063685B68F9
:102AD0009A881968885C1989914202D0013292B2B1
:102AE00000E000229A8010BD43685B689A88DA8013
:102AF000704700000E4B0F4A19680F4B59600021B8
:102B0000197201211A6059720C4B19680C4B5960EB
:102B10000E2119720F211A6059720A4B19680A4B5B
:102B20001A6014221A72152259605A72704700BF37
:102B3000A405002030750000840B0020A8050020AB
:102B4000900B0020AC0500209C0B0020044B027968
:102B50001B789A4202D1034B1B681860704700BF74
:102B6000A80B0020AC0B00201031C9B2132994BF70
:102B700000230123002210B50260044672B65918E2
:102B8000084B1970084B18600848FFF7C3F862B685
:102B9000236823B906484521064AFFF7A9F92046CC
:102BA00010BD00BFA80B0020AC0B00204D2B000077
:102BB000407500005975000003685A791B68022AA5
:102BC00003D14FF000529A60704740229A627047DA
:102BD00003685A791B68022A03D14FF000525A60E9
:102BE000704740225A627047026813685279022A7D
:102BF00003D11869C043C0B202E018688005800D97
:102C000001307047026801391368527989B2022A8B
:102C100006D1FF2928BFFF21C1F1FF0119617047CB
:102C20001A6840F2FF3022F47E7222F007021A6026
:102C30001A68814294BF114342EA0001196070474B
:102C400003681A685B79022B16BF106C4FF6FF7091
:102C500080B2704702681368527912B1022A02D119
:102C60007047196570471964704738B5044659B9FB
:102C70000121FFF7C7FF20460121FFF7EBFF2046A8
:102C8000BDE83840FFF7DCBF50254D434FF6FF71DC
:102C90006D08B5FBF1F1013189B205EB5105B5FBCA
:102CA000F1F5ADB2FFF7AEFF20462946FFF7D2FFA0
:102CB000284638BD0068C9B2FFF7EFB803685A79F3
:102CC000022A03D11B68186B000C704701395B693D
:102CD000C9B253F82130186BC0F34E00704770B57D
:102CE000164604460D46FFF7ABFF2368B04238BFD7
:102CF00006465A79B6B2022A07D11B681A6B92B2FD
:102D00001A631A6B42EA064605E0013D5B69EDB2C3
:102D100053F8253076001E6370BD0068C9B2FFF716
:102D200083B838B505460C4603E02B6828461B6877
:102D3000984714F8011B0029F7D138BDF8B50446AF
:102D40000D461746002605E02368A95D1B6820464E
:102D500098470136BE42F7D1F8BD08B503681B6835
:102D6000984708BD08B503685B68984708BD10B56B
:102D70000D210446FFF7F1FF20460A21BDE810406F
:102D8000FFF7EBBF10B50446FFF7E7FF2046BDE8AD
:102D90001040FFF7ECBF10B50446FFF7E3FF2046F5
:102DA000BDE81040FFF7E3BF2DE9F0471F46164688
:102DB00090B056EA070281469DF8603005D1302177
:102DC00010B0BDE8F047FFF7C8BF0024DDB2A04651
:102DD000304639462A46434602F034F9EA4604F8BA
:102DE0000A203046394643462A4602F02BF9064669
:102DF0000F46013456EA0703EAD10EE00AEB04035A
:102E000013F8011C092901D8303100E03731C9B26B
:102E10004846FFF7A2FF013C00E0EA46002CEDD156
:102E200010B0BDE8F08710B5029921B90368D1B29E
:102E30001B68984710BDC9B20291BDE81040FFF76A
:102E4000B3BF07B5002300920A46FFF7ECFF0EBDA3
:102E500010B50446FFF7F5FF2046BDE81040FFF728
:102E600086BF2DE9F041069D044616461F462DB942
:102E70000368D1B21B689847BDE8F081002E77F156
:102E8000000305DA2D21FFF768FF764267EB47075D
:102E9000EDB2204632463B460695BDE8F041FFF7CD
:102EA00083BF13B5CB1714460A460094FFF7D9FF2A
:102EB0001CBD10B50446FFF7F4FF2046BDE81040E6
:102EC000FFF755BF000000002DE9F34D19460746F6
:102ED000164610461C460022002301F023FE9DF8F2
:102EE0002880012538B13046214643A3D3E9002389
:102EF00001F00EFE06E03046214641A3D3E900234F
:102F000001F0FCFD00B90546EDB230462146002235
:102F100000236DB101F0E8FD18B138462D21FFF70F
:102F20001CFF3949384602B0BDE8F04DFFF71ABF23
:102F300001F0DAFD28B138462D21FFF70EFF04F12C
:102F4000004400250022314B09E0104619460022BA
:102F50002F4B01F081FC013502460B46EDB2454591
:102F6000F3D12146304601F09BF982468B4602F0B0
:102F70007FF804460D4601F017FB02460B4650460B
:102F8000594601F08BF90A238246009338462246BF
:102F90002B468B46FFF765FFB8F1000F26D0384669
:102FA0001C49FFF7DFFE1EE0194B00225046594630
:102FB00001F028FB8B46824601F0BEFD04460A2242
:102FC00038462146FFF76DFF204601F0B5FA02466C
:102FD0000B465046594601F061F908F1FF38824628
:102FE0008B465FFA88F8B8F1000FDDD102B0BDE87A
:102FF000F08D00BFAFF30080800350726C92DF430E
:10300000800350726C92DFC36B7500000000E03FDC
:10301000000024407A7500009DF800100091FFF731
:1030200053BF13B59DF8101004460091FFF74CFFF5
:10303000204602B0BDE81040FFF799BE054B03EBF8
:10304000001000F10803806810B19979FEF7A6BC62
:10305000704700BFA406002038280ED8074B000197
:103060001A18127B1B584FF4803000FA02F21B68CA
:103070001968C94389B20A43DA607047A406002080
:103080001C234343013B18460138FDD8704738B52F
:103090000546002404E04FF47A70FFF7F1FF013495
:1030A000AC42F8D138BD000008B5074B984294BF38
:1030B000002101210120FFF7DFF800200146BDE8D3
:1030C0000840FFF7D9B800BF80F0FA02FEF762BFF0
:1030D00008B50C4B00221A602720FFF7E9F80A4BCD
:1030E000A5221A60DD221A600720FFF7E1F8074BDE
:1030F0004FF000421A60064B4FF6FF721B681B68C8
:103100001A6308BD20D002403000034034A00240C2
:10311000907400001E4B10B51C6809212046042243
:103120000023FEF77DFF0A21042200232046FEF73C
:1031300077FF2620FFF7BCF8164B0822C3F8802142
:103140001A60154B8021196014494FF480230B60DD
:10315000134B4FF4803018601A604FF080420A60C1
:103160004FF400321A604FF000421A601420FFF74B
:103170008EFF0C4B1A6812F0200F0A4AFAD013681F
:10318000DB05FCD50220BDE81040FFF780BF00BF83
:103190009074000000E100E01490024008900240AA
:1031A000049002401090024038282DE9F14F79D860
:1031B000082911D8DFE801F0181B05080505050BE3
:1031C0000D000024052614E00024042611E001244B
:1031D0000BE0012426460CE03448354A4A2101B070
:1031E000BDE8F04FFEF784BE0024032601E0002472
:1031F0000126304F4FEA001808EB0705297B58F8E5
:10320000070000F05FF80346002833D000F1FF39D3
:10321000DFF8A8A084B14FEA0919297B58F8070004
:10322000052200230AEB0905FEF7FAFE297B5AF86E
:1032300009003246002321E04FEA09130AEB030B91
:103240000BF108095AF8030099F804102246FEF71A
:1032500027FF99F80510DBF804002246FEF71DFE53
:10326000297B58F807003246234601B0BDE8F04FED
:10327000FEF7D6BE297B58F807003246FEF7D0FE8F
:10328000686818B1697B2246FEF707FE0A4B28687A
:103290001B68984206D1297B620001B0BDE8F04F5F
:1032A000FEF7FEBE01B0BDE8F08F00BF7C750000E8
:1032B000E2740000A4060020A0740000340A00207C
:1032C00070470000074B1B68984206D10239C9B20B
:1032D000092904D8044B585C70470020704700202F
:1032E000704700BF9C740000D0750000C24AF0B562
:1032F0001168C24BC24CC34A256812681868C24C98
:10330000C24BC34EC3F8E850C3F8F850C3F8085195
:10331000C3F81851C3F82851C3F838511860186120
:10332000186218631964186518661967C3F8800075
:10333000C3F89000C3F8A000C3F8B000C3F8C00001
:10334000C3F8D000C3F8E020C3F8F020C3F8002190
:10335000C3F81021C3F82021C3F83021C3F840215D
:10336000C3F85021C3F858512768AA4C366824681E
:10337000C3F8B861C3F87441C3F88441A64CC3F8DC
:10338000C8612468C3F8D861C3F88852C3F898525A
:10339000C3F86021C3F86471C3F87021C3F88021B9
:1033A000C3F89041C3F8A041C3F8B011C3F8C011ED
:1033B000C3F8D011C3F8E011C3F8F011C3F800123C
:1033C000C3F81012C3F82012C3F83012C3F8401229
:1033D000C3F85012C3F86012C3F87012C3F8802209
:1033E000C3F89022C3F89472C3F8A042C3F8A8525D
:1033F000C3F8B852C3F8C852C3F8D852C3F8E85259
:10340000864DC3F8F8622D68C3F80863C3F8045307
:10341000C3F81453824DC3F818632D68C3F82863AA
:10342000C3F82453C3F834537E4DC3F83863C3F84C
:103430004863C3F85863C3F86863C3F8786390427D
:103440004FF48036C3F8B042C3F8C042C3F8D0424C
:10345000C3F8E042C3F8F042C3F80043C3F8104396
:10346000C3F82043C3F83043C3F84043C3F8504384
:10347000C3F86043C3F87043C3F880232E601D4631
:1034800001D0884206D12B7B0125904205FA03F535
:1034900008D005E01D7B0123103503FA05F504E093
:1034A000884202D1594B1B7F02E0584B1B7F1033DF
:1034B000012606FA03F35B4E2B438A42736003D066
:1034C000131A18BF012300E00023574D01262B607B
:1034D0004E4B8A4293F8FC7093F8ECC006FA07F75B
:1034E00006FA0CF647EA06066E6005D0824214BF63
:1034F00020264FF4007601E04FF400764B4D93F810
:103500005C7193F84C312E60012606FA07F706FA33
:1035100003F68A4247EA06066E6004D0824214BF70
:103520000825002500E00025414B01261D60374D90
:103530008A4295F81CC195F80C7106FA0CFC06FA43
:1035400007F74CEA070795F82CC106FA0CF647EA8C
:1035500006065E601E4604D0824214BF102300237C
:1035600000E0002395F83C71B360012303FA07F7EC
:10357000F760304E1027376095F82CC295F81C7212
:1035800003FA0CFC03FA07F74CEA070795F83CC26C
:1035900095F84C5003FA0CFC03FA05F547EA0C07C2
:1035A0007760F5602027244DB760802690422E601A
:1035B000164D01D0884207D195F8DC3001279042A2
:1035C00007FA03F308D005E095F8DC70103703FA2A
:1035D00007F309E0884207D195F8CC5001269042C4
:1035E00006FA05F62CD029E0084D95F8CC600125A7
:1035F000103605FA06F62AE0987400009C74000064
:103600007405002090740000C8040020A406002067
:1036100078050020CC04002094740000D004002021
:10362000D4040020F00B0020E80B0020000C002048
:10363000B80B0020C80B0020D80B0020884206D110
:10364000834D012795F8BC5007FA05F706E0804D39
:1036500095F8BC700125103705FA07F77D4D3B43FF
:103660001E434FF48073AB60794B90426E6093F8C9
:10367000AC3002D0884218BF1033012606FA03F39B
:103680008A42EB6005D0824214BF4FF440430023CE
:1036900000E00023704D01262B606D4B8A4293F8A9
:1036A0006C7193F89CC206FA07F706FA0CF647EA23
:1036B00006066E6005D0824214BF4FF440360026E5
:1036C00000E00026654D93F88C7193F87C312E60F4
:1036D000012606FA07F706FA03F68C4247EA0606C1
:1036E0006E6005D0844214BF4FF00063002300E0F9
:1036F00000235B4D94422B60554B93F80C3302D062
:103700008C4218BF1033012606FA03F38C426B601B
:1037100005D0844214BF4FF08053002300E0002303
:103720004F4D9442AB604A4B93F81C3302D08C420D
:1037300018BF1033012606FA03F38C42EB6005D064
:10374000844214BF4FF00053002300E00023454D96
:1037500094422B603E4B93F82C3302D08C4218BF1E
:103760001033012606FA03F38C426B6005D08442C5
:1037700014BF4FF08043002300E00023394D9442F2
:10378000AB60334B93F83C3302D08C4218BF1033FC
:10379000012606FA03F3EB60334D02238A426B7273
:1037A00002D0824218BF00238A426B7404D0824246
:1037B0000CBF0223002300E002232B4D8A426B76CC
:1037C00004D082420CBF0223002300E0022385F8CC
:1037D000213002238A4285F8293085F8313002D021
:1037E000824218BF0023204D8A4285F8413004D020
:1037F00082420CBF0222002200E002228C4285F8A5
:10380000492004D084420CBF0222002200E00222A0
:10381000154B8C4283F8512004D084420CBF022007
:10382000002000E0022083F85900104A104B126873
:103830001968104B19605A6019615A6119625A620D
:1038400019635A6319645A6419655A65F0BD00BF5B
:10385000A4060020D80B0020F80B0020B00B00209D
:10386000080C0020180C0020940A0020C40400203A
:10387000A0740000340A0020002380F8523080F841
:10388000533080F8303080F8313070470020704776
:1038900070470000014B0360704700BFF0750000E7
:1038A0000448054B0549064A0360192380F8543043
:1038B00000F0EABC280C00200076000095380000DB
:1038C0000000002010B5094A094913688868146887
:1038D000A342FAD1C0F59C3050228030B0FBF2F008
:1038E0004FF47A7202FB030010BD00BFA00C002051
:1038F00010E000E0034B1860034B1A6801321A60B5
:10390000704700BF800C00209C0C0020024B1A68FE
:1039100001321A60704700BF980C00202DE9F34770
:10392000002480460D460127264623E04046FFF747
:1039300085FB01F0E3F93146824601F029F9814621
:10394000384601F0DBF90146484601F0DFFA01464E
:10395000304601F01FF906463146504601F018F98D
:103960000146484601F01EFA0146204601F012F9D0
:1039700001370446AF42D9D929482A49FFF7F2F95D
:103980000A22A8F128012648FFF78BFA2448264985
:10399000FFF7E8F9224829460A22FFF752FA2048A1
:1039A0002249FFF7DFF9092720211D48FFF7D5F944
:1039B000013FF9D1092708211948FFF7CEF9013F46
:1039C000F9D1304600F0CAFD02460B4614480221E8
:1039D0000091FFF721FB12481549FFF7C3F90926AB
:1039E00020210F48FFF7B9F9013EF9D10926082136
:1039F0000B48FFF7B2F9013EF9D1681E01F07AF9E0
:103A00000146204601F082FA00F0A8FD02460B466E
:103A1000034802210091FFF704FBBDE8FC8700BFCB
:103A2000840B0020287600002A7600002F76000004
:103A30003776000008B508484FF4E131FEF7F6FF8D
:103A400006484FF4E131FEF7F1FF05484FF4E1314C
:103A5000BDE80840FEF7EABF840B0020900B002071
:103A60009C0B002070B5B348B349FFF77BF9B14810
:103A70000D21FFF772F9AF48B049FFF78CF9AD4857
:103A8000AF49FFF788F9AB48AE49FFF76BF9AE4B8A
:103A90004FF47A751E680A22B6FBF5F42146A54854
:103AA000FFF7CFF9A3482E21FFF757F90A2205FBAC
:103AB0001461A048FFF7C5F99E48A449FFF76BF9C8
:103AC000A3499C48FFF74EF9FFF7FCFE044605208A
:103AD000FFF7DDFAFFF7F6FE0A22011B9548FFF714
:103AE000B0F994489B49FFF756F992489A49FFF775
:103AF00052F99A4D0024605D14210134FFF70EFF46
:103B00000B2CF8D18B489649FFF745F99549894820
:103B1000FFF728F99448FFF767F80A22014685481D
:103B2000FFF78FF991498348FFF71CF99048FFF799
:103B30005BF80A2201467F48FFF783F98D497D48EB
:103B4000FFF710F98C48FFF74FF80A220146794831
:103B5000FFF777F989497748FFF704F98848FFF7B5
:103B600043F80A2201467348FFF76BF9714885490B
:103B7000FFF7F8F8062420216E48FFF7EEF8013C25
:103B8000F9D1062408216B48FFF7E7F8013CF9D189
:103B90007D48FFF729F80A2201466648FFF758F9E1
:103BA0007A496448FFF7DEF86F48FFF749F80A22C0
:103BB00001466048FFF775F96C495E48FFF7D2F897
:103BC0006B48FFF73DF80A2201465A48FFF769F9AA
:103BD00068495848FFF7C6F86748FFF731F80A22E6
:103BE00001465448FFF75DF964495248FFF7BAF8B7
:103BF0006348FFF725F80A2201464E48FFF751F9BE
:103C00004C486049FFF7AEF8062420214948FFF7E9
:103C1000A4F8013CF9D1062408214648FFF79DF895
:103C2000013CF9D15848FFF70BF80A2201464148F8
:103C3000FFF73FF93F485649FFF794F801214A48FA
:103C4000FFF73CF80A2201463A48FFF72AF93948BB
:103C50005049FFF787F802214348FFF72FF80A225F
:103C600001463448FFF71DF932484B49FFF77AF80F
:103C700001213F48FFF722F80A2201462D48FFF7AD
:103C800010F92C484549FFF76DF802213848FFF735
:103C900015F80A2201462748FFF703F9254840494D
:103CA000FFF760F8062420212248FFF756F8013C70
:103CB000F9D1062408211F48FFF74FF8013CF9D13C
:103CC00001213148FEF7FAFF0A2201461948FFF7A1
:103CD000F0F818483349FFF745F8334B0A221968C2
:103CE0001448FFF7B5F813483049FFF754F8114866
:103CF0002C49FFF737F82E4B0A2219680D48FFF7B9
:103D0000A0F80C482B49FFF72DF82B4B09481968F0
:103D10000A22FFF796F807482921FFF733F81B24FA
:103D200004480549FFF71EF8013CF9D101480D216F
:103D300044E000BF840B002024760000437600009E
:103D40005876000064760000A00C0020DA770000AE
:103D5000727600008D76000091760000BC7800003D
:103D600097760000A1760000840C0020B176000058
:103D7000880C0020B87600008C0C0020BF76000074
:103D8000900C0020C6760000940C0020CD76000038
:103D9000E2760000F8760000017700000A77000064
:103DA000137700001C770000980C00202A77000091
:103DB0009C0C002032770000800C0020BDE8704091
:103DC000FEF7CBBF13B51C4C052268461B4902F019
:103DD000CBFC20466946FEF7C5FF20461849FEF792
:103DE000DAFF20461749FEF7D6FF20461649FEF7B0
:103DF000B9FF164B0A2219682046FFF729F820461A
:103E00001349FEF7C8FF20461249FEF7C4FF2046BB
:103E10001149FEF7C0FF20461049FEF7BCFF2046BF
:103E20000F49FEF7B8FF20460E49FEF7B4FF2046C3
:103E30000D49FEF7B0FF1CBD840B00200876000082
:103E40004B7700005D77000084770000500B002066
:103E500095770000C1770000DC770000E77700006D
:103E6000F0770000087800002278000070B50E4E50
:103E700004243068FFF70BF90D20FFF7EDF8013C43
:103E80003068FFF704F9E4B20D20074DFFF7E4F8BE
:103E9000002CEED12A683223183292FBF3F103FB97
:103EA000112301332B6070BD180B00202DE9F04366
:103EB000644E87B001AD0FCE0FC5336862492B60E9
:103EC0006248FEF74FFF6148FEF7F9FDA0F13005AB
:103ED000EDB20A225D482946FEF7EBFF042D00F201
:103EE00093805A485A49FEF73DFF5848FEF7E7FDD0
:103EF000A0F13106F6B2052E00F286803DB906AB80
:103F000003EB860656F8140CFEF756FE7CE0012DF6
:103F100007D106AB03EB860656F8140CFEF758FEE5
:103F200072E0142720214948FEF717FF013FF9D11D
:103F3000142708214548FEF710FF013FF9D1042D51
:103F400009D142484349FEF70DFF4048FEF7B7FD4F
:103F5000A0F13004E4B2142720213C48FEF7FDFE16
:103F6000013FF9D1142708213848FEF7F6FE013F3A
:103F7000F9D136483849FEF7F5FE06AB03EB860665
:103F80004FF6387733E056F8149CB8F12B0F14BF76
:103F90004FF0FF384FF001084846FEF725FE08EBCA
:103FA00000014846FEF72EFE21E056F8149C4846D4
:103FB000FEF746FE4FF6EC71B8F12B0F08BF142147
:103FC000091889B24846FEF745FE10E056F8149CE1
:103FD00021464846FEF772FEB8F12B0F14BF3A4651
:103FE000C822121892B248462146FEF778FE1748BA
:103FF000FEF765FD2D28804601D02B2804D1032D26
:10400000D3D0042DBFD1E1E710480D21FEF7A5FE66
:10401000372420210D48FEF7A0FE013CF9D13724BA
:1040200008210A48FEF799FE013CF9D107480B49DF
:10403000FEF798FE05480D2107B0BDE8F043FEF7F6
:104040008CBE00BF107600004B780000840B00206F
:104050007D7800008E7800009D78000024760000B6
:1040600010B51548FEF718FD002824D01248FEF7B9
:1040700026FD04461048FEF737FD312C04D1FFF72A
:1040800015FF0D48FEF730FD372420210A48FEF7C2
:1040900064FE013CF9D1372408210748FEF75DFE94
:1040A000013CF9D104480D21FEF757FE0248BDE856
:1040B0001040FEF719BD10BD840B0020F0B53F4D38
:1040C00087B001AC0FCD0FC42B682360002401AB77
:1040D000E55804342846FEF76FFD01212846FEF717
:1040E00091FD284642F21071FEF7B4FD2846FEF716
:1040F0006FFD142CEBD10124019D214628464FF47D
:104100007A62FEF7ECFD2146012228460134FEF7D3
:10411000D1FD072CF0D10124029F214638464FF4EF
:104120007A62FEF7DCFD039E214630464FF47A6248
:10413000FEF7D5FD214601223846FEF7BBFD21469C
:10414000012230460134FEF7B5FD032CE4D1049C76
:104150000121204647F23052FEF7C1FD01212046E1
:104160000A46FEF7A7FD059E0121304647F2305270
:10417000FEF7B5FD01210A463046FEF79BFD2846B5
:104180004FF49671FEF771FD20464FF48061FEF703
:1041900039FD204601210222FEF78CFD2046012137
:1041A000074AFEF7BAFD074D0024605D0721013480
:1041B000FEF7FAFF0C2CF8D107B0F0BD1076000026
:1041C0000D390000C778000038B5104D0024605D3F
:1041D00003210134FEF7E8FF0B2CF8D11E2000214B
:1041E000FEF7E2FF1D200221FEF7DEFF084B1D2037
:1041F0001A6808490023FEF7F1FBFFF71BFCFFF7E5
:10420000E1FDBDE83840FFF759BF00BFBC780000B2
:10421000140B0020F538000008B5FFF727FE40F228
:10422000EE20FEF734FFFFF71DFCBDE80840FFF766
:1042300017BFFEF76BBB08B5FFF7C6FFFFF7ECFF34
:10424000FCE7000008B501210A48FEF78DFC0221B9
:104250000948FEF789FC03210848FEF785FC042184
:104260000748FEF781FC07480521BDE80840FEF736
:104270007BBC00BF840C0020880C00208C0C00202C
:10428000900C0020940C002003460846194602F0CA
:1042900061BA00BF81F0004102E000BF83F000433B
:1042A00030B54FEA41044FEA430594EA050F08BFD1
:1042B00090EA020F1FBF54EA000C55EA020C7FEA95
:1042C000645C7FEA655C00F0E2804FEA5454D4EB12
:1042D0005555B8BF6D420CDD2C4480EA020281EADC
:1042E000030382EA000083EA010180EA020281EA14
:1042F0000303362D88BF30BD11F0004F4FEA013166
:104300004FF4801C4CEA113102D0404261EB410174
:1043100013F0004F4FEA03334CEA133302D05242FA
:1043200063EB430394EA050F00F0A780A4F10104B6
:10433000D5F1200E0DDB02FA0EFC22FA05F28018F0
:1043400041F1000103FA0EF2801843FA05F35941D6
:104350000EE0A5F120050EF1200E012A03FA0EFC55
:1043600028BF4CF0020C43FA05F3C01851EBE3717F
:1043700001F0004507D54FF0000EDCF1000C7EEB9C
:1043800000006EEB0101B1F5801F1BD3B1F5001FDA
:104390000CD349085FEA30004FEA3C0C04F10104F9
:1043A0004FEA445212F5800F80F09A80BCF1004F22
:1043B00008BF5FEA500C50F1000041EB045141EAA4
:1043C000050130BD5FEA4C0C404141EB010111F4A5
:1043D000801FA4F10104E9D191F0000F04BF014650
:1043E0000020B1FA81F308BF2033A3F10B03B3F12E
:1043F00020020CDA0C3208DD02F1140CC2F10C02BE
:1044000001FA0CF021FA02F10CE002F11402D8BF1B
:10441000C2F1200C01FA02F120FA0CFCDCBF41EAE7
:104420000C019040E41AA2BF01EB0451294330BDB6
:104430006FEA04041F3C1CDA0C340EDC04F1140493
:10444000C4F1200220FA04F001FA02F340EA03006A
:1044500021FA04F345EA030130BDC4F10C04C4F1B0
:10446000200220FA02F001FA04F340EA0300294690
:1044700030BD21FA04F0294630BD94F0000F83F4DA
:10448000801306BF81F480110134013D4EE77FEABD
:10449000645C18BF7FEA655C29D094EA050F08BF09
:1044A00090EA020F05D054EA000C04BF19461046EA
:1044B00030BD91EA030F1EBF0021002030BD5FEA2E
:1044C000545C05D14000494128BF41F0004130BD56
:1044D00014F580043CBF01F5801130BD01F00045AA
:1044E00045F0FE4141F470014FF0000030BD7FEA1D
:1044F000645C1ABF194610467FEA655C1CBF0B4618
:10450000024650EA013406BF52EA033591EA030F2E
:1045100041F4002130BD00BF90F0000F04BF002126
:10452000704730B54FF4806404F132044FF0000559
:104530004FF0000150E700BF90F0000F04BF0021D2
:10454000704730B54FF4806404F1320410F0004538
:1045500048BF40424FF000013EE700BF42004FEA33
:10456000E2014FEA31014FEA02701FBF12F07F43B0
:1045700093F07F4F81F06051704792F0000F14BFAD
:1045800093F07F4F704730B54FF4607401F00045F1
:1045900021F0004120E700BF50EA010208BF704748
:1045A00030B54FF000050AE050EA010208BF70473D
:1045B00030B511F0004502D5404261EB41014FF4A6
:1045C000806404F132045FEA915C3FF4DCAE4FF0AA
:1045D00003025FEADC0C18BF03325FEADC0C18BF91
:1045E000033202EBDC02C2F1200300FA03FC20FAE2
:1045F00002F001FA03FE40EA0E0021FA02F114442F
:10460000C1E600BF70B54FF0FF0C4CF4E06C1CEA43
:1046100011541DBF1CEA135594EA0C0F95EA0C0FB8
:1046200000F0DEF82C4481EA030621EA4C5123EA2B
:104630004C5350EA013518BF52EA033541F480115A
:1046400043F4801338D0A0FB02CE4FF00005E1FB0D
:1046500002E506F00042E0FB03E54FF00006E1FB57
:1046600003569CF0000F18BF4EF0010EA4F1FF049A
:10467000B6F5007F64F5407404D25FEA4E0E6D41DA
:1046800046EB060642EAC62141EA55514FEAC520EB
:1046900040EA5E504FEACE2EB4F1FD0C88BFBCF567
:1046A000E06F1ED8BEF1004F08BF5FEA500E50F118
:1046B000000041EB045170BD06F0004646EA0101DE
:1046C00040EA020081EA0301B4EB5C04C2BFD4EB10
:1046D0000C0541EA045170BD41F480114FF0000E09
:1046E000013C00F3AB8014F1360FDEBF002001F077
:1046F000004170BDC4F10004203C35DA0C341BDCF1
:1047000004F11404C4F1200500FA05F320FA04F0C2
:1047100001FA05F240EA020001F0004221F00041F6
:1047200010EBD37021FA04F642EB06015EEA430E69
:1047300008BF20EAD37070BDC4F10C04C4F1200599
:1047400000FA04F320FA05F001FA04F240EA02004C
:1047500001F0004110EBD37041F100015EEA430E1D
:1047600008BF20EAD37070BDC4F1200500FA05F23D
:104770004EEA020E20FA04F301FA05F243EA0203BC
:1047800021FA04F001F0004121FA04F220EA0200CB
:1047900000EBD3705EEA430E08BF20EAD37070BD11
:1047A00094F0000F0FD101F00046400041EB0101F1
:1047B00011F4801F08BF013CF7D041EA060195F0D3
:1047C000000F18BF704703F00046520043EB03038D
:1047D00013F4801F08BF013DF7D043EA060370477A
:1047E00094EA0C0F0CEA135518BF95EA0C0F0CD085
:1047F00050EA410618BF52EA4306D1D181EA0301CB
:1048000001F000414FF0000070BD50EA410606BFC4
:104810001046194652EA430619D094EA0C0F02D109
:1048200050EA013613D195EA0C0F05D152EA03364E
:104830001CBF104619460AD181EA030101F000416C
:1048400041F0FE4141F470014FF0000070BD41F0B5
:10485000FE4141F4780170BD70B54FF0FF0C4CF48F
:10486000E06C1CEA11541DBF1CEA135594EA0C0FAE
:1048700095EA0C0F00F0A7F8A4EB050481EA030EFB
:1048800052EA03354FEA013100F088804FEA0333E2
:104890004FF0805545EA131343EA12634FEA0222B0
:1048A00045EA111545EA10654FEA00260EF0004171
:1048B0009D4208BF964244F1FD0404F5407402D2C3
:1048C0005B084FEA3202B61A65EB03055B084FEA54
:1048D00032024FF480104FF4002CB6EB020E75EB51
:1048E000030E22BFB61A754640EA0C005B084FEA79
:1048F0003202B6EB020E75EB030E22BFB61A7546F6
:1049000040EA5C005B084FEA3202B6EB020E75EB40
:10491000030E22BFB61A754640EA9C005B084FEAB8
:104920003202B6EB020E75EB030E22BFB61A7546C5
:1049300040EADC0055EA060E18D04FEA051545EAB4
:1049400016754FEA06164FEAC30343EA52734FEA5D
:10495000C2025FEA1C1CC0D111F4801F0BD141EAD6
:1049600000014FF000004FF0004CB6E711F4801F3B
:1049700004BF01430020B4F1FD0C88BFBCF5E06F1B
:104980003FF6AFAEB5EB030C04BFB6EB020C5FEA2B
:10499000500C50F1000041EB045170BD0EF0004E80
:1049A0004EEA113114EB5C04C2BFD4EB0C0541EAB2
:1049B000045170BD41F480114FF0000E013C90E6AF
:1049C00045EA060E8DE60CEA135594EA0C0F08BF73
:1049D00095EA0C0F3FF43BAF94EA0C0F0AD150EA72
:1049E00001347FF434AF95EA0C0F7FF425AF104605
:1049F00019462CE795EA0C0F06D152EA03353FF42D
:104A0000FDAE1046194622E750EA410618BF52EAA9
:104A100043067FF4C5AE50EA41047FF40DAF52EA7D
:104A200043057FF4EBAE12E74FF0FF3C06E000BF1A
:104A30004FF0010C02E000BF4FF0010C4DF804CD27
:104A40004FEA410C7FEA6C5C4FEA430C18BF7FEAE7
:104A50006C5C1BD001B050EA410C0CBF52EA430C15
:104A600091EA030F02BF90EA020F0020704710F195
:104A7000000F91EA030F58BF994208BF90422CBF24
:104A8000D8176FEAE37040F0010070474FEA410C1D
:104A90007FEA6C5C02D150EA013C07D14FEA430C3B
:104AA0007FEA6C5CD6D152EA033CD3D05DF8040BAC
:104AB000704700BF8446104662468C4619466346DE
:104AC00000E000BF01B5FFF7B7FF002848BF10F1B5
:104AD000000F01BD4DF808EDFFF7F4FF0CBF0120FA
:104AE00000205DF808FB00BF4DF808EDFFF7EAFF76
:104AF00034BF012000205DF808FB00BF4DF808ED31
:104B0000FFF7E0FF94BF012000205DF808FB00BF25
:104B10004DF808EDFFF7CEFF94BF012000205DF8AF
:104B200008FB00BF4DF808EDFFF7C4FF34BF0120BC
:104B300000205DF808FB00BF4FEA410212F50012A9
:104B400015D211D56FF47873B3EB625212D94FEAD4
:104B5000C12343F0004343EA505311F0004F23FABE
:104B600002F018BF404270474FF00000704750EA13
:104B7000013005D111F0004008BF6FF000407047D0
:104B80004FF00000704700BF80F0004002E000BF1F
:104B900081F0004142001FBF5FEA410392EA030F28
:104BA0007FEA226C7FEA236C6AD04FEA1262D2EB72
:104BB0001363C1BFD218414048404140B8BF5B4277
:104BC000192B88BF704710F0004F40F4000020F010
:104BD0007F4018BF404211F0004F41F4000121F026
:104BE0007F4118BF494292EA030F3FD0A2F1010270
:104BF00041FA03FC10EB0C00C3F1200301FA03F1AE
:104C000000F0004302D5494260EB4000B0F5000FD0
:104C100013D3B0F1807F06D340084FEA310102F18F
:104C20000102FE2A51D2B1F1004F40EBC25008BF41
:104C300020F0010040EA03007047490040EB00000B
:104C400010F4000FA2F10102EDD1B0FA80FCACF13A
:104C5000080CB2EB0C0200FA0CF0AABF00EBC25039
:104C600052421843BCBFD0401843704792F0000F27
:104C700081F4000106BF80F400000132013BB5E77A
:104C80004FEA41037FEA226C18BF7FEA236C21D0F0
:104C900092EA030F04D092F0000F08BF0846704755
:104CA00090EA010F1CBF0020704712F07F4F04D123
:104CB000400028BF40F00040704712F100723CBF36
:104CC00000F50000704700F0004343F0FE4040F460
:104CD000000070477FEA226216BF08467FEA23631E
:104CE0000146420206BF5FEA412390EA010F40F409
:104CF000800070474FF0000304E000BF10F0004355
:104D000048BF40425FEA000C08BF704743F096433B
:104D100001464FF000001CE050EA010208BF704756
:104D20004FF000030AE000BF50EA010208BF7047DD
:104D300011F0004302D5404261EB41015FEA010CF2
:104D400002BF84460146002043F0B64308BFA3F1EA
:104D50008053A3F50003BCFA8CF2083AA3EBC253CC
:104D600010DB01FA02FC634400FA02FCC2F12002EB
:104D7000BCF1004F20FA02F243EB020008BF20F022
:104D80000100704702F1200201FA02FCC2F1200288
:104D900050EA4C0021FA02F243EB020008BF20EA7D
:104DA000DC7070474FF0FF0C1CEAD0521EBF1CEAAB
:104DB000D15392EA0C0F93EA0C0F6FD01A4480EA99
:104DC000010C400218BF5FEA41211ED04FF0006382
:104DD00043EA501043EA5111A0FB01310CF00040AE
:104DE000B1F5000F3EBF490041EAD3715B0040EAD4
:104DF000010062F17F02FD2A1DD8B3F1004F40EBA4
:104E0000C25008BF20F00100704790F0000F0CF076
:104E1000004C08BF49024CEA502040EA51207F3A3A
:104E2000C2BFD2F1FF0340EAC250704740F4000015
:104E30004FF00003013A5DDC12F1190FDCBF00F006
:104E400000407047C2F10002410021FA02F1C2F1B4
:104E5000200200FA02FC5FEA310040F1000053EA50
:104E60004C0308BF20EADC70704792F0000F00F09E
:104E7000004C02BF400010F4000F013AF9D040EAA4
:104E80000C0093F0000F01F0004C02BF490011F438
:104E9000000F013BF9D041EA0C018FE70CEAD15336
:104EA00092EA0C0F18BF93EA0C0F0AD030F0004CB6
:104EB00018BF31F0004CD8D180EA010000F000406A
:104EC000704790F0000F17BF90F0004F084691F028
:104ED000000F91F0004F14D092EA0C0F01D1420262
:104EE0000FD193EA0C0F03D14B0218BF084608D12B
:104EF00080EA010000F0004040F0FE4040F4000075
:104F0000704740F0FE4040F4400070474FF0FF0C07
:104F10001CEAD0521EBF1CEAD15392EA0C0F93EA4E
:104F20000C0F69D0A2EB030280EA010C49024FEAA0
:104F3000402037D04FF0805343EA111143EA101359
:104F40000CF000408B4238BF5B0042F17D024FF411
:104F5000000C8B4224BF5B1A40EA0C00B3EB510FEC
:104F600024BFA3EB510340EA5C00B3EB910F24BFD5
:104F7000A3EB910340EA9C00B3EBD10F24BFA3EB5A
:104F8000D10340EADC001B0118BF5FEA1C1CE0D122
:104F9000FD2A3FF650AF8B4240EBC25008BF20F0D5
:104FA000010070470CF0004C4CEA50207F32C2BF29
:104FB000D2F1FF0340EAC250704740F400004FF0C6
:104FC0000003013A37E792F0000F00F0004C02BFF7
:104FD000400010F4000F013AF9D040EA0C0093F0C1
:104FE000000F01F0004C02BF490011F4000F013B1B
:104FF000F9D041EA0C0195E70CEAD15392EA0C0F83
:1050000008D142027FF47DAF93EA0C0F7FF470AFBA
:10501000084676E793EA0C0F04D14B023FF44CAFFD
:1050200008466EE730F0004C18BF31F0004CCAD192
:1050300030F000427FF45CAF31F000437FF43CAFCE
:105040005FE700BF4BB942B9002908BF002802D072
:105050004FF0FF31084601F0ABB882B0EC462DE9C5
:10506000005000F057F8DDF804E002B00CBC7047C7
:1050700038B50022002304460D46FFF735FD28B958
:1050800020462946BDE8384000F00AB8204605F120
:10509000004100F005F8404261EB410138BD00BF1E
:1050A0000023D0B50022C3F6F05306460F46FFF7A3
:1050B000A9FA01F07FF80446FFF72EFA0023002238
:1050C000C4F2F013FFF79EFA02460B46304639460B
:1050D000FFF7E4F801F06EF8002202431046214683
:1050E000D0BD00BF2DE970431546804689461C4659
:1050F00001F080F805FB01F6A5FB002300FB04642A
:10510000E318069CB8EB020269EB0303C4E9002331
:10511000BDE87083F8B5144606460F461D4601F0FB
:10512000CDF900FB05F5A0FB042304FB0154E318B3
:10513000069CB21A67EB0303C4E90023F8BD00BF65
:10514000036803B11B181846704700BF03685A0074
:105150004CBF43F0004323F00043C018704700BF2A
:105160002DE9F84F0446914641B301F1FF3BDA4681
:10517000002707EB0A0000EBD0756D1004EBC506A5
:105180003046FFF7E3FFAB45804610D0691C04EBC7
:10519000C100FFF7DBFF0138C84504D9BD4209D083
:1051A00005F1FF3AE5E7484505D26F1CE1E74FF00E
:1051B000FF30F1E700263046BDE8F88F0E46304656
:1051C000BDE8F88F30B52B4B83B004468D1E002B05
:1051D00049D0284601A9AFF300800346002822D019
:1051E0002A4618460199FFF7BBFF054600281DD047
:1051F000FFF7ACFF6B68A064012B10D0281D002BBB
:1052000022DBFFF7A3FF0021E06421650368002B88
:105210000FDBFFF79BFF2061002003B030BD0023B0
:1052200023610520F9E720610920F6E720610920C4
:10523000F3E7C3F3036058B101280CD002280ED065
:10524000002020610920E8E70122E0642265DDE713
:10525000094B2361E1E7094A00202261DDE70849A3
:1052600000202161D9E7074A07491346881AC2106E
:105270000192B5E700000000895700008557000043
:10528000815700005868000048690000036810B5A5
:105290000446D80706D4990704F1480009D500F060
:1052A00009FD23685A0709D518070ED5D90613D565
:1052B00010BD00F0F7FC23685A07F5D404F1D000C4
:1052C00000F000FD23681807F0D404F5D87000F052
:1052D00001FD2368D906EBD404F50C70BDE810403D
:1052E00000F03CBD2DE9F047ADF5916D02AC0F1D0E
:1052F000261D054691460FCF0FC60FCF0FC60FCF05
:105300000FC697E80F00D5F80C800027D5F818A035
:1053100086E80F00216C28462760FFF753FF0646FA
:10532000B94514BF4FF00A094FF00909FEB1A16B4E
:1053300049F01009616401208DE8100449462A46AD
:105340002B46C04700282BD1002E2AD1204692A9F7
:105350004FF4107201F008FA082F28D1216C28466A
:10536000FFF730FF06464FF00909002EDFD1206C11
:1053700021464FF41072686192A801F0F5F92F6987
:10538000294692AA4846B847A09B07466364012075
:105390008DE8100449462A462B46C0470028D3D042
:1053A0000926304622B00DF5806DBDE8F087072F45
:1053B000F6D1201D00F06AFC38B504460D46296C74
:1053C0002046FFF7FFFE50B92A6C01206261236975
:1053D00021462A4698470828F1D0072801D0FCF733
:1053E00088FD281D00F052FC11B933B1022070472E
:1053F00004298CBF0220012070470F2A01D9022006
:10540000704700EB820042681846009B1A607047A4
:1054100010B50A4684B000210B4603AC0094FFF798
:10542000E3FF039804B010BD11B933B102207047F7
:1054300004298CBF0220012070470F2A01D90220C5
:105440007047009900EB8202096818465160704766
:1054500000B585B004AB43F8042D0A460021009343
:105460000B46FFF7E1FF05B000BD00BF2DE9F04F8F
:10547000CD6C0C4655F8041B8BB0174600F00802A3
:105480001E46039200F003080795002B40F0E080D1
:1054900009020691216D8DF821300323B8F1020F26
:1054A0008DF8203008BFA56B11F0010340F0E480B7
:1054B000019304F158030293D5F80090B9F1000F5D
:1054C00000F0DC80022E00F0BF80B5F80090B5F847
:1054D00002A00435A26C0F212AF0010B3846934438
:1054E000FFF796FF834518D829F0010CE3440AF032
:1054F000010A09F00103584543EA4A092CBF00207C
:105500000120B9F1010F12D032D2B8F1000F02D050
:10551000002840F017810435CEE70AF0010A09F0AF
:10552000010343EA4A090020B9F1010FECD1B8F1B7
:10553000000F40F0C880C8B16B68D5F800909A1C85
:1055400019D0029A013309920DD0281DFFF7F8FDFA
:105550004FEAD972014609AB2046AFF3008000281C
:1055600000F0EC80099A002A40F0CC800835A3E7CF
:10557000B9F1020F03D009200BB0BDE8F08F2B6802
:1055800023F000420092B8F1000F40F08380002821
:1055900053D00398002840F0B2800098002800F013
:1055A000B180009B05F1040ADB07DDF80C9010D4F4
:1055B000029950460991FFF7C3FD039A014609ABD2
:1055C0002046AFF30080002833D10AF1040A4FF0DF
:1055D0000109CDF81080AB46B84650460596029FAB
:1055E00011E000998E4200F0C0800997FFF7A8FDF6
:1055F0005246014609AB2046AFF30080B14698B948
:10560000281D06F10109051D0997FFF799FD09AB52
:10561000014600222046AFF30080824609F10106D0
:105620002846BAF1000FDCD04746059EDDF8108011
:105630005D46009A4A4565D02B68002B7CDB0099BB
:10564000481C05EB800537E7D5F804A0083541E78D
:105650000B04C1F30740216D0222B8F1020F06933B
:1056600005EB800508BFA56B11F001038DF8210043
:105670008DF820203FF41CAF00200190384606A989
:1056800000F004FC00287FF476AF019A002A43D191
:10569000082071E70D213846D4F82090FFF7B8FEB6
:1056A0008145C9D1A26A9542C6D10098291D002220
:1056B0000423A062E262236361632868002857DB49
:1056C00001220192BBE70D213846D4F82090FFF764
:1056D0009FFE81457FF44AAFA16A8D427FF446AFB9
:1056E0002846FFF733FD0F2102463846FFF7B0FE8C
:1056F000384600212246FFF7ABFE07203CE7009921
:1057000000299AD138460D21FFF782FE099B2062BD
:105710006362A56206202FE70F213846FFF778FE67
:105720000E2102463846FFF793FE38460F21134AF2
:10573000FFF78EFE07201FE7043580E7CDF82480B1
:105740000835B9E62846FFF701FD04350646A5638E
:105750002046AFF3008000283FF40DAF38460F21FC
:105760003246FFF775FE072006E75D464746C9E764
:10577000009B591C05EB8100B3E700BF000000004F
:10578000022373E6012371E600236FE62DE9F0475B
:105790000446E8B004290CD8DFE801F039039294FC
:1057A0000F00150C012B96B200F07881052B00F04C
:1057B000C880022068B0BDE8F087002BF9D1102A1C
:1057C000F7D82368D90600F1738164A8019200F02C
:1057D000CFFA019AA36BD00744BF53F8040B64902F
:1057E000910744BF53F8041B6591500748BF53F815
:1057F000041B64A848BF6691110748BF53F8042BE7
:10580000A36348BF679200F0A9FA0020D2E7002BFB
:10581000CFD1A36BD00791B244BF53F8042B626081
:105820008A0744BF53F8042BA260480744BF53F8CB
:10583000042BE2600A0744BF53F8042B2261C80618
:1058400044BF53F8042B62618A0644BF53F8042B0B
:10585000A261480644BF53F8042BE2610A0644BF24
:1058600053F8042B2262C80544BF53F8042B62622C
:105870008A0544BF53F8042BA262480544BF53F87D
:10588000042BE2620A0544BF53F8042B2263C804C8
:1058900044BF53F8042B626311F400501CBF53F84B
:1058A000042BA2634A0444BF53F8042BE2630A04A6
:1058B00044BF53F8042B2264002840D1A36379E746
:1058C000012077E7032B7FF474AF160C95B2AA1969
:1058D000102A3FF66EAF2368180700F10A8144A82A
:1058E00000F01AFAA76B4FEA450E3B460DB30EF1D6
:1058F000FF3C44A953F8040B01EBC60662460CF0CA
:10590000010146F8040B92B129B153F8041B013A86
:1059100046F8041B0BD0184650F8045B314641F89A
:10592000045B5D68031D75600E1D023AF3D107EB41
:105930008E0344A8A36300F0CDF900203AE70020CD
:1059400038E777192022BA42FFF433AF012B00F079
:10595000A8800F2D40F2A8803746F6B1052B7FF4C2
:1059600028AF0F2D11D82268D0070ED522F00101E3
:10597000052B216000F0DA8022F00302204640F877
:10598000482B019300F092F9019B1FB12268510747
:1059900000F1B780012B00F0BE800F2D74D9002FCD
:1059A00040F09F80D4F83890002EC8462EDD49463E
:1059B0004FEA46080DF1080C51F8046B0CEBC502D8
:1059C00008F1FF3000F0010A42F8046BA8F1020C64
:1059D000D0B1BAF1000F08D051F8040B0CF1FF3C24
:1059E000BCF1FF3F42F8040B0ED00E4656F804AB54
:1059F000104640F804AB4968ACF1020C5160311D0F
:105A0000021DBCF1FF3FF0D109EB88089FB3102DB8
:105A10002CBF2E46102668AA414602EBC60A4FEA62
:105A2000470951F8046BAAF5C87209F1FF3000F07C
:105A3000010A42F8046BA9F1020CD0B1BAF1000FCF
:105A400008D051F8040B0CF1FF3CBCF1FF3F42F8C9
:105A5000040B0ED00E4656F804AB104640F804ABCB
:105A60004968ACF1020C5160311D021DBCF1FF3FD1
:105A7000F0D108EB8908012B2BD00F2DC4F838800A
:105A800008D9FFB9384695E602A8019300F016F947
:105A9000019B84E702A800F00DF9F2E777191022C4
:105AA00051E70F2D3FF685AE102F10D9103F55E767
:105AB00023F01003236004F50C70019200F058F9F4
:105AC000019A82E624A800F0FDF8002072E6002783
:105AD00047E708F1040302A8A36300F0E3F80020FD
:105AE00068E624A80193C5F1100600F0EFF8019BC9
:105AF00058E723F0080704F5D870276000F00CF988
:105B0000EDE622F00401204640F8D01B019300F09E
:105B1000DDF8019B3EE702A8019300F0C7F8019B66
:105B2000002F3FF43FAFC5F110063BE741F0020103
:105B3000204640F8481B019300F0C0F8019B24E781
:105B4000406C7047F0B50D46C96BADF5117D296409
:105B500001AE2F1D04460FCF0FC60FCF0FC60FCFBC
:105B60000FC697E80F0086E80F004FF0FF33009351
:105B700010992046FFF726FB58B9266921466A4648
:105B8000B04708280646F3D06846FFF77FFB062E8D
:105B900003D009200DF5117DF0BD20462946FFF701
:105BA0000BFC00BF10B4DC6BC1608261194600229F
:105BB0001C6410BCFFF796BB38B54269C368044645
:105BC0000D460A6423B10122FFF78CFBFCF791F923
:105BD0000369214602202A469847072803D008284F
:105BE00004D0FCF786F9281D00F050F8204629461D
:105BF000FFF7E2FBC36823B1CA6B0A640022FFF718
:105C000071BB9FE7704700BF08B5836801460BB1C1
:105C10000120984708BD00BFF0B5D46BADF5277DD6
:105C2000146401AE171D05460C460FCF0FC60FCFEB
:105C30000FC60FCF0FC697E80F0086E80F004FF092
:105C4000FF330093109990A8FFF7BCFA034690AA7F
:105C500068460C21BBB9FFF7FBFB21466846A84705
:105C6000064690A908206A466EB9949B9847052875
:105C7000064601D00928E5D16846FFF707FB304604
:105C80000DF5277DF0BD0926F6E700BF00F13401D0
:105C900091E838009C46A6464CF8045D90E8FF0F5A
:105CA000E54600BD90EC210B704700BF80EC210B56
:105CB000704700BF90EC200B704700BF80EC200BBA
:105CC000704700BFD0EC200B704700BFC0EC200B2A
:105CD000704700BFF0EC0201F0EC0211F0EC022181
:105CE000F0EC0231F0EC0241F0EC0251F0EC026118
:105CF000F0EC0271F0EC0281F0EC0291F0EC02A108
:105D0000F0EC02B1F0EC02C1F0EC02D1F0EC02E1F7
:105D1000F0EC02F1704700BFE0EC0201E0EC021190
:105D2000E0EC0221E0EC0231E0EC0241E0EC025157
:105D3000E0EC0261E0EC0271E0EC0281E0EC029147
:105D4000E0EC02A1E0EC02B1E0EC02C1E0EC02D137
:105D5000E0EC02E1E0EC02F1704700BFB0FC018131
:105D6000B0FC0191B0FC01A1B0FC01B1704700BFD3
:105D7000A0FC0181A0FC0191A0FC01A1A0FC01B14B
:105D8000704700BFEC4600B52DE900502DE9FF1F1C
:105D90004FF000032DE90C0001A9FFF7D3FEDDF859
:105DA00040E012B0704700BFEC4600B52DE900504E
:105DB0002DE9FF1F4FF000032DE90C0001A9FFF7AB
:105DC000FBFEDDF840E012B0704700BFEC4600B5C6
:105DD0002DE900502DE9FF1F4FF000032DE90C00C5
:105DE00001A9FFF707FFDDF840E012B0704700BFE0
:105DF000EC4600B52DE900502DE9FF1F4FF00003E0
:105E00002DE90C0001ABFFF7CDFEDDF840E012B04C
:105E1000704700BFEC4600B52DE900502DE9FF1F8B
:105E20004FF000032DE90C0001AAFFF7F5FEDDF8A5
:105E300040E012B0704700BF027A03461AB9427AB6
:105E400042B9B02070470068013A01021A72000E90
:105E5000196070474168501E587251F8040B0322B4
:105E6000596001021A72000E1960704710B50021C6
:105E700084B00C220DEB02040B460094FFF7B4FA39
:105E8000039804B010BD00BFF0E700BF2DE9F04358
:105E9000064685B00D464FF000094FF47F6728464F
:105EA000FFF7CAFFB028044600F0B18010F080016F
:105EB00020D000F0F003802B75D0902B37D0A02B92
:105EC00045D0B02B56D0C02B00F0868000F0F800F3
:105ED000D0280BD104F007035A1C42F400223046AC
:105EE00001210523FFF752FC0028D8D0092005B076
:105EF000BDE8F0834FEA800203A85FFA82F80090C1
:105F00000D220B463046FFF76FFA039B600608F13F
:105F100004084CBFC8EB0303434403AC0393009451
:105F2000002130460D220B46FFF77EFAB7E700F05E
:105F30000F020D2ADAD00F2AD8D0002103AC00942A
:105F400030460B4603ACFFF74FFA0094E8E7C24334
:105F500002F0070C47FA0CF0210700F47F6248BFFB
:105F600042F48042002130460B46FFF70FFC002828
:105F7000BCD194E7B1285ED0B2286FD0B32800F02E
:105F8000968000F0FC0CBCF1B40F46D000F0070185
:105F90004A1C42F40022012130460B46FFF7F6FB73
:105FA0000028A3D17BE72846FFF746FF210240EAFD
:105FB0000104B4F5004F99D0230500211A0C304696
:105FC0000B462401FFF7E2FB00288FD114F4004FA9
:105FD00018BF4FF0010962E7C62873D0C72800F048
:105FE000848000F0F801C02900F09280C82800F0F9
:105FF000A680C9287FF47AAF2846FFF71DFF00F07E
:106000000F0100F0F0024B1C43EA023267E7B9F1DE
:10601000000F00F08380002069E700F00300431CBC
:10602000022143F4802230460B46FFF7AFFB0028E5
:106030007FF45CAF33E72846FFF7FEFE02460028F8
:106040003FF454AF10F0F0017FF450AF30460B46F0
:10605000FFF79CFB00287FF449AF20E700210D22C9
:106060000B4603AC30460094FFF7BEF92846FFF715
:10607000E3FE022402060DD500F07F0000FA04FEC4
:10608000039B284603EB0E010391FFF7D5FE07346F
:106090000306F1D400F07F0E0EFA04F4039903AB6B
:1060A00001F5017C0CEB04020093039238E72846CB
:1060B000FFF7C2FE00F00F014A1C00F0F00042EAB8
:1060C000003268E72846FFF7B7FE00F00F02531CC6
:1060D00000F0F00043EA0032032130460B46FFF7A0
:1060E00055FB00287FF402AFD9E62846FFF7A4FE4F
:1060F000024600283FF4FAAE10F0F0037FF4F6AE4B
:1061000030460421FFF742FB00287FF4EFAEC6E6DD
:1061100000F00F03581C40F42022DDE703AC494691
:106120000E224B4630460094FFF75EF93046494652
:106130000F224B460094FFF777F94846D7E62846EA
:10614000FFF77AFE00F0F00200F00F001032411C61
:1061500041EA0232C3E600BF10B5C26C84B003202E
:1061600054688DF80C00D37924020832084601A93E
:10617000019402928DF80D30FFF788FE04B010BD37
:1061800008B5FFF781FE806C08BD00BF08B5FFF7BA
:106190007BFEC16CC87901EB800303F1080008BDE8
:1061A00008B5FBF7A6FE00BF08B5FBF7A2FE00BFCF
:1061B000704700BF4A0011D212F5001211D20DD55E
:1061C0006FF47873B3EB62520ED44FEAC12343F0FD
:1061D000004343EA505323FA02F070474FF00000A7
:1061E000704750EA013002D14FF0FF3070474FF056
:1061F000000070472DE9F00F00291D46C0F29D8078
:106200000024002DC0F2948007460D4616469C4699
:10621000002B3DD18A4253D9B2FA82F343B1C3F184
:10622000200620FA06F501FA03F19A409840294326
:10623000130CB1FBF3F697B203FB161107FB06F53F
:106240004FEA104C4CEA01418D4209D9891806F1F8
:10625000FF3C80F014818D4240F21181023E89188A
:10626000491BB1FBF3F503FB151307FB05F780B2E0
:1062700040EA03439F4207D9691E9B1880F00581BD
:106280009F4240F20281023D45EA0642002303E0BC
:106290008B420AD900231A461046194614B14042CF
:1062A00061EB4101BDE8F00F7047B3FA83F3002BB7
:1062B00040F087808C4501D38242ECD80122EBE785
:1062C00012B90127B7FBF2F2B2FA82F6002E3AD1E8
:1062D000891A150C1FFA82FC0123B1FBF5F705FBA7
:1062E00017110CFB07F64FEA104848EA01418E42AD
:1062F00007D9891807F1FF3802D28E4200F2DA80FE
:106300004746891BB1FBF5F605FB16110CFB06FC95
:1063100080B240EA0140844507D9711E821880F09E
:10632000B080944540F2AD80023E46EA0742B3E7B2
:10633000E443524263EB430366E7404261EB4101B1
:106340004FF0FF345DE7B240C6F1200521FA05F3B6
:1063500020FA05F901FA06F1150CB3FBF5F805FB77
:1063600018371FFA82FC0CFB08F349EA01094FEACF
:10637000194141EA0747B040BB420AD9BF1808F1AA
:10638000FF3180F09580BB4240F29280A8F1020874
:10639000BF18FE1AB6FBF5F305FB13670CFB03F6FB
:1063A0001FFA89F949EA07418E4206D95F1E89180A
:1063B00078D28E4276D9023B8918891B43EA08437A
:1063C0008BE7C3F1200122FA01F80CFA03F725FA52
:1063D00001FB20FA01F205FA03F548EA070C4FEA3F
:1063E0001C48BBFBF8F908FB19B71FFA8CFA0AFB2B
:1063F00009FB15432A0C42EA0747BB4506FA03F698
:1064000009D917EB0C0709F1FF324FD2BB454DD923
:10641000A9F102096744CBEB0701B1FBF8F208FBD5
:1064200012170AFB02FAADB245EA07418A4507D9BD
:10643000551E11EB0C0137D28A4535D9023A614419
:1064400042EA09421FFA86F84FEA124C08FB0CF7A1
:10645000360C95B208FB05F806FB057506FB0CFC2F
:1064600005EB1845AF4288BF0CF5803CCAEB010133
:106470000CEB1546B14212D309D000230CE7664657
:10648000EEE60E4646EA074206E70D46FCE600FA4F
:1064900003F31FFA88F808EB0545AB42EDD2013A49
:1064A0000023F9E63B4688E72A46C9E79146B2E76A
:1064B00088466EE7023F891823E700BF2DE9F00701
:1064C000144605460E46002B3FD18A424AD9B2FAFD
:1064D00082F343B1C3F1200025FA00F201FA03F67A
:1064E0009C409D401643230CB6FBF3F1A0B203FB86
:1064F000116C00FB01F22F0C47EA0C46B24208D99E
:106500004F1E361980F0FF80B24240F2FC80023903
:106510003619B61AB6FBF3F203FB126300FB02F066
:10652000ADB245EA0343984207D9561E1B1980F0C5
:10653000EC80984240F2E980023A42EA01420023AC
:1065400010461946BDE8F00770478B4243D8B3FAAE
:1065500083F4002C42D18B42234601D382423BD8A4
:106560000122EDE712B90127B7FBF2F4B4FA84F285
:10657000002A40F08A80091B260CA7B20123B1FB38
:10658000F6F006FB101107FB00F24FEA154C4CEA3F
:1065900001418A4207D9091900F1FF3C02D28A421F
:1065A00000F2D4806046C2EB010CBCFBF6F206FBA5
:1065B00012C107FB02F7ADB245EA0145AF4207D968
:1065C000511E2C1980F0A380A74240F2A080023A0D
:1065D00042EA0042B4E700231A46B1E7C4F12007BB
:1065E00003FA04F822FA07F321FA07F920FA07FA66
:1065F00001FA04F143EA08031E0CB9FBF6FC06FBA2
:106600001C991FFA83F808FB0CF74AEA010A4FEAC3
:106610001A4545EA0945AF4202FA04F905D9ED18D1
:106620000CF1FF32C0F087809446EA1BB2FBF6F70C
:1066300006FB172608FB07F81FFA8AFA4AEA064102
:10664000884503D97A1EC91870D3174647EA0C4209
:10665000170C1FFA89FC0CFB07F695B24FEA194399
:106660000CFB05FC03FB056503FB07F305EB1C4571
:10667000AE4288BF03F58033C8EB010103EB15433D
:10668000994250D347D000235AE79440C2F12006E4
:1066900021FA06F520FA06F901FA02F1260CB5FBFB
:1066A000F6F806FB1855A7B207FB08F349EA0109FB
:1066B0004FEA194141EA054C634500FA02F509D950
:1066C0001CEB040C08F1FF323ED263453CD9A8F123
:1066D0000208A444C3EB0C02B2FBF6F306FB132042
:1066E00007FB03F21FFA89F949EA00418A4206D9F9
:1066F000581E091926D28A4224D9023B0919891A3F
:1067000043EA08433BE7394603E7324615E70A46C2
:1067100042EA004214E700FA04F01FFA8CF101EBA0
:106720000545A842AFD2013A002309E788458CD934
:10673000023FC9188AE7AF427FF676AFACF1020C90
:10674000ED1872E70346DAE79046C3E70238091905
:1067500029E700BF10B40C4613460146224602202A
:1067600010BCFAF753BF00BF0F2AF0B43AD941EA80
:1067700000039B0738D10C46034615462668103D9A
:106780001E6066685E60A6689E60E6681034DE6023
:1067900010330F2DF2D8A2F1100424F00F0402F0F0
:1067A0000F021034032A00EB0403214411D90E46D2
:1067B0001D46144656F8047B043C032C45F8047B24
:1067C000F8D8141F24F00304043402F0030209195A
:1067D0001B192AB111F8014B013A03F8014BF9D109
:1067E000F0BC70470346F4E70346F3E7A1B201812A
:1067F000B0B0AE010000000008B10181B0B000846B
:106800000000000008B10181B0B000840000000069
:1068100008B10181B0B0008400000000F8B500BFED
:10682000F8BC08BC9E467047B91600003D15000034
:10683000F52A0000ED320000A138000033420000CC
:1068400045420000F8B500BFF8BC08BC9E46704742
:046850001915000016
:1068580090BFFF7F0100000084E8FF7FB03784808D
:10686800ACE8FF7FAB08B180D0E8FF7F01000000F3
:106878004CE9FF7FB0A902800CEAFF7FB0B0A88086
:106888005CEAFF7F60FFFF7F28EBFF7FA908B180EC
:1068980050EBFF7F01000000CCEBFF7FB0AF0A8018
:1068A800D8EEFF7F01000000DCEEFF7FAE3F2780BF
:1068B80088F2FF7F0100000084F2FF7FAB10B280F6
:1068C800DCF2FF7F01000000E8F2FF7FA908B18039
:1068D8001CF3FF7F0100000028F3FF7F14FFFF7FF8
:1068E80030F3FF7FAB26B2809CF3FF7F01000000EE
:1068F80074F5FF7FB0A8038088F5FF7F01000000D2
:1069080084F5FF7FB0AD048048F8FF7FB0A803800E
:1069180068F8FF7FE8FEFF7F6CF8FF7FECFEFF7FE3
:1069280078F8FF7F01000000C4F8FF7FB0B0A780AF
:1069380084FBFF7FB0B0A68014FEFF7F010000003B
:10694800000000000000000000000000F402002029
:106958005C030020C40300200000000000000000C9
:10696800000000000000000000000000000000001F
:106978000000000000000000000000006874000033
:1069880000000000000000000000000000000000FF
:1069980000000000000000000000000000000000EF
:1069A80000000000000000000000000000000000DF
:1069B80000000000000000000000000000000000CF
:1069C80000000000000000000000000000000000BF
:1069D80000000000000000000000000000000000AF
:1069E800000000000000000000000000000000009F
:1069F80001000000000000000E33CDAB34126DE63C
:106A0800ECDE05000B0000000000000000000000A4
:106A1800000000000000000000000000000000006E
:106A2800000000000000000000000000000000005E
:106A3800000000000000000000000000000000004E
:106A4800000000000000000000000000000000003E
:106D78008001014013010000010000008B74000035
:106D880009000000D80400200000000000000000F6
:106D9800000000000000000000000000004001406A
:106DA80015020000020000008D7400000A000000B7
:106DB80000000000000000000000000000000000CB
:106DC8000000000000500140160200000200000010
:106DD800897400000B0000000000000000000000A3
:106DE80000000000000000000000000000E000407B
:106DF80040E0004080E00040C0E0004000E100408A
:106E080040E10040E804002038050020300400205C
:106E18005C04002084040020000001404000014080
:106E280000F0004040F0004080E100401100000008
:106E3800010000008C74000007000000AC04002072
:106E4800000000000000000000000000000000003A
:106E5800000000000000000000000000000000002A
:106E6800000000000000000000000000000000001A
:106E7800000000000000000080F100401201000046
:106E8800010000008874000008000000E0040020F1
:106E980000000000000000000000000000000000EA
:106EA8000000000000A001401723000000B00140CE
:106EB80018240000640500206C050020A0A00240F2
:106EC8000700000040A1024007000000E0A10240C6
:106ED8000700000020A3024007000000C0A30240F2
:106EE80007000000B0050020000600205006002022
:106EF80000300040600B002020AA44000000000081
:106F08000000000000000000000000000000000079
:106F18000000000000000000000000000000000069
:106F28000000000000000000000000000000000059
:106F38000000000000000000000000000B012F000E
:106F4800000000406C0B002020AA44000000000054
:106F58000000000000000000000000000000000029
:106F68000000000000000000000000000000000019
:106F78000000000000000000000000000000000009
:106F880000000000000000000000000008021B00D4
:106F980000100040780B002020AA440000000000E8
:106FA80000000000000000000000000000000000D9
:106FB80000000000000000000000000000000000C9
:106FC80000000000000000000000000000000000B9
:106FD80000000000000000000000000009031C0081
:106FE8000200000000000000000000000000000097
:106FF8000500FF0B0000000000000000000000007A
:107008000400FF0A0000000000000000000000006B
:107018000700FF0D00000000000000000000000055
:107028000600FF0C00000000000000000000000047
:107038000900FF0000000000000000000000000040
:107048000800FF0E00000000000000000000000023
:107058000900FF0F00000000000000000000000011
:107068000A00FF10000000000000000000000000FF
:107078000A00FF00000000000000000000000000FF
:107088000B00FF00000000000000000000000000EE
:107098000300FF00000000000000000000000000E6
:1070A8000200FF00000000000000000000000000D7
:1070B8000100FF00000000000000000000000000C8
:1070C8000000FF00000000000000000000000000B9
:1070D80000000000000000000000000000000000A8
:1070E8000100010000000000000000000000000096
:1070F8000200020000000000000000000000000084
:107108000300030000000000000000000000000071
:10711800040004000000000000000000000000005F
:10712800050005000000000000000000000000004D
:107138000600FF0000000000000000000000000042
:10714800070006000000000000000000000000002A
:107158000D02FF0000000000000000000000000019
:107168000E01FF0000000000000000000000000009
:107178000F02FF0C000000000000000000000000EB
:107188000000FF00000000000000000000000000F8
:107198000200FF00000000000000000000000000E6
:1071A80000000201000000000000000000000000D4
:1071B80001000102000000000000000000000000C3
:1071C80002000003000000000000000000000000B2
:1071D8000300FF04000000000000000000000000A1
:1071E8000400FF050000000000000000000000008F
:1071F8000500FF060000000000000000000000007D
