:101400000080002049270000011F0000051F000088
:10141000091F00000D1F0000111F0000611F0000C8
:10142000611F0000611F0000611F0000611F0000BC
:10143000611F0000611F0000611F0000A51B00006C
:10144000611F00000D1B0000211B0000611F000038
:10145000611F0000611F0000611F0000611F00008C
:10146000611F0000611F0000611F0000611F00007C
:10147000611F0000611F0000611F0000611F00006C
:10148000611F0000611F0000611F0000611F00005C
:10149000C1240000C5240000F9240000FD24000040
:1014A00029230000C1230000412400006126000020
:1014B00085260000611F0000611F0000611F000001
:1014C000611F0000611F0000611F0000251800005F
:1014D00045180000611F0000611F0000611F00002F
:1014E000611F0000611F0000611F0000611F0000FC
:1014F000611F0000611F0000112600003926000056
:10150000611F0000611F0000611F0000611F0000DB
:10151000611F0000611F000010B5054C237833B92E
:10152000044810B10448AFF300800121217010BDC0
:10153000E00A0020000000009C63000008B5064B94
:101540001BB106480649AFF300800648016811B197
:10155000054B03B1984708BD000000009C630000E4
:10156000E40A0020E00A00200000000001460020FC
:101570000246034600F04AB808B50021044600F0D0
:10158000A5F8044B1868C36B03B19847204600F0D8
:1015900009F900BFAC6F000038B5084D084C641B5A
:1015A000A41006D005EB840555F8043D9847013C8E
:1015B000FAD1BDE8384004F005BF00BFD063000099
:1015C000D463000070B50D4D0D4E761BB61006D0DD
:1015D000002455F8043B01349847A642F9D1094D3F
:1015E000094E04F0DBFE761BB61006D0002455F839
:1015F000043B01349847A642F9D170BDA8630000AE
:10160000A8630000A8630000C46300002DE9F04156
:101610000546274884B00468D4F84801002841D022
:1016200046681F2E1CDD234810B94FF0FF301EE026
:101630004FF4C870039102920193AFF300800399B5
:10164000029A019B0028F0D0D4F84861002780E876
:10165000C000C4F848013E46C0F88871C0F88C71DB
:1016600045B9B31C013640F823104660002004B091
:10167000BDE8F081012404FA06F4D0F8887100EB8B
:10168000860847EA040C022D4746C8F88820C0F8AF
:1016900088C1C8F80831E4D1D0F88C311C43C0F8B7
:1016A0008C41DEE704F5A670C4F84801B8E700BF36
:1016B000AC6F000000000000024B13B10248FFF7BE
:1016C00055BF704700000000991500002DE9F04F4C
:1016D000334B83B01B68019000930E464FF0010B13
:1016E000009BD3F84871BFB103F5A4797D686C1EE7
:1016F0000CD407F1880A1F350AEB85057EB12B68EB
:10170000B3420CD0013C043D631CF7D140F200030E
:10171000C0F20003002B30D103B0BDE8F08F796830
:10172000CAEB05020139BA18A14252F8783C1ED022
:10173000002142F8781C002BE4D00BFA04F2D7F811
:101740008811D7F804800A420FD0D7F88C110A42CA
:101750000FD155F8801C019898477B684345BFD14D
:10176000D9F80030BB42CDD0BAE79847F5E77C60A6
:10177000E1E755F8800C9847EFE77B685BB93B6879
:1017800053B13846C9F80030AFF30080D9F8007083
:10179000002FABD1C0E73B68B9461F46F8E700BF52
:1017A000AC6F0000FEE700BF0129036801D8503389
:1017B00000E0403301F001010901002A14BF0422B6
:1017C0000822002914BF4FF400018021995070476E
:1017D0000129036801D8503300E0403301F00101D2
:1017E0000901481C02FA00F2002914BF4FF46021DD
:1017F0000E2199605A6070470129036801D850335F
:1018000000E0403301F001010901012202FA01F177
:101810005960704703681A6B22F07C0242EA81012A
:1018200019637047064B1B681B68D3F8902091071B
:1018300005D51A68120102D50222C3F89820704714
:1018400060050020064B1B681B68D3F890209207A8
:1018500005D51A68100102D50222C3F898207047F6
:101860006405002070B506680446007900F03EFD6E
:10187000454BB360454B18682379042B444B75D80E
:101880001B680122C3F3022302FA03F3B0FBF3F354
:10189000404A5B00B3FBF2F3013B1B047360C023BF
:1018A000B360402373604FF47063B36100254FF45D
:1018B0000043756173604FF48053B3604FF40023AD
:1018C00073614FF04043B3614FF480037361FC23B5
:1018D00073614FF4802373612A4620462946FFF73F
:1018E00063FF20462946FFF787FF204629462A4600
:1018F000FFF76EFF01212A462046FFF755FF012121
:101900002046FFF779FF012103222046FFF760FF01
:10191000012202212046FFF747FF02212046FFF760
:101920006BFF022120462A46FFF752FF01220321C6
:101930002046FFF739FF03212046FFF75DFF032113
:101940000A462046FFF744FF637959B2A94219DBE2
:1019500003F01F05012000FA05F549110E4A01F1B7
:10196000600442F8245042F8215070BD19681A688A
:10197000C1F30221012303FA01F3C2F3004203FA87
:1019800002F383E770BD00BF0000FF07100B0020CB
:1019900000D0024080CDF70000E100E0F8B5046817
:1019A0000546266BC6F3840600E0236ED4F8A070CB
:1019B00017F00F07F9D12846FFF72CFF4FF48033BB
:1019C00063614FF40013A3614FF40003C4F8807007
:1019D0006361D4F8A0301907FBD0246E2846F1B219
:1019E000FFF718FF40F6E440604340F6FF73B0FB9A
:1019F000F3F080B2F8BD0000002809DB421101239A
:101A000000F01F0003FA00F0024B603243F822009E
:101A1000704700BF00E100E02DE9F0419846344BEB
:101A20000D4614469DF818701E6822B931486B2186
:101A3000314A00F063FA013DEDB206F00F03AB420C
:101A400001D1320611D4C6F30323AB4201D13304D2
:101A500007D416F0010349D116F0800609D01E46BE
:101A600000E001260122082305E00022012613469A
:101A700001E0324633462149012F41F8324001EB63
:101A8000C201C1F8048003F105041D4908D107FA19
:101A900004F40C60191D07FA01F71A490F6007E0FA
:101AA000012000FA04F40C601C1D00FA04F0086028
:101AB000E6B90F2000FA03F0124905FA03F50860B1
:101AC0000733012000FA03F3824241F8045C0E4C14
:101AD00041F8043C05D0FFF78FFF02232360BDE8E7
:101AE000F0810220FFF788FF04232360BDE8F08126
:101AF00000A00240B06F0000C06F0000FC0A002090
:101B000004A0024008A0024000E100E0034A08B53A
:101B100013680BB15068984708BD00BFFC0A00204D
:101B2000034A08B593680BB1D068984708BD00BF59
:101B3000FC0A002000284FEA011106DA064B00F0EB
:101B40000F00C9B2C31819767047044BC9B2C31845
:101B500083F80013704700BFFCEC00E000E100E0F8
:101B600021F0604121F07F01094B084310B59860D6
:101B7000002460B20F210134FFF7DCFF362CF8D1CE
:101B80004FF0FF300F21BDE81040FFF7D3BF00BF7B
:101B900000ED00E0024B072258601A60704700BF5A
:101BA00010E000E008B5044B1A6801321A60034BDC
:101BB0001B6803B1984708BDF40B00200C0B0020F4
:101BC00070B503782025012408490CE04268013BE8
:101BD000D25C56B202F01F0204FA02F296FBF5F64E
:101BE000603641F826205A1CF0D170BD00E100E0BB
:101BF000002808DB4211012300F01F0003FA00F067
:101C0000014B43F82200704700E100E010B5447931
:101C10000368022C05D14FF07061120699605A607A
:101C200010BD03690139C9B253F8213040F2037184
:101C300018680140196019680A431A6010BD42799A
:101C40000368022A06D1022914BF4FF400514FF055
:101C500000515960704742790368022A06D102296F
:101C600014BF4FF400514FF000519960704710B508
:101C700044790139012C0368C9B219D002D3022C6E
:101C800046D133E0052915D9062906D11033002A9B
:101C900014BF0422082201212FE0072906D11033A6
:101CA000002A14BF04220822082126E0083912E085
:101CB000012903D8036953F8213001E0022907D133
:101CC0001033002A14BF042208224FF4807114E05C
:101CD00004291DD803390369002A14BF04220822ED
:101CE00053F821304FF40061103306E039B9002A6F
:101CF00014BF042208224FF40001995010BD01299D
:101D000006D1002A14BF042208224FF48001995002
:101D100010BD0000084B10B504461868A047074BDB
:101D20001868A047064B1868A047064B1868A047DC
:101D3000054B1868A04710BDB8040020BC04002063
:101D4000C0040020C4040020C8040020F8B50546E3
:101D50000468007900F0CAFA6B79022B0CD10023D9
:101D60002360236123622363202363604FF0021307
:101D70006360FF23236114E0236823F4FE5323F000
:101D80003F0323602368236000232364226822F436
:101D9000404222F003022260226842F44042226064
:101DA000236205F10800FFF70BFF20262A7A0124A1
:101DB0000B4811E0EB68013A99560A4B91FBF6F794
:101DC0000B40002B03DA013B63F01F0301335BB2CE
:101DD00004FA03F340F82730511CEBD1F8BD00BFE3
:101DE00000E100E01F000080A1B10C4B1B6898428D
:101DF00001D1062910D90A4B1B68984203D0094B20
:101E00001B68984201D1022900E001298CBF002003
:101E1000012070470846704701207047B804002031
:101E2000BC040020C004002038B500EB81031A6117
:101E3000044601220D46FFF71AFF6379022B0FD1EA
:101E40000E4B1B689C4205D1012D01D8142011E0D6
:101E500015200FE0012D01D816200BE0172009E016
:101E60000BB9182006E0064B1B689C4201D11920D3
:101E700000E01A20BDE83840FFF7BABEC4040020D5
:101E8000BC04002038B50D46044600220435FFF797
:101E9000EEFE04EB85040023636038BD012A38B5EB
:101EA00004460D460AD002D3022A25D118E0FFF7D6
:101EB000E9FF20462946FFF7CEFE38BD0022FFF796
:101EC000D6FE63792046022B294601D1092200E083
:101ED0000022FFF79BFE20462946FFF7B0FE38BDE3
:101EE0004379022B01D1092200E00022FFF78EFE88
:101EF00020462946FFF7A3FE38BD7047704770475C
:101F0000012007E0022005E0032003E0042001E0B7
:101F10000520FFE70D4A0121116072B60C4A00212D
:101F20001160074902B4084902B486B005498E46DB
:101F3000704700BFAFF30080AFF30080AFF30080C5
:101F400000000061F9FFFFFFFB1E000014ED00E040
:101F500010E000E0AFF30080AFF30080AFF300804B
:101F6000FEE70000044B10B504461868A047034B79
:101F70001868A04710BD00BF600500206405002060
:101F800010B50446FFF76EFC23684FF400325A6127
:101F900010BD000008B5072000F0A8F9044B4FF071
:101FA00000421A60034B4FF6FF721B681A6308BDAC
:101FB00034A0024068050020204B4FF000421A6018
:101FC0001A611F4A41F23C71126811631D4A4FF2B7
:101FD000FF01126811631C4A01F5706112681163F8
:101FE0001A4A47F6CF7112681163194A19491160EC
:101FF0004FF480321A61343B1A6D012A03D01A6DF6
:102000001AB9A5221A65F1221A65134B00221B6822
:1020100040F6FF71C3F89020C3F888104FF4001108
:1020200059644FF4003199644FF4800159644FF4BE
:10203000402199645A641F229A65704734A0024077
:10204000680500207005002078050020800500202C
:1020500024A0024021C0037888050020F0B50125A6
:1020600005FA01F10468154004F1200614BF0427A5
:102070000827B951184EB04204F1400022D113F0A4
:10208000010F0CBF08230423C150A5B102F00200C8
:10209000C0B204F13003002814BF042008200D044E
:1020A000C550616307E013F0010F04F150000CBF4D
:1020B00008230423195012F0040F0CBF0823042333
:1020C000E150F0BD12F0020F0CBF0826042681512A
:1020D000002DE8D1EFE700BF8805002030B50529C5
:1020E00014BF03240724490004FA01F5144004FA3C
:1020F00001F10368186F20EA05000143196730BD3C
:1021000001390138024B41EA00401860704700BFB6
:1021100000B003400E4B19680E4B1A680123C2F33E
:10212000022203FA02F2B1FBF2F20B498A4208D909
:102130000A498A4206D90A4B9A4294BF02230323D2
:1021400000E00023074A0321116042F8043C704775
:10215000100B002000D0024080BA8C0140B7280349
:1021600000B4C40408E00240294BF0B598420BD9F2
:10217000284B98420AD9284B984209D9274B9842B4
:1021800094BF0320042004E0002002E0012000E0CE
:102190000220234B234D1A6B234922F47E4222F462
:1021A000F8721A631A6B4FF0404442F47E4242F4D4
:1021B000F8721A631A6B1E4622F4E0221A631A6B35
:1021C00042EA00421A634FF000422C600A601F6925
:1021D0007F0702D41F69BF07F9D0376917F0040FD2
:1021E00015D12C601F69FF0703D5032805D80130DE
:1021F00002E0032801D80138C0B21F6B27F4E027A2
:102200001F631F6B47EA00471F630A60DFE7F0BDEB
:10221000BF0E16023FA5AE02BF3B47037F1D2C0435
:1022200000B0034018B0034014B00340034B4FF418
:10223000403200041A6043F8040C704718B00340A1
:102240000A4B1A6822F0070210431A689200FCD465
:10225000064B32221860064B1B685A43054BB2FBF3
:10226000F3F2054B013A1A60704700BF00D00240FC
:10227000100B0020002D3101100004E00A4A0B4B26
:1022800010B504461A600020FFF7DAFF084B4FF044
:1022900040421A60E00B0121FFF732FF2046BDE803
:1022A0001040FFF761BF00BF002D3101100B00206F
:1022B00018B00340094B1B6820B923F4E06343EADC
:1022C000012103E023F4803343EA0141034B1A6800
:1022D0009000FCD4014B1960704700BF00D0024051
:1022E000014B1860704700BF100B002004284FF00E
:1022F000010302D924280AD904E003FA00F0074AAE
:1023000010607047263803FA00F3054A03E00638E8
:1023100003FA00F3034A1360704700BF14D0024071
:1023200034D0024024D00240244B2DE9F0411C68F7
:102330004FF6BF6627684FF001083B6A03F400754B
:1023400003F08002AD0845EA520503F03F021E404B
:10235000154303F47C4345EA930595FAA5F3B3FAD4
:1023600083F308FA03F2554004EB83025269FAB191
:10237000052B06D8216951F823301B69C3F30023CC
:1023800014E0062B04D123681B6903F001030DE060
:10239000072B04D123681B69C3F3C00306E021693E
:1023A000083B51F823301B69C3F3003303B1904756
:1023B000002DD2D1BE62BDE8F08100BFB80400207C
:1023C0001E4B2DE9F0411C6840F6834627684FF00C
:1023D00001083B6A03F4406503F08002AD091E402A
:1023E00045EA121503F003031D4395FAA5F3B3FA6A
:1023F00083F308FA03F2554004EB83025269C2B139
:10240000012B06D8216951F823301B69C3F300233F
:102410000DE0022B04D123681B6903F0010306E0E1
:102420002169033B51F823301B69C3F3003303B127
:102430009047002DD9D1BE62BDE8F081BC040020D8
:102440001E4B2DE9F0411C6840F6834627684FF08B
:1024500001083B6A03F4406503F08002AD091E40A9
:1024600045EA121503F003031D4395FAA5F3B3FAE9
:1024700083F308FA03F2554004EB83025269C2B1B8
:10248000012B06D8216951F823301B69C3F30023BF
:102490000DE0022B04D123681B6903F0010306E061
:1024A0002169033B51F823301B69C3F3003303B1A7
:1024B0009047002DD9D1BE62BDE8F081C004002054
:1024C0007047000038B50B4B1A681468236813F086
:1024D000404505D5516919B1180201D5884706E074
:1024E000690004D5926912B15B0200D59047A560DE
:1024F00038BD00BFC40400207047000038B50B4B46
:102500001A681468236813F0404505D5516919B15C
:10251000180201D5884706E0690004D5926912B116
:102520005B0200D59047A56038BD00BFC8040020FD
:1025300030B5C48882880346601C904203D0188955
:10254000A0420BD152B91D8918689542805C02D017
:10255000013292B200E000229A8001E04FF0FF3099
:102560001A681155DA881989914202D0013292B263
:1025700000E00022DA8030BD70B508461D461146E5
:10258000002305229DF81040FFF768FD28462146EC
:1025900003220023BDE87040FFF760BD70B505461B
:1025A0000C461646A1B9164B196890F84C30042B0E
:1025B000144B19D81C680123C4F3022403FA04F451
:1025C000B1FBF4F424B910486821104AFFF796FCD7
:1025D0007600B4FBF6F42B68013C4FF0006244EA4D
:1025E00004449A611C6570BD1A680124C2F302227A
:1025F00004FA02F41B68C3F3004304FA03F4DFE7B0
:10260000100B002000D00240E46F0000FC6F0000BF
:1026100038B5074D2C6E04F0070405E095F87010EE
:102620000448FFF785FF013C002CF7D138BD00BFFF
:1026300000200040140B002038B5074D2C6E04F02C
:10264000070405E095F870100448FFF771FF013C9E
:10265000002CF7D138BD00BF00300040200B002017
:1026600038B54FF080452C6E04F0070405E095F86E
:1026700070100348FFF75CFF013C002CF7D138BD18
:102680002C0B002038B5074D2C6E04F0070405E034
:1026900095F870100448FFF74BFF013C002CF7D170
:1026A00038BD00BF00100040380B002038B543682B
:1026B000002205689A80DA803F221A8100F10C021C
:1026C00004461A6090F84C00FFF710FE0F4BAB6009
:1026D0000F4B6B6044F21873AB6040F20D336B60CC
:1026E0003023AB6694F84D3059B200290CDB03F06F
:1026F0001F05012000FA05F54911064A01F16004A1
:1027000042F8245042F8215038BD00BF00001A475B
:1027100000000D0300E100E003684FF080225A63DF
:1027200040225A637047036810B5002003E00C5C38
:10273000013083F870401C6EC4F30244032C01D8AE
:102740009042F4D110BD000001498D46014908476F
:10275000008000205927000008B5114B1A68114B62
:102760009A4201D0104907E0104B1149002208E0BD
:1027700052F8040B43F8040B8B42F9D3F4E743F807
:10278000042B8B42FBD3FEF71DFF002001460246BF
:1027900001F012FB074B0BB1FEF7EEFEFEE700BFA8
:1027A000EC73000000000020E00A0020E00A002096
:1027B000F80B002079150000F8B50446FFF7E0FBA0
:1027C0000C4B03201D780023032B226801D83032E4
:1027D00000E0203203F00301C90000FA01F705FA16
:1027E00001F11668013326EA07063143082B116010
:1027F000EAD1F8BDE00600202DE9F0410446FFF7DC
:10280000A5FA6379022B236803D14FF000529A6036
:1028100001E040229A6200254FF001084FF07067F6
:102820000EE0022A01D19F6009E0236953F82530A8
:10283000032D94BF08250425103345F80380354641
:102840006E1CF6B220463146FFF7CEFA6279236855
:102850000028E6D1022A04D14FF000525A60BDE8A8
:10286000F08140225A62BDE8F081000010B500F00E
:1028700017FC00F013FC2420FFF738FD00F022FCC9
:102880000620FFF733FD0020FFF7D0FC1B4800F0C7
:10289000F1FB1A48FFF7F2FC194B18481C68FFF7C8
:1028A0001FFD184B9C4205D8FFF734FC0520FFF7AD
:1028B000C7FC04E00520FFF7C3FCFFF72BFC124B1D
:1028C00000211A684FF4A05042F040021A60FFF74E
:1028D00047F90B4B18684FF47A73B0FBF3F00138EB
:1028E000FFF758F900F0D8FB0848FFF73BFB084812
:1028F000FFF710FA00F07CFC10BD00BF0080C4049C
:10290000100B0020FF7FC40400E00240B927000044
:10291000F9270000FEE70000012808B50BD002D31C
:10292000022802D108BD002008BD03485821034AEF
:10293000FFF7E4FA002008BD0870000022700000D4
:102940003E2873B505460C4616460FD871B1184699
:10295000FFF7E2FF064B224603EB05152B7BE97BD5
:102960000090184633460835FFF756F87CBD00BF87
:10297000E406002037B5456802AC04F8011D28467E
:1029800021460122FFF7CFFE0028F8D03EBD00000F
:102990004368F7B59B68044699420D4604D914482C
:1029A0004221144AFFF7AAFA606883689D421DD845
:1029B000277A114B3F01617AFE18367B0901CA184C
:1029C000127B009600260196C958FB58FFF7D4FDEC
:1029D0006068FFF76BFE606831462A46FFF7DEFD50
:1029E000606803B0BDE8F040FFF796BE03B0F0BDED
:1029F000247000003E700000E406002043685B681D
:102A0000D8889A8880B292B2D988801A9A8889B276
:102A100092B2914203D21B899BB20133C01880B29B
:102A2000704710B504462046FFF7E8FF0028FAD0AB
:102A300063685B689A881968885C1989914202D03A
:102A4000013292B200E000229A8010BD43685B68B8
:102A50009A88DA8070470000124B134A1968134BAA
:102A600059603A2119723B211A605972104B19684A
:102A7000104B59600121197200211A6059720E4BD6
:102A800019680E4B59600E2119720F211A60597284
:102A90000B4B19680B4B1A6014221A7215225960DD
:102AA0005A7270479005002070700000440B00209F
:102AB00094050020500B0020980500205C0B00209E
:102AC0009C050020680B0020044B02791B789A4279
:102AD00002D1034B1B681860704700BF740B0020C5
:102AE000780B00201031C9B2132994BF00230123B1
:102AF000002210B50260044672B65918084B1970CE
:102B0000084B18600848FFF705F962B6236823B937
:102B100006484521064AFFF7F1F9204610BD00BFDF
:102B2000740B0020780B0020C92A00008070000080
:102B30009970000003685A791B68022A03D14FF08C
:102B400000529A60704740229A62704703685A792F
:102B50001B68022A03D14FF000525A60704740228E
:102B60005A627047026813685279022A03D11869C1
:102B7000C043C0B202E018688005800D0130704784
:102B8000026801391368527989B2022A06D1FF29F5
:102B900028BFFF21C1F1FF01196170471A6840F297
:102BA000FF3022F47E7222F007021A601A68814216
:102BB00094BF114342EA00011960704703681A6824
:102BC0005B79022B16BF106C4FF6FF7080B2704716
:102BD00002681368527912B1022A02D1704719654E
:102BE00070471964704738B5044659B90121FFF799
:102BF000C7FF20460121FFF7EBFF2046BDE8384024
:102C0000FFF7DCBF50254D434FF6FF716D08B5FB54
:102C1000F1F1013189B205EB5105B5FBF1F5ADB22A
:102C2000FFF7AEFF20462946FFF7D2FF284638BD02
:102C30000068C9B2FFF732B903685A79022A03D192
:102C40001B68186B000C704701391B69C9B253F837
:102C50002130186BC0F34E00704770B5164604461D
:102C60000D46FFF7ABFF2368B04238BF06465A79DE
:102C7000B6B2022A07D11B681A6B92B21A631A6B9A
:102C800042EA064605E0013D1B69EDB253F82530E6
:102C900076001E6370BD0068C9B2FFF7C5B838B5CD
:102CA00005460C4603E02B6828461B68984714F835
:102CB000011B0029F7D138BDF8B504460D4617466B
:102CC000002605E02368A95D1B6820469847013669
:102CD000BE42F7D1F8BD08B503681B68984708BD28
:102CE00008B503685B68984708BD10B50D21044618
:102CF000FFF7F1FF20460A21BDE81040FFF7EBBFC8
:102D000010B50446FFF7E7FF2046BDE81040FFF787
:102D1000ECBF10B50446FFF7E3FF2046BDE81040C6
:102D2000FFF7E3BF2DE9F0471F46164690B056EA7D
:102D3000070281469DF8603005D1302110B0BDE812
:102D4000F047FFF7C8BF0024DDB2A0463046394641
:102D50002A46434601F036FFEA4604F80A20304688
:102D6000394643462A4601F02DFF06460F460134F8
:102D700056EA0703EAD10EE00AEB040313F8011C3C
:102D8000092901D8303100E03731C9B24846FFF790
:102D9000A2FF013C00E0EA46002CEDD110B0BDE8F6
:102DA000F08710B5029921B90368D1B21B68984722
:102DB00010BDC9B20291BDE81040FFF7B3BF07B51F
:102DC000002300920A46FFF7ECFF0EBD10B5044643
:102DD000FFF7F5FF2046BDE81040FFF786BF2DE95D
:102DE000F041069D044616461F462DB90368D1B230
:102DF0001B689847BDE8F081002E77F1000305DAE3
:102E00002D21FFF768FF764267EB4707EDB22046BA
:102E100032463B460695BDE8F041FFF783BF13B548
:102E2000CB1714460A460094FFF7D9FF1CBD10B516
:102E30000446FFF7F4FF2046BDE81040FFF755BFFA
:102E40002DE9F34D19460746164610461C4600224A
:102E5000002301F027FC9DF82880012538B1304679
:102E6000214643A3D3E9002301F012FC06E03046DB
:102E7000214641A3D3E9002301F000FC00B9054637
:102E8000EDB230462146002200236DB101F0ECFB8B
:102E900018B138462D21FFF71EFF3949384602B0D8
:102EA000BDE8F04DFFF71CBF01F0DEFB28B138464E
:102EB0002D21FFF710FF04F1004400250022314BC3
:102EC00009E01046194600222F4B01F085FA013522
:102ED00002460B46EDB24545F3D12146304600F09F
:102EE0009FFF82468B4601F083FE04460D4601F0AB
:102EF0001BF902460B465046594600F08FFF0A2345
:102F000082460093384622462B468B46FFF767FFE2
:102F1000B8F1000F26D038461C49FFF7E1FE1EE04D
:102F2000194B00225046594601F02CF98B46824637
:102F300001F0C2FB04460A2238462146FFF76FFF24
:102F4000204601F0B9F802460B465046594600F0BB
:102F500065FF08F1FF3882468B465FFA88F8B8F1C2
:102F6000000FDDD102B0BDE8F08D00BFAFF30080EF
:102F7000800350726C92DF43800350726C92DFC307
:102F8000AB7000000000E03F00002440BA70000079
:102F90009DF800100091FFF753BF13B59DF8101076
:102FA00004460091FFF74CFF204602B0BDE81040F8
:102FB000FFF79BBE3E2870B50D461ED80F4B03EBA6
:102FC00000104468467B04B126B90D482E210D4AF5
:102FD000FEF794FF6379022B08D123681A6B92B233
:102FE0001A631A6B42EA05451D6370BD2369013EF1
:102FF000F6B253F826306D001D6370BDE406002064
:10300000BC700000CB700000054B03EB001000F11A
:103010000803806810B19979FEF7C0BC704700BF03
:10302000E40600203E280ED8074B00011A18127B38
:103030001B584FF4803000FA02F21B681968C9432C
:1030400089B20A43DA607047E40600201C23434338
:10305000013B18460138FDD8704738B505460024B5
:1030600004E04FF47A70FFF7F1FF0134AC42F8D17D
:1030700038BD000008B5074B984294BF00210121DC
:103080000120FFF717F900200146BDE80840FFF7CF
:1030900011B900BF80F0FA02FEF78EBFFEF77ABFCB
:1030A00008B5064B00221A602720FFF71FF9044BD2
:1030B000A5221A60DD221A6008BD00BF20D00240A0
:1030C000300003401E4B10B51C6809212046042225
:1030D0000023FEF7C3FF0A21042200232046FEF747
:1030E000BDFF2620FFF702F9164B0822C3F8802106
:1030F0001A60154B8021196014494FF480230B602E
:10310000134B4FF4803018601A604FF080420A6011
:103110004FF400321A604FF000421A601420FFF79B
:103120009CFF0C4B1A6812F0200F0A4AFAD0136861
:10313000DB05FCD50220BDE81040FFF78EBF00BFC5
:10314000D06F000000E100E01490024008900240BF
:1031500004900240109002403E282DE9F0410546BF
:103160003CD8082911D8DFE801F0171A0508050531
:10317000050B0D000024052213E00024042210E0BA
:1031800001240AE0012422460BE01548154A482193
:10319000BDE8F041FEF7B2BE0024032201E00024A6
:1031A0000122114E2B01F718F058397B0023FEF74E
:1031B00055FF786807F1080818B1797B2246FEF7B9
:1031C0006DFE0A4A2D01705912687319904205D19B
:1031D000197B6200BDE8F041FEF780BFBDE8F081D9
:1031E000DD70000022700000E4060020E06F0000A7
:1031F00070470000704BF0B51A68704B70491A6048
:103200001A611A621A631A651A66C3F88020C3F835
:103210009020C3F8A020C3F8B020C3F8C020C3F8A2
:10322000D020684A09681068674A684D1468684A7F
:1032300019641967C3F8E000C3F8E840C3F8F00068
:10324000C3F8F840C3F80001C3F80841C3F81001FF
:10325000C3F81841C3F82001C3F82841C3F830016E
:10326000C3F83841C3F84001C3F85001C3F85841CE
:103270002E681768574D584A2D681268C3F8B45124
:10328000C3F87421C3F88421C3F8C451C3F8D451DE
:10329000C3F8E451C3F8F451C3F804524F4A504DF7
:1032A00012682D68C3F81012C3F82012C3F8301248
:1032B000C3F84012C3F86001C3F86471C3F8700129
:1032C000C3F88001C3F89021C3F8A021C3F8B0610E
:1032D000C3F8C061C3F8D061C3F8E061C3F8F0611E
:1032E000C3F80062C3F81852C3F82852C3F8385222
:1032F000C3F85012C3F86012C3F87012C3F88012FA
:10330000C3F89012C3F8A012C3F8B012C3F8C012E9
:10331000C3F8D0123349C3F8E0020968C3F8E842A1
:10332000C3F86413C3F874132F49C3F8F002096893
:10333000C3F8F472C3F8F842C3F80023C3F8084393
:10334000C3F81023C3F81843C3F82023C3F8284355
:10335000C3F83023C3F83843C3F84023C3F84843C5
:10336000C3F85023C3F85853C3F86023C3F8685315
:10337000C3F87023C3F87853C3F88023C3F88413C9
:10338000C3F88853C3F89023C3F89413C3F8985331
:10339000C3F8A023C3F8A853C3F8B023C3F8B853A5
:1033A000C3F8C023C3F8C853C3F8D023C3F8D85315
:1033B000C3F8E003F0BD00BFDC6F0000E4060020AE
:1033C000D86F0000D06F000060050020E06F0000A3
:1033D000BC040020B8040020C0040020D46F00000A
:1033E00064050020C4040020C8040020002380F8E5
:1033F000523080F8533080F8303080F831307047E8
:103400000020704770470000014B0360704700BF09
:10341000087100000448054B0549064A036019235A
:1034200080F8543000F0F0BC7C0B002018710000D4
:10343000093400000000002010B5094A094913684A
:1034400088681468A342FAD1C0F59C3050228030BD
:10345000B0FBF2F04FF47A7202FB030010BD00BF24
:10346000F40B002010E000E0034B1860034B1A68D7
:1034700001321A60704700BFD40B0020F00B00200F
:10348000024B1A6801321A60704700BFEC0B002033
:103490002DE9F347002480460D460127264623E008
:1034A0004046FFF7B1FD01F0E9F93146824601F0EF
:1034B0002FF98146384601F0E1F90146484601F00E
:1034C000E5FA0146304601F025F9064631465046F8
:1034D00001F01EF90146484601F024FA0146204653
:1034E00001F018F901370446AF42D9D929482A49D1
:1034F000FFF7F6FB0A22A8F12E012648FFF78FFC02
:1035000024482649FFF7ECFB224829460A22FFF708
:1035100056FC20482249FFF7E3FB092720211D48DC
:10352000FFF7D9FB013FF9D1092708211948FFF717
:10353000D2FB013FF9D1304600F0D0FD02460B46E8
:10354000144802210091FFF723FD12481549FFF7A7
:10355000C7FB092620210F48FFF7BDFB013EF9D12B
:10356000092608210B48FFF7B6FB013EF9D1681E7A
:1035700001F080F90146204601F088FA00F0AEFD26
:1035800002460B46034802210091FFF706FDBDE805
:10359000FC8700BF500B002040710000427100000A
:1035A000477100004F71000008B508484FF4E13141
:1035B000FFF7EEF906484FF4E131FFF7E9F9054866
:1035C0004FF4E131BDE80840FFF7E2B9500B0020AD
:1035D0005C0B0020680B002070B5B348B349FFF7BF
:1035E0007FFBB1480D21FFF776FBAF48B049FFF7ED
:1035F00090FBAD48AF49FFF78CFBAB48AE49FFF7F6
:103600006FFBAE4B4FF47A751E680A22B6FBF5F4D9
:103610002146A548FFF7D3FBA3482E21FFF75BFB0C
:103620000A2205FB1461A048FFF7C9FB9E48A44984
:10363000FFF76FFBA3499C48FFF752FBFFF7FCFE27
:1036400004460520FFF709FDFFF7F6FE0A22011BDD
:103650009548FFF7B4FB94489B49FFF75AFB924803
:103660009A49FFF756FB9A4D0024605D14210134FE
:10367000FFF70EFF0B2CF8D18B489649FFF749FB5B
:1036800095498948FFF72CFB9448FFF76BFA0A220B
:1036900001468548FFF793FB91498348FFF720FBDC
:1036A0009048FFF75FFA0A2201467F48FFF787FB41
:1036B0008D497D48FFF714FB8C48FFF753FA0A2227
:1036C00001467948FFF77BFB89497748FFF708FBFC
:1036D0008848FFF747FA0A2201467348FFF76FFB55
:1036E00071488549FFF7FCFA062420216E48FFF750
:1036F000F2FA013CF9D1062408216B48FFF7EBFAF6
:10370000013CF9D17D48FFF72DFA0A2201466648AF
:10371000FFF75CFB7A496448FFF7E2FA6F48FFF76E
:103720004DFA0A2201466048FFF779FB6C495E4872
:10373000FFF7D6FA6B48FFF741FA0A2201465A48CA
:10374000FFF76DFB68495848FFF7CAFA6748FFF76B
:1037500035FA0A2201465448FFF761FB6449524892
:10376000FFF7BEFA6348FFF729FA0A2201464E48DE
:10377000FFF755FB4C486049FFF7B2FA06242021B9
:103780004948FFF7A8FA013CF9D106240821464828
:10379000FFF7A1FA013CF9D15848FFF70FFA0A22C6
:1037A00001464148FFF743FB3F485649FFF798FA67
:1037B00001214A48FFF740FA0A2201463A48FFF73A
:1037C0002EFB39485049FFF78BFA02214348FFF797
:1037D00033FA0A2201463448FFF721FB32484B49AD
:1037E000FFF77EFA01213F48FFF726FA0A22014639
:1037F0002D48FFF714FB2C484549FFF771FA0221C9
:103800003848FFF719FA0A2201462748FFF707FB55
:1038100025484049FFF764FA062420212248FFF793
:103820005AFA013CF9D1062408211F48FFF753FA40
:10383000013CF9D101213148FFF7FEF90A22014686
:103840001948FFF7F4FA18483349FFF749FA334BA0
:103850000A2219681448FFF7B9FA13483049FFF7EC
:1038600058FA11482C49FFF73BFA2E4B0A221968E7
:103870000D48FFF7A4FA0C482B49FFF731FA2B4B00
:10388000094819680A22FFF79AFA07482921FFF721
:1038900037FA1B2404480549FFF722FA013CF9D105
:1038A00001480D2144E000BF500B00203C71000096
:1038B0005B710000707100007C710000F40B00204F
:1038C000F27200008A710000A5710000A971000069
:1038D000D4730000AF710000B9710000D80B002054
:1038E000C9710000DC0B0020D0710000E00B00204B
:1038F000D7710000E40B0020DE710000E80B00200F
:10390000E5710000FA7100001072000019720000E9
:10391000227200002B72000034720000EC0B0020B9
:1039200042720000F00B00204A720000D40B00200D
:10393000BDE87040FFF7CFB913B51C4C05226846AF
:103940001B4902F0D1FC20466946FFF7C9F9204621
:103950001849FFF7DEF920461749FFF7DAF9204644
:103960001649FFF7BDF9164B0A2219682046FFF7E2
:103970002DFA20461349FFF7CCF920461249FFF7EC
:10398000C8F920461149FFF7C4F920461049FFF74E
:10399000C0F920460F49FFF7BCF920460E49FFF752
:1039A000B8F920460D49FFF7B4F91CBD500B0020B3
:1039B0002071000063720000757200009C720000AC
:1039C000100B0020AD720000D9720000F4720000EC
:1039D000FF72000008730000207300003A730000BB
:1039E00070B50E4E04243068FFF737FB0D20FFF74B
:1039F00019FB013C3068FFF730FBE4B20D20074DA6
:103A0000FFF710FB002CEED12A683223183292FB0C
:103A1000F3F103FB112301332B6070BDD80A0020A2
:103A20002DE9F043644E87B001AD0FCE0FC533686A
:103A300062492B606248FFF753F96148FEF7F1FFD6
:103A4000A0F13005EDB20A225D482946FFF7EFF9F3
:103A5000042D00F293805A485A49FFF741F958481B
:103A6000FEF7DFFFA0F13106F6B2052E00F28680E8
:103A70003DB906AB03EB860656F8140CFFF75AF86F
:103A80007CE0012D07D106AB03EB860656F8140C3B
:103A9000FFF75CF872E0142720214948FFF71BF973
:103AA000013FF9D1142708214548FFF714F9013FD8
:103AB000F9D1042D09D142484349FFF711F9404893
:103AC000FEF7AFFFA0F13004E4B2142720213C48F8
:103AD000FFF701F9013FF9D1142708213848FFF712
:103AE000FAF8013FF9D136483849FFF7F9F806AB43
:103AF00003EB86064FF6387733E056F8149CB8F19E
:103B00002B0F14BF4FF0FF384FF001084846FFF766
:103B100029F808EB00014846FFF732F821E056F893
:103B2000149C4846FFF74AF84FF6EC71B8F12B0F9A
:103B300008BF1421091889B24846FFF749F810E078
:103B400056F8149C21464846FFF776F8B8F12B0F3B
:103B500014BF3A46C822121892B248462146FFF7CF
:103B60007CF81748FEF75DFF2D28804601D02B28F2
:103B700004D1032DD3D0042DBFD1E1E710480D218E
:103B8000FFF7A9F8372420210D48FFF7A4F8013CDE
:103B9000F9D1372408210A48FFF79DF8013CF9D1F3
:103BA00007480B49FFF79CF805480D2107B0BDE811
:103BB000F043FFF790B800BF287100006373000066
:103BC000500B002095730000A6730000B573000031
:103BD0003C71000010B51548FEF710FF002824D0F6
:103BE0001248FEF71EFF04461048FEF72FFF312C47
:103BF00004D1FFF715FF0D48FEF728FF37242021D9
:103C00000A48FFF768F8013CF9D137240821074832
:103C1000FFF761F8013CF9D104480D21FFF75BF88B
:103C20000248BDE81040FEF711BF10BD500B002048
:103C3000F0B5524D87B00024605D03210134FFF7D9
:103C40008BFA0B2CF8D124200021FFF785FA2320D2
:103C50000221FFF781FA0D200021FFF77DFA484B82
:103C600023201A6847490023FEF76AFEFFF79CFCF1
:103C7000FFF762FE444D40F60F744CF2C336072145
:103C80002878FFF769FA214604F570640F3415F8B7
:103C9000010BA4B2FFF78EF9B442F0D13B4D01AC59
:103CA0000FCD0FC42B682360002401ABE558012120
:103CB0002846FEF765FF0434284642F21071FEF7ED
:103CC00087FF142CF1D10124019D214601222846B1
:103CD000FEF7AEFF214628464FF47A620134FEF724
:103CE000BCFF072CF0D10124029F21460122384657
:103CF000FEF79EFF039E214601223046FEF798FF05
:103D0000214638464FF47A62FEF7A7FF2146304637
:103D10004FF47A620134FEF7A0FF032CE4D1049C37
:103D2000012120460A46FEF783FF2046012147F283
:103D30003052FEF792FF059E012130460A46FEF7FB
:103D400077FF47F2305230460121FEF786FF2846C2
:103D50004FF49671FEF747FF20464FF48061FEF75F
:103D60000FFF204601210222FEF762FF084A20468B
:103D7000012107B0BDE8F040FEF78DBFD47300000D
:103D8000D40A002069340000DF73000028710000AD
:103D90008134000008B5FFF723FE2420FFF742F925
:103DA00040F2EE20FFF759F9FFF716FCBDE8084096
:103DB000FFF710BFFEF75ABD08B5FFF739FFFFF751
:103DC000E9FFFCE708B501210A48FEF78BFE022156
:103DD0000948FEF787FE03210848FEF783FE042109
:103DE0000748FEF77FFE07480521BDE80840FEF7BB
:103DF00079BE00BFD80B0020DC0B0020E00B0020B8
:103E0000E40B0020E80B002003460846194602F0A8
:103E100061BA00BF81F0004102E000BF83F00043BF
:103E200030B54FEA41044FEA430594EA050F08BF55
:103E300090EA020F1FBF54EA000C55EA020C7FEA19
:103E4000645C7FEA655C00F0E2804FEA5454D4EB96
:103E50005555B8BF6D420CDD2C4480EA020281EA60
:103E6000030382EA000083EA010180EA020281EA98
:103E70000303362D88BF30BD11F0004F4FEA0131EA
:103E80004FF4801C4CEA113102D0404261EB4101F9
:103E900013F0004F4FEA03334CEA133302D052427F
:103EA00063EB430394EA050F00F0A780A4F101043B
:103EB000D5F1200E0DDB02FA0EFC22FA05F2801875
:103EC00041F1000103FA0EF2801843FA05F359415B
:103ED0000EE0A5F120050EF1200E012A03FA0EFCDA
:103EE00028BF4CF0020C43FA05F3C01851EBE37104
:103EF00001F0004507D54FF0000EDCF1000C7EEB21
:103F000000006EEB0101B1F5801F1BD3B1F5001F5E
:103F10000CD349085FEA30004FEA3C0C04F101047D
:103F20004FEA445212F5800F80F09A80BCF1004FA6
:103F300008BF5FEA500C50F1000041EB045141EA28
:103F4000050130BD5FEA4C0C404141EB010111F429
:103F5000801FA4F10104E9D191F0000F04BF0146D4
:103F60000020B1FA81F308BF2033A3F10B03B3F1B2
:103F700020020CDA0C3208DD02F1140CC2F10C0242
:103F800001FA0CF021FA02F10CE002F11402D8BFA0
:103F9000C2F1200C01FA02F120FA0CFCDCBF41EA6C
:103FA0000C019040E41AA2BF01EB0451294330BD3B
:103FB0006FEA04041F3C1CDA0C340EDC04F1140418
:103FC000C4F1200220FA04F001FA02F340EA0300EF
:103FD00021FA04F345EA030130BDC4F10C04C4F135
:103FE000200220FA02F001FA04F340EA0300294615
:103FF00030BD21FA04F0294630BD94F0000F83F45F
:10400000801306BF81F480110134013D4EE77FEA41
:10401000645C18BF7FEA655C29D094EA050F08BF8D
:1040200090EA020F05D054EA000C04BF194610466E
:1040300030BD91EA030F1EBF0021002030BD5FEAB2
:10404000545C05D14000494128BF41F0004130BDDA
:1040500014F580043CBF01F5801130BD01F000452E
:1040600045F0FE4141F470014FF0000030BD7FEAA1
:10407000645C1ABF194610467FEA655C1CBF0B469C
:10408000024650EA013406BF52EA033591EA030FB3
:1040900041F4002130BD00BF90F0000F04BF0021AB
:1040A000704730B54FF4806404F132044FF00005DE
:1040B0004FF0000150E700BF90F0000F04BF002157
:1040C000704730B54FF4806404F1320410F00045BD
:1040D00048BF40424FF000013EE700BF42004FEAB8
:1040E000E2014FEA31014FEA02701FBF12F07F4335
:1040F00093F07F4F81F06051704792F0000F14BF32
:1041000093F07F4F704730B54FF4607401F0004575
:1041100021F0004120E700BF50EA010208BF7047CC
:1041200030B54FF000050AE050EA010208BF7047C1
:1041300030B511F0004502D5404261EB41014FF42A
:10414000806404F132045FEA915C3FF4DCAE4FF02E
:1041500003025FEADC0C18BF03325FEADC0C18BF15
:10416000033202EBDC02C2F1200300FA03FC20FA66
:1041700002F001FA03FE40EA0E0021FA02F11444B3
:10418000C1E600BF70B54FF0FF0C4CF4E06C1CEAC8
:1041900011541DBF1CEA135594EA0C0F95EA0C0F3D
:1041A00000F0DEF82C4481EA030621EA4C5123EAB0
:1041B0004C5350EA013518BF52EA033541F48011DF
:1041C00043F4801338D0A0FB02CE4FF00005E1FB92
:1041D00002E506F00042E0FB03E54FF00006E1FBDC
:1041E00003569CF0000F18BF4EF0010EA4F1FF041F
:1041F000B6F5007F64F5407404D25FEA4E0E6D415F
:1042000046EB060642EAC62141EA55514FEAC5206F
:1042100040EA5E504FEACE2EB4F1FD0C88BFBCF5EB
:10422000E06F1ED8BEF1004F08BF5FEA500E50F19C
:10423000000041EB045170BD06F0004646EA010162
:1042400040EA020081EA0301B4EB5C04C2BFD4EB94
:104250000C0541EA045170BD41F480114FF0000E8D
:10426000013C00F3AB8014F1360FDEBF002001F0FB
:10427000004170BDC4F10004203C35DA0C341BDC75
:1042800004F11404C4F1200500FA05F320FA04F047
:1042900001FA05F240EA020001F0004221F000417B
:1042A00010EBD37021FA04F642EB06015EEA430EEE
:1042B00008BF20EAD37070BDC4F10C04C4F120051E
:1042C00000FA04F320FA05F001FA04F240EA0200D1
:1042D00001F0004110EBD37041F100015EEA430EA2
:1042E00008BF20EAD37070BDC4F1200500FA05F2C2
:1042F0004EEA020E20FA04F301FA05F243EA020341
:1043000021FA04F001F0004121FA04F220EA02004F
:1043100000EBD3705EEA430E08BF20EAD37070BD95
:1043200094F0000F0FD101F00046400041EB010175
:1043300011F4801F08BF013CF7D041EA060195F057
:10434000000F18BF704703F00046520043EB030311
:1043500013F4801F08BF013DF7D043EA06037047FE
:1043600094EA0C0F0CEA135518BF95EA0C0F0CD009
:1043700050EA410618BF52EA4306D1D181EA03014F
:1043800001F000414FF0000070BD50EA410606BF49
:104390001046194652EA430619D094EA0C0F02D18E
:1043A00050EA013613D195EA0C0F05D152EA0336D3
:1043B0001CBF104619460AD181EA030101F00041F1
:1043C00041F0FE4141F470014FF0000070BD41F03A
:1043D000FE4141F4780170BD70B54FF0FF0C4CF414
:1043E000E06C1CEA11541DBF1CEA135594EA0C0F33
:1043F00095EA0C0F00F0A7F8A4EB050481EA030E80
:1044000052EA03354FEA013100F088804FEA033366
:104410004FF0805545EA131343EA12634FEA022234
:1044200045EA111545EA10654FEA00260EF00041F5
:104430009D4208BF964244F1FD0404F5407402D247
:104440005B084FEA3202B61A65EB03055B084FEAD8
:1044500032024FF480104FF4002CB6EB020E75EBD5
:10446000030E22BFB61A754640EA0C005B084FEAFD
:104470003202B6EB020E75EB030E22BFB61A75467A
:1044800040EA5C005B084FEA3202B6EB020E75EBC5
:10449000030E22BFB61A754640EA9C005B084FEA3D
:1044A0003202B6EB020E75EB030E22BFB61A75464A
:1044B00040EADC0055EA060E18D04FEA051545EA39
:1044C00016754FEA06164FEAC30343EA52734FEAE2
:1044D000C2025FEA1C1CC0D111F4801F0BD141EA5B
:1044E00000014FF000004FF0004CB6E711F4801FC0
:1044F00004BF01430020B4F1FD0C88BFBCF5E06FA0
:104500003FF6AFAEB5EB030C04BFB6EB020C5FEAAF
:10451000500C50F1000041EB045170BD0EF0004E04
:104520004EEA113114EB5C04C2BFD4EB0C0541EA36
:10453000045170BD41F480114FF0000E013C90E633
:1045400045EA060E8DE60CEA135594EA0C0F08BFF7
:1045500095EA0C0F3FF43BAF94EA0C0F0AD150EAF6
:1045600001347FF434AF95EA0C0F7FF425AF104689
:1045700019462CE795EA0C0F06D152EA03353FF4B1
:10458000FDAE1046194622E750EA410618BF52EA2E
:1045900043067FF4C5AE50EA41047FF40DAF52EA02
:1045A00043057FF4EBAE12E74FF0FF3C06E000BF9F
:1045B0004FF0010C02E000BF4FF0010C4DF804CDAC
:1045C0004FEA410C7FEA6C5C4FEA430C18BF7FEA6C
:1045D0006C5C1BD001B050EA410C0CBF52EA430C9A
:1045E00091EA030F02BF90EA020F0020704710F11A
:1045F000000F91EA030F58BF994208BF90422CBFA9
:10460000D8176FEAE37040F0010070474FEA410CA1
:104610007FEA6C5C02D150EA013C07D14FEA430CBF
:104620007FEA6C5CD6D152EA033CD3D05DF8040B30
:10463000704700BF8446104662468C461946634662
:1046400000E000BF01B5FFF7B7FF002848BF10F139
:10465000000F01BD4DF808EDFFF7F4FF0CBF01207E
:1046600000205DF808FB00BF4DF808EDFFF7EAFFFA
:1046700034BF012000205DF808FB00BF4DF808EDB5
:10468000FFF7E0FF94BF012000205DF808FB00BFAA
:104690004DF808EDFFF7CEFF94BF012000205DF834
:1046A00008FB00BF4DF808EDFFF7C4FF34BF012041
:1046B00000205DF808FB00BF4FEA410212F500122E
:1046C00015D211D56FF47873B3EB625212D94FEA59
:1046D000C12343F0004343EA505311F0004F23FA43
:1046E00002F018BF404270474FF00000704750EA98
:1046F000013005D111F0004008BF6FF00040704755
:104700004FF00000704700BF80F0004002E000BFA3
:1047100081F0004142001FBF5FEA410392EA030FAC
:104720007FEA226C7FEA236C6AD04FEA1262D2EBF6
:104730001363C1BFD218414048404140B8BF5B42FB
:10474000192B88BF704710F0004F40F4000020F094
:104750007F4018BF404211F0004F41F4000121F0AA
:104760007F4118BF494292EA030F3FD0A2F10102F4
:1047700041FA03FC10EB0C00C3F1200301FA03F132
:1047800000F0004302D5494260EB4000B0F5000F55
:1047900013D3B0F1807F06D340084FEA310102F114
:1047A0000102FE2A51D2B1F1004F40EBC25008BFC6
:1047B00020F0010040EA03007047490040EB000090
:1047C00010F4000FA2F10102EDD1B0FA80FCACF1BF
:1047D000080CB2EB0C0200FA0CF0AABF00EBC250BE
:1047E00052421843BCBFD0401843704792F0000FAC
:1047F00081F4000106BF80F400000132013BB5E7FF
:104800004FEA41037FEA226C18BF7FEA236C21D074
:1048100092EA030F04D092F0000F08BF08467047D9
:1048200090EA010F1CBF0020704712F07F4F04D1A7
:10483000400028BF40F00040704712F100723CBFBA
:1048400000F50000704700F0004343F0FE4040F4E4
:10485000000070477FEA226216BF08467FEA2363A2
:104860000146420206BF5FEA412390EA010F40F48D
:10487000800070474FF0000304E000BF10F00043D9
:1048800048BF40425FEA000C08BF704743F09643C0
:1048900001464FF000001CE050EA010208BF7047DB
:1048A0004FF000030AE000BF50EA010208BF704762
:1048B00011F0004302D5404261EB41015FEA010C77
:1048C00002BF84460146002043F0B64308BFA3F16F
:1048D0008053A3F50003BCFA8CF2083AA3EBC25351
:1048E00010DB01FA02FC634400FA02FCC2F1200270
:1048F000BCF1004F20FA02F243EB020008BF20F0A7
:104900000100704702F1200201FA02FCC2F120020C
:1049100050EA4C0021FA02F243EB020008BF20EA01
:10492000DC7070474FF0FF0C1CEAD0521EBF1CEA2F
:10493000D15392EA0C0F93EA0C0F6FD01A4480EA1D
:10494000010C400218BF5FEA41211ED04FF0006306
:1049500043EA501043EA5111A0FB01310CF0004032
:10496000B1F5000F3EBF490041EAD3715B0040EA58
:10497000010062F17F02FD2A1DD8B3F1004F40EB28
:10498000C25008BF20F00100704790F0000F0CF0FB
:10499000004C08BF49024CEA502040EA51207F3ABF
:1049A000C2BFD2F1FF0340EAC250704740F400009A
:1049B0004FF00003013A5DDC12F1190FDCBF00F08B
:1049C00000407047C2F10002410021FA02F1C2F139
:1049D000200200FA02FC5FEA310040F1000053EAD5
:1049E0004C0308BF20EADC70704792F0000F00F023
:1049F000004C02BF400010F4000F013AF9D040EA29
:104A00000C0093F0000F01F0004C02BF490011F4BC
:104A1000000F013BF9D041EA0C018FE70CEAD153BA
:104A200092EA0C0F18BF93EA0C0F0AD030F0004C3A
:104A300018BF31F0004CD8D180EA010000F00040EE
:104A4000704790F0000F17BF90F0004F084691F0AC
:104A5000000F91F0004F14D092EA0C0F01D14202E6
:104A60000FD193EA0C0F03D14B0218BF084608D1AF
:104A700080EA010000F0004040F0FE4040F40000F9
:104A8000704740F0FE4040F4400070474FF0FF0C8C
:104A90001CEAD0521EBF1CEAD15392EA0C0F93EAD3
:104AA0000C0F69D0A2EB030280EA010C49024FEA25
:104AB000402037D04FF0805343EA111143EA1013DE
:104AC0000CF000408B4238BF5B0042F17D024FF496
:104AD000000C8B4224BF5B1A40EA0C00B3EB510F71
:104AE00024BFA3EB510340EA5C00B3EB910F24BF5A
:104AF000A3EB910340EA9C00B3EBD10F24BFA3EBDF
:104B0000D10340EADC001B0118BF5FEA1C1CE0D1A6
:104B1000FD2A3FF650AF8B4240EBC25008BF20F059
:104B2000010070470CF0004C4CEA50207F32C2BFAD
:104B3000D2F1FF0340EAC250704740F400004FF04A
:104B40000003013A37E792F0000F00F0004C02BF7B
:104B5000400010F4000F013AF9D040EA0C0093F045
:104B6000000F01F0004C02BF490011F4000F013B9F
:104B7000F9D041EA0C0195E70CEAD15392EA0C0F07
:104B800008D142027FF47DAF93EA0C0F7FF470AF3F
:104B9000084676E793EA0C0F04D14B023FF44CAF82
:104BA00008466EE730F0004C18BF31F0004CCAD117
:104BB00030F000427FF45CAF31F000437FF43CAF53
:104BC0005FE700BF4BB942B9002908BF002802D0F7
:104BD0004FF0FF31084601F0ABB882B0EC462DE94A
:104BE000005000F057F8DDF804E002B00CBC70474C
:104BF00038B50022002304460D46FFF735FD28B9DD
:104C000020462946BDE8384000F00AB8204605F1A4
:104C1000004100F005F8404261EB410138BD00BFA2
:104C20000023D0B50022C3F6F05306460F46FFF727
:104C3000A9FA01F07FF80446FFF72EFA00230022BC
:104C4000C4F2F013FFF79EFA02460B46304639468F
:104C5000FFF7E4F801F06EF8002202431046214607
:104C6000D0BD00BF2DE970431546804689461C46DD
:104C700001F080F805FB01F6A5FB002300FB0464AE
:104C8000E318069CB8EB020269EB0303C4E90023B6
:104C9000BDE87083F8B5144606460F461D4601F080
:104CA000CDF900FB05F5A0FB042304FB0154E31838
:104CB000069CB21A67EB0303C4E90023F8BD00BFEA
:104CC000036803B11B181846704700BF03685A00F9
:104CD0004CBF43F0004323F00043C018704700BFAF
:104CE0002DE9F84F0446914641B301F1FF3BDA4606
:104CF000002707EB0A0000EBD0756D1004EBC5062A
:104D00003046FFF7E3FFAB45804610D0691C04EB4B
:104D1000C100FFF7DBFF0138C84504D9BD4209D007
:104D200005F1FF3AE5E7484505D26F1CE1E74FF092
:104D3000FF30F1E700263046BDE8F88F0E463046DA
:104D4000BDE8F88F30B52B4B83B004468D1E002B89
:104D500049D0284601A9AFF300800346002822D09D
:104D60002A4618460199FFF7BBFF054600281DD0CB
:104D7000FFF7ACFF6B68A064012B10D0281D002B3F
:104D800022DBFFF7A3FF0021E06421650368002B0D
:104D90000FDBFFF79BFF2061002003B030BD002335
:104DA00023610520F9E720610920F6E72061092049
:104DB000F3E7C3F3036058B101280CD002280ED0EA
:104DC000002020610920E8E70122E0642265DDE798
:104DD000094B2361E1E7094A00202261DDE7084928
:104DE00000202161D9E7074A07491346881AC210F3
:104DF0000192B5E7000000000953000005530000D0
:104E000001530000D8630000C8640000036810B5B7
:104E10000446D80706D4990704F1480009D500F0E4
:104E200009FD23685A0709D518070ED5D90613D5E9
:104E300010BD00F0F7FC23685A07F5D404F1D00048
:104E400000F000FD23681807F0D404F5D87000F0D6
:104E500001FD2368D906EBD404F50C70BDE81040C1
:104E600000F03CBD2DE9F047ADF5916D02AC0F1D92
:104E7000261D054691460FCF0FC60FCF0FC60FCF89
:104E80000FC697E80F00D5F80C800027D5F818A0BA
:104E900086E80F00216C28462760FFF753FF06467F
:104EA000B94514BF4FF00A094FF00909FEB1A16BD3
:104EB00049F01009616401208DE8100449462A4632
:104EC0002B46C04700282BD1002E2AD1204692A97C
:104ED0004FF4107201F008FA082F28D1216C2846EF
:104EE000FFF730FF06464FF00909002EDFD1206C96
:104EF00021464FF41072686192A801F0F5F92F690C
:104F0000294692AA4846B847A09B074663640120F9
:104F10008DE8100449462A462B46C0470028D3D0C6
:104F20000926304622B00DF5806DBDE8F087072FC9
:104F3000F6D1201D00F06AFC38B504460D46296CF8
:104F40002046FFF7FFFE50B92A6C012062612369F9
:104F500021462A4698470828F1D0072801D0FCF7B7
:104F6000CEFF281D00F052FC11B933B1022070476A
:104F700004298CBF0220012070470F2A01D902208A
:104F8000704700EB820042681846009B1A60704729
:104F900010B50A4684B000210B4603AC0094FFF71D
:104FA000E3FF039804B010BD11B933B1022070477C
:104FB00004298CBF0220012070470F2A01D902204A
:104FC0007047009900EB82020968184651607047EB
:104FD00000B585B004AB43F8042D0A4600210093C8
:104FE0000B46FFF7E1FF05B000BD00BF2DE9F04F14
:104FF000CD6C0C4655F8041B8BB0174600F0080228
:105000001E46039200F003080795002B40F0E08055
:1050100009020691216D8DF821300323B8F1020FAA
:105020008DF8203008BFA56B11F0010340F0E4803B
:10503000019304F158030293D5F80090B9F1000FE1
:1050400000F0DC80022E00F0BF80B5F80090B5F8CB
:1050500002A00435A26C0F212AF0010B38469344BC
:10506000FFF796FF834518D829F0010CE3440AF0B6
:10507000010A09F00103584543EA4A092CBF002000
:105080000120B9F1010F12D032D2B8F1000F02D0D5
:10509000002840F017810435CEE70AF0010A09F034
:1050A000010343EA4A090020B9F1010FECD1B8F13C
:1050B000000F40F0C880C8B16B68D5F800909A1C0A
:1050C00019D0029A013309920DD0281DFFF7F8FD7F
:1050D0004FEAD972014609AB2046AFF300800028A1
:1050E00000F0EC80099A002A40F0CC800835A3E754
:1050F000B9F1020F03D009200BB0BDE8F08F2B6887
:1051000023F000420092B8F1000F40F083800028A5
:1051100053D00398002840F0B2800098002800F097
:10512000B180009B05F1040ADB07DDF80C9010D478
:10513000029950460991FFF7C3FD039A014609AB56
:105140002046AFF30080002833D10AF1040A4FF063
:105150000109CDF81080AB46B84650460596029F2F
:1051600011E000998E4200F0C0800997FFF7A8FD7A
:105170005246014609AB2046AFF30080B14698B9CC
:10518000281D06F10109051D0997FFF799FD09ABD7
:10519000014600222046AFF30080824609F1010655
:1051A0002846BAF1000FDCD04746059EDDF8108096
:1051B0005D46009A4A4565D02B68002B7CDB009940
:1051C000481C05EB800537E7D5F804A0083541E712
:1051D0000B04C1F30740216D0222B8F1020F0693C0
:1051E00005EB800508BFA56B11F001038DF82100C8
:1051F0008DF820203FF41CAF00200190384606A90E
:1052000000F004FC00287FF476AF019A002A43D115
:10521000082071E70D213846D4F82090FFF7B8FE3A
:105220008145C9D1A26A9542C6D10098291D0022A4
:105230000423A062E262236361632868002857DBCD
:1052400001220192BBE70D213846D4F82090FFF7E8
:105250009FFE81457FF44AAFA16A8D427FF446AF3D
:105260002846FFF733FD0F2102463846FFF7B0FE10
:10527000384600212246FFF7ABFE07203CE70099A5
:1052800000299AD138460D21FFF782FE099B206242
:105290006362A56206202FE70F213846FFF778FEEC
:1052A0000E2102463846FFF793FE38460F21134A77
:1052B000FFF78EFE07201FE7043580E7CDF8248036
:1052C0000835B9E62846FFF701FD04350646A56313
:1052D0002046AFF3008000283FF40DAF38460F2181
:1052E0003246FFF775FE072006E75D464746C9E7E9
:1052F000009B591C05EB8100B3E700BF00000000D4
:10530000022373E6012371E600236FE62DE9F047DF
:105310000446E8B004290CD8DFE801F03903929480
:105320000F00150C012B96B200F07881052B00F0D0
:10533000C880022068B0BDE8F087002BF9D1102AA0
:10534000F7D82368D90600F1738164A8019200F0B0
:10535000CFFA019AA36BD00744BF53F8040B6490B3
:10536000910744BF53F8041B6591500748BF53F899
:10537000041B64A848BF6691110748BF53F8042B6B
:10538000A36348BF679200F0A9FA0020D2E7002B80
:10539000CFD1A36BD00791B244BF53F8042B626006
:1053A0008A0744BF53F8042BA260480744BF53F850
:1053B000042BE2600A0744BF53F8042B2261C8069D
:1053C00044BF53F8042B62618A0644BF53F8042B90
:1053D000A261480644BF53F8042BE2610A0644BFA9
:1053E00053F8042B2262C80544BF53F8042B6262B1
:1053F0008A0544BF53F8042BA262480544BF53F802
:10540000042BE2620A0544BF53F8042B2263C8044C
:1054100044BF53F8042B626311F400501CBF53F8CF
:10542000042BA2634A0444BF53F8042BE2630A042A
:1054300044BF53F8042B2264002840D1A36379E7CA
:10544000012077E7032B7FF474AF160C95B2AA19ED
:10545000102A3FF66EAF2368180700F10A8144A8AE
:1054600000F01AFAA76B4FEA450E3B460DB30EF15A
:10547000FF3C44A953F8040B01EBC60662460CF04E
:10548000010146F8040B92B129B153F8041B013A0B
:1054900046F8041B0BD0184650F8045B314641F81F
:1054A000045B5D68031D75600E1D023AF3D107EBC6
:1054B0008E0344A8A36300F0CDF900203AE7002052
:1054C00038E777192022BA42FFF433AF012B00F0FE
:1054D000A8800F2D40F2A8803746F6B1052B7FF447
:1054E00028AF0F2D11D82268D0070ED522F0010168
:1054F000052B216000F0DA8022F00302204640F8FC
:10550000482B019300F092F9019B1FB122685107CB
:1055100000F1B780012B00F0BE800F2D74D9002F51
:1055200040F09F80D4F83890002EC8462EDD4946C2
:105530004FEA46080DF1080C51F8046B0CEBC5025C
:1055400008F1FF3000F0010A42F8046BA8F1020CE8
:10555000D0B1BAF1000F08D051F8040B0CF1FF3CA8
:10556000BCF1FF3F42F8040B0ED00E4656F804ABD8
:10557000104640F804AB4968ACF1020C5160311D93
:10558000021DBCF1FF3FF0D109EB88089FB3102D3D
:105590002CBF2E46102668AA414602EBC60A4FEAE7
:1055A000470951F8046BAAF5C87209F1FF3000F001
:1055B000010A42F8046BA9F1020CD0B1BAF1000F54
:1055C00008D051F8040B0CF1FF3CBCF1FF3F42F84E
:1055D000040B0ED00E4656F804AB104640F804AB50
:1055E0004968ACF1020C5160311D021DBCF1FF3F56
:1055F000F0D108EB8908012B2BD00F2DC4F838808F
:1056000008D9FFB9384695E602A8019300F016F9CB
:10561000019B84E702A800F00DF9F2E77719102248
:1056200051E70F2D3FF685AE102F10D9103F55E7EB
:1056300023F01003236004F50C70019200F058F978
:10564000019A82E624A800F0FDF8002072E6002707
:1056500047E708F1040302A8A36300F0E3F8002081
:1056600068E624A80193C5F1100600F0EFF8019B4D
:1056700058E723F0080704F5D870276000F00CF90C
:10568000EDE622F00401204640F8D01B019300F023
:10569000DDF8019B3EE702A8019300F0C7F8019BEB
:1056A000002F3FF43FAFC5F110063BE741F0020188
:1056B000204640F8481B019300F0C0F8019B24E706
:1056C000406C7047F0B50D46C96BADF5117D29648E
:1056D00001AE2F1D04460FCF0FC60FCF0FC60FCF41
:1056E0000FC697E80F0086E80F004FF0FF330093D6
:1056F00010992046FFF726FB58B9266921466A46CD
:10570000B04708280646F3D06846FFF77FFB062E11
:1057100003D009200DF5117DF0BD20462946FFF785
:105720000BFC00BF10B4DC6BC16082611946002223
:105730001C6410BCFFF796BB38B54269C3680446C9
:105740000D460A6423B10122FFF78CFBFCF7D7FB5F
:105750000369214602202A469847072803D00828D3
:1057600004D0FCF7CCFB281D00F050F82046294659
:10577000FFF7E2FBC36823B1CA6B0A640022FFF79C
:1057800071BB9FE7704700BF08B5836801460BB146
:105790000120984708BD00BFF0B5D46BADF5277D5B
:1057A000146401AE171D05460C460FCF0FC60FCF70
:1057B0000FC60FCF0FC697E80F0086E80F004FF017
:1057C000FF330093109990A8FFF7BCFA034690AA04
:1057D00068460C21BBB9FFF7FBFB21466846A8478A
:1057E000064690A908206A466EB9949B98470528FA
:1057F000064601D00928E5D16846FFF707FB304689
:105800000DF5277DF0BD0926F6E700BF00F1340154
:1058100091E838009C46A6464CF8045D90E8FF0FDE
:10582000E54600BD90EC210B704700BF80EC210BDA
:10583000704700BF90EC200B704700BF80EC200B3E
:10584000704700BFD0EC200B704700BFC0EC200BAE
:10585000704700BFF0EC0201F0EC0211F0EC022105
:10586000F0EC0231F0EC0241F0EC0251F0EC02619C
:10587000F0EC0271F0EC0281F0EC0291F0EC02A18C
:10588000F0EC02B1F0EC02C1F0EC02D1F0EC02E17C
:10589000F0EC02F1704700BFE0EC0201E0EC021115
:1058A000E0EC0221E0EC0231E0EC0241E0EC0251DC
:1058B000E0EC0261E0EC0271E0EC0281E0EC0291CC
:1058C000E0EC02A1E0EC02B1E0EC02C1E0EC02D1BC
:1058D000E0EC02E1E0EC02F1704700BFB0FC0181B6
:1058E000B0FC0191B0FC01A1B0FC01B1704700BF58
:1058F000A0FC0181A0FC0191A0FC01A1A0FC01B1D0
:10590000704700BFEC4600B52DE900502DE9FF1FA0
:105910004FF000032DE90C0001A9FFF7D3FEDDF8DD
:1059200040E012B0704700BFEC4600B52DE90050D2
:105930002DE9FF1F4FF000032DE90C0001A9FFF72F
:10594000FBFEDDF840E012B0704700BFEC4600B54A
:105950002DE900502DE9FF1F4FF000032DE90C0049
:1059600001A9FFF707FFDDF840E012B0704700BF64
:10597000EC4600B52DE900502DE9FF1F4FF0000364
:105980002DE90C0001ABFFF7CDFEDDF840E012B0D1
:10599000704700BFEC4600B52DE900502DE9FF1F10
:1059A0004FF000032DE90C0001AAFFF7F5FEDDF82A
:1059B00040E012B0704700BF027A03461AB9427A3B
:1059C00042B9B02070470068013A01021A72000E15
:1059D000196070474168501E587251F8040B032239
:1059E000596001021A72000E1960704710B500214B
:1059F00084B00C220DEB02040B460094FFF7B4FABE
:105A0000039804B010BD00BFF0E700BF2DE9F043DC
:105A1000064685B00D464FF000094FF47F672846D3
:105A2000FFF7CAFFB028044600F0B18010F08001F3
:105A300020D000F0F003802B75D0902B37D0A02B16
:105A400045D0B02B56D0C02B00F0868000F0F80077
:105A5000D0280BD104F007035A1C42F40022304630
:105A600001210523FFF752FC0028D8D0092005B0FA
:105A7000BDE8F0834FEA800203A85FFA82F8009045
:105A80000D220B463046FFF76FFA039B600608F1C4
:105A900004084CBFC8EB0303434403AC03930094D6
:105AA000002130460D220B46FFF77EFAB7E700F0E3
:105AB0000F020D2ADAD00F2AD8D0002103AC0094AF
:105AC00030460B4603ACFFF74FFA0094E8E7C243B9
:105AD00002F0070C47FA0CF0210700F47F6248BF80
:105AE00042F48042002130460B46FFF70FFC0028AD
:105AF000BCD194E7B1285ED0B2286FD0B32800F0B3
:105B0000968000F0FC0CBCF1B40F46D000F0070109
:105B10004A1C42F40022012130460B46FFF7F6FBF7
:105B20000028A3D17BE72846FFF746FF210240EA81
:105B30000104B4F5004F99D0230500211A0C30461A
:105B40000B462401FFF7E2FB00288FD114F4004F2D
:105B500018BF4FF0010962E7C62873D0C72800F0CC
:105B6000848000F0F801C02900F09280C82800F07D
:105B7000A680C9287FF47AAF2846FFF71DFF00F002
:105B80000F0100F0F0024B1C43EA023267E7B9F163
:105B9000000F00F08380002069E700F00300431C41
:105BA000022143F4802230460B46FFF7AFFB00286A
:105BB0007FF45CAF33E72846FFF7FEFE024600287D
:105BC0003FF454AF10F0F0017FF450AF30460B4675
:105BD000FFF79CFB00287FF449AF20E700210D224E
:105BE0000B4603AC30460094FFF7BEF92846FFF79A
:105BF000E3FE022402060DD500F07F0000FA04FE49
:105C0000039B284603EB0E010391FFF7D5FE0734F3
:105C10000306F1D400F07F0E0EFA04F4039903ABEF
:105C200001F5017C0CEB04020093039238E728464F
:105C3000FFF7C2FE00F00F014A1C00F0F00042EA3C
:105C4000003268E72846FFF7B7FE00F00F02531C4A
:105C500000F0F00043EA0032032130460B46FFF724
:105C600055FB00287FF402AFD9E62846FFF7A4FED3
:105C7000024600283FF4FAAE10F0F0037FF4F6AECF
:105C800030460421FFF742FB00287FF4EFAEC6E662
:105C900000F00F03581C40F42022DDE703AC494616
:105CA0000E224B4630460094FFF75EF930464946D7
:105CB0000F224B460094FFF777F94846D7E628466F
:105CC000FFF77AFE00F0F00200F00F001032411CE6
:105CD00041EA0232C3E600BF10B5C26C84B00320B3
:105CE00054688DF80C00D37924020832084601A9C3
:105CF000019402928DF80D30FFF788FE04B010BDBC
:105D000008B5FFF781FE806C08BD00BF08B5FFF73E
:105D10007BFEC16CC87901EB800303F1080008BD6C
:105D200008B5FCF7ECF800BF08B5FCF7E8F800BFD1
:105D3000704700BF4A0011D212F5001211D20DD5E2
:105D40006FF47873B3EB62520ED44FEAC12343F081
:105D5000004343EA505323FA02F070474FF000002B
:105D6000704750EA013002D14FF0FF3070474FF0DA
:105D7000000070472DE9F00F00291D46C0F29D80FC
:105D80000024002DC0F2948007460D4616469C461E
:105D9000002B3DD18A4253D9B2FA82F343B1C3F109
:105DA000200620FA06F501FA03F19A4098402943AB
:105DB000130CB1FBF3F697B203FB161107FB06F5C4
:105DC0004FEA104C4CEA01418D4209D9891806F17D
:105DD000FF3C80F014818D4240F21181023E89180F
:105DE000491BB1FBF3F503FB151307FB05F780B265
:105DF00040EA03439F4207D9691E9B1880F0058142
:105E00009F4240F20281023D45EA0642002303E040
:105E10008B420AD900231A461046194614B1404253
:105E200061EB4101BDE8F00F7047B3FA83F3002B3B
:105E300040F087808C4501D38242ECD80122EBE709
:105E400012B90127B7FBF2F2B2FA82F6002E3AD16C
:105E5000891A150C1FFA82FC0123B1FBF5F705FB2B
:105E600017110CFB07F64FEA104848EA01418E4231
:105E700007D9891807F1FF3802D28E4200F2DA8082
:105E80004746891BB1FBF5F605FB16110CFB06FC1A
:105E900080B240EA0140844507D9711E821880F023
:105EA000B080944540F2AD80023E46EA0742B3E737
:105EB000E443524263EB430366E7404261EB410136
:105EC0004FF0FF345DE7B240C6F1200521FA05F33B
:105ED00020FA05F901FA06F1150CB3FBF5F805FBFC
:105EE00018371FFA82FC0CFB08F349EA01094FEA54
:105EF000194141EA0747B040BB420AD9BF1808F12F
:105F0000FF3180F09580BB4240F29280A8F10208F8
:105F1000BF18FE1AB6FBF5F305FB13670CFB03F67F
:105F20001FFA89F949EA07418E4206D95F1E89188E
:105F300078D28E4276D9023B8918891B43EA0843FE
:105F40008BE7C3F1200122FA01F80CFA03F725FAD6
:105F500001FB20FA01F205FA03F548EA070C4FEAC3
:105F60001C48BBFBF8F908FB19B71FFA8CFA0AFBAF
:105F700009FB15432A0C42EA0747BB4506FA03F61C
:105F800009D917EB0C0709F1FF324FD2BB454DD9A8
:105F9000A9F102096744CBEB0701B1FBF8F208FB5A
:105FA00012170AFB02FAADB245EA07418A4507D942
:105FB000551E11EB0C0137D28A4535D9023A61449E
:105FC00042EA09421FFA86F84FEA124C08FB0CF726
:105FD000360C95B208FB05F806FB057506FB0CFCB4
:105FE00005EB1845AF4288BF0CF5803CCAEB0101B8
:105FF0000CEB1546B14212D309D000230CE76646DC
:10600000EEE60E4646EA074206E70D46FCE600FAD3
:1060100003F31FFA88F808EB0545AB42EDD2013ACD
:106020000023F9E63B4688E72A46C9E79146B2E7EE
:1060300088466EE7023F891823E700BF2DE9F00785
:10604000144605460E46002B3FD18A424AD9B2FA81
:1060500082F343B1C3F1200025FA00F201FA03F6FE
:106060009C409D401643230CB6FBF3F1A0B203FB0A
:10607000116C00FB01F22F0C47EA0C46B24208D922
:106080004F1E361980F0FF80B24240F2FC80023988
:106090003619B61AB6FBF3F203FB126300FB02F0EB
:1060A000ADB245EA0343984207D9561E1B1980F04A
:1060B000EC80984240F2E980023A42EA0142002331
:1060C00010461946BDE8F00770478B4243D8B3FA33
:1060D00083F4002C42D18B42234601D382423BD829
:1060E0000122EDE712B90127B7FBF2F4B4FA84F20A
:1060F000002A40F08A80091B260CA7B20123B1FBBD
:10610000F6F006FB101107FB00F24FEA154C4CEAC3
:1061100001418A4207D9091900F1FF3C02D28A42A3
:1061200000F2D4806046C2EB010CBCFBF6F206FB29
:1061300012C107FB02F7ADB245EA0145AF4207D9EC
:10614000511E2C1980F0A380A74240F2A080023A91
:1061500042EA0042B4E700231A46B1E7C4F120073F
:1061600003FA04F822FA07F321FA07F920FA07FAEA
:1061700001FA04F143EA08031E0CB9FBF6FC06FB26
:106180001C991FFA83F808FB0CF74AEA010A4FEA48
:106190001A4545EA0945AF4202FA04F905D9ED1856
:1061A0000CF1FF32C0F087809446EA1BB2FBF6F791
:1061B00006FB172608FB07F81FFA8AFA4AEA064187
:1061C000884503D97A1EC91870D3174647EA0C428E
:1061D000170C1FFA89FC0CFB07F695B24FEA19431E
:1061E0000CFB05FC03FB056503FB07F305EB1C45F6
:1061F000AE4288BF03F58033C8EB010103EB1543C2
:10620000994250D347D000235AE79440C2F1200668
:1062100021FA06F520FA06F901FA02F1260CB5FB7F
:10622000F6F806FB1855A7B207FB08F349EA01097F
:106230004FEA194141EA054C634500FA02F509D9D4
:106240001CEB040C08F1FF323ED263453CD9A8F1A7
:106250000208A444C3EB0C02B2FBF6F306FB1320C6
:1062600007FB03F21FFA89F949EA00418A4206D97D
:10627000581E091926D28A4224D9023B0919891AC3
:1062800043EA08433BE7394603E7324615E70A4647
:1062900042EA004214E700FA04F01FFA8CF101EB25
:1062A0000545A842AFD2013A002309E788458CD9B9
:1062B000023FC9188AE7AF427FF676AFACF1020C15
:1062C000ED1872E70346DAE79046C3E7023809198A
:1062D00029E700BF10B40C461346014622460220AF
:1062E00010BCFBF793B900BF0F2AF0B43AD941EACA
:1062F00000039B0738D10C46034615462668103D1F
:106300001E6066685E60A6689E60E6681034DE60A7
:1063100010330F2DF2D8A2F1100424F00F0402F074
:106320000F021034032A00EB0403214411D90E4656
:106330001D46144656F8047B043C032C45F8047BA8
:10634000F8D8141F24F00304043402F003020919DE
:106350001B192AB111F8014B013A03F8014BF9D18D
:10636000F0BC70470346F4E70346F3E7A1B20181AE
:10637000B0B0AE010000000008B10181B0B00084EF
:106380000000000008B10181B0B0008400000000EE
:1063900008B10181B0B0008400000000F8B500BF72
:1063A000F8BC08BC9E467047B91600003D150000B9
:1063B000592A0000F531000015340000B53D0000F9
:1063C000C53D0000F8B500BFF8BC08BC9E4670474C
:0463D000191500009B
:1063D80070C3FF7F0100000084E8FF7FB03784802E
:1063E800ACE8FF7FAB08B180D0E8FF7F0100000078
:1063F8004CE9FF7FB0A902800CEAFF7FB0B0A8800B
:106408005CEAFF7F60FFFF7F28EBFF7FA908B18070
:1064180050EBFF7F01000000CCEBFF7FB0AF0A809C
:10642800D8EEFF7F01000000DCEEFF7FAE3F278043
:1064380088F2FF7F0100000084F2FF7FAB10B2807A
:10644800DCF2FF7F01000000E8F2FF7FA908B180BD
:106458001CF3FF7F0100000028F3FF7F14FFFF7F7C
:1064680030F3FF7FAB26B2809CF3FF7F0100000072
:1064780074F5FF7FB0A8038088F5FF7F0100000056
:1064880084F5FF7FB0AD048048F8FF7FB0A8038093
:1064980068F8FF7FE8FEFF7F6CF8FF7FECFEFF7F68
:1064A80078F8FF7F01000000C4F8FF7FB0B0A78034
:1064B80084FBFF7FB0B0A68014FEFF7F01000000C0
:1064C800000000000000000000000000F4020020AE
:1064D8005C030020C403002000000000000000004E
:1064E80000000000000000000000000000000000A4
:1064F800000000000000000000000000A86F00007D
:106508000000000000000000000000000000000083
:106518000000000000000000000000000000000073
:106528000000000000000000000000000000000063
:106538000000000000000000000000000000000053
:106548000000000000000000000000000000000043
:106558000000000000000000000000000000000033
:106568000000000000000000000000000000000023
:1065780001000000000000000E33CDAB34126DE6C0
:10658800ECDE05000B000000000000000000000029
:1065980000000000000000000000000000000000F3
:1065A80000000000000000000000000000000000E3
:1065B80000000000000000000000000000000000D3
:1065C80000000000000000000000000000000000C3
:1068F800800101401301000001000000CB6F00007F
:10690800CC0400200000000000000000000000008F
:1069180000000000000000000040014015020000D7
:1069280002000000CD6F0000000000000000000021
:1069380000000000000000000000000000500140BE
:106948001602000002000000C96F000000000000ED
:10695800000000000000000000000000000000002F
:1069680000E0004040E0004080E00040C0E000401F
:1069780000E1004040E10040DC0400202805002040
:1069880030040020580400207C040020000001404E
:106998004000014000F0004040F0004080E100402D
:1069A8001100000001000000CC6F0000A0040020CE
:1069B80000000000000000000000000000000000CF
:1069C80000000000000000000000000000000000BF
:1069D80000000000000000000000000000000000AF
:1069E800000000000000000080F1004012010000DB
:1069F80001000000C86F0000D4040020000000005F
:106A0800000000000000000000000000000000007E
:106A180000A001401723000000B001401824000026
:106A28005005002058050020A0A0024007000000E3
:106A380040A1024007000000E0A10240070000005A
:106A480020A3024007000000C0A302400700000086
:106A5800A0050020F0050020400600209006002038
:106A680000200040140B002020AA44000000000071
:106A7800000000000000000000000000000000000E
:106A880000000000000000000000000000000000FE
:106A980000000000000000000000000000000000EE
:106AA8000000000000000000000000000A2E0000A6
:106AB80000300040200B002020AA44000000000005
:106AC80000000000000000000000000000000000BE
:106AD80000000000000000000000000000000000AE
:106AE800000000000000000000000000000000009E
:106AF8000000000000000000000000000B2F000054
:106B0800000000402C0B002020AA440000000000D8
:106B1800000000000000000000000000000000006D
:106B2800000000000000000000000000000000005D
:106B3800000000000000000000000000000000004D
:106B4800000000000000000000000000081B00001A
:106B580000100040380B002020AA4400000000006C
:106B6800000000000000000000000000000000001D
:106B7800000000000000000000000000000000000D
:106B880000000000000000000000000000000000FD
:106B9800000000000000000000000000091C0000C8
:106BA80002000000000000000000000000000000DB
:106BB8000500FF0B000000000000000000000000BE
:106BC8000400FF0A000000000000000000000000B0
:106BD8000700FF0D0000000000000000000000009A
:106BE8000600FF0C0000000000000000000000008C
:106BF8000900FF0000000000000000000000000085
:106C08000800FF0E00000000000000000000000067
:106C18000900FF0F00000000000000000000000055
:106C28000A00FF1000000000000000000000000043
:106C38000A00FF0000000000000000000000000043
:106C48000B00FF0000000000000000000000000032
:106C58000300FF000000000000000000000000002A
:106C68000200FF000000000000000000000000001B
:106C78000100FF000000000000000000000000000C
:106C88000000FF00000000000000000000000000FD
:106C980000000000000000000000000000000000EC
:106CA80001000100000000000000000000000000DA
:106CB80002000200000000000000000000000000C8
:106CC80003000300000000000000000000000000B6
:106CD80004000400000000000000000000000000A4
:106CE8000500050000000000000000000000000092
:106CF8000600FF0000000000000000000000000087
:106D0800070006000000000000000000000000006E
:106D18000D02FF000000000000000000000000005D
:106D28000E01FF000000000000000000000000004D
:106D38000F02FF0C0000000000000000000000002F
:106D48000000FF000000000000000000000000003C
:106D58000200FF000000000000000000000000002A
:106D68000506FF0000000000000000000000000011
:106D78000405FF0000000000000000000000000003
:106D88000304FF00000000000000000000000000F5
:106D98000203FF00000000000000000000000000E7
:106DA8000102FF00000000000000000000000000D9
:106DB8000001FF00000000000000000000000000CB
:106DC80000000201000000000000000000000000B8
:106DD80001000102000000000000000000000000A7
:106DE8000200000300000000000000000000000096
:106DF8000300FF0400000000000000000000000085
:106E08000400FF0500000000000000000000000072
:106E18000500FF0600000000000000000000000060
:106E28000600FF070000000000000000000000004E
:106E38000700FF080000000000000000000000003C
:106E48000800FF0000000000000000000000000033
:106E58000B00FF0000000000000000000000000020
:106E68000C00FF000000000000000000000000000F
:106E78000D00FF00000000000000000000000000FE
:106E88000E00FF00000000000000000000000000ED
:106E980008000700000000000000000000000000DB
:106EA8000B010900000000000000000000000000C5
:106EB80001000B00000000000000000000000000BE
:106EC80003000C00000000000000000000000000AB
:106ED80004000D0000000000000000000000000099
:106EE80005000E0000000000000000000000000087
:106EF80006000F0000000000000000000000000075
:106F080007000B0000000000000000000000000067
:106F180008010A0000000000000000000000000056
:106F28000902090000000000000000000000000045
:106F38000A01080000000000000000000000000036
:106F48000B02070000000000000000000000000025
:106F58000C00060000000000000000000000000017
:106F68000D00050000000000000000000000000007
:106F78000E000400000000000000000000000000F7
:106F88000F000300000000000000000000000000E7
:106F98000C00FF0026000000320000000000000086
:106FA80043000000080000206C69626D61706C6528
:106FB8002F657874692E630068616E646C65720071
:106FC8001916171A181415006805002070050020F6
:106FD8007805002080050020880500206C69626D16
:106FE80061706C652F73696D3375312F75736172BC
:106FF800742E6300636C6F636B5F73706565640008
:107008007769726973682F6578745F696E746572E1
:1070180072757074732E63707000300077697269CE
:1070280073682F486172647761726553657269612C
:107038006C2E6370700062617564203C3D2074683A
:1070480069732D3E75736172745F646576696365F3
:107058002D3E6D61785F626175640000000000007C
:107068000000000000000000752900009F2C0000AF
:10707800B92C0000000000007769726973682F4816
:107088006172647761726554696D65722E637070A0
:1070980000746869732D3E64657620213D204E5545
:1070A8004C4C003C6C6172676520646F75626C655E
:1070B8003E002E007769726973682F70776D2E63B2
:1070C8007070006465762026262063635F636861BC
:1070D8006E6E656C007769726973682F73696D33BA
:1070E80075312F7769726973685F6469676974615C
:1070F8006C2E6370700000000000000000000000AB
:1071080015290000ED330000000000000000000019
:1071180001340000053400001B5B324A0000000007
:10712800D80B0020DC0B0020E00B0020E40B002033
:10713800E80B00201B5B41004100096E3A20000962
:107148006D65616E3A20000976617269616E6365EA
:107158003A20002D20436F6D6D616E642050726F70
:10716800636573736F723A000A0A2D20537973545A
:1071780069636B0053797374656D2054696D653A62
:10718800200035206D732064656C61792074657307
:10719800743A206D65617375726564200075730AB1
:1071A800002D20414443000A2D2054696D657273F7
:1071B800005072657363616C6572733A2054312DA7
:1071C80000207C2054322D00207C2054332D0020B8
:1071D8007C2054342D00207C2054352D004F7665BA
:1071E80072666C6F772056616C7565733A205431FE
:1071F8002D00436F6D706172652056616C75657303
