:1008000000800020051A0000A1190000A5190000B1
:10081000A9190000AD190000B1190000011A00006B
:10082000011A0000011A0000011A0000011A00005C
:10083000011A0000011A0000011A0000B91100009D
:10084000011A0000BD0D0000D10D0000011A0000CA
:10085000011A0000011A0000011A0000011A00002C
:10086000011A0000011A0000011A0000011A00001C
:10087000011A0000011A0000011A0000011A00000C
:10088000011A0000011A0000011A0000011A0000FC
:10089000A5140000A9140000DD140000E1140000FC
:1008A0000D130000A513000025140000CD17000053
:1008B000F1170000011A0000011A0000011A0000DF
:1008C000011A0000011A0000011A0000310C00009A
:1008D000510C0000011A0000011A0000011A00006A
:1008E000011A0000011A0000011A0000011A00009C
:1008F000011A0000011A00007D170000A517000072
:10090000011A0000011A0000011A0000011A00007B
:10091000011A0000011A000010B5054C237833B904
:10092000044810B10448AFF300800121217010BDCC
:10093000400B0020000000002828000008B5064BEE
:100940001BB106480649AFF300800648016811B1A3
:10095000054B03B1984708BD00000000282800009F
:10096000440B0020400B0020000000000146002046
:100970000246034600F04AB808B50021044600F0DC
:10098000A5F8044B1868C36B03B19847204600F0E4
:1009900009F900BFB433000038B5084D084C641B9A
:1009A000A41006D005EB840555F8043D9847013C9A
:1009B000FAD1BDE8384001F04DBF00BF602800000B
:1009C0006428000070B50D4D0D4E761BB61006D094
:1009D000002455F8043B01349847A642F9D1094D4B
:1009E000094E01F021FF761BB61006D0002455F801
:1009F000043B01349847A642F9D170BD3428000069
:100A00003428000034280000542800002DE9F0416B
:100A10000546274884B00468D4F84801002841D02E
:100A200046681F2E1CDD234810B94FF0FF301EE032
:100A30004FF4C870039102920193AFF300800399C1
:100A4000029A019B0028F0D0D4F84861002780E882
:100A5000C000C4F848013E46C0F88871C0F88C71E7
:100A600045B9B31C013640F823104660002004B09D
:100A7000BDE8F081012404FA06F4D0F8887100EB97
:100A8000860847EA040C022D4746C8F88820C0F8BB
:100A900088C1C8F80831E4D1D0F88C311C43C0F8C3
:100AA0008C41DEE704F5A670C4F84801B8E700BF42
:100AB000B433000000000000024B13B10248FFF7FE
:100AC00055BF704700000000990900002DE9F04F64
:100AD000334B83B01B68019000930E464FF0010B1F
:100AE000009BD3F84871BFB103F5A4797D686C1EF3
:100AF0000CD407F1880A1F350AEB85057EB12B68F7
:100B0000B3420CD0013C043D631CF7D140F200031A
:100B1000C0F20003002B30D103B0BDE8F08F79683C
:100B2000CAEB05020139BA18A14252F8783C1ED02E
:100B3000002142F8781C002BE4D00BFA04F2D7F81D
:100B40008811D7F804800A420FD0D7F88C110A42D6
:100B50000FD155F8801C019898477B684345BFD159
:100B6000D9F80030BB42CDD0BAE79847F5E77C60B2
:100B7000E1E755F8800C9847EFE77B685BB93B6885
:100B800053B13846C9F80030AFF30080D9F800708F
:100B9000002FABD1C0E73B68B9461F46F8E700BF5E
:100BA000B4330000FEE700BF0129036801D85033C9
:100BB00000E0403301F001010901002A14BF0422C2
:100BC0000822002914BF4FF400018021995070477A
:100BD0000129036801D8503300E0403301F00101DE
:100BE0000901481C02FA00F2002914BF4FF46021E9
:100BF0000E2199605A6070470129036801D850336B
:100C000000E0403301F001010901012202FA01F183
:100C100059607047044B10B504461868A047034B51
:100C20001868A04710BD00BF400400204404002005
:100C3000064B1B681B68D3F89020910705D51A68EE
:100C4000120102D50222C3F8982070474004002008
:100C5000064B1B681B68D3F89020920705D51A68CD
:100C6000100102D50222C3F89820704744040020E6
:100C700070B506680446007900F078FA454BB36019
:100C8000454B18682379042B444B75D81B68012207
:100C9000C3F3022302FA03F3B0FBF3F3404A5B0011
:100CA000B3FBF2F3013B1B047360C023B36040232A
:100CB00073604FF47063B36100254FF400437561B6
:100CC00073604FF48053B3604FF4002373614FF0AF
:100CD0004043B3614FF480037361FC2373614FF4AD
:100CE000802373612A4620462946FFF75DFF204690
:100CF0002946FFF781FF204629462A46FFF768FF6D
:100D000001212A462046FFF74FFF01212046FFF729
:100D100073FF012103222046FFF75AFF012202211F
:100D20002046FFF741FF02212046FFF765FF022121
:100D300020462A46FFF74CFF012203212046FFF7F9
:100D400033FF03212046FFF757FF03210A462046C1
:100D5000FFF73EFF637959B2A94219DB03F01F0583
:100D6000012000FA05F549110E4A01F1600442F82C
:100D7000245042F8215070BD19681A68C1F302214D
:100D8000012303FA01F3C2F3004203FA02F383E7FB
:100D900070BD00BF0000FF076C0B002000D00240B8
:100DA00080CDF70000E100E010B50446FFF760FFDA
:100DB00023684FF400325A6110BD0000034A08B5A1
:100DC00013680BB15068984708BD00BF5C0B00204A
:100DD000034A08B593680BB1D068984708BD00BFB7
:100DE0005C0B002008B5072000F0C0F91C4A4FF04A
:100DF00000431360136113611A4B1A684FF6FF73B7
:100E00001363194A12681363184A12681363184B64
:100E100047F6FF721B681A63164B1A6D012A03D03E
:100E20001A6D1AB9A5221A65F1221A65124B002211
:100E30001B6840F6FF71C3F89020C3F888104FF488
:100E4000001159644FF4003199644FF480015964E2
:100E50004FF4402199645A641F229A6508BD00BF6F
:100E600034A0024048040020500400205804002010
:100E70006004002000A0024068040020F0B50125B5
:100E800005FA01F10468154004F1200614BF042797
:100E90000827B951184EB04204F1400022D113F096
:100EA000010F0CBF08230423C150A5B102F00200BA
:100EB000C0B204F13003002814BF042008200D0440
:100EC000C550616307E013F0010F04F150000CBF3F
:100ED00008230423195012F0040F0CBF0823042325
:100EE000E150F0BD12F0020F0CBF0826042681511C
:100EF000002DE8D1EFE700BF6804002030B50529D8
:100F000014BF03240724490004FA01F5144004FA2D
:100F100001F10368186F20EA05000143196730BD2D
:100F200000284FEA011106DA064B00F00F00C9B2A3
:100F3000C31819767047044BC9B2C31883F800135D
:100F4000704700BFFCEC00E000E100E021F06041F0
:100F500021F07F01094B084310B59860002460B26E
:100F60000F210134FFF7DCFF362CF8D14FF0FF30B2
:100F70000F21BDE81040FFF7D3BF00BF00ED00E038
:100F800001390138024B41EA00401860704700BF48
:100F900000B003400E4B19680E4B1A680123C2F3D0
:100FA000022203FA02F2B1FBF2F20B498A4208D99B
:100FB0000A498A4206D90A4B9A4294BF0223032364
:100FC00000E00023074A0321116042F8043C704707
:100FD0006C0B002000D0024080BA8C0140B728037F
:100FE00000B4C40408E00240294BF0B598420BD984
:100FF000284B98420AD9284B984209D9274B984246
:1010000094BF0320042004E0002002E0012000E05F
:101010000220234B234D1A6B234922F47E4222F4F3
:10102000F8721A631A6B4FF0404442F47E4242F465
:10103000F8721A631A6B1E4622F4E0221A631A6BC6
:1010400042EA00421A634FF000422C600A601F69B6
:101050007F0702D41F69BF07F9D0376917F0040F63
:1010600015D12C601F69FF0703D5032805D801306F
:1010700002E0032801D80138C0B21F6B27F4E02733
:101080001F631F6B47EA00471F630A60DFE7F0BD7D
:10109000BF0E16023FA5AE02BF3B47037F1D2C04C7
:1010A00000B0034018B0034014B00340034B4FF4AA
:1010B000403200041A6043F8040C704718B0034033
:1010C0000A4B1A6822F0070210431A689200FCD4F7
:1010D000064B32221860064B1B685A43054BB2FB85
:1010E000F3F2054B013A1A60704700BF00D002408E
:1010F0006C0B0020002D3101100004E00A4A0B4B5C
:1011000010B504461A600020FFF7DAFF084B4FF0D5
:1011100040421A60E00B0121FFF732FF2046BDE894
:101120001040FFF761BF00BF002D31016C0B0020A4
:1011300018B00340094B1B6820B923F4E06343EA6D
:10114000012103E023F4803343EA0141034B1A6891
:101150009000FCD4014B1960704700BF00D00240E2
:10116000014B1860704700BF6C0B002004284FF043
:10117000010302D924280AD904E003FA00F0074A3F
:1011800010607047263803FA00F3054A03E006387A
:1011900003FA00F3034A1360704700BF14D0024003
:1011A00034D0024024D00240024B072258601A601B
:1011B000704700BF10E000E008B5044B1A68013228
:1011C0001A60034B1B6803B1984708BDD00C002080
:1011D000700B002070B503782025012408490CE02D
:1011E0004268013BD25C56B202F01F0204FA02F2DE
:1011F00096FBF5F6603641F826205A1CF0D170BDFA
:1012000000E100E010B544790368022C05D14FF0ED
:101210007061120699605A6010BD43690139C9B204
:1012200053F8213040F203711868014019601968C1
:101230000A431A6010BD42790368022A06D10229C6
:1012400014BF4FF400514FF000515960704742797C
:101250000368022A06D1022914BF4FF400514FF04F
:1012600000519960704710B544790139012C036829
:10127000C9B219D002D3022C46D133E0052915D9C1
:10128000062906D11033002A14BF042208220121A6
:101290002FE0072906D11033002A14BF04220822A8
:1012A000082126E0083912E0012903D8436953F8E0
:1012B000213001E0022907D11033002A14BF042293
:1012C00008224FF4807114E004291DD803394369C2
:1012D000002A14BF0422082253F821304FF4006181
:1012E000103306E039B9002A14BF042208224FF453
:1012F0000001995010BD012906D1002A14BF042213
:1013000008224FF48001995010BD0000244B2DE9B4
:10131000F0411C684FF6BF6627684FF001083B6A32
:1013200003F4007503F08002AD0845EA520503F0AE
:101330003F021E40154303F47C4345EA930595FAAA
:10134000A5F3B3FA83F308FA03F255409A1D54F853
:101350002220FAB1052B06D8616951F823301B69A8
:10136000C3F3002314E0062B04D123681B6903F0A8
:1013700001030DE0072B04D123681B69C3F3C003ED
:1013800006E06169083B51F823301B69C3F3003361
:1013900003B19047002DD2D1BE62BDE8F08100BFFD
:1013A000280500201E4B2DE9F0411C6840F68346BD
:1013B00027684FF001083B6A03F4406503F08002A0
:1013C000AD091E4045EA121503F003031D4395FACB
:1013D000A5F3B3FA83F308FA03F255409A1D54F8C3
:1013E0002220C2B1012B06D8616951F823301B6954
:1013F000C3F300230DE0022B04D123681B6903F023
:10140000010306E06169033B51F823301B69C3F314
:10141000003303B19047002DD9D1BE62BDE8F08101
:101420002C0500201E4B2DE9F0411C6840F6834638
:1014300027684FF001083B6A03F4406503F080021F
:10144000AD091E4045EA121503F003031D4395FA4A
:10145000A5F3B3FA83F308FA03F255409A1D54F842
:101460002220C2B1012B06D8616951F823301B69D3
:10147000C3F300230DE0022B04D123681B6903F0A2
:10148000010306E06169033B51F823301B69C3F394
:10149000003303B19047002DD9D1BE62BDE8F08181
:1014A000300500207047000038B50B4B1A681468EF
:1014B000236813F0404505D5916919B1180201D58B
:1014C000884706E0680004D5D26912B1590200D5F8
:1014D0009047A56038BD00BF34050020704700006C
:1014E00038B50B4B1A681468236813F0404505D5CE
:1014F000916919B1180201D5884706E0690004D541
:10150000D26912B15B0200D59047A56038BD00BF1B
:1015100038050020084B10B504461868A047074B53
:101520001868A047064B1868A047064B1868A047E4
:10153000054B1868A04710BD280500202C05002089
:10154000300500203405002038050020F8B5054698
:1015500004680079FFF70AFE6B79022B0CD1002397
:101560002360236123622363202363604FF002130F
:101570006360FF23236114E0236823F4FE5323F008
:101580003F0323602368236000232364226822F43E
:10159000404222F003022260226842F4404222606C
:1015A000236205F10800FFF715FE20262A7A0124A0
:1015B0000B4811E0EB68013A99560A4B91FBF6F79C
:1015C0000B40002B03DA013B63F01F0301335BB2D6
:1015D00004FA03F340F82730531CEBD1F8BD00BFE9
:1015E00000E100E01F000080A1B10C4B1B68984295
:1015F00001D1062910D90A4B1B68984203D0094B28
:101600001B68984201D1022900E001298CBF00200B
:1016100001207047084670470120704728050020C8
:101620002C0500203005002038B500220D46044668
:101630000635FFF718FE002344F8253038BD012A8F
:1016400070B504460D460DD002D3022A23D10CE01A
:10165000FFF7EAFF29462046FFF7F9FD0021207C2D
:101660000A4613E00022FFF7FEFD63792046022BB5
:10167000294601D1092200E00022FFF7C3FD2946D7
:101680002046FFF7D8FD207C012100221346BDE84B
:10169000704000F017B970BD30B5C4888288034629
:1016A000601C904203D01889A0420BD152B91D8909
:1016B00018689542805C02D0013292B200E00022AC
:1016C0009A8001E04FF0FF301A681155DA881989C5
:1016D000914202D0013292B200E00022DA8030BDA5
:1016E00070B508461D461146002305229DF810409E
:1016F000FFF7C4FB2846214603220023BDE87040C3
:10170000FFF7BCBB70B505460C461646A1B9174B92
:10171000196890F84C30042B154B1AD81C6801231B
:10172000C4F3022403FA04F4B1FBF4F424B911481D
:101730006D21114A00F0C4F87600B4FBF6F4013CC8
:101740002B6824044FF0006244EA14449A611C653B
:1017500070BD1A680124C2F3022204FA02F41B6865
:10176000C3F3004304FA03F4DEE700BF6C0B002070
:1017700000D00240D3330000E433000038B5074DF9
:101780002C6E04F0070405E095F870100448FFF78C
:1017900083FF013C002CF7D138BD00BF0020004082
:1017A000740B002038B5074D2C6E04F0070405E0DB
:1017B00095F870100448FFF76FFF013C002CF7D13B
:1017C00038BD00BF00300040800B002038B54FF01E
:1017D00080452C6E04F0070405E095F8701003486E
:1017E000FFF75AFF013C002CF7D138BD8C0B0020CD
:1017F00038B5074D2C6E04F0070405E095F870101D
:101800000448FFF749FF013C002CF7D138BD00BF69
:1018100000100040980B002038B54368002205688E
:101820009A80DA803F221A8100F10C0204461A6085
:1018300090F84C00FFF79AFC0F4BAB600F4B6B60BE
:1018400044F21873AB6040F20D336B603023AB662B
:1018500094F84E3059B200290CDB03F01F0501202B
:1018600000FA05F54911064A01F1600442F82450D6
:1018700042F8215038BD00BF00001A4700000D0398
:1018800000E100E003684FF080225A6340225A636F
:1018900090F84D0000220121134600F013B80368B0
:1018A00010B5002003E00C5C013083F870401C6E22
:1018B000C4F30244032C01D89042F4D110BD704708
:1018C000704700002DE9F0472B4C14F8308004EBF2
:1018D000C0046478E51EEDB2012D4AD9022C08D16E
:1018E000264C274E2468D4F800C0264C246827686C
:1018F0000BE0254D254E2D68D5F800C0244D2D68F0
:101900002F68244D012C08BF2E46DFF86C90002B69
:1019100018BF013300245BB2254609EBC0090CE077
:10192000D9F8040000EBC20ADAF804A050F832003B
:10193000013244EA0A04054352B2013B5BB20BB1E7
:101940004245EDDB144A022300291360A1B20CBF0B
:10195000042208220CF1300C07F130074FEA14443E
:1019600042F80C10BC5014BF04220822B5500B4A98
:101970001360BDE8F08700BFB80A0020C033000044
:1019800040A00240C4330000B833000020A0024051
:10199000BC33000030A002400480044008800440B2
:1019A000012007E0022005E0032003E0042001E01D
:1019B0000520FFE70D4A0121116072B60C4A002193
:1019C0001160074902B4084902B486B005498E4641
:1019D000704700BFAFF30080AFF30080AFF300802B
:1019E00000000061F9FFFFFFBF18000014ED00E0E8
:1019F00010E000E0AFF30080AFF30080AFF30080B1
:101A0000FEE7000001498D4601490847008000209B
:101A1000151A000008B5114B1A68114B9A4201D0F3
:101A2000104907E0104B1149002208E052F8040B5E
:101A300043F8040B8B42F9D3F4E743F8042B8B42B1
:101A4000FBD3FEF7BFFF00200146024600F0D6FEA2
:101A5000074B0BB1FEF790FFFEE700BF1C350000FF
:101A600000000020400B0020400B0020D80C00207C
:101A700079090000F8B50446FFF796F90C4B0320EE
:101A80001D780023032B226801D8303200E0203279
:101A900003F00301C90000FA01F705FA01F1166825
:101AA000013326EA07063143082B1160EAD1F8BD5D
:101AB000C40600202DE9F0410446FFF747FD637995
:101AC000022B236803D14FF000529A6001E04022BC
:101AD0009A6200254FF001084FF070670EE0022A6D
:101AE00001D19F6009E0636953F82530032D94BF4D
:101AF00008250425103345F8038035466E1CF6B2E0
:101B000020463146FFF770FD627923680028E6D150
:101B1000022A04D14FF000525A60BDE8F081402201
:101B20005A62BDE8F081000038B500F0E9F900F034
:101B3000E5F92420FFF71AFB1D4B1E4C1A6842F0F2
:101B400040021A6000F0EEF90620FFF70FFB0020BC
:101B5000FFF7ACFA184800F0BFF91748FFF7CEFAC4
:101B600015482568FFF7FCFA144B9D4205D8FFF78E
:101B700011FA0520FFF7A4FA04E00520FFF7A0FA08
:101B8000FFF708FA00210E48FFF7E0F920684FF44C
:101B90007A73B0FBF3F00138FFF706FB0948FFF753
:101BA00039F80948FFF7B6FC00F092FA38BD00BFDB
:101BB00000E002406C0B00200080C404FF7FC404DE
:101BC00000080000751A0000B51A0000FEE737B5DE
:101BD000456802AC04F8011D284621460122FFF7A2
:101BE0005EFE0028F8D03EBD4368F7B59B6804460A
:101BF00099420D4604D914484221144AFFF760FE69
:101C0000606883689D421DD8277A114B3F01617A35
:101C1000FE18367B0901CA18127B00960026019631
:101C2000C958FB58FFF75CFD6068FFF7F5FD606879
:101C300031462A46FFF766FD606803B0BDE8F04014
:101C4000FFF720BE03B0F0BDF03300000A340000FF
:101C5000C80600200E4B0F4A19680F4B596000212F
:101C6000197201211A6059720C4B19680C4B59609A
:101C70000E2119720F211A6059720A4B19680A4B0A
:101C80001A6014221A72152259605A72704700BFE6
:101C9000C805002038340000A40B0020CC0500202B
:101CA000B00B0020D0050020BC0B0020044B0279B3
:101CB0001B789A4202D1034B1B681860704700BF23
:101CC000DC0B0020E00B00201031C9B2132994BFB7
:101CD00000230123002210B50260044672B6591891
:101CE000084B1970084B18600848FFF713FC62B6E0
:101CF000236823B906484521064AFFF7E1FD20463F
:101D000010BD00BFDC0B0020E00B0020AD1C00006C
:101D1000483400006134000003685A791B68022AC5
:101D200003D14FF000529A60704740229A62704788
:101D300003685A791B68022A03D14FF000525A6097
:101D4000704740225A62704702680139136852791D
:101D500089B2022A06D1FF2928BFFF21C1F1FF0164
:101D6000196170471A6840F2FF3022F47E7222F047
:101D700007021A601A68814294BF114342EA0001C7
:101D80001960704702681368527912B1022A02D1B1
:101D900070471965704719647047000008B5012144
:101DA0000A48FFF791FF02210948FFF78DFF032141
:101DB0000848FFF789FF04210748FFF785FF074818
:101DC0000521BDE80840FFF77FBF00BFC80B00201A
:101DD000CC0B0020D00B0020D40B0020D80B00200F
:101DE00038B505460C4603E02B6828461B68984723
:101DF00014F8011B0029F7D138BDF8B504460D468B
:101E00001746002605E02368A95D1B682046984711
:101E10000136BE42F7D1F8BD022910B5044605D0FF
:101E2000032907D0012907D1074B00E0074B1B68A6
:101E3000236006E0064BFAE706486121064AFFF7F1
:101E40003FFD204610BD00BF880400208C04002008
:101E500090040020733400008A34000008B501218A
:101E60000648FFF7D9FF02210548FFF7D5FF0548CF
:101E70000321BDE80840FFF7CFBF00BFE40B0020FF
:101E8000E80B0020EC0B002038280ED8074B00018F
:101E90001A18127B1B584FF4803000FA02F21B68AC
:101EA0001968C94389B20A43DA607047C80600203E
:101EB0001C234343013B18460138FDD8704738B511
:101EC0000546002404E04FF47A70FFF7F1FF013477
:101ED000AC42F8D138BD000008B5074B984294BF1A
:101EE000002101210120FFF725F900200146BDE86E
:101EF0000840FFF71FB900BF80F0FA02FEF772BF7B
:101F000008B5064B00221A602720FFF72FF9044B73
:101F1000A5221A60DD221A6008BD00BF20D0024051
:101F2000300003401E4B10B51C68092120460422D6
:101F30000023FEF7A3FF0A21042200232046FEF718
:101F40009DFF2620FFF712F9164B0822C3F88021C7
:101F50001A60154B8021196014494FF480230B60DF
:101F6000134B4FF4803018601A604FF080420A60C3
:101F70004FF400321A604FF000421A601420FFF74D
:101F80009EFF0C4B1A6812F0200F0A4AFAD0136811
:101F9000DB05FCD50220BDE81040FFF790BF00BF75
:101FA000B833000000E100E01490024008900240C5
:101FB000049002401090024038282DE9F14F79D862
:101FC000082911D8DFE801F0181B05080505050BE5
:101FD0000D000024052614E00024042611E001244D
:101FE0000BE0012426460CE03448354A4A2101B072
:101FF000BDE8F04FFFF764BC0024032601E0002495
:102000000126304F4FEA001808EB0705297B58F8E6
:10201000070000F05FF80346002833D000F1FF39D5
:10202000DFF8A8A084B14FEA0919297B58F8070006
:10203000052200230AEB0905FEF720FF297B5AF849
:1020400009003246002321E04FEA09130AEB030B93
:102050000BF108095AF8030099F804102246FEF71C
:102060004DFF99F80510DBF804002246FFF7E7FA68
:10207000297B58F807003246234601B0BDE8F04FEF
:10208000FEF7FCBE297B58F807003246FEF7F6FE45
:10209000686818B1697B2246FFF7D1FA0A4B2868B5
:1020A0001B68984206D1297B620001B0BDE8F04F61
:1020B000FEF724BF01B0BDE8F08F00BF8C340000F4
:1020C0008A340000C8060020C8330000580A0020E7
:1020D00070470000074B1B68984206D10239C9B20D
:1020E000092904D8044B585C704700207047002031
:1020F000704700BFC4330000D8340000B54AB64B67
:102100001168B648B64AF0B5126805681C68B5484B
:10211000B54BB64EC3F8E850C3F8F850C3F80851B1
:10212000C3F81851C3F82851C3F838511C601C611A
:102130001C621C6319641C651C661967C3F8804027
:10214000C3F89040C3F8A040C3F8B040C3F8C04003
:10215000C3F8D040C3F8E020C3F8F020C3F8002152
:10216000C3F81021C3F82021C3F83021C3F840215F
:10217000C3F85021C3F8585107689D483668006875
:10218000C3F88852C3F87401C3F884019948C3F8AE
:1021900098520068C3F86021C3F86471C3F87021D5
:1021A000C3F88021C3F89001C3F8A001C3F8B011AF
:1021B000C3F8B861C3F8C011C3F8C861C3F8D0113F
:1021C000C3F8D861C3F8E011C3F8F011C3F80012E6
:1021D000C3F81012C3F82012C3F83012C3F840122B
:1021E000C3F85012C3F86012C3F87012C3F880220B
:1021F000C3F89022C3F89472C3F8A002C3F8A8529F
:10220000C3F8B852C3F8C852C3F8D852C3F8E8525A
:10221000794D88422D68C3F8B002C3F80453C3F85F
:102220001453764DC3F8C0022D68C3F8D002C3F82A
:10223000E002C3F8F002C3F8F862C3F80003C3F881
:102240000863C3F81003C3F81863C3F82003C3F886
:102250002453C3F82863C3F83003C3F83453C3F8D6
:102260003863C3F84003C3F84863C3F85003C3F8A6
:102270005863C3F86003C3F86863C3F87003C3F816
:102280007863C3F8802305D0A04214BF01254FF422
:10229000805501E04FF48055594E9042356001D091
:1022A000884207D193F84C330125904205FA03F593
:1022B0000AD007E04C4B93F84C530123103503FA36
:1022C00005F505E0884203D1474B93F85C3303E002
:1022D000454B93F85C331033012606FA03F3484E5E
:1022E0002B437360474B4FF4803594421D603E4B47
:1022F00001D08C4206D11B7B0125944205FA03F5DF
:1023000008D005E01D7B0123103503FA05F504E034
:102310008C4202D1344B1B7F02E0334B1B7F1033C6
:10232000012606FA03F3374E2B438A42736003D02B
:10233000131B18BF012300E00023334D01262B603F
:10234000294B8A4293F8FC7093F8ECC006FA07F721
:1023500006FA0CF647EA06066E6005D0A24214BFE4
:1023600020264FF4007601E04FF40076274D93F8D5
:102370005C7193F84C312E60012606FA07F706FAD5
:1023800003F68A4247EA06066E6004D0A24214BFF2
:102390000825002500E000251D4B01261D60124D7B
:1023A0008A4295F81CC195F80C7106FA0CFC06FAE5
:1023B00007F74CEA070795F82CC106FA0CF647EA2E
:1023C00006065E601E4625D0A24214BF10230023DD
:1023D00021E000BFC0330000C433000040040020EF
:1023E000B83300002C050020C8060020440400205B
:1023F00030050020BC3300003405002038050020E3
:10240000300C0020380C0020400C0020480C00202C
:10241000F00B0020002395F83C71B360012303FA10
:1024200007F7F760A54E1027376095F82CC295F88E
:102430001C7203FA0CFC03FA07F74CEA070795F83D
:102440003CC295F84C5003FA0CFC03FA05F547EA38
:102450000C077760F5602027994DB760802694427D
:102460002E60984D01D08C4207D195F8DC300126C2
:10247000944206FA03F308D005E095F8DC501035D5
:1024800003FA05F309E08C4207D195F8CC500127F7
:10249000944207FA05F70AD007E08A4D012695F81D
:1024A000CC70103706FA07F708E08C4206D1854D4C
:1024B000012695F8BC5006FA05F606E0814D95F820
:1024C000BC600125103605FA06F67D4D3E433343C8
:1024D0006B604FF48073AB607A4B944293F8AC30EE
:1024E00002D08C4218BF1033012606FA03F388424B
:1024F000EB6005D0A04214BF4FF4E063002300E07E
:102500000023714D8A422B6005D0A24214BF4FF4C4
:102510004043002300E000236C4D01262B60694BF3
:102520008A4293F86C7193F89CC206FA07F706FA90
:102530000CF647EA06066E6005D0A24214BF4FF4BF
:102540004036002600E00026614D93F88C7193F828
:102550007C312E60012606FA07F706FA03F6884258
:1025600047EA06066E6005D0A04214BF4FF0006334
:10257000002300E00023574D90422B60514B93F80D
:102580000C3302D0884218BF1033012606FA03F339
:1025900088426B6005D0A04214BF4FF080530023E7
:1025A00000E000234B4D9042AB60464B93F81C3348
:1025B00002D0884218BF1033012606FA03F388427E
:1025C000EB6005D0A04214BF4FF00053002300E0A1
:1025D0000023414D90422B603A4B93F82C3302D0AC
:1025E000884218BF1033012606FA03F388426B6055
:1025F00005D0A04214BF4FF08043002300E0002329
:10260000354D9042AB602F4B93F83C3302D088425B
:1026100018BF1033012606FA03F38842EB6004D09A
:10262000A04214BF0125022500E002252B4B5D705E
:1026300002258A425D7202D0A24218BF00258A425A
:102640005D7404D0A2420CBF0223002300E00223E9
:10265000224D8A426B7604D0A2420CBF0223002393
:1026600000E0022385F8213002238A4285F82930D0
:1026700085F8313002D0A24218BF0023174D8A429C
:1026800085F8413004D0A2420CBF0222002200E0B3
:102690000222884285F8492004D0A0420CBF0222C1
:1026A000002200E002220D4B884283F8512017D00F
:1026B000A0420CBF0220002013E000BF000C00204D
:1026C000100C0020C8060020500C0020580C0020E0
:1026D000600C0020200C0020680C0020B80A0020AC
:1026E000022083F85900094A094B12681968094BFE
:1026F00019605A6019615A6119625A6219635A6302
:1027000019645A6419655A65F0BD00BF2805002098
:10271000C8330000580A0020002380F8523080F8A7
:10272000533080F8303080F83130704700207047E7
:1027300070470000014B0360704700BFF034000099
:102740000448054B0549064A0360192380F85430B4
:1027500000F05AB8780C0020003500003527000042
:102760000000002002484FF4E131FFF73DBA00BFFE
:10277000A40B002030B50F4D87B001AC0FCD0FC4B6
:102780002B682360002401ABE55804342846FFF78A
:10279000C3FA10212846FFF7D7FA28464FF6FF71F3
:1027A000FFF7F0FA2846FFF7C3FA142CEBD107B075
:1027B00030BD00BF0835000008B5FFF7D3FFFFF7B5
:1027C000D9FF0D200021BDE80840FFF7F5BB000050
:1027D00008B5084BC82218680D30B0FBF2F102FBB7
:1027E00011001860FFF76BFB0D20BDE80840FFF7F4
:1027F0004BBB00BF380B0020FFF796B908B5FFF7B9
:10280000DBFFFFF7E5FFFCE703460846194600F04B
:1028100001B800BF10B40C46134601462246022000
:1028200010BCFEF7F3B800BFF8B500BFF8BC08BC99
:102830009E467047B90A00003D090000551C000083
:102840009D1D00005D1E0000FD20000041270000CE
:10285000F9270000F8B500BFF8BC08BC9E467047D9
:042860001909000052
:082868009CF1FF7F010000005C
:10287000000000000000000000000000F402002042
:102880005C030020C40300200000000000000000E2
:102890000000000000000000000000000000000038
:1028A000000000000000000000000000B033000045
:1028B0000000000000000000000000000000000018
:1028C0000000000000000000000000000000000008
:1028D00000000000000000000000000000000000F8
:1028E00000000000000000000000000000000000E8
:1028F00000000000000000000000000000000000D8
:1029000000000000000000000000000000000000C7
:1029100000000000000000000000000000000000B7
:1029200001000000000000000E33CDAB34126DE654
:10293000ECDE05000B0000000000000000000000BD
:102940000000000000000000000000000000000087
:102950000000000000000000000000000000000077
:102960000000000000000000000000000000000067
:102970000000000000000000000000000000000057
:102CA00000A001401723000000B0014018240000DC
:102CB0003004002038040020A0A0024007000000DB
:102CC00040A1024007000000E0A102400700000010
:102CD00020A3024007000000C0A30240070000003C
:102CE000004000400C1D0400005000400D1E050077
:102CF000006000400E1F06007004002078040020D1
:102D00008004002080010140130100000100000048
:102D1000CF330000090000003C0500200000000047
:102D200000000000000000000000000000000000A3
:102D3000004001401502000002000000D1330000F5
:102D40000A00000000000000000000000000000079
:102D500000000000000000000050014016020000CA
:102D600002000000CD3300000B0000000000000056
:102D70000000000000000000000000000000000053
:102D800000E0004040E0004080E00040C0E0004043
:102D900000E1004040E100404C0500209C0500207F
:102DA00094040020C0040020E8040020000001403A
:102DB0004000014000F0004040F0004080E1004051
:102DC0001100000001000000D033000007000000E7
:102DD00010050020000000000000000000000000BE
:102DE00000000000000000000000000000000000E3
:102DF00000000000000000000000000000000000D3
:102E000000000000000000000000000080F1004011
:102E10001201000001000000CC3300000800000097
:102E20004405002000000000000000000000000039
:102E30000000000000000000D4050020240600204F
:102E40007406002000300040800B002020AA4400BF
:102E50000000000000000000000000000000000072
:102E60000000000000000000000000000000000062
:102E70000000000000000000000000000000000052
:102E80000000000000000000000000000000000042
:102E90000B012F00000000408C0B002020AA4400F2
:102EA0000000000000000000000000000000000022
:102EB0000000000000000000000000000000000012
:102EC0000000000000000000000000000000000002
:102ED00000000000000000000000000000000000F2
:102EE00008021B0000100040980B002020AA44009C
:102EF00000000000000000000000000000000000D2
:102F000000000000000000000000000000000000C1
:102F100000000000000000000000000000000000B1
:102F200000000000000000000000000000000000A1
:102F300009031C0002000000000000000000000067
:102F4000000000000500FF0B000000000000000072
:102F5000000000000400FF0A000000000000000064
:102F6000000000000700FF0D00000000000000004E
:102F7000000000000600FF0C000000000000000040
:102F8000000000000900FF00000000000000000039
:102F9000000000000800FF0E00000000000000001C
:102FA000000000000900FF0F00000000000000000A
:102FB000000000000A00FF100000000000000000F8
:102FC000000000000A00FF000000000000000000F8
:102FD000000000000B00FF000000000000000000E7
:102FE000000000000300FF000000000000000000DF
:102FF000000000000200FF000000000000000000D0
:10300000000000000100FF000000000000000000C0
:10301000000000000000FF000000000000000000B1
:1030200000000000000000000000000000000000A0
:10303000000000000100010000000000000000008E
:10304000000000000200020000000000000000007C
:10305000000000000300030000000000000000006A
:103060000000000004000400000000000000000058
:103070000000000005000500000000000000000046
:10308000000000000600FF0000000000000000003B
:103090000000000007000600000000000000000023
:1030A000000000000D02FF00000000000000000012
:1030B000000000000E01FF00000000000000000002
:1030C000000000000F02FF0C0000000000000000E4
:1030D000000000000000FF000000000000000000F1
:1030E000000000000200FF000000000000000000DF
:1030F00000000000000002010000000000000000CD
:1031000000000000010001020000000000000000BB
:1031100000000000020000030000000000000000AA
:10312000000000000300FF04000000000000000099
:10313000000000000400FF05000000000000000087
:10314000000000000500FF06000000000000000075
:10315000000000000600FF07000000000000000063
:10316000000000000700FF08000000000000000051
:10317000000000000800FF00000000000000000048
:10318000000000000B00FF00000000000000000035
:10319000000000000C00FF00000000000000000024
:1031A000000000000D00FF00000000000000000013
:1031B000000000000E00FF00000000000000000002
:1031C00000000000080007000000000000000000F0
:1031D000000000000B0109000000000000000000DA
:1031E0000000000001000B000000000000000000D3
:1031F0000000000003000C000000000000000000C0
:103200000000000004000D000000000000000000AD
:103210000000000005000E0000000000000000009B
:103220000000000006000F00000000000000000089
:103230000000000007000B0000000000000000007C
:103240000000000008010A0000000000000000006B
:10325000000000000902090000000000000000005A
:10326000000000000A01080000000000000000004B
:10327000000000000B02070000000000000000003A
:10328000000000000C00060000000000000000002C
:10329000000000000D00050000000000000000001C
:1032A000000000000E00040000000000000000000C
:1032B000000000000F0003000000000000000000FC
:1032C000000000000C00FF000000000000000000F3
:1032D000000000000506FF000000000000000000E4
:1032E000000000000405FF000000000000000000D6
:1032F000000000000304FF000000000000000000C8
:10330000000000000203FF000000000000000000B9
:10331000000000000102FF000000000000000000AB
:10332000000000000001FF0001000000300C002040
:1033300001000000380C002001000000400C0020BB
:1033400001000000480C002002000000F00B0020EB
:1033500002000000000C002002000000100C002001
:1033600001040000500C002001000000580C002057
:1033700001000000600C002002000000200C002072
:1033800002000000680C002002030000C8340000A6
:1033900001030000B034000001030000B834000055
:1033A00001030000C03400003200000000000000F3
:1033B00043000000080000204804002050040020C2
:1033C0005804002060040020680400201916171A11
:1033D0001814156C69626D61706C652F757361727C
:1033E000742E6300636C6F636B5F7370656564005C
:1033F0007769726973682F48617264776172655387
:10340000657269616C2E6370700062617564203C46
:103410003D20746869732D3E75736172745F6465D5
:10342000766963652D3E6D61785F62617564000049
:103430000000000000000000CF1B0000E11D0000A4
:10344000FB1D0000000000007769726973682F4857
:103450006172647761726554696D65722E63707014
:1034600000746869732D3E64657620213D204E55B9
:103470004C4C007769726973682F48617264776198
:1034800072655350492E637070003000776972691D
:1034900073682F73696D3375312F7769726973683B
:1034A0005F6469676974616C2E637070000000006E
:1034B000FF00000000000000FF000000000000000E
:1034C000FF00000000000000FF00000000000000FE
:1034D000FF000000000000000605000001000203DC
:1034E00000040000000000000000000000000000D8
:1034F000CD1B0000192700000000000000000000A4
:103500002D27000031270000C80B0020CC0B002025
:10351000D00B0020D40B0020D80B00207028000016
:0400000300001A05DA
:00000001FF
