:1014000000800020D5250000011D0000051D000002
:10141000091D00000D1D0000111D0000611D0000D0
:10142000611D0000611D0000611D0000611D0000C4
:10143000611D0000611D0000611D0000251A0000F3
:10144000611D00008D190000A1190000611D000040
:10145000611D0000611D0000611D0000611D000094
:10146000611D0000611D0000611D0000611D000084
:10147000611D0000611D0000611D0000611D000074
:10148000611D0000611D0000611D0000611D000064
:101490008522000089220000BD220000C122000038
:1014A000ED20000085210000052200003524000009
:1014B00059240000611D0000611D0000611D000035
:1014C000611D0000611D0000611D00001518000075
:1014D00035180000611D0000611D0000611D000045
:1014E000611D0000611D0000611D0000611D000004
:1014F000611D0000611D0000E52300000D240000B7
:10150000611D0000611D0000611D0000611D0000E3
:10151000611D0000611D000010B5054C237833B932
:10152000044810B10448AFF300800121217010BDC0
:10153000B80A002000000000B04B000008B5064BC0
:101540001BB106480649AFF300800648016811B197
:10155000054B03B1984708BD00000000B04B0000E8
:10156000BC0A0020B80A002000000000014600204C
:101570000246034600F04AB808B50021044600F0D0
:10158000A5F8044B1868C36B03B19847204600F0D8
:1015900009F900BF9457000038B5084D084C641B8A
:1015A000A41006D005EB840555F8043D9847013C8E
:1015B000FAD1BDE8384003F00FBB00BFE44B000098
:1015C000E84B000070B50D4D0D4E761BB61006D0E1
:1015D000002455F8043B01349847A642F9D1094D3F
:1015E000094E03F0E5FA761BB61006D0002455F834
:1015F000043B01349847A642F9D170BDBC4B0000B2
:10160000BC4B0000BC4B0000D84B00002DE9F04162
:101610000546274884B00468D4F84801002841D022
:1016200046681F2E1CDD234810B94FF0FF301EE026
:101630004FF4C870039102920193AFF300800399B5
:10164000029A019B0028F0D0D4F84861002780E876
:10165000C000C4F848013E46C0F88871C0F88C71DB
:1016600045B9B31C013640F823104660002004B091
:10167000BDE8F081012404FA06F4D0F8887100EB8B
:10168000860847EA040C022D4746C8F88820C0F8AF
:1016900088C1C8F80831E4D1D0F88C311C43C0F8B7
:1016A0008C41DEE704F5A670C4F84801B8E700BF36
:1016B0009457000000000000024B13B10248FFF7EE
:1016C00055BF704700000000991500002DE9F04F4C
:1016D000334B83B01B68019000930E464FF0010B13
:1016E000009BD3F84871BFB103F5A4797D686C1EE7
:1016F0000CD407F1880A1F350AEB85057EB12B68EB
:10170000B3420CD0013C043D631CF7D140F200030E
:10171000C0F20003002B30D103B0BDE8F08F796830
:10172000CAEB05020139BA18A14252F8783C1ED022
:10173000002142F8781C002BE4D00BFA04F2D7F811
:101740008811D7F804800A420FD0D7F88C110A42CA
:101750000FD155F8801C019898477B684345BFD14D
:10176000D9F80030BB42CDD0BAE79847F5E77C60A6
:10177000E1E755F8800C9847EFE77B685BB93B6879
:1017800053B13846C9F80030AFF30080D9F8007083
:10179000002FABD1C0E73B68B9461F46F8E700BF52
:1017A00094570000FEE700BF0129036801D85033B9
:1017B00000E0403301F001010901002A14BF0422B6
:1017C0000822002914BF4FF400018021995070476E
:1017D0000129036801D8503300E0403301F00101D2
:1017E0000901481C02FA00F2002914BF4FF46021DD
:1017F0000E2199605A6070470129036801D850335F
:1018000000E0403301F001010901012202FA01F177
:1018100059607047064B1B681B68D3F890209107EE
:1018200005D51A68120102D50222C3F89820704724
:1018300074050020064B1B681B68D3F890209207A4
:1018400005D51A68100102D50222C3F89820704706
:101850007805002070B506680446007900F028FC81
:10186000454BB360454B18682379042B444B75D81E
:101870001B680122C3F3022302FA03F3B0FBF3F364
:10188000404A5B00B3FBF2F3013B1B047360C023CF
:10189000B360402373604FF47063B36100254FF46D
:1018A0000043756173604FF48053B3604FF40023BD
:1018B00073614FF04043B3614FF480037361FC23C5
:1018C00073614FF4802373612A4620462946FFF74F
:1018D0006BFF20462946FFF78FFF204629462A4600
:1018E000FFF776FF01212A462046FFF75DFF012121
:1018F0002046FFF781FF012103222046FFF768FF02
:10190000012202212046FFF74FFF02212046FFF768
:1019100073FF022120462A46FFF75AFF01220321C6
:101920002046FFF741FF03212046FFF765FF032113
:101930000A462046FFF74CFF637959B2A94219DBEA
:1019400003F01F05012000FA05F549110E4A01F1C7
:10195000600442F8245042F8215070BD19681A689A
:10196000C1F30221012303FA01F3C2F3004203FA97
:1019700002F383E770BD00BF0000FF07E80A002004
:1019800000D0024080CDF70000E100E0034A08B536
:1019900013680BB15068984708BD00BFD40A0020F7
:1019A000034A08B593680BB1D068984708BD00BFDB
:1019B000D40A002000284FEA011106DA064B00F095
:1019C0000F00C9B2C31819767047044BC9B2C318C7
:1019D00083F80013704700BFFCEC00E000E100E07A
:1019E00021F0604121F07F01094B084310B5986058
:1019F000002460B20F210134FFF7DCFF362CF8D150
:101A00004FF0FF300F21BDE81040FFF7D3BF00BFFC
:101A100000ED00E0024B072258601A60704700BFDB
:101A200010E000E008B5044B1A6801321A60034B5D
:101A30001B6803B1984708BD2C0C0020E40A002065
:101A400070B503782025012408490CE04268013B69
:101A5000D25C56B202F01F0204FA02F296FBF5F6CF
:101A6000603641F826205A1CF0D170BD00E100E03C
:101A700010B544790368022C05D14FF0706112064D
:101A800099605A6010BD43690139C9B253F82130D9
:101A900040F2037118680140196019680A431A601E
:101AA00010BD42790368022A06D1022914BF4FF4FF
:101AB00000514FF000515960704742790368022A83
:101AC00006D1022914BF4FF400514FF00051996024
:101AD000704710B544790139012C0368C9B219D097
:101AE00002D3022C46D133E0052915D9062906D1A7
:101AF0001033002A14BF0422082201212FE00729F5
:101B000006D11033002A14BF04220822082126E03F
:101B1000083912E0012903D8436953F8213001E064
:101B2000022907D11033002A14BF042208224FF4DF
:101B3000807114E004291DD803394369002A14BFB9
:101B40000422082253F821304FF40061103306E0DC
:101B500039B9002A14BF042208224FF40001995019
:101B600010BD012906D1002A14BF042208224FF417
:101B70008001995010BD0000084B10B5044618684C
:101B8000A047074B1868A047064B1868A047064BAC
:101B90001868A047054B1868A04710BDC404002072
:101BA000C8040020CC040020D0040020D40400206D
:101BB000F8B505460468007900F07AFA6B79022BD3
:101BC0000CD10023236023612362236320236360FD
:101BD0004FF002136360FF23236114E0236823F4B2
:101BE000FE5323F03F032360236823600023236414
:101BF000226822F4404222F003022260226842F46A
:101C000040422260236205F10800FFF719FF2026F9
:101C10002A7A01240B4811E0EB68013A99560A4BE5
:101C200091FBF6F70B40002B03DA013B63F01F0337
:101C300001335BB204FA03F340F82730511CEBD1B7
:101C4000F8BD00BF00E100E01F000080A1B10C4B17
:101C50001B68984201D1062910D90A4B1B6898428B
:101C600003D0094B1B68984201D1022900E00129E9
:101C70008CBF002001207047084670470120704744
:101C8000C4040020C8040020CC04002038B5002281
:101C90000D4604460635FFF71CFF002344F82530A7
:101CA00038BD012A38B504460D460CD002D3022AAD
:101CB00020D10BE0FFF7EAFF29462046FFF7FDFEA3
:101CC000207C002112E00022FFF703FF6379204609
:101CD000022B294601D1092200E00022FFF7C8FEAD
:101CE00029462046FFF7DDFE207C0121BDE8384073
:101CF00000F014BC38BD704770477047000000000A
:101D0000012007E0022005E0032003E0042001E0B9
:101D10000520FFE70D4A0121116072B60C4A00212F
:101D20001160074902B4084902B486B005498E46DD
:101D3000704700BFAFF30080AFF30080AFF30080C7
:101D400000000061F9FFFFFFF71C000014ED00E048
:101D500010E000E0AFF30080AFF30080AFF300804D
:101D6000FEE70000044B10B504461868A047034B7B
:101D70001868A04710BD00BF74050020780500203A
:101D800010B50446FFF766FD23684FF400325A6130
:101D900010BD00001B4A4FF00043136013611A4B43
:101DA0001A684FF6FF731363184A12681363184AD0
:101DB00012681363174B47F6FF721B681A63164BC2
:101DC0001A6D012A03D01A6D1AB9A5221A65F122DB
:101DD0001A65124B00221B6840F6FF71C3F8902071
:101DE000C3F888104FF4001159644FF4003199641E
:101DF0004FF4800159644FF4402199645A641F22C2
:101E00009A65704734A002407C05002084050020BC
:101E10008C0500209405002000A002409C050020B5
:101E2000F0B5012505FA01F10468154004F120061A
:101E300014BF04270827B951184EB04204F14000DE
:101E400022D113F0010F0CBF08230423C150A5B108
:101E500002F00200C0B204F13003002814BF0420D5
:101E600008200D04C550616307E013F0010F04F171
:101E700050000CBF08230423195012F0040F0CBFAC
:101E800008230423E150F0BD12F0020F0CBF082616
:101E900004268151002DE8D1EFE700BF9C0500200A
:101EA00030B5052914BF03240724490004FA01F5BD
:101EB000144004FA01F10368186F20EA0500014399
:101EC000196730BD01390138024B41EA0040186002
:101ED000704700BF00B003400E4B19680E4B1A68E4
:101EE0000123C2F3022203FA02F2B1FBF2F20B4920
:101EF0008A4208D90A498A4206D90A4B9A4294BFB3
:101F00000223032300E00023074A0321116042F863
:101F1000043C7047E80A002000D0024080BA8C01DF
:101F200040B7280300B4C40408E00240294BF0B5D0
:101F300098420BD9284B98420AD9284B984209D984
:101F4000274B984294BF0320042004E0002002E0C5
:101F5000012000E00220234B234D1A6B234922F479
:101F60007E4222F4F8721A631A6B4FF0404442F436
:101F70007E4242F4F8721A631A6B1E4622F4E02283
:101F80001A631A6B42EA00421A634FF000422C6057
:101F90000A601F697F0702D41F69BF07F9D037693C
:101FA00017F0040F15D12C601F69FF0703D5032814
:101FB00005D8013002E0032801D80138C0B21F6BF8
:101FC00027F4E0271F631F6B47EA00471F630A607F
:101FD000DFE7F0BDBF0E16023FA5AE02BF3B4703D1
:101FE0007F1D2C0400B0034018B0034014B0034020
:101FF000034B4FF4403200041A6043F8040C70475E
:1020000018B003400A4B1A6822F0070210431A68FE
:102010009200FCD4064B32221860064B1B685A43D0
:10202000054BB2FBF3F2054B013A1A60704700BF53
:1020300000D00240E80A0020002D3101100004E029
:102040000A4A0B4B10B504461A600020FFF7DAFF6E
:10205000084B4FF040421A60E00B0121FFF732FFBE
:102060002046BDE81040FFF761BF00BF002D3101E1
:10207000E80A002018B00340094B1B6820B923F47C
:10208000E06343EA012103E023F4803343EA0141A2
:10209000034B1A689000FCD4014B1960704700BFD5
:1020A00000D00240014B1860704700BFE80A0020D2
:1020B00004284FF0010302D924280AD904E003FAC6
:1020C00000F0074A10607047263803FA00F3054A0B
:1020D00003E0063803FA00F3034A1360704700BFB9
:1020E00014D0024034D0024024D00240244B2DE9C9
:1020F000F0411C684FF6BF6627684FF001083B6A45
:1021000003F4007503F08002AD0845EA520503F0C0
:102110003F021E40154303F47C4345EA930595FABC
:10212000A5F3B3FA83F308FA03F255409A1D54F865
:102130002220FAB1052B06D8616951F823301B69BA
:10214000C3F3002314E0062B04D123681B6903F0BA
:1021500001030DE0072B04D123681B69C3F3C003FF
:1021600006E06169083B51F823301B69C3F3003373
:1021700003B19047002DD2D1BE62BDE8F08100BF0F
:10218000C40400201E4B2DE9F0411C6840F6834634
:1021900027684FF001083B6A03F4406503F08002B2
:1021A000AD091E4045EA121503F003031D4395FADD
:1021B000A5F3B3FA83F308FA03F255409A1D54F8D5
:1021C0002220C2B1012B06D8616951F823301B6966
:1021D000C3F300230DE0022B04D123681B6903F035
:1021E000010306E06169033B51F823301B69C3F327
:1021F000003303B19047002DD9D1BE62BDE8F08114
:10220000C80400201E4B2DE9F0411C6840F68346AF
:1022100027684FF001083B6A03F4406503F0800231
:10222000AD091E4045EA121503F003031D4395FA5C
:10223000A5F3B3FA83F308FA03F255409A1D54F854
:102240002220C2B1012B06D8616951F823301B69E5
:10225000C3F300230DE0022B04D123681B6903F0B4
:10226000010306E06169033B51F823301B69C3F3A6
:10227000003303B19047002DD9D1BE62BDE8F08193
:10228000CC0400207047000038B50B4B1A68146866
:10229000236813F0404505D5916919B1180201D59D
:1022A000884706E0690004D5D26912B15B0200D507
:1022B0009047A56038BD00BFD004002070470000E3
:1022C00038B50B4B1A681468236813F0404505D5E0
:1022D000916919B1180201D5884706E0690004D553
:1022E000D26912B15B0200D59047A56038BD00BF2E
:1022F000D404002030B5C48882880346601C904214
:1023000003D01889A0420BD152B91D891868954293
:10231000805C02D0013292B200E000229A8001E09B
:102320004FF0FF301A681155DA881989914202D0AE
:10233000013292B200E00022DA8030BD2DE9F04196
:1023400090F84D0017460E4601211D469DF8184095
:1023500000F0E4F83046394605220023FFF760FD1F
:102360002846214603220023BDE8F041FFF758BD6F
:1023700070B505460C461646A1B9164B196890F87B
:102380004C30042B144B19D81C680123C4F30224CD
:1023900003FA04F4B1FBF4F424B910486D21104A97
:1023A000FFF7AAFC7600B4FBF6F42B68013C4FF073
:1023B000006244EA04449A611C6570BD1A680124F5
:1023C000C2F3022204FA02F41B68C3F3004304FAC6
:1023D00003F4DFE7E80A002000D00240B457000011
:1023E000CC57000038B5074D2C6E04F0070405E00B
:1023F00095F870100448FFF77DFF013C002CF7D1E1
:1024000038BD00BF00200040EC0A002038B5074D61
:102410002C6E04F0070405E095F870100448FFF7EF
:1024200069FF013C002CF7D138BD00BF00300040EF
:10243000F80A002038B54FF080452C6E04F00704F0
:1024400005E095F870100348FFF754FF013C002C9D
:10245000F7D138BD040B002038B5074D2C6E04F0C1
:10246000070405E095F870100448FFF743FF013CAE
:10247000002CF7D138BD00BF00100040100B002029
:1024800038B54368002205689A80DA803F221A81B5
:1024900000F10C0204461A6090F84C00FFF708FEA9
:1024A0000F4BAB600F4B6B6044F21873AB6040F2A4
:1024B0000D336B603023AB6694F84E3059B200296F
:1024C0000CDB03F01F05012000FA05F54911064A4F
:1024D00001F1600442F8245042F8215038BD00BF99
:1024E00000001A4700000D0300E100E003684FF010
:1024F00080225A6340225A637047036810B5002057
:1025000003E00C5C013083F870401C6EC4F302449D
:10251000032C01D89042F4D110BD0000254B2DE9C9
:10252000F04713F8308003EBC0035B788C46DA1E6B
:10253000D2B2012A3CD9022B07D11F4B1F4E1B6878
:1025400019681F4B1B681F680AE01E4A1E4E12685E
:1025500011681E4A126817681D4A012B08BF1646EB
:10256000144D00231A461C4605EBC0090AE0D9F8B1
:10257000040000EBC50ADAF804A050F8350042EA7E
:102580000A0204430133C3EB0805681CEFD1303164
:10259000BCF1000F0CBF0423082390B207F13007F1
:1025A0004FEA12425850FA5014BF04230823F45043
:1025B000BDE8F087340A0020A857000040A0024080
:1025C000AC570000A057000020A00240A457000014
:1025D00030A0024001498D46014908470080002093
:1025E000E525000008B5114B1A68114B9A4201D03D
:1025F000104907E0104B1149002208E052F8040B83
:1026000043F8040B8B42F9D3F4E743F8042B8B42D5
:10261000FBD3FEF7D7FF00200146024600F007FF7C
:10262000074B0BB1FEF7A8FFFEE700BFA85B000059
:1026300000000020B80A0020B80A0020300C00205A
:1026400079150000F8B50446FFF79AFB0C4B032000
:102650001D780023032B226801D8303200E020329D
:1026600003F00301C90000FA01F705FA01F1166849
:10267000013326EA07063143082B1160EAD1F8BD81
:10268000A00600202DE9F0410446FFF791FA637996
:10269000022B236803D14FF000529A6001E04022E0
:1026A0009A6200254FF001084FF070670EE0022A91
:1026B00001D19F6009E0636953F82530032D94BF71
:1026C00008250425103345F8038035466E1CF6B204
:1026D00020463146FFF7BAFA627923680028E6D12E
:1026E000022A04D14FF000525A60BDE8F081402226
:1026F0005A62BDE8F081000010B500F043FA2420D2
:10270000FFF7D6FC00F060FA0620FFF7D1FC0020AE
:10271000FFF76EFC1B4800F021FA1A48FFF790FC07
:10272000194B18481C68FFF7BDFC184B9C4205D894
:10273000FFF7D2FB0520FFF765FC04E00520FFF75B
:1027400061FCFFF7C9FB124B00211A684FF4A0503F
:1027500042F040021A60FFF743F90B4B18684FF440
:102760007A73B0FBF3F00138FFF754F900F008FA80
:102770000848FFF7F7FA0848FFF7FEF900F0B4FA47
:1027800010BD00BF0080C404E80A0020FF7FC4041D
:1027900000E002404526000085260000FEE737B530
:1027A000456802AC04F8011D284621460122FFF7C6
:1027B000A4FE0028F8D03EBD4368F7B59B680446E8
:1027C00099420D4604D914484221144AFFF794FA5D
:1027D000606883689D421DD8277A114B3F01617A5A
:1027E000FE18367B0901CA18127B00960026019656
:1027F000C958FB58FFF7A2FD6068FFF741FE60680B
:1028000031462A46FFF7B4FD606803B0BDE8F040EA
:10281000FFF76CBE03B0F0BDD8570000F2570000C0
:10282000A40600200E4B0F4A19680F4B5960002177
:10283000197201211A6059720C4B19680C4B5960BE
:102840000E2119720F211A6059720A4B19680A4B2E
:102850001A6014221A72152259605A72704700BF0A
:10286000A4050020205800001C0B0020A805002013
:10287000280B0020AC050020340B0020044B02790B
:102880001B789A4202D1034B1B681860704700BF47
:10289000400B0020440B00201031C9B2132994BF13
:1028A00000230123002210B50260044672B65918B5
:1028B000084B1970084B18600848FFF75DF962B6BD
:1028C000236823B906484521064AFFF715FA204632
:1028D00010BD00BF400B0020440B00207D280000ED
:1028E00030580000495800000268013913685279D5
:1028F00089B2022A06D1FF2928BFFF21C1F1FF01B9
:10290000196170471A6840F2FF3022F47E7222F09B
:1029100007021A601A68814294BF114342EA00011B
:102920001960704703681A685B79022B16BF106C38
:102930004FF6FF7080B2704702681368527912B187
:10294000022A02D17047196570471964704770B543
:10295000164604460D46FFF7E5FF2368B04238BF30
:1029600006465A79B6B2022A07D11B681A6B92B290
:102970001A631A6B42EA064605E0013D5B69EDB257
:1029800053F8253076001E6370BD38B505460C46F9
:1029900003E02B6828461B68984714F8011B0029A0
:1029A000F7D138BDF8B504460D461746002605E0B8
:1029B0002368A95D1B68204698470136BE42F7D1BF
:1029C000F8BD08B503681B68984708BD08B50368DB
:1029D0005B68984708BD10B50D210446FFF7F1FF6D
:1029E00020460A21BDE81040FFF7EBBF10B50446B2
:1029F000FFF7ECFF2046BDE81040FFF7ECBF2DE9E4
:102A0000F0471F46164690B056EA070281469DF8E9
:102A1000603005D1302110B0BDE8F047FFF7D1BFDD
:102A20000024DDB2A046304639462A46434600F02F
:102A30002DFDEA4604F80A203046394643462A4628
:102A400000F024FD06460F46013456EA0703EAD19A
:102A50000EE00AEB040313F8011C092901D83031F8
:102A600000E03731C9B24846FFF7ABFF013C00E058
:102A7000EA46002CEDD110B0BDE8F08710B5029900
:102A800021B90368D1B21B68984710BDC9B2029141
:102A9000BDE81040FFF7B3BF07B5002300920A4618
:102AA000FFF7ECFF0EBD10B50446FFF7F5FF20461B
:102AB000BDE81040FFF78FBF382870B50D461ED80F
:102AC0000F4B03EB00104468467B04B126B90D4858
:102AD0002E210D4AFFF710F96379022B08D12368E4
:102AE0001A6B92B21A631A6B42EA05451D6370BDF8
:102AF0006369013EF6B253F826306D001D6370BD68
:102B0000A40600205B5800006A58000038280ED840
:102B1000074B00011A18127B1B584FF4803000FA43
:102B200002F21B681968C94389B20A43DA60704728
:102B3000A40600201C234343013B18460138FDD85E
:102B4000704738B50546002404E04FF47A70FFF76B
:102B5000F1FF0134AC42F8D138BD000008B5074B95
:102B6000984294BF002101210120FFF785FA00203F
:102B70000146BDE80840FFF77FBA00BF80F0FA02C7
:102B8000FFF708B908B50C4B00221A602720FFF7A1
:102B90008FFA0A4BA5221A60DD221A600720FFF780
:102BA00087FA074B4FF000421A60064B4FF6FF7250
:102BB0001B681B681A6308BD20D002403000034028
:102BC00034A00240A05700001E4B10B51C6809211C
:102BD000204604220023FFF723F90A2104220023C0
:102BE0002046FFF71DF92620FFF762FA164B082250
:102BF000C3F880211A60154B8021196014494FF4E5
:102C000080230B60134B4FF4803018601A604FF034
:102C100080420A604FF400321A604FF000421A609E
:102C20001420FFF78EFF0C4B1A6812F0200F0A4A8F
:102C3000FAD01368DB05FCD50220BDE81040FFF791
:102C400080BF00BFA057000000E100E014900240E8
:102C50000890024004900240109002403828F8B5D5
:102C600038D8082911D8DFE801F0171A050805053A
:102C7000050B0D000024052213E00024042210E0BF
:102C800001240AE0012422460BE01348134A5E2186
:102C9000BDE8F840FFF730B80024032201E000242B
:102CA00001220F4E0701BD19B859297B0023FFF7F8
:102CB000B7F8686818B1697B2246FEF7F2FF094B46
:102CC000B8591B68984205D1297B6200BDE8F840DD
:102CD000FFF7E6B8F8BD00BF7C5800009D58000023
:102CE000A4060020B057000070470000C24AF0B5AB
:102CF0001168C24BC24CC34A256812681868C24C9E
:102D0000C24BC34EC3F8E850C3F8F850C3F808519B
:102D1000C3F81851C3F82851C3F838511860186126
:102D2000186218631964186518661967C3F880007B
:102D3000C3F89000C3F8A000C3F8B000C3F8C00007
:102D4000C3F8D000C3F8E020C3F8F020C3F8002196
:102D5000C3F81021C3F82021C3F83021C3F8402163
:102D6000C3F85021C3F858512768AA4C3668246824
:102D7000C3F8B861C3F87441C3F88441A64CC3F8E2
:102D8000C8612468C3F8D861C3F88852C3F8985260
:102D9000C3F86021C3F86471C3F87021C3F88021BF
:102DA000C3F89041C3F8A041C3F8B011C3F8C011F3
:102DB000C3F8D011C3F8E011C3F8F011C3F8001242
:102DC000C3F81012C3F82012C3F83012C3F840122F
:102DD000C3F85012C3F86012C3F87012C3F880220F
:102DE000C3F89022C3F89472C3F8A042C3F8A85263
:102DF000C3F8B852C3F8C852C3F8D852C3F8E8525F
:102E0000864DC3F8F8622D68C3F80863C3F804530D
:102E1000C3F81453824DC3F818632D68C3F82863B0
:102E2000C3F82453C3F834537E4DC3F83863C3F852
:102E30004863C3F85863C3F86863C3F87863904283
:102E40004FF48036C3F8B042C3F8C042C3F8D04252
:102E5000C3F8E042C3F8F042C3F80043C3F810439C
:102E6000C3F82043C3F83043C3F84043C3F850438A
:102E7000C3F86043C3F87043C3F880232E601D4637
:102E800001D0884206D12B7B0125904205FA03F33D
:102E900008D005E01B7B0125103305FA03F304E09D
:102EA000884202D1594D2D7F02E0584D2D7F1035BB
:102EB000012606FA05F55B4E2B438A42736003D068
:102EC000131A18BF012300E00023574D01262B6081
:102ED0004E4B8A4293F8FC7093F8ECC006FA07F761
:102EE00006FA0CF647EA06066E6005D0824214BF69
:102EF00020264FF4007601E04FF400764B4D93F816
:102F00005C7193F84C312E60012606FA07F706FA39
:102F100003F68A4247EA06066E6004D0824214BF76
:102F20000825002500E00025414B01261D60374D96
:102F30008A4295F81CC195F80C7106FA0CFC06FA49
:102F400007F74CEA070795F82CC106FA0CF647EA92
:102F500006065E601E4604D0824214BF1023002382
:102F600000E0002395F83C71B360012303FA07F7F2
:102F7000F760304E1027376095F82CC295F81C7218
:102F800003FA0CFC03FA07F74CEA070795F83CC272
:102F900095F84C5003FA0CFC03FA05F547EA0C07C8
:102FA0007760F5602027244DB760802690422E6020
:102FB000164D01D0884207D195F8DC3001279042A8
:102FC00007FA03F308D005E095F8DC70103703FA30
:102FD00007F309E0884207D195F8CC5001269042CA
:102FE00006FA05F62CD029E0084D95F8CC600125AD
:102FF000103605FA06F62AE0A8570000AC57000084
:1030000074050020A0570000C8040020A40600207A
:1030100078050020CC040020A4570000D004002034
:10302000D4040020880B0020A80B0020900B002067
:10303000480B0020580B0020680B0020884206D166
:103040007A4D012795F8BC5007FA05F706E0774D51
:1030500095F8BC700125103705FA07F7744D3B430E
:103060001E434FF48073AB60704B90426E6093F8D8
:10307000AC3002D0884218BF1033012606FA03F3A1
:103080008A42EB6005D0824214BF4FF440430023D4
:1030900000E00023674D01262B60644B8A4293F8C1
:1030A0006C7193F89CC206FA07F706FA0CF647EA29
:1030B00006066E6005D0824214BF4FF440360026EB
:1030C00000E000265C4D93F88C7193F87C312E6003
:1030D000012606FA07F706FA03F68C4247EA0606C7
:1030E0006E6005D0844214BF4FF00063002300E0FF
:1030F0000023524D94422B604C4B93F80C3302D07A
:103100008C4218BF1033012606FA03F38C426B6021
:1031100005D0844214BF4FF08053002300E0002309
:10312000464D9442AB60414B93F81C3302D08C4225
:1031300018BF1033012606FA03F38C42EB6005D06A
:10314000844214BF4FF00053002300E000233C4DA5
:1031500094422B60354B93F82C3302D08C4218BF2D
:103160001033012606FA03F38C426B6005D08442CB
:1031700014BF4FF08043002300E00023304D944201
:10318000AB602A4B93F83C3302D08C4218BF10330B
:10319000012606FA03F3EB602A4D02238A426B7282
:1031A00002D0824218BF00238A426B7404D082424C
:1031B0000CBF0223002300E00223224D8A426B76DB
:1031C00004D082420CBF0223002300E0022385F8D2
:1031D000213002238A4285F8293085F8313002D027
:1031E000824218BF0023174D8A4285F8413004D02F
:1031F00082420CBF0222002200E002228C4285F8AB
:10320000492004D084420CBF0222002200E00222A6
:103210000C4B8C4283F8512004D084420CBF022016
:10322000002000E0022083F85900F0BDA406002031
:10323000680B0020980B0020A00B0020780B0020CA
:10324000B00B0020340A0020002380F8523080F8B0
:10325000533080F8303080F83130704700207047AC
:1032600070470000014B0360704700BFE05800004A
:103270000448054B0549064A0360192380F8543079
:1032800000F0FEB8C00B0020F058000065320000CE
:103290000000002008B508484FF4E131FFF78CFA30
:1032A00006484FF4E131FFF787FA05484FF4E13162
:1032B000BDE80840FFF780BA1C0B0020280B002057
:1032C000340B002013B51C4C052268461B4901F045
:1032D00015FC20466946FFF779FB20461849FFF7A1
:1032E00085FB20461749FFF781FB20461649FFF76B
:1032F0006DFB164B0A2219682046FFF7D4FB2046C7
:103300001349FFF773FB20461249FFF76FFB204676
:103310001149FFF76BFB20461049FFF767FB20467A
:103320000F49FFF763FB20460E49FFF75FFB20467E
:103330000D49FFF75BFB1CBD1C0B0020F85800007B
:10334000375A0000495A0000705A0000E80A00206D
:10335000815A0000AD5A0000C85A0000D35A00003C
:10336000DC5A0000F45A00000E5B000070B50E4EEF
:1033700004243068FFF7E5FB0D20FFF7C7FB013C95
:103380003068FFF7DEFBE4B20D20074DFFF7BEFB10
:10339000002CEED12A683223183292FBF3F103FBA2
:1033A000112301332B6070BDB40A002010B50D202D
:1033B0000021FFF753FCFFF76DFFFFF783FF292084
:1033C0000721FFF74BFC43F6FF7416200721FFF798
:1033D00045FC29202146FFF76FFB21460D4C1620A6
:1033E000FFF76AFB204642F21071FFF7A5FA20466C
:1033F00001214FF47A62FFF7AAFA204602214FF426
:103400007A62FFF7A4FA20460121BDE81040FFF7D9
:103410006BBA00BF1C0C002008B5FFF7A7FF40F2F5
:10342000EE20BDE80840FFF78CBBFFF765B908B593
:10343000FFF7BCFFFFF7F0FFFCE7000008B5012134
:103440000A48FFF729FA02210948FFF725FA032164
:103450000848FFF721FA04210748FFF71DFA07483B
:103460000521BDE80840FFF717BA00BF180C00207F
:103470001C0C0020200C0020240C0020280C002014
:1034800003460846194601F02FBB00BF4BB942B9AD
:10349000002908BF002802D04FF0FF31084601F094
:1034A00071B882B0EC462DE9005000F01DF8DDF84F
:1034B00004E002B00CBC70472DE97043154680460D
:1034C00089461C4601F060F805FB01F6A5FB0023C8
:1034D00000FB0464E318069CB8EB020269EB0303EB
:1034E000C4E90023BDE87083F8B5144606460F46CC
:1034F0001D4601F0ADF900FB05F5A0FB042304FB1C
:103500000154E318069CB21A67EB0303C4E90023D5
:10351000F8BD00BF036803B11B181846704700BF11
:1035200003685A004CBF43F0004323F00043C01827
:10353000704700BF2DE9F84F0446914641B301F1B1
:10354000FF3BDA46002707EB0A0000EBD0756D1051
:1035500004EBC5063046FFF7E3FFAB45804610D0CD
:10356000691C04EBC100FFF7DBFF0138C84504D933
:10357000BD4209D005F1FF3AE5E7484505D26F1C89
:10358000E1E74FF0FF30F1E700263046BDE8F88F65
:103590000E463046BDE8F88F30B52B4B83B004465D
:1035A0008D1E002B49D0284601A9AFF300800346A9
:1035B000002822D02A4618460199FFF7BBFF05468E
:1035C00000281DD0FFF7ACFF6B68A064012B10D062
:1035D000281D002B22DBFFF7A3FF0021E0642165FB
:1035E0000368002B0FDBFFF79BFF2061002003B077
:1035F00030BD002323610520F9E720610920F6E7AB
:1036000020610920F3E7C3F3036058B101280CD00F
:1036100002280ED0002020610920E8E70122E064A2
:103620002265DDE7094B2361E1E7094A00202261B9
:10363000DDE7084900202161D9E7074A0749134619
:10364000881AC2100192B5E7000000005D3B00003F
:10365000593B0000553B0000E84B0000D84C0000EF
:10366000036810B50446D80706D4990704F148004A
:1036700009D500F009FD23685A0709D518070ED5AA
:10368000D90613D510BD00F0F7FC23685A07F5D40E
:1036900004F1D00000F000FD23681807F0D404F511
:1036A000D87000F001FD2368D906EBD404F50C7046
:1036B000BDE8104000F03CBD2DE9F047ADF5916D3F
:1036C00002AC0F1D261D054691460FCF0FC60FCF2A
:1036D0000FC60FCF0FC697E80F00D5F80C80002754
:1036E000D5F818A086E80F00216C28462760FFF760
:1036F00053FF0646B94514BF4FF00A094FF00909B8
:10370000FEB1A16B49F01009616401208DE810043D
:1037100049462A462B46C04700282BD1002E2AD1E5
:10372000204692A94FF4107201F0E8F9082F28D131
:10373000216C2846FFF730FF06464FF00909002E9E
:10374000DFD1206C21464FF41072686192A801F01D
:10375000D5F92F69294692AA4846B847A09B074643
:10376000636401208DE8100449462A462B46C04771
:103770000028D3D00926304622B00DF5806DBDE873
:10378000F087072FF6D1201D00F06AFC38B50446FB
:103790000D46296C2046FFF7FFFE50B92A6C012028
:1037A0006261236921462A4698470828F1D00728F4
:1037B00001D0FEF7A2FA281D00F052FC11B933B176
:1037C0000220704704298CBF0220012070470F2A75
:1037D00001D90220704700EB820042681846009B26
:1037E0001A60704710B50A4684B000210B4603AC3E
:1037F0000094FFF7E3FF039804B010BD11B933B193
:103800000220704704298CBF0220012070470F2A34
:1038100001D902207047009900EB8202096818461E
:103820005160704700B585B004AB43F8042D0A46DB
:10383000002100930B46FFF7E1FF05B000BD00BF7C
:103840002DE9F04FCD6C0C4655F8041B8BB0174694
:1038500000F008021E46039200F003080795002BB3
:1038600040F0E08009020691216D8DF8213003239C
:10387000B8F1020F8DF8203008BFA56B11F00103DD
:1038800040F0E480019304F158030293D5F80090CE
:10389000B9F1000F00F0DC80022E00F0BF80B5F817
:1038A0000090B5F802A00435A26C0F212AF0010B9C
:1038B00038469344FFF796FF834518D829F0010C4A
:1038C000E3440AF0010A09F00103584543EA4A09B2
:1038D0002CBF00200120B9F1010F12D032D2B8F173
:1038E000000F02D0002840F017810435CEE70AF01F
:1038F000010A09F0010343EA4A090020B9F1010F66
:10390000ECD1B8F1000F40F0C880C8B16B68D5F8B1
:1039100000909A1C19D0029A013309920DD0281DEB
:10392000FFF7F8FD4FEAD972014609AB2046AFF325
:103930000080002800F0EC80099A002A40F0CC803A
:103940000835A3E7B9F1020F03D009200BB0BDE899
:10395000F08F2B6823F000420092B8F1000F40F086
:103960008380002853D00398002840F0B28000984C
:10397000002800F0B180009B05F1040ADB07DDF8A8
:103980000C9010D4029950460991FFF7C3FD039A99
:10399000014609AB2046AFF30080002833D10AF17D
:1039A000040A4FF00109CDF81080AB46B8465046E6
:1039B0000596029F11E000998E4200F0C0800997A1
:1039C000FFF7A8FD5246014609AB2046AFF3008041
:1039D000B14698B9281D06F10109051D0997FFF7A1
:1039E00099FD09AB014600222046AFF300808246D4
:1039F00009F101062846BAF1000FDCD04746059EC2
:103A0000DDF810805D46009A4A4565D02B68002B92
:103A10007CDB0099481C05EB800537E7D5F804A04E
:103A2000083541E70B04C1F30740216D0222B8F1CC
:103A3000020F069305EB800508BFA56B11F001038B
:103A40008DF821008DF820203FF41CAF002001905C
:103A5000384606A900F004FC00287FF476AF019AEE
:103A6000002A43D1082071E70D213846D4F8209070
:103A7000FFF7B8FE8145C9D1A26A9542C6D1009828
:103A8000291D00220423A062E26223636163286887
:103A9000002857DB01220192BBE70D213846D4F8FC
:103AA0002090FFF79FFE81457FF44AAFA16A8D42C7
:103AB0007FF446AF2846FFF733FD0F210246384614
:103AC000FFF7B0FE384600212246FFF7ABFE072085
:103AD0003CE7009900299AD138460D21FFF782FE74
:103AE000099B20626362A56206202FE70F213846FA
:103AF000FFF778FE0E2102463846FFF793FE384660
:103B00000F21134AFFF78EFE07201FE7043580E7D9
:103B1000CDF824800835B9E62846FFF701FD0435C5
:103B20000646A5632046AFF3008000283FF40DAFA2
:103B300038460F213246FFF775FE072006E75D463F
:103B40004746C9E7009B591C05EB8100B3E700BF5E
:103B500000000000022373E6012371E600236FE6F4
:103B60002DE9F0470446E8B004290CD8DFE801F05D
:103B7000390392940F00150C012B96B200F0788156
:103B8000052B00F0C880022068B0BDE8F087002B4C
:103B9000F9D1102AF7D82368D90600F1738164A8F7
:103BA000019200F0CFFA019AA36BD00744BF53F8FB
:103BB000040B6490910744BF53F8041B65915007B0
:103BC00048BF53F8041B64A848BF6691110748BF5B
:103BD00053F8042BA36348BF679200F0A9FA0020B2
:103BE000D2E7002BCFD1A36BD00791B244BF53F8DB
:103BF000042B62608A0744BF53F8042BA260480775
:103C000044BF53F8042BE2600A0744BF53F8042B67
:103C10002261C80644BF53F8042B62618A0644BF80
:103C200053F8042BA261480644BF53F8042BE26109
:103C30000A0644BF53F8042B2262C80544BF53F858
:103C4000042B62628A0544BF53F8042BA262480524
:103C500044BF53F8042BE2620A0544BF53F8042B17
:103C60002263C80444BF53F8042B626311F400506C
:103C70001CBF53F8042BA2634A0444BF53F8042B1F
:103C8000E2630A0444BF53F8042B2264002840D1A5
:103C9000A36379E7012077E7032B7FF474AF160C59
:103CA00095B2AA19102A3FF66EAF2368180700F1E3
:103CB0000A8144A800F01AFAA76B4FEA450E3B466A
:103CC0000DB30EF1FF3C44A953F8040B01EBC606FB
:103CD00062460CF0010146F8040B92B129B153F889
:103CE000041B013A46F8041B0BD0184650F8045B3D
:103CF000314641F8045B5D68031D75600E1D023A94
:103D0000F3D107EB8E0344A8A36300F0CDF90020A4
:103D10003AE7002038E777192022BA42FFF433AFA0
:103D2000012B00F0A8800F2D40F2A8803746F6B195
:103D3000052B7FF428AF0F2D11D82268D0070ED5A0
:103D400022F00101052B216000F0DA8022F003024D
:103D5000204640F8482B019300F092F9019B1FB1D7
:103D60002268510700F1B780012B00F0BE800F2DB3
:103D700074D9002F40F09F80D4F83890002EC846A8
:103D80002EDD49464FEA46080DF1080C51F8046B48
:103D90000CEBC50208F1FF3000F0010A42F8046B99
:103DA000A8F1020CD0B1BAF1000F08D051F8040B01
:103DB0000CF1FF3CBCF1FF3F42F8040B0ED00E4665
:103DC00056F804AB104640F804AB4968ACF1020C5D
:103DD0005160311D021DBCF1FF3FF0D109EB880895
:103DE0009FB3102D2CBF2E46102668AA414602EB29
:103DF000C60A4FEA470951F8046BAAF5C87209F1DF
:103E0000FF3000F0010A42F8046BA9F1020CD0B1B6
:103E1000BAF1000F08D051F8040B0CF1FF3CBCF1D3
:103E2000FF3F42F8040B0ED00E4656F804AB104686
:103E300040F804AB4968ACF1020C5160311D021D21
:103E4000BCF1FF3FF0D108EB8908012B2BD00F2DDF
:103E5000C4F8388008D9FFB9384695E602A801931E
:103E600000F016F9019B84E702A800F00DF9F2E7D3
:103E70007719102251E70F2D3FF685AE102F10D97C
:103E8000103F55E723F01003236004F50C700192F6
:103E900000F058F9019A82E624A800F0FDF800200D
:103EA00072E6002747E708F1040302A8A36300F0C5
:103EB000E3F8002068E624A80193C5F1100600F09D
:103EC000EFF8019B58E723F0080704F5D870276046
:103ED00000F00CF9EDE622F00401204640F8D01B7A
:103EE000019300F0DDF8019B3EE702A8019300F08A
:103EF000C7F8019B002F3FF43FAFC5F110063BE729
:103F000041F00201204640F8481B019300F0C0F840
:103F1000019B24E7406C7047F0B50D46C96BADF5C9
:103F2000117D296401AE2F1D04460FCF0FC60FCFA0
:103F30000FC60FCF0FC697E80F0086E80F004FF0AF
:103F4000FF33009310992046FFF726FB58B92669E6
:103F500021466A46B04708280646F3D06846FFF770
:103F60007FFB062E03D009200DF5117DF0BD204604
:103F70002946FFF70BFC00BF10B4DC6BC160826107
:103F8000194600221C6410BCFFF796BB38B5426985
:103F9000C36804460D460A6423B10122FFF78CFB77
:103FA000FDF7ABFE0369214602202A469847072801
:103FB00003D0082804D0FDF7A0FE281D00F050F81B
:103FC00020462946FFF7E2FBC36823B1CA6B0A64A7
:103FD0000022FFF771BB9FE7704700BF08B58368F9
:103FE00001460BB10120984708BD00BFF0B5D46B66
:103FF000ADF5277D146401AE171D05460C460FCFA5
:104000000FC60FCF0FC60FCF0FC697E80F0086E879
:104010000F004FF0FF330093109990A8FFF7BCFA00
:10402000034690AA68460C21BBB9FFF7FBFB21466B
:104030006846A847064690A908206A466EB9949B30
:1040400098470528064601D00928E5D16846FFF7BC
:1040500007FB30460DF5277DF0BD0926F6E700BFCA
:1040600000F1340191E838009C46A6464CF8045D06
:1040700090E8FF0FE54600BD90EC210B704700BFB4
:1040800080EC210B704700BF90EC200B704700BF05
:1040900080EC200B704700BFD0EC200B704700BFB6
:1040A000C0EC200B704700BFF0EC0201F0EC0211F5
:1040B000F0EC0221F0EC0231F0EC0241F0EC0251A4
:1040C000F0EC0261F0EC0271F0EC0281F0EC029194
:1040D000F0EC02A1F0EC02B1F0EC02C1F0EC02D184
:1040E000F0EC02E1F0EC02F1704700BFE0EC0201FD
:1040F000E0EC0211E0EC0221E0EC0231E0EC0241E4
:10410000E0EC0251E0EC0261E0EC0271E0EC0281D3
:10411000E0EC0291E0EC02A1E0EC02B1E0EC02C1C3
:10412000E0EC02D1E0EC02E1E0EC02F1704700BF0C
:10413000B0FC0181B0FC0191B0FC01A1B0FC01B167
:10414000704700BFA0FC0181A0FC0191A0FC01A16F
:10415000A0FC01B1704700BFEC4600B52DE900504E
:104160002DE9FF1F4FF000032DE90C0001A9FFF717
:10417000D3FEDDF840E012B0704700BFEC4600B55A
:104180002DE900502DE9FF1F4FF000032DE90C0031
:1041900001A9FFF7FBFEDDF840E012B0704700BF59
:1041A000EC4600B52DE900502DE9FF1F4FF000034C
:1041B0002DE90C0001A9FFF707FFDDF840E012B080
:1041C000704700BFEC4600B52DE900502DE9FF1FF8
:1041D0004FF000032DE90C0001ABFFF7CDFEDDF839
:1041E00040E012B0704700BFEC4600B52DE900502A
:1041F0002DE9FF1F4FF000032DE90C0001AAFFF786
:10420000F5FEDDF840E012B0704700BF027A0346C9
:104210001AB9427A42B9B02070470068013A0102E7
:104220001A72000E196070474168501E587251F89A
:10423000040B0322596001021A72000E19607047C4
:1042400010B5002184B00C220DEB02040B46009443
:10425000FFF7B4FA039804B010BD00BFF0E700BF49
:104260002DE9F043064685B00D464FF000094FF4A6
:104270007F672846FFF7CAFFB028044600F0B180E8
:1042800010F0800120D000F0F003802B75D0902B2F
:1042900037D0A02B45D0B02B56D0C02B00F0868055
:1042A00000F0F800D0280BD104F007035A1C42F4A8
:1042B0000022304601210523FFF752FC0028D8D008
:1042C000092005B0BDE8F0834FEA800203A85FFA39
:1042D00082F800900D220B463046FFF76FFA039BE1
:1042E000600608F104084CBFC8EB0303434403AC69
:1042F00003930094002130460D220B46FFF77EFA0F
:10430000B7E700F00F020D2ADAD00F2AD8D000212B
:1043100003AC009430460B4603ACFFF74FFA009411
:10432000E8E7C24302F0070C47FA0CF0210700F45B
:104330007F6248BF42F48042002130460B46FFF7BF
:104340000FFC0028BCD194E7B1285ED0B2286FD012
:10435000B32800F0968000F0FC0CBCF1B40F46D0FE
:1043600000F007014A1C42F40022012130460B46AE
:10437000FFF7F6FB0028A3D17BE72846FFF746FFAF
:10438000210240EA0104B4F5004F99D02305002131
:104390001A0C30460B462401FFF7E2FB00288FD1B0
:1043A00014F4004F18BF4FF0010962E7C62873D01C
:1043B000C72800F0848000F0F801C02900F0928046
:1043C000C82800F0A680C9287FF47AAF2846FFF7F6
:1043D0001DFF00F00F0100F0F0024B1C43EA023217
:1043E00067E7B9F1000F00F08380002069E700F073
:1043F0000300431C022143F4802230460B46FFF7A2
:10440000AFFB00287FF45CAF33E72846FFF7FEFEE2
:10441000024600283FF454AF10F0F0017FF450AF93
:1044200030460B46FFF79CFB00287FF449AF20E79E
:1044300000210D220B4603AC30460094FFF7BEF975
:104440002846FFF7E3FE022402060DD500F07F00A8
:1044500000FA04FE039B284603EB0E010391FFF7CD
:10446000D5FE07340306F1D400F07F0E0EFA04F4F3
:10447000039903AB01F5017C0CEB0402009303925A
:1044800038E72846FFF7C2FE00F00F014A1C00F093
:10449000F00042EA003268E72846FFF7B7FE00F076
:1044A0000F02531C00F0F00043EA003203213046B3
:1044B0000B46FFF755FB00287FF402AFD9E62846EC
:1044C000FFF7A4FE024600283FF4FAAE10F0F00316
:1044D0007FF4F6AE30460421FFF742FB00287FF45C
:1044E000EFAEC6E600F00F03581C40F42022DDE7D3
:1044F00003AC49460E224B4630460094FFF75EF966
:10450000304649460F224B460094FFF777F948465C
:10451000D7E62846FFF77AFE00F0F00200F00F0021
:104520001032411C41EA0232C3E600BF10B5C26C32
:1045300084B0032054688DF80C00D379240208322B
:10454000084601A9019402928DF80D30FFF788FE0C
:1045500004B010BD08B5FFF781FE806C08BD00BF38
:1045600008B5FFF77BFEC16CC87901EB800303F14E
:10457000080008BD08B5FDF7C0FB00BF08B5FDF792
:10458000BCFB00BF704700BF2DE9F00F00291D469E
:10459000C0F29D800024002DC0F2948007460D4695
:1045A00016469C46002B3DD18A4253D9B2FA82F37B
:1045B00043B1C3F1200620FA06F501FA03F19A404F
:1045C00098402943130CB1FBF3F697B203FB161185
:1045D00007FB06F54FEA104C4CEA01418D4209D920
:1045E000891806F1FF3C80F014818D4240F2118160
:1045F000023E8918491BB1FBF3F503FB151307FBBA
:1046000005F780B240EA03439F4207D9691E9B1811
:1046100080F005819F4240F20281023D45EA064258
:10462000002303E08B420AD900231A46104619469C
:1046300014B1404261EB4101BDE8F00F7047B3FA9D
:1046400083F3002B40F087808C4501D38242ECD865
:104650000122EBE712B90127B7FBF2F2B2FA82F6B8
:10466000002E3AD1891A150C1FFA82FC0123B1FBE6
:10467000F5F705FB17110CFB07F64FEA104848EA5F
:1046800001418E4207D9891807F1FF3802D28E42C4
:1046900000F2DA804746891BB1FBF5F605FB1611DF
:1046A0000CFB06FC80B240EA0140844507D9711E2C
:1046B000821880F0B080944540F2AD80023E46EA18
:1046C0000742B3E7E443524263EB430366E74042E9
:1046D00061EB41014FF0FF345DE7B240C6F12005C8
:1046E00021FA05F320FA05F901FA06F1150CB3FBDE
:1046F000F5F805FB18371FFA82FC0CFB08F349EAB2
:1047000001094FEA194141EA0747B040BB420AD9C3
:10471000BF1808F1FF3180F09580BB4240F29280D3
:10472000A8F10208BF18FE1AB6FBF5F305FB1367E4
:104730000CFB03F61FFA89F949EA07418E4206D9B4
:104740005F1E891878D28E4276D9023B8918891B60
:1047500043EA08438BE7C3F1200122FA01F80CFA7F
:1047600003F725FA01FB20FA01F205FA03F548EAFE
:10477000070C4FEA1C48BBFBF8F908FB19B71FFAF6
:104780008CFA0AFB09FB15432A0C42EA0747BB4592
:1047900006FA03F609D917EB0C0709F1FF324FD2DD
:1047A000BB454DD9A9F102096744CBEB0701B1FB29
:1047B000F8F208FB12170AFB02FAADB245EA07410C
:1047C0008A4507D9551E11EB0C0137D28A4535D9D8
:1047D000023A614442EA09421FFA86F84FEA124C53
:1047E00008FB0CF7360C95B208FB05F806FB0575BF
:1047F00006FB0CFC05EB1845AF4288BF0CF5803C6E
:10480000CAEB01010CEB1546B14212D309D00023CB
:104810000CE76646EEE60E4646EA074206E70D4618
:10482000FCE600FA03F31FFA88F808EB0545AB42F3
:10483000EDD2013A0023F9E63B4688E72A46C9E76C
:104840009146B2E788466EE7023F891823E700BF2A
:104850002DE9F007144605460E46002B3FD18A424B
:104860004AD9B2FA82F343B1C3F1200025FA00F22B
:1048700001FA03F69C409D401643230CB6FBF3F16E
:10488000A0B203FB116C00FB01F22F0C47EA0C46AF
:10489000B24208D94F1E361980F0FF80B24240F272
:1048A000FC8002393619B61AB6FBF3F203FB126329
:1048B00000FB02F0ADB245EA0343984207D9561E09
:1048C0001B1980F0EC80984240F2E980023A42EAFB
:1048D0000142002310461946BDE8F00770478B429D
:1048E00043D8B3FA83F4002C42D18B42234601D340
:1048F00082423BD80122EDE712B90127B7FBF2F45F
:10490000B4FA84F2002A40F08A80091B260CA7B270
:104910000123B1FBF6F006FB101107FB00F24FEA92
:10492000154C4CEA01418A4207D9091900F1FF3CB4
:1049300002D28A4200F2D4806046C2EB010CBCFB7A
:10494000F6F206FB12C107FB02F7ADB245EA0145DC
:10495000AF4207D9511E2C1980F0A380A74240F224
:10496000A080023A42EA0042B4E700231A46B1E7C7
:10497000C4F1200703FA04F822FA07F321FA07F931
:1049800020FA07FA01FA04F143EA08031E0CB9FB06
:10499000F6FC06FB1C991FFA83F808FB0CF74AEAA1
:1049A000010A4FEA1A4545EA0945AF4202FA04F9FD
:1049B00005D9ED180CF1FF32C0F087809446EA1B50
:1049C000B2FBF6F706FB172608FB07F81FFA8AFA70
:1049D0004AEA0641884503D97A1EC91870D317469A
:1049E00047EA0C42170C1FFA89FC0CFB07F695B23C
:1049F0004FEA19430CFB05FC03FB056503FB07F3BA
:104A000005EB1C45AE4288BF03F58033C8EB0101BE
:104A100003EB1543994250D347D000235AE7944003
:104A2000C2F1200621FA06F520FA06F901FA02F190
:104A3000260CB5FBF6F806FB1855A7B207FB08F3E2
:104A400049EA01094FEA194141EA054C634500FA78
:104A500002F509D91CEB040C08F1FF323ED2634584
:104A60003CD9A8F10208A444C3EB0C02B2FBF6F354
:104A700006FB132007FB03F21FFA89F949EA0041FC
:104A80008A4206D9581E091926D28A4224D9023BE5
:104A90000919891A43EA08433BE7394603E73246D6
:104AA00015E70A4642EA004214E700FA04F01FFA4A
:104AB0008CF101EB0545A842AFD2013A002309E78A
:104AC00088458CD9023FC9188AE7AF427FF676AF96
:104AD000ACF1020CED1872E70346DAE79046C3E743
:104AE0000238091929E700BF10B40C4613460146E5
:104AF0002246022010BCFCF789BD00BF0F2AF0B48B
:104B00003AD941EA00039B0738D10C4603461546C3
:104B10002668103D1E6066685E60A6689E60E66856
:104B20001034DE6010330F2DF2D8A2F1100424F0FF
:104B30000F0402F00F021034032A00EB0403214497
:104B400011D90E461D46144656F8047B043C032C2E
:104B500045F8047BF8D8141F24F00304043402F051
:104B6000030209191B192AB111F8014B013A03F884
:104B7000014BF9D1F0BC70470346F4E70346F3E775
:104B8000A1B20181B0B0AE010000000008B1018106
:104B9000B0B000840000000008B10181B0B0008412
:104BA0000000000008B10181B0B0008400000000E6
:104BB000F8B500BFF8BC08BC9E467047B9160000A7
:104BC0003D15000025280000ED2C0000713200008A
:104BD0002B3400003D340000F8B500BFF8BC08BC21
:084BE0009E4670471915000004
:104BE800ECD9FF7F01000000C8E8FF7FB037848060
:104BF800F0E8FF7FAB08B18014E9FF7F01000000F7
:104C080090E9FF7FB0A9028050EAFF7FB0B0A8808A
:104C1800A0EAFF7F64FFFF7F6CEBFF7FA908B180EC
:104C280094EBFF7F0100000010ECFF7FB0AF0A801B
:104C38001CEFFF7F0100000020EFFF7FAE3F2780C1
:104C4800CCF2FF7F01000000C8F2FF7FAB10B280FA
:104C580020F3FF7F010000002CF3FF7FA908B1803B
:104C680060F3FF7F010000006CF3FF7F18FFFF7FF8
:104C780074F3FF7FAB26B280E0F3FF7F01000000F2
:104C8800B8F5FF7FB0A80380CCF5FF7F01000000D6
:104C9800C8F5FF7FB0AD04808CF8FF7FB0A8038013
:104CA800ACF8FF7FECFEFF7FB0F8FF7FF0FEFF7FE0
:104CB800BCF8FF7F01000000C8F8FF7FB0B0A780F4
:104CC80088FBFF7FB0B0A68018FEFF7F01000000C0
:104CD800000000000000000000000000F4020020B6
:104CE8005C030020C4030020000000000000000056
:104CF80000000000000000000000000000000000AC
:104D080000000000000000000000000090570000B4
:104D1800000000000000000000000000000000008B
:104D2800000000000000000000000000000000007B
:104D3800000000000000000000000000000000006B
:104D4800000000000000000000000000000000005B
:104D5800000000000000000000000000000000004B
:104D6800000000000000000000000000000000003B
:104D7800000000000000000000000000000000002B
:104D880001000000000000000E33CDAB34126DE6C8
:104D9800ECDE05000B000000000000000000000031
:104DA80000000000000000000000000000000000FB
:104DB80000000000000000000000000000000000EB
:104DC80000000000000000000000000000000000DB
:104DD80000000000000000000000000000000000CB
:105108008001014013010000010000009B570000CE
:1051180009000000D8040020000000000000000082
:1051280000000000000000000000000000400140F6
:1051380015020000020000009D5700000A00000050
:105148000000000000000000000000000000000057
:10515800000000000050014016020000020000009C
:10516800995700000B00000000000000000000003C
:1051780000000000000000000000000000E0004007
:1051880040E0004080E00040C0E0004000E1004016
:1051980040E10040E80400203805002030040020E9
:1051A8005C0400208404002000000140400001400D
:1051B80000F0004040F0004080E100401100000095
:1051C800010000009C57000007000000AC0400200C
:1051D80000000000000000000000000000000000C7
:1051E80000000000000000000000000000000000B7
:1051F80000000000000000000000000000000000A7
:10520800000000000000000080F1004012010000D2
:10521800010000009857000008000000E00400208A
:105228000000000000000000000000000000000076
:105238000000000000A001401723000000B001405A
:1052480018240000640500206C050020A0A002407E
:105258000700000040A1024007000000E0A1024052
:105268000700000020A3024007000000C0A302407E
:1052780007000000B00500200006002050060020AE
:1052880000300040F80A002020AA44000000000076
:105298000000000000000000000000000000000006
:1052A80000000000000000000000000000000000F6
:1052B80000000000000000000000000000000000E6
:1052C8000000000000000000000000000B012F009B
:1052D80000000040040B002020AA44000000000049
:1052E80000000000000000000000000000000000B6
:1052F80000000000000000000000000000000000A6
:105308000000000000000000000000000000000095
:1053180000000000000000000000000008021B0060
:1053280000100040100B002020AA440000000000DC
:105338000000000000000000000000000000000065
:105348000000000000000000000000000000000055
:105358000000000000000000000000000000000045
:1053680000000000000000000000000009031C000D
:105378000200000000000000000000000000000023
:105388000500FF0B00000000000000000000000006
:105398000400FF0A000000000000000000000000F8
:1053A8000700FF0D000000000000000000000000E2
:1053B8000600FF0C000000000000000000000000D4
:1053C8000900FF00000000000000000000000000CD
:1053D8000800FF0E000000000000000000000000B0
:1053E8000900FF0F0000000000000000000000009E
:1053F8000A00FF100000000000000000000000008C
:105408000A00FF000000000000000000000000008B
:105418000B00FF000000000000000000000000007A
:105428000300FF0000000000000000000000000072
:105438000200FF0000000000000000000000000063
:105448000100FF0000000000000000000000000054
:105458000000FF0000000000000000000000000045
:105468000000000000000000000000000000000034
:105478000100010000000000000000000000000022
:105488000200020000000000000000000000000010
:1054980003000300000000000000000000000000FE
:1054A80004000400000000000000000000000000EC
:1054B80005000500000000000000000000000000DA
:1054C8000600FF00000000000000000000000000CF
:1054D80007000600000000000000000000000000B7
:1054E8000D02FF00000000000000000000000000A6
:1054F8000E01FF0000000000000000000000000096
:105508000F02FF0C00000000000000000000000077
:105518000000FF0000000000000000000000000084
:105528000200FF0000000000000000000000000072
:105538000000020100000000000000000000000060
:10554800010001020000000000000000000000004F
:10555800020000030000000000000000000000003E
:105568000300FF040000000000000000000000002D
:105578000400FF050000000000000000000000001B
:105588000500FF0600000000000000000000000009
:105598000600FF07000000000000000000000000F7
:1055A8000700FF08000000000000000000000000E5
:1055B8000800FF00000000000000000000000000DC
:1055C8000B00FF00000000000000000000000000C9
:1055D8000C00FF00000000000000000000000000B8
:1055E8000D00FF00000000000000000000000000A7
:1055F8000E00FF0000000000000000000000000096
:105608000800070000000000000000000000000083
:105618000B0109000000000000000000000000006D
:1056280001000B0000000000000000000000000066
:1056380003000C0000000000000000000000000053
:1056480004000D0000000000000000000000000041
:1056580005000E000000000000000000000000002F
:1056680006000F000000000000000000000000001D
:1056780007000B0000000000000000000000000010
:1056880008010A00000000000000000000000000FF
:1056980009020900000000000000000000000000EE
:1056A8000A010800000000000000000000000000DF
:1056B8000B020700000000000000000000000000CE
:1056C8000C000600000000000000000000000000C0
:1056D8000D000500000000000000000000000000B0
:1056E8000E000400000000000000000000000000A0
:1056F8000F00030000000000000000000000000090
:105708000C00FF0001030000C05800000100000069
:10571800880B002001000000A80B002001000000F9
:10572800900B002002000000480B0020020000003F
:10573800580B002002000000680B00200103000045
:10574800B058000001000000980B00200100000084
:10575800A00B002002000000780B002002000000CF
:10576800B00B002002030000C8580000010300002D
:10577800A058000001030000A85800000103000021
:08578800B858000032000000D7
:1057900043000000080000201916171A18141500FD
:1057A0007C050020840500208C0500209405002045
:1057B0009C0500206C69626D61706C652F73696D6A
:1057C0003375312F75736172742E6300636C6F6370
:1057D0006B5F7370656564007769726973682F48E1
:1057E0006172647761726553657269616C2E637072
:1057F000700062617564203C3D20746869732D3EC1
:1058000075736172745F6465766963652D3E6D6161
:10581000785F626175640000000000000000000015
:105820009F2700008B290000A52900000000000030
:105830007769726973682F48617264776172655421
:10584000696D65722E63707000746869732D3E64B3
:10585000657620213D204E554C4C00776972697366
:10586000682F70776D2E6370700064657620262631
:105870002063635F6368616E6E656C00776972694F
:1058800073682F73696D3375312F77697269736827
:105890005F6469676974616C2E637070003000002A
:1058A000FF00000000000000FF00000000000000FA
:1058B000FF00000000000000FF00000000000000EA
:1058C000FF00000000000000FF00000000000000DA
:1058D000FF000000000000000000000000000000C9
:1058E0009D27000049320000000000000000000079
:1058F0005D320000613200001B5B324A0000000094
:10590000180C00201C0C0020200C0020240C00206F
:10591000280C00204100096E3A2000096D65616E77
:105920003A20000976617269616E63653A20002D44
:1059300020436F6D6D616E642050726F6365737389
:105940006F723A000A0A2D205379735469636B0011
:1059500053797374656D2054696D653A2000352064
:105960006D732064656C617920746573743A206D81
:1059700065617375726564200075730A002D20419E
:105980004443000A2D2054696D657273005072659E
:105990007363616C6572733A2054312D00207C2052
:1059A00054322D00207C2054332D00207C20543490
:1059B0002D00207C2054352D004F766572666C6F6B
:1059C000772056616C7565733A2054312D00436F12
:1059D0006D706172652056616C7565733A20543143
:1059E00043312D00207C20543143322D00207C2077
:1059F000543243312D00207C20543243322D00207C
:105A00007C20543543312D0049525120436F756E2F
:105A10007465723A20000A2D204558544900202010
:105A2000286C617374206368616E676564206279B5
:105A30002050696E2044000C094578616D706C65DA
:105A40002050726F6772616D007E7E7E7E7E7E7EEC
:105A50007E7E7E7E7E7E7E7E7E7E7E7E7E7E7E7E66
:105A60007E7E7E7E7E7E7E7E7E7E7E7E7E7E7E00D4
:105A7000426F6172642066726571656E63793A2067
:105A800000202A2054696D65727309443330202D3B
:105A9000204433352C2041312C20443232202D201B
:105AA0004432342C2041392C2041313100202A202D
:105AB0004144430973656520414443206F75747008
:105AC00075742070696E7300202A205379735469AD
:105AD000636B00202A20554152543200202A204571
:105AE0005854490973686F72742044333820262053
:105AF00044333900456E746572203120746F206321
:105B00006F6E74726F6C2054696D657273007E7E67
:105B10007E7E7E7E7E7E7E7E7E7E7E7E7E7E7E7EA5
:105B20007E7E7E7E7E7E7E7E7E7E7E7E7E7E7E7E95
:105B30007E7E7E7E0A0A00302D706175736520318D
:105B40002D726573756D6520322D70726573636C8F
:105B500020332D6F76666C6F7720342D636D7072F5
:105B6000202E657869743A2000456E746572207441
:105B7000696D657220233A200D00456E74657220B0
:105B800063686E6C233A200D0055736520746F2096
:105B90006368616E67653A20272D272C272B272CF9
:0C5BA0003C6F746865723E00D84C000039
:04000003000025D5FF
:00000001FF
